{
  "address": "0x6f12482d9869303b998c54d91bcd8bccba81f3be",
  "abi": [
    {
      "inputs": [
        {
          "internalType": "address",
          "name": "_core",
          "type": "address"
        }
      ],
      "stateMutability": "nonpayable",
      "type": "constructor"
    },
    {
      "anonymous": false,
      "inputs": [
        {
          "indexed": true,
          "internalType": "address",
          "name": "_core",
          "type": "address"
        }
      ],
      "name": "CoreUpdate",
      "type": "event"
    },
    {
      "anonymous": false,
      "inputs": [
        {
          "indexed": true,
          "internalType": "address",
          "name": "token0",
          "type": "address"
        },
        {
          "indexed": true,
          "internalType": "address",
          "name": "token1",
          "type": "address"
        },
        {
          "indexed": false,
          "internalType": "address",
          "name": "pair",
          "type": "address"
        },
        {
          "indexed": false,
          "internalType": "uint256",
          "name": "",
          "type": "uint256"
        }
      ],
      "name": "PairCreated",
      "type": "event"
    },
    {
      "anonymous": false,
      "inputs": [
        {
          "indexed": false,
          "internalType": "address",
          "name": "account",
          "type": "address"
        }
      ],
      "name": "Paused",
      "type": "event"
    },
    {
      "anonymous": false,
      "inputs": [
        {
          "indexed": false,
          "internalType": "address",
          "name": "account",
          "type": "address"
        }
      ],
      "name": "Unpaused",
      "type": "event"
    },
    {
      "inputs": [],
      "name": "MASTER_ROLE",
      "outputs": [
        {
          "internalType": "bytes32",
          "name": "",
          "type": "bytes32"
        }
      ],
      "stateMutability": "view",
      "type": "function"
    },
    {
      "inputs": [],
      "name": "TIMELOCK_ROLE",
      "outputs": [
        {
          "internalType": "bytes32",
          "name": "",
          "type": "bytes32"
        }
      ],
      "stateMutability": "view",
      "type": "function"
    },
    {
      "inputs": [
        {
          "internalType": "uint256",
          "name": "",
          "type": "uint256"
        }
      ],
      "name": "allPairs",
      "outputs": [
        {
          "internalType": "address",
          "name": "",
          "type": "address"
        }
      ],
      "stateMutability": "view",
      "type": "function"
    },
    {
      "inputs": [],
      "name": "allPairsLength",
      "outputs": [
        {
          "internalType": "uint256",
          "name": "",
          "type": "uint256"
        }
      ],
      "stateMutability": "view",
      "type": "function"
    },
    {
      "inputs": [],
      "name": "core",
      "outputs": [
        {
          "internalType": "contract ICore",
          "name": "",
          "type": "address"
        }
      ],
      "stateMutability": "view",
      "type": "function"
    },
    {
      "inputs": [
        {
          "internalType": "address",
          "name": "tokenA",
          "type": "address"
        },
        {
          "internalType": "address",
          "name": "tokenB",
          "type": "address"
        }
      ],
      "name": "createPair",
      "outputs": [
        {
          "internalType": "address",
          "name": "pair",
          "type": "address"
        }
      ],
      "stateMutability": "nonpayable",
      "type": "function"
    },
    {
      "inputs": [
        {
          "internalType": "address",
          "name": "_pair",
          "type": "address"
        }
      ],
      "name": "fee",
      "outputs": [
        {
          "internalType": "address",
          "name": "",
          "type": "address"
        },
        {
          "internalType": "bool",
          "name": "",
          "type": "bool"
        },
        {
          "internalType": "uint256",
          "name": "",
          "type": "uint256"
        }
      ],
      "stateMutability": "view",
      "type": "function"
    },
    {
      "inputs": [],
      "name": "feeScale",
      "outputs": [
        {
          "internalType": "uint256",
          "name": "",
          "type": "uint256"
        }
      ],
      "stateMutability": "view",
      "type": "function"
    },
    {
      "inputs": [
        {
          "internalType": "address",
          "name": "",
          "type": "address"
        }
      ],
      "name": "feeSpec",
      "outputs": [
        {
          "internalType": "uint256",
          "name": "",
          "type": "uint256"
        }
      ],
      "stateMutability": "view",
      "type": "function"
    },
    {
      "inputs": [],
      "name": "feeStakeScale",
      "outputs": [
        {
          "internalType": "uint256",
          "name": "",
          "type": "uint256"
        }
      ],
      "stateMutability": "view",
      "type": "function"
    },
    {
      "inputs": [],
      "name": "feeTo",
      "outputs": [
        {
          "internalType": "address",
          "name": "",
          "type": "address"
        }
      ],
      "stateMutability": "view",
      "type": "function"
    },
    {
      "inputs": [
        {
          "internalType": "address",
          "name": "",
          "type": "address"
        },
        {
          "internalType": "address",
          "name": "",
          "type": "address"
        }
      ],
      "name": "getPair",
      "outputs": [
        {
          "internalType": "address",
          "name": "",
          "type": "address"
        }
      ],
      "stateMutability": "view",
      "type": "function"
    },
    {
      "inputs": [],
      "name": "getPairInitCode",
      "outputs": [
        {
          "internalType": "bytes32",
          "name": "",
          "type": "bytes32"
        }
      ],
      "stateMutability": "pure",
      "type": "function"
    },
    {
      "inputs": [],
      "name": "pause",
      "outputs": [],
      "stateMutability": "nonpayable",
      "type": "function"
    },
    {
      "inputs": [],
      "name": "paused",
      "outputs": [
        {
          "internalType": "bool",
          "name": "",
          "type": "bool"
        }
      ],
      "stateMutability": "view",
      "type": "function"
    },
    {
      "inputs": [
        {
          "internalType": "address",
          "name": "core_",
          "type": "address"
        }
      ],
      "name": "setCore",
      "outputs": [],
      "stateMutability": "nonpayable",
      "type": "function"
    },
    {
      "inputs": [],
      "name": "setFeeNoSpec",
      "outputs": [],
      "stateMutability": "nonpayable",
      "type": "function"
    },
    {
      "inputs": [
        {
          "internalType": "uint256",
          "name": "_feeScale",
          "type": "uint256"
        }
      ],
      "name": "setFeeScale",
      "outputs": [],
      "stateMutability": "nonpayable",
      "type": "function"
    },
    {
      "inputs": [
        {
          "internalType": "address",
          "name": "_pair",
          "type": "address"
        },
        {
          "internalType": "uint256",
          "name": "_feeScale",
          "type": "uint256"
        }
      ],
      "name": "setFeeSpec",
      "outputs": [],
      "stateMutability": "nonpayable",
      "type": "function"
    },
    {
      "inputs": [
        {
          "internalType": "uint256",
          "name": "_feeStakeScale",
          "type": "uint256"
        }
      ],
      "name": "setFeeStakeScale",
      "outputs": [],
      "stateMutability": "nonpayable",
      "type": "function"
    },
    {
      "inputs": [
        {
          "internalType": "address",
          "name": "_feeTo",
          "type": "address"
        }
      ],
      "name": "setFeeTo",
      "outputs": [],
      "stateMutability": "nonpayable",
      "type": "function"
    },
    {
      "inputs": [],
      "name": "unpause",
      "outputs": [],
      "stateMutability": "nonpayable",
      "type": "function"
    }
  ],
  "transactionHash": "0x22c32a465b9c39ae8ddede0b8db13f77926d17a7e9ecc625268dcff5e59a8ea7",
  "args": [
    "0xf4801Defa6fFd29C7CF51c6aC68F056B95DA6Fce"
  ],
  "solcInputHash": "1f09b7e33c313fb0c9ad64378c3a9188",
  "bytecode": "0x60806040526103e5600255600560035534801561001b57600080fd5b506040516140813803806140818339818101604052602081101561003e57600080fd5b5051600080546001600160a81b0319166101006001600160a01b03909316928302178155600180546001600160a01b031916909217909155613ffb90819061008690396000f3fe608060405234801561001057600080fd5b50600436106101825760003560e01c80638797a496116100d8578063c9c653961161008c578063f288a2e211610066578063f288a2e2146103fc578063f2f4eb2614610404578063f46901ed1461040c57610182565b8063c9c653961461037e578063dc224863146103b9578063e6a43905146103c157610182565b8063ac6ba350116100bd578063ac6ba35014610351578063b68738661461036e578063ba5ad85d1461037657610182565b80638797a4961461034157806395f39ba41461034957610182565b8063574f2ba31161013a57806370ea24791161011457806370ea2479146102e957806380009630146103065780638456cb591461033957610182565b8063574f2ba31461025d5780635c975abb146102655780636fcca69b1461028157610182565b80633f4ba83a1161016b5780633f4ba83a146101d55780634544ed82146101df57806357497f991461022457610182565b8063017e7e58146101875780631e3dd18b146101b8575b600080fd5b61018f61043f565b6040805173ffffffffffffffffffffffffffffffffffffffff9092168252519081900360200190f35b61018f600480360360208110156101ce57600080fd5b503561045b565b6101dd61048f565b005b610212600480360360208110156101f557600080fd5b503573ffffffffffffffffffffffffffffffffffffffff1661059b565b60408051918252519081900360200190f35b6101dd6004803603604081101561023a57600080fd5b5073ffffffffffffffffffffffffffffffffffffffff81351690602001356105ad565b6102126106f2565b61026d6106f8565b604080519115158252519081900360200190f35b6102b46004803603602081101561029757600080fd5b503573ffffffffffffffffffffffffffffffffffffffff16610701565b6040805173ffffffffffffffffffffffffffffffffffffffff9094168452911515602084015282820152519081900360600190f35b6101dd600480360360208110156102ff57600080fd5b50356107fd565b6101dd6004803603602081101561031c57600080fd5b503573ffffffffffffffffffffffffffffffffffffffff1661091e565b6101dd610a6e565b6101dd610b78565b610212610ced565b6101dd6004803603602081101561036757600080fd5b5035610cf3565b610212610e1f565b610212610e25565b61018f6004803603604081101561039457600080fd5b5073ffffffffffffffffffffffffffffffffffffffff81358116916020013516610edb565b61021261127f565b61018f600480360360408110156103d757600080fd5b5073ffffffffffffffffffffffffffffffffffffffff813581169160200135166112a3565b6102126112d6565b61018f6112fa565b6101dd6004803603602081101561042257600080fd5b503573ffffffffffffffffffffffffffffffffffffffff1661131b565b60015473ffffffffffffffffffffffffffffffffffffffff1681565b6004818154811061046857fe5b60009182526020909120015473ffffffffffffffffffffffffffffffffffffffff16905081565b600054604080517f91d148540000000000000000000000000000000000000000000000000000000081527ff66846415d2bf9eabda9e84793ff9c0ea96d87f50fc41e66aa16469c6a442f056004820152336024820152905161010090920473ffffffffffffffffffffffffffffffffffffffff16916391d1485491604480820192602092909190829003018186803b15801561052a57600080fd5b505afa15801561053e573d6000803e3d6000fd5b505050506040513d602081101561055457600080fd5b50516105915760405162461bcd60e51b815260040180806020018281038252602f815260200180613f6c602f913960400191505060405180910390fd5b61059961143e565b565b60056020526000908152604090205481565b600054604080517fe43581b8000000000000000000000000000000000000000000000000000000008152336004820152905161010090920473ffffffffffffffffffffffffffffffffffffffff169163e43581b891602480820192602092909190829003018186803b15801561062257600080fd5b505afa158015610636573d6000803e3d6000fd5b505050506040513d602081101561064c57600080fd5b50516106895760405162461bcd60e51b815260040180806020018281038252602f815260200180613ec5602f913960400191505060405180910390fd5b6103e881106106c95760405162461bcd60e51b815260040180806020018281038252602b815260200180613f9b602b913960400191505060405180910390fd5b73ffffffffffffffffffffffffffffffffffffffff909116600090815260056020526040902055565b60045490565b60005460ff1690565b6000808073ffffffffffffffffffffffffffffffffffffffff84166107575760405162461bcd60e51b8152600401808060200182810382526022815260200180613e116022913960400191505060405180910390fd5b60025460015473ffffffffffffffffffffffffffffffffffffffff1661078057506103e86107d3565b73ffffffffffffffffffffffffffffffffffffffff8516600090815260056020526040902054156107d3575073ffffffffffffffffffffffffffffffffffffffff84166000908152600560205260409020545b60015473ffffffffffffffffffffffffffffffffffffffff16956103e88214159550909350915050565b600054604080517fe43581b8000000000000000000000000000000000000000000000000000000008152336004820152905161010090920473ffffffffffffffffffffffffffffffffffffffff169163e43581b891602480820192602092909190829003018186803b15801561087257600080fd5b505afa158015610886573d6000803e3d6000fd5b505050506040513d602081101561089c57600080fd5b50516108d95760405162461bcd60e51b815260040180806020018281038252602f815260200180613ec5602f913960400191505060405180910390fd5b6103e881106109195760405162461bcd60e51b815260040180806020018281038252602c815260200180613e99602c913960400191505060405180910390fd5b600255565b600054604080517fe43581b8000000000000000000000000000000000000000000000000000000008152336004820152905161010090920473ffffffffffffffffffffffffffffffffffffffff169163e43581b891602480820192602092909190829003018186803b15801561099357600080fd5b505afa1580156109a7573d6000803e3d6000fd5b505050506040513d60208110156109bd57600080fd5b50516109fa5760405162461bcd60e51b815260040180806020018281038252602f815260200180613ec5602f913960400191505060405180910390fd5b600080547fffffffffffffffffffffff0000000000000000000000000000000000000000ff1661010073ffffffffffffffffffffffffffffffffffffffff841690810291909117825560405190917fad9400e618eb1344fde53db22397a1b82c765527ecbba3a5c86bcac15090828b91a250565b600054604080517f91d148540000000000000000000000000000000000000000000000000000000081527ff66846415d2bf9eabda9e84793ff9c0ea96d87f50fc41e66aa16469c6a442f056004820152336024820152905161010090920473ffffffffffffffffffffffffffffffffffffffff16916391d1485491604480820192602092909190829003018186803b158015610b0957600080fd5b505afa158015610b1d573d6000803e3d6000fd5b505050506040513d6020811015610b3357600080fd5b5051610b705760405162461bcd60e51b815260040180806020018281038252602f815260200180613f6c602f913960400191505060405180910390fd5b610599611512565b600054604080517fe43581b8000000000000000000000000000000000000000000000000000000008152336004820152905161010090920473ffffffffffffffffffffffffffffffffffffffff169163e43581b891602480820192602092909190829003018186803b158015610bed57600080fd5b505afa158015610c01573d6000803e3d6000fd5b505050506040513d6020811015610c1757600080fd5b5051610c545760405162461bcd60e51b815260040180806020018281038252602f815260200180613ec5602f913960400191505060405180910390fd5b600454610c925760405162461bcd60e51b8152600401808060200182810382526027815260200180613f456027913960400191505060405180910390fd5b60005b600454811015610cea576005600060048381548110610cb057fe5b600091825260208083209091015473ffffffffffffffffffffffffffffffffffffffff168352820192909252604001812055600101610c95565b50565b60025481565b600054604080517fe43581b8000000000000000000000000000000000000000000000000000000008152336004820152905161010090920473ffffffffffffffffffffffffffffffffffffffff169163e43581b891602480820192602092909190829003018186803b158015610d6857600080fd5b505afa158015610d7c573d6000803e3d6000fd5b505050506040513d6020811015610d9257600080fd5b5051610dcf5760405162461bcd60e51b815260040180806020018281038252602f815260200180613ec5602f913960400191505060405180910390fd5b606481108015610ddf5750600081115b610e1a5760405162461bcd60e51b8152600401808060200182810382526036815260200180613e336036913960400191505060405180910390fd5b600355565b60035481565b600060405180602001610e37906115c0565b6020820181038252601f19601f820116604052506040516020018082805190602001908083835b60208310610e9b57805182527fffffffffffffffffffffffffffffffffffffffffffffffffffffffffffffffe09092019160209182019101610e5e565b6001836020036101000a03801982511681845116808217855250505050505090500191505060405160208183030381529060405280519060200120905090565b60008173ffffffffffffffffffffffffffffffffffffffff168373ffffffffffffffffffffffffffffffffffffffff161415610f485760405162461bcd60e51b8152600401808060200182810382526030815260200180613e696030913960400191505060405180910390fd5b6000808373ffffffffffffffffffffffffffffffffffffffff168573ffffffffffffffffffffffffffffffffffffffff1610610f85578385610f88565b84845b909250905073ffffffffffffffffffffffffffffffffffffffff8216610fdf5760405162461bcd60e51b8152600401808060200182810382526029815260200180613f1c6029913960400191505060405180910390fd5b73ffffffffffffffffffffffffffffffffffffffff8281166000908152600660209081526040808320858516845290915290205416156110505760405162461bcd60e51b8152600401808060200182810382526028815260200180613ef46028913960400191505060405180910390fd5b606060405180602001611062906115c0565b6020820181038252601f19601f82011660405250905060008383604051602001808373ffffffffffffffffffffffffffffffffffffffff1660601b81526014018273ffffffffffffffffffffffffffffffffffffffff1660601b815260140192505050604051602081830303815290604052805190602001209050808251602084016000f594508473ffffffffffffffffffffffffffffffffffffffff1663485cc95585856040518363ffffffff1660e01b8152600401808373ffffffffffffffffffffffffffffffffffffffff1681526020018273ffffffffffffffffffffffffffffffffffffffff16815260200192505050600060405180830381600087803b15801561117057600080fd5b505af1158015611184573d6000803e3d6000fd5b5050505073ffffffffffffffffffffffffffffffffffffffff84811660008181526006602081815260408084208987168086529083528185208054978d167fffffffffffffffffffffffff000000000000000000000000000000000000000098891681179091559383528185208686528352818520805488168517905560048054600181018255958190527f8a35acfbc15ff81a39ae7d344fd709f28e8600b4aa8c65c6b64bfe7fe36bd19b90950180549097168417909655925483519283529082015281517f0d3648bd0f6ba80134a33ba9275ac585d9d315f0ad8355cddefde31afa28d0e9929181900390910190a35050505092915050565b7f8b8c0776df2c2176edf6f82391c35ea4891146d7a976ee36fd07f1a6fb4ead4c81565b600660209081526000928352604080842090915290825290205473ffffffffffffffffffffffffffffffffffffffff1681565b7ff66846415d2bf9eabda9e84793ff9c0ea96d87f50fc41e66aa16469c6a442f0581565b600054610100900473ffffffffffffffffffffffffffffffffffffffff1690565b600054604080517fe43581b8000000000000000000000000000000000000000000000000000000008152336004820152905161010090920473ffffffffffffffffffffffffffffffffffffffff169163e43581b891602480820192602092909190829003018186803b15801561139057600080fd5b505afa1580156113a4573d6000803e3d6000fd5b505050506040513d60208110156113ba57600080fd5b50516113f75760405162461bcd60e51b815260040180806020018281038252602f815260200180613ec5602f913960400191505060405180910390fd5b600180547fffffffffffffffffffffffff00000000000000000000000000000000000000001673ffffffffffffffffffffffffffffffffffffffff92909216919091179055565b6114466106f8565b611497576040805162461bcd60e51b815260206004820152601460248201527f5061757361626c653a206e6f7420706175736564000000000000000000000000604482015290519081900360640190fd5b600080547fffffffffffffffffffffffffffffffffffffffffffffffffffffffffffffff001690557f5db9ee0a495bf2e6ff9c91a7834c1ba4fdd244a5e8aa4e537bd38aeae4b073aa6114e86115bc565b6040805173ffffffffffffffffffffffffffffffffffffffff9092168252519081900360200190a1565b61151a6106f8565b1561156c576040805162461bcd60e51b815260206004820152601060248201527f5061757361626c653a2070617573656400000000000000000000000000000000604482015290519081900360640190fd5b600080547fffffffffffffffffffffffffffffffffffffffffffffffffffffffffffffff001660011790557f62e78cea01bee320cd4e420270b5ea74000d11b0c9f74754ebdbfc544b05a2586114e85b3390565b612843806115ce8339019056fe60806040526001600c5534801561001557600080fd5b50604080518082018252600d81526c26b0b939902628102a37b5b2b760991b6020918201528151808301835260018152603160f81b9082015281517f8b73c3c69bb8fe3d512ecc4cf759cc79239f7b179b0ffacaa9a75d522b39400f818301527fdead479d1cc78720387fb7524f642cc7dba28f5ccdf2ed2e584fa2637f3658b7818401527fc89efdaa54c0f20c7adf612882df0950f5a951637e0307cdcb4c672f298b8bc660608201524660808201523060a0808301919091528351808303909101815260c09091019092528151910120600355600580546001600160a01b031916331790556127388061010b6000396000f3fe608060405234801561001057600080fd5b50600436106101b95760003560e01c80636d9a640a116100f9578063ba9a7a5611610097578063d21220a711610071578063d21220a7146104f1578063d505accf146104f9578063dd62ed3e1461054a578063fff6cae914610578576101b9565b8063ba9a7a56146104bb578063bc25cf77146104c3578063c45a0155146104e9576101b9565b80637ecebe00116100d35780637ecebe001461042257806389afcb441461044857806395d89b4114610487578063a9059cbb1461048f576101b9565b80636d9a640a146103c257806370a08231146103f45780637464fc3d1461041a576101b9565b806330adf81f11610166578063485cc95511610140578063485cc9551461035c5780635909c0d51461038c5780635a3d5493146103945780636a6278421461039c576101b9565b806330adf81f1461032e578063313ce567146103365780633644e51514610354576101b9565b80630dfe1681116101975780630dfe1681146102ba57806318160ddd146102de57806323b872dd146102f8576101b9565b806306fdde03146101be5780630902f1ac1461023b578063095ea7b31461027a575b600080fd5b6101c6610580565b6040805160208082528351818301528351919283929083019185019080838360005b838110156102005781810151838201526020016101e8565b50505050905090810190601f16801561022d5780820380516001836020036101000a031916815260200191505b509250505060405180910390f35b6102436105b9565b604080516dffffffffffffffffffffffffffff948516815292909316602083015263ffffffff168183015290519081900360600190f35b6102a66004803603604081101561029057600080fd5b506001600160a01b03813516906020013561060e565b604080519115158252519081900360200190f35b6102c2610625565b604080516001600160a01b039092168252519081900360200190f35b6102e6610634565b60408051918252519081900360200190f35b6102a66004803603606081101561030e57600080fd5b506001600160a01b0381358116916020810135909116906040013561063a565b6102e66106ec565b61033e610710565b6040805160ff9092168252519081900360200190f35b6102e6610715565b61038a6004803603604081101561037257600080fd5b506001600160a01b038135811691602001351661071b565b005b6102e66107aa565b6102e66107b0565b6102e6600480360360208110156103b257600080fd5b50356001600160a01b03166107b6565b61038a600480360360608110156103d857600080fd5b50803590602081013590604001356001600160a01b0316610b0c565b6102e66004803603602081101561040a57600080fd5b50356001600160a01b031661108b565b6102e66110aa565b6102e66004803603602081101561043857600080fd5b50356001600160a01b03166110b0565b61046e6004803603602081101561045e57600080fd5b50356001600160a01b03166110c2565b6040805192835260208301919091528051918290030190f35b6101c66114de565b6102a6600480360360408110156104a557600080fd5b506001600160a01b038135169060200135611517565b6102e6611524565b61038a600480360360208110156104d957600080fd5b50356001600160a01b031661152a565b6102c26116d6565b6102c26116e5565b61038a600480360360e081101561050f57600080fd5b506001600160a01b03813581169160208101359091169060408101359060608101359060ff6080820135169060a08101359060c001356116f4565b6102e66004803603604081101561056057600080fd5b506001600160a01b038135811691602001351661170c565b61038a611737565b6040518060400160405280600d81526020017f4d617273204c5020546f6b656e0000000000000000000000000000000000000081525081565b6008546dffffffffffffffffffffffffffff808216926e0100000000000000000000000000008304909116917c0100000000000000000000000000000000000000000000000000000000900463ffffffff1690565b600061061b3384846118e9565b5060015b92915050565b6006546001600160a01b031681565b60025490565b6001600160a01b03831660009081526001602090815260408083203384529091528120547fffffffffffffffffffffffffffffffffffffffffffffffffffffffffffffffff146106d7576001600160a01b03841660009081526001602090815260408083203384529091529020546106b2908361194b565b6001600160a01b03851660009081526001602090815260408083203384529091529020555b6106e28484846119a8565b5060019392505050565b7f6e71edae12b1b97f4d1f60370fef10105fa2faae0126114a169c64845d6126c981565b601281565b60035481565b6005546001600160a01b031633146107645760405162461bcd60e51b81526004018080602001828103825260238152602001806126346023913960400191505060405180910390fd5b600680546001600160a01b039384167fffffffffffffffffffffffff00000000000000000000000000000000000000009182161790915560078054929093169116179055565b60095481565b600a5481565b6000600c5460011461080f576040805162461bcd60e51b815260206004820152601a60248201527f4d61727353776170506169723a3a6c6f636b3a204c6f636b6564000000000000604482015290519081900360640190fd5b6000600c8190558061081f6105b9565b50600654604080517f70a0823100000000000000000000000000000000000000000000000000000000815230600482015290519395509193506000926001600160a01b03909116916370a08231916024808301926020929190829003018186803b15801561088c57600080fd5b505afa1580156108a0573d6000803e3d6000fd5b505050506040513d60208110156108b657600080fd5b5051600754604080517f70a0823100000000000000000000000000000000000000000000000000000000815230600482015290519293506000926001600160a01b03909216916370a0823191602480820192602092909190829003018186803b15801561092257600080fd5b505afa158015610936573d6000803e3d6000fd5b505050506040513d602081101561094c57600080fd5b50519050600061096c836dffffffffffffffffffffffffffff871661194b565b9050600061098a836dffffffffffffffffffffffffffff871661194b565b905060006109988787611a54565b905060006109a4610634565b9050806109dd576109c96103e86109c36109be8787611c29565b611c89565b9061194b565b98506109d860006103e8611cda565b610a2e565b610a2b6dffffffffffffffffffffffffffff89166109fb8684611c29565b81610a0257fe5b046dffffffffffffffffffffffffffff8916610a1e8685611c29565b81610a2557fe5b04611d63565b98505b60008911610a6d5760405162461bcd60e51b81526004018080602001828103825260318152602001806126a46031913960400191505060405180910390fd5b610a778a8a611cda565b610a8386868a8a611d79565b8115610abf57600854610abb906dffffffffffffffffffffffffffff808216916e010000000000000000000000000000900416611c29565b600b555b6040805185815260208101859052815133927f4c209b5fc8ad50758f13e2e1088ba56a560dff690a1c6fef26394f4c03821c4f928290030190a250506001600c5550949695505050505050565b600c54600114610b63576040805162461bcd60e51b815260206004820152601a60248201527f4d61727353776170506169723a3a6c6f636b3a204c6f636b6564000000000000604482015290519081900360640190fd5b6000600c5582151580610b765750600082115b610bb15760405162461bcd60e51b815260040180806020018281038252602e8152602001806126d5602e913960400191505060405180910390fd5b600080610bbc6105b9565b5091509150816dffffffffffffffffffffffffffff1685108015610bef5750806dffffffffffffffffffffffffffff1684105b610c2a5760405162461bcd60e51b815260040180806020018281038252602a81526020018061260a602a913960400191505060405180910390fd5b60065460075460009182916001600160a01b03918216919081169087168214801590610c685750806001600160a01b0316876001600160a01b031614155b610cb9576040805162461bcd60e51b815260206004820152601e60248201527f4d61727353776170506169723a3a737761703a20496e76616c696420746f0000604482015290519081900360640190fd5b8815610cca57610cca82888b612015565b8715610cdb57610cdb81888a612015565b604080517f70a0823100000000000000000000000000000000000000000000000000000000815230600482015290516001600160a01b038416916370a08231916024808301926020929190829003018186803b158015610d3a57600080fd5b505afa158015610d4e573d6000803e3d6000fd5b505050506040513d6020811015610d6457600080fd5b5051604080517f70a0823100000000000000000000000000000000000000000000000000000000815230600482015290519195506001600160a01b038316916370a0823191602480820192602092909190829003018186803b158015610dc957600080fd5b505afa158015610ddd573d6000803e3d6000fd5b505050506040513d6020811015610df357600080fd5b5051925060009150506dffffffffffffffffffffffffffff85168890038311610e1d576000610e33565b87856dffffffffffffffffffffffffffff160383035b9050600087856dffffffffffffffffffffffffffff16038311610e57576000610e6d565b87856dffffffffffffffffffffffffffff160383035b600554604080517f6fcca69b00000000000000000000000000000000000000000000000000000000815230600482015290519293506000926001600160a01b0390921691636fcca69b91602480820192606092909190829003018186803b158015610ed757600080fd5b505afa158015610eeb573d6000803e3d6000fd5b505050506040513d6060811015610f0157600080fd5b506040015190506000610f166103e88361194b565b90506000841180610f275750600083115b610f625760405162461bcd60e51b815260040180806020018281038252602d815260200180612584602d913960400191505060405180910390fd5b6000610f7d610f718684611c29565b6109c3896103e8611c29565b90506000610f8e610f718685611c29565b9050610fba620f4240610fb46dffffffffffffffffffffffffffff8d8116908d16611c29565b90611c29565b610fc48383611c29565b1015611017576040805162461bcd60e51b815260206004820152601560248201527f4d61727353776170506169723a3a737761703a204b0000000000000000000000604482015290519081900360640190fd5b505061102586868a8a611d79565b60408051858152602081018590528082018d9052606081018c905290516001600160a01b038b169133917fd78ad95fa46c994b6551d0da85fc275fe613ce37657fb8d5e3d130840159d8229181900360800190a350506001600c55505050505050505050565b6001600160a01b0381166000908152602081905260409020545b919050565b600b5481565b60046020526000908152604090205481565b600080600c5460011461111c576040805162461bcd60e51b815260206004820152601a60248201527f4d61727353776170506169723a3a6c6f636b3a204c6f636b6564000000000000604482015290519081900360640190fd5b6000600c8190558061112c6105b9565b50600654600754604080517f70a0823100000000000000000000000000000000000000000000000000000000815230600482015290519496509294506001600160a01b039182169391169160009184916370a08231916024808301926020929190829003018186803b1580156111a157600080fd5b505afa1580156111b5573d6000803e3d6000fd5b505050506040513d60208110156111cb57600080fd5b5051604080517f70a0823100000000000000000000000000000000000000000000000000000000815230600482015290519192506000916001600160a01b038516916370a08231916024808301926020929190829003018186803b15801561123257600080fd5b505afa158015611246573d6000803e3d6000fd5b505050506040513d602081101561125c57600080fd5b50519050600061126b3061108b565b905060006112798888611a54565b90506000611285610634565b9050806112928487611c29565b8161129957fe5b049a50806112a78486611c29565b816112ae57fe5b04995060008b1180156112c1575060008a115b6112fc5760405162461bcd60e51b81526004018080602001828103825260318152602001806125d96031913960400191505060405180910390fd5b61130630846121e5565b611311878d8d612015565b61131c868d8c612015565b604080517f70a0823100000000000000000000000000000000000000000000000000000000815230600482015290516001600160a01b038916916370a08231916024808301926020929190829003018186803b15801561137b57600080fd5b505afa15801561138f573d6000803e3d6000fd5b505050506040513d60208110156113a557600080fd5b5051604080517f70a0823100000000000000000000000000000000000000000000000000000000815230600482015290519196506001600160a01b038816916370a0823191602480820192602092909190829003018186803b15801561140a57600080fd5b505afa15801561141e573d6000803e3d6000fd5b505050506040513d602081101561143457600080fd5b5051935061144485858b8b611d79565b81156114805760085461147c906dffffffffffffffffffffffffffff808216916e010000000000000000000000000000900416611c29565b600b555b604080518c8152602081018c905281516001600160a01b038f169233927fdccd412f0b1252819cb1fd330b93224ca42612892bb3f4f789976e6d81936496929081900390910190a35050505050505050506001600c81905550915091565b6040518060400160405280600381526020017f4d4c50000000000000000000000000000000000000000000000000000000000081525081565b600061061b3384846119a8565b6103e881565b600c54600114611581576040805162461bcd60e51b815260206004820152601a60248201527f4d61727353776170506169723a3a6c6f636b3a204c6f636b6564000000000000604482015290519081900360640190fd5b6000600c55600654600754600854604080517f70a0823100000000000000000000000000000000000000000000000000000000815230600482015290516001600160a01b03948516949093169261164a9285928792611645926dffffffffffffffffffffffffffff169185916370a0823191602480820192602092909190829003018186803b15801561161357600080fd5b505afa158015611627573d6000803e3d6000fd5b505050506040513d602081101561163d57600080fd5b50519061194b565b612015565b6116cc81846116456008600e9054906101000a90046dffffffffffffffffffffffffffff166dffffffffffffffffffffffffffff16856001600160a01b03166370a08231306040518263ffffffff1660e01b815260040180826001600160a01b0316815260200191505060206040518083038186803b15801561161357600080fd5b50506001600c5550565b6005546001600160a01b031681565b6007546001600160a01b031681565b61170387878787878787612276565b50505050505050565b6001600160a01b03918216600090815260016020908152604080832093909416825291909152205490565b600c5460011461178e576040805162461bcd60e51b815260206004820152601a60248201527f4d61727353776170506169723a3a6c6f636b3a204c6f636b6564000000000000604482015290519081900360640190fd5b6000600c55600654604080517f70a0823100000000000000000000000000000000000000000000000000000000815230600482015290516118e2926001600160a01b0316916370a08231916024808301926020929190829003018186803b1580156117f857600080fd5b505afa15801561180c573d6000803e3d6000fd5b505050506040513d602081101561182257600080fd5b5051600754604080517f70a0823100000000000000000000000000000000000000000000000000000000815230600482015290516001600160a01b03909216916370a0823191602480820192602092909190829003018186803b15801561188857600080fd5b505afa15801561189c573d6000803e3d6000fd5b505050506040513d60208110156118b257600080fd5b50516008546dffffffffffffffffffffffffffff808216916e010000000000000000000000000000900416611d79565b6001600c55565b6001600160a01b03808416600081815260016020908152604080832094871680845294825291829020859055815185815291517f8c5be1e5ebec7d5bd14f71427d1e84f3dd0314c0f7b2291e5b200ac8c7c3b9259281900390910190a3505050565b6000828211156119a2576040805162461bcd60e51b815260206004820152601e60248201527f536166654d6174683a207375627472616374696f6e206f766572666c6f770000604482015290519081900360640190fd5b50900390565b6001600160a01b0383166000908152602081905260409020546119cb908261194b565b6001600160a01b0380851660009081526020819052604080822093909355908416815220546119fa90826124c4565b6001600160a01b038084166000818152602081815260409182902094909455805185815290519193928716927fddf252ad1be2c89b69c2b068fc378daa952ba7f163c4a11628f55a4df523b3ef92918290030190a3505050565b600554604080517f6fcca69b0000000000000000000000000000000000000000000000000000000081523060048201529051600092839283926001600160a01b0390921691636fcca69b91602480820192606092909190829003018186803b158015611abf57600080fd5b505afa158015611ad3573d6000803e3d6000fd5b505050506040513d6060811015611ae957600080fd5b508051602090910151600b5491935091508115611c14578015611c0f576000611b286109be6dffffffffffffffffffffffffffff898116908916611c29565b90506000611b3583611c89565b905080821115611c0c576000611b56611b4e848461194b565b610fb4610634565b90506000611be883611be2600560009054906101000a90046001600160a01b03166001600160a01b031663b68738666040518163ffffffff1660e01b815260040160206040518083038186803b158015611baf57600080fd5b505afa158015611bc3573d6000803e3d6000fd5b505050506040513d6020811015611bd957600080fd5b50518790611c29565b906124c4565b90506000818381611bf557fe5b0490508015611c0857611c088882611cda565b5050505b50505b611c20565b8015611c20576000600b555b50949350505050565b600082611c385750600061061f565b82820282848281611c4557fe5b0414611c825760405162461bcd60e51b81526004018080602001828103825260218152602001806126576021913960400191505060405180910390fd5b9392505050565b60006003821115611ccc575080600160028204015b81811015611cc657809150600281828581611cb557fe5b040181611cbe57fe5b049050611c9e565b506110a5565b81156110a557506001919050565b600254611ce790826124c4565b6002556001600160a01b038216600090815260208190526040902054611d0d90826124c4565b6001600160a01b0383166000818152602081815260408083209490945583518581529351929391927fddf252ad1be2c89b69c2b068fc378daa952ba7f163c4a11628f55a4df523b3ef9281900390910190a35050565b6000818310611d725781611c82565b5090919050565b6dffffffffffffffffffffffffffff8411801590611da557506dffffffffffffffffffffffffffff8311155b611df6576040805162461bcd60e51b815260206004820152601f60248201527f4d61727353776170506169723a3a5f7570646174653a204f766572666c6f7700604482015290519081900360640190fd5b60085463ffffffff428116917c010000000000000000000000000000000000000000000000000000000090048116820390811615801590611e4657506dffffffffffffffffffffffffffff841615155b8015611e6157506dffffffffffffffffffffffffffff831615155b15611f0b578063ffffffff16611e9e85611e7a8661251e565b7bffffffffffffffffffffffffffffffffffffffffffffffffffffffff1690612542565b600980547bffffffffffffffffffffffffffffffffffffffffffffffffffffffff929092169290920201905563ffffffff8116611ede84611e7a8761251e565b600a80547bffffffffffffffffffffffffffffffffffffffffffffffffffffffff92909216929092020190555b600880547fffffffffffffffffffffffffffffffffffff0000000000000000000000000000166dffffffffffffffffffffffffffff888116919091177fffffffff0000000000000000000000000000ffffffffffffffffffffffffffff166e0100000000000000000000000000008883168102919091177bffffffffffffffffffffffffffffffffffffffffffffffffffffffff167c010000000000000000000000000000000000000000000000000000000063ffffffff871602179283905560408051848416815291909304909116602082015281517f1c411e9a96e071241c2f21f7726b17ae89e3cab4c78be50e062b03a9fffbbad1929181900390910190a1505050505050565b604080518082018252601981527f7472616e7366657228616464726573732c75696e74323536290000000000000060209182015281516001600160a01b0385811660248301526044808301869052845180840390910181526064909201845291810180517bffffffffffffffffffffffffffffffffffffffffffffffffffffffff167fa9059cbb000000000000000000000000000000000000000000000000000000001781529251815160009460609489169392918291908083835b6020831061210e57805182527fffffffffffffffffffffffffffffffffffffffffffffffffffffffffffffffe090920191602091820191016120d1565b6001836020036101000a0380198251168184511680821785525050505050509050019150506000604051808303816000865af19150503d8060008114612170576040519150601f19603f3d011682016040523d82523d6000602084013e612175565b606091505b50915091508180156121a35750805115806121a357508080602001905160208110156121a057600080fd5b50515b6121de5760405162461bcd60e51b815260040180806020018281038252602c815260200180612678602c913960400191505060405180910390fd5b5050505050565b6001600160a01b038216600090815260208190526040902054612208908261194b565b6001600160a01b03831660009081526020819052604090205560025461222e908261194b565b6002556040805182815290516000916001600160a01b038516917fddf252ad1be2c89b69c2b068fc378daa952ba7f163c4a11628f55a4df523b3ef9181900360200190a35050565b428410156122cb576040805162461bcd60e51b815260206004820152601e60248201527f4d6172735377617045524332303a3a7065726d69743a20457870697265640000604482015290519081900360640190fd5b6003546001600160a01b0380891660008181526004602090815260408083208054600180820190925582517f6e71edae12b1b97f4d1f60370fef10105fa2faae0126114a169c64845d6126c98186015280840196909652958d166060860152608085018c905260a085019590955260c08085018b90528151808603909101815260e0850182528051908301207f19010000000000000000000000000000000000000000000000000000000000006101008601526101028501969096526101228085019690965280518085039096018652610142840180825286519683019690962095839052610162840180825286905260ff89166101828501526101a284018890526101c28401879052519193926101e2808201937fffffffffffffffffffffffffffffffffffffffffffffffffffffffffffffffe081019281900390910190855afa15801561241f573d6000803e3d6000fd5b50506040517fffffffffffffffffffffffffffffffffffffffffffffffffffffffffffffffe001519150506001600160a01b038116158015906124735750886001600160a01b0316816001600160a01b0316145b6124ae5760405162461bcd60e51b81526004018080602001828103825260288152602001806125b16028913960400191505060405180910390fd5b6124b98989896118e9565b505050505050505050565b600082820183811015611c82576040805162461bcd60e51b815260206004820152601b60248201527f536166654d6174683a206164646974696f6e206f766572666c6f770000000000604482015290519081900360640190fd5b6dffffffffffffffffffffffffffff166e0100000000000000000000000000000290565b60006dffffffffffffffffffffffffffff82167bffffffffffffffffffffffffffffffffffffffffffffffffffffffff84168161257b57fe5b04939250505056fe4d61727353776170506169723a3a737761703a20496e73756666696369656e7420696e70757420616d6f756e744d6172735377617045524332303a3a7065726d69743a20496e76616c6964207369676e61747572654d61727353776170506169723a3a6275726e3a20496e73756666696369656e74206c6971756964697479206275726e65644d61727353776170506169723a3a737761703a20496e73756666696369656e74206c69717569646974794d61727353776170506169723a3a696e697469616c697a653a20466f7262696464656e536166654d6174683a206d756c7469706c69636174696f6e206f766572666c6f774d61727353776170506169723a3a5f736166655472616e736665723a205472616e73666572206661696c65644d61727353776170506169723a3a6d696e743a20496e73756666696369656e74206c6971756964697479206d696e7465644d61727353776170506169723a3a737761703a20496e73756666696369656e74206f757470757420616d6f756e74a264697066735822122084348d031a87bc784131014291ff415096818acf2adb63a1993f339e57d6612964736f6c634300060c00334d61727353776170466163746f72793a3a6665653a205a65726f20616464726573734d61727353776170466163746f72793a3a7365744665655374616b655363616c653a204572726f72206665655374616b655363616c654d61727353776170466163746f72793a3a637265617465506169723a204964656e746963616c206164647265737365734d61727353776170466163746f72793a3a7365744665655363616c653a204572726f72206665655363616c65436f72655265663a3a6f6e6c79476f7665726e6f723a2043616c6c6572206973206e6f74206120676f7665726e6f724d61727353776170466163746f72793a3a637265617465506169723a2050616972206578697374734d61727353776170466163746f72793a3a637265617465506169723a205a65726f20616464726573734d61727353776170466163746f72793a3a7365744665654e6f537065633a204e6f207061697273436f72655265663a3a6f6e6c7954696d656c6f636b3a2043616c6c6572206973206e6f7420612074696d656c6f636b4d61727353776170466163746f72793a3a736574466565537065633a204572726f72206665655363616c65a2646970667358221220713465000f29db5688779fd8adfb903335c46a527e15e801966ee6eda207df5b64736f6c634300060c0033",
  "devdoc": {
    "kind": "dev",
    "methods": {
      "paused()": {
        "details": "Returns true if the contract is paused, and false otherwise."
      }
    },
    "version": 1
  },
  "userdoc": {
    "kind": "user",
    "methods": {},
    "version": 1
  },
  "storageLayout": {
    "storage": [
      {
        "astId": 2370,
        "contract": "contracts/swap/MarsSwapFactory.sol:MarsSwapFactory",
        "label": "_paused",
        "offset": 0,
        "slot": "0",
        "type": "t_bool"
      },
      {
        "astId": 14142,
        "contract": "contracts/swap/MarsSwapFactory.sol:MarsSwapFactory",
        "label": "_core",
        "offset": 1,
        "slot": "0",
        "type": "t_contract(ICore)9768"
      },
      {
        "astId": 14753,
        "contract": "contracts/swap/MarsSwapFactory.sol:MarsSwapFactory",
        "label": "feeTo",
        "offset": 0,
        "slot": "1",
        "type": "t_address"
      },
      {
        "astId": 14757,
        "contract": "contracts/swap/MarsSwapFactory.sol:MarsSwapFactory",
        "label": "feeScale",
        "offset": 0,
        "slot": "2",
        "type": "t_uint256"
      },
      {
        "astId": 14761,
        "contract": "contracts/swap/MarsSwapFactory.sol:MarsSwapFactory",
        "label": "feeStakeScale",
        "offset": 0,
        "slot": "3",
        "type": "t_uint256"
      },
      {
        "astId": 14765,
        "contract": "contracts/swap/MarsSwapFactory.sol:MarsSwapFactory",
        "label": "allPairs",
        "offset": 0,
        "slot": "4",
        "type": "t_array(t_address)dyn_storage"
      },
      {
        "astId": 14769,
        "contract": "contracts/swap/MarsSwapFactory.sol:MarsSwapFactory",
        "label": "feeSpec",
        "offset": 0,
        "slot": "5",
        "type": "t_mapping(t_address,t_uint256)"
      },
      {
        "astId": 14776,
        "contract": "contracts/swap/MarsSwapFactory.sol:MarsSwapFactory",
        "label": "getPair",
        "offset": 0,
        "slot": "6",
        "type": "t_mapping(t_address,t_mapping(t_address,t_address))"
      }
    ],
    "types": {
      "t_address": {
        "encoding": "inplace",
        "label": "address",
        "numberOfBytes": "20"
      },
      "t_array(t_address)dyn_storage": {
        "base": "t_address",
        "encoding": "dynamic_array",
        "label": "address[]",
        "numberOfBytes": "32"
      },
      "t_bool": {
        "encoding": "inplace",
        "label": "bool",
        "numberOfBytes": "1"
      },
      "t_contract(ICore)9768": {
        "encoding": "inplace",
        "label": "contract ICore",
        "numberOfBytes": "20"
      },
      "t_mapping(t_address,t_address)": {
        "encoding": "mapping",
        "key": "t_address",
        "label": "mapping(address => address)",
        "numberOfBytes": "32",
        "value": "t_address"
      },
      "t_mapping(t_address,t_mapping(t_address,t_address))": {
        "encoding": "mapping",
        "key": "t_address",
        "label": "mapping(address => mapping(address => address))",
        "numberOfBytes": "32",
        "value": "t_mapping(t_address,t_address)"
      },
      "t_mapping(t_address,t_uint256)": {
        "encoding": "mapping",
        "key": "t_address",
        "label": "mapping(address => uint256)",
        "numberOfBytes": "32",
        "value": "t_uint256"
      },
      "t_uint256": {
        "encoding": "inplace",
        "label": "uint256",
        "numberOfBytes": "32"
      }
    }
  }
}