{
  "address": "0x33d0f2419224586096F065C6b19838d19b5C00f7",
  "abi": [
    {
      "inputs": [],
      "stateMutability": "nonpayable",
      "type": "constructor"
    },
    {
      "anonymous": false,
      "inputs": [
        {
          "indexed": true,
          "internalType": "address",
          "name": "owner",
          "type": "address"
        },
        {
          "indexed": true,
          "internalType": "address",
          "name": "spender",
          "type": "address"
        },
        {
          "indexed": false,
          "internalType": "uint256",
          "name": "value",
          "type": "uint256"
        }
      ],
      "name": "Approval",
      "type": "event"
    },
    {
      "anonymous": false,
      "inputs": [
        {
          "indexed": true,
          "internalType": "address",
          "name": "sender",
          "type": "address"
        },
        {
          "indexed": false,
          "internalType": "uint256",
          "name": "amount0",
          "type": "uint256"
        },
        {
          "indexed": false,
          "internalType": "uint256",
          "name": "amount1",
          "type": "uint256"
        },
        {
          "indexed": true,
          "internalType": "address",
          "name": "to",
          "type": "address"
        }
      ],
      "name": "Burn",
      "type": "event"
    },
    {
      "anonymous": false,
      "inputs": [
        {
          "indexed": true,
          "internalType": "address",
          "name": "sender",
          "type": "address"
        },
        {
          "indexed": false,
          "internalType": "uint256",
          "name": "amount0",
          "type": "uint256"
        },
        {
          "indexed": false,
          "internalType": "uint256",
          "name": "amount1",
          "type": "uint256"
        }
      ],
      "name": "Mint",
      "type": "event"
    },
    {
      "anonymous": false,
      "inputs": [
        {
          "indexed": true,
          "internalType": "address",
          "name": "sender",
          "type": "address"
        },
        {
          "indexed": false,
          "internalType": "uint256",
          "name": "amount0In",
          "type": "uint256"
        },
        {
          "indexed": false,
          "internalType": "uint256",
          "name": "amount1In",
          "type": "uint256"
        },
        {
          "indexed": false,
          "internalType": "uint256",
          "name": "amount0Out",
          "type": "uint256"
        },
        {
          "indexed": false,
          "internalType": "uint256",
          "name": "amount1Out",
          "type": "uint256"
        },
        {
          "indexed": true,
          "internalType": "address",
          "name": "to",
          "type": "address"
        }
      ],
      "name": "Swap",
      "type": "event"
    },
    {
      "anonymous": false,
      "inputs": [
        {
          "indexed": false,
          "internalType": "uint112",
          "name": "reserve0",
          "type": "uint112"
        },
        {
          "indexed": false,
          "internalType": "uint112",
          "name": "reserve1",
          "type": "uint112"
        }
      ],
      "name": "Sync",
      "type": "event"
    },
    {
      "anonymous": false,
      "inputs": [
        {
          "indexed": true,
          "internalType": "address",
          "name": "from",
          "type": "address"
        },
        {
          "indexed": true,
          "internalType": "address",
          "name": "to",
          "type": "address"
        },
        {
          "indexed": false,
          "internalType": "uint256",
          "name": "value",
          "type": "uint256"
        }
      ],
      "name": "Transfer",
      "type": "event"
    },
    {
      "inputs": [],
      "name": "DOMAIN_SEPARATOR",
      "outputs": [
        {
          "internalType": "bytes32",
          "name": "",
          "type": "bytes32"
        }
      ],
      "stateMutability": "view",
      "type": "function"
    },
    {
      "inputs": [],
      "name": "MINIMUM_LIQUIDITY",
      "outputs": [
        {
          "internalType": "uint256",
          "name": "",
          "type": "uint256"
        }
      ],
      "stateMutability": "view",
      "type": "function"
    },
    {
      "inputs": [],
      "name": "PERMIT_TYPEHASH",
      "outputs": [
        {
          "internalType": "bytes32",
          "name": "",
          "type": "bytes32"
        }
      ],
      "stateMutability": "view",
      "type": "function"
    },
    {
      "inputs": [
        {
          "internalType": "address",
          "name": "owner",
          "type": "address"
        },
        {
          "internalType": "address",
          "name": "spender",
          "type": "address"
        }
      ],
      "name": "allowance",
      "outputs": [
        {
          "internalType": "uint256",
          "name": "",
          "type": "uint256"
        }
      ],
      "stateMutability": "view",
      "type": "function"
    },
    {
      "inputs": [
        {
          "internalType": "address",
          "name": "spender",
          "type": "address"
        },
        {
          "internalType": "uint256",
          "name": "value",
          "type": "uint256"
        }
      ],
      "name": "approve",
      "outputs": [
        {
          "internalType": "bool",
          "name": "",
          "type": "bool"
        }
      ],
      "stateMutability": "nonpayable",
      "type": "function"
    },
    {
      "inputs": [
        {
          "internalType": "address",
          "name": "account",
          "type": "address"
        }
      ],
      "name": "balanceOf",
      "outputs": [
        {
          "internalType": "uint256",
          "name": "",
          "type": "uint256"
        }
      ],
      "stateMutability": "view",
      "type": "function"
    },
    {
      "inputs": [
        {
          "internalType": "address",
          "name": "to",
          "type": "address"
        }
      ],
      "name": "burn",
      "outputs": [
        {
          "internalType": "uint256",
          "name": "amount0",
          "type": "uint256"
        },
        {
          "internalType": "uint256",
          "name": "amount1",
          "type": "uint256"
        }
      ],
      "stateMutability": "nonpayable",
      "type": "function"
    },
    {
      "inputs": [],
      "name": "decimals",
      "outputs": [
        {
          "internalType": "uint8",
          "name": "",
          "type": "uint8"
        }
      ],
      "stateMutability": "view",
      "type": "function"
    },
    {
      "inputs": [],
      "name": "factory",
      "outputs": [
        {
          "internalType": "address",
          "name": "",
          "type": "address"
        }
      ],
      "stateMutability": "view",
      "type": "function"
    },
    {
      "inputs": [],
      "name": "getReserves",
      "outputs": [
        {
          "internalType": "uint112",
          "name": "_reserve0",
          "type": "uint112"
        },
        {
          "internalType": "uint112",
          "name": "_reserve1",
          "type": "uint112"
        },
        {
          "internalType": "uint32",
          "name": "_blockTimestampLast",
          "type": "uint32"
        }
      ],
      "stateMutability": "view",
      "type": "function"
    },
    {
      "inputs": [
        {
          "internalType": "address",
          "name": "_token0",
          "type": "address"
        },
        {
          "internalType": "address",
          "name": "_token1",
          "type": "address"
        }
      ],
      "name": "initialize",
      "outputs": [],
      "stateMutability": "nonpayable",
      "type": "function"
    },
    {
      "inputs": [],
      "name": "kLast",
      "outputs": [
        {
          "internalType": "uint256",
          "name": "",
          "type": "uint256"
        }
      ],
      "stateMutability": "view",
      "type": "function"
    },
    {
      "inputs": [
        {
          "internalType": "address",
          "name": "to",
          "type": "address"
        }
      ],
      "name": "mint",
      "outputs": [
        {
          "internalType": "uint256",
          "name": "liquidity",
          "type": "uint256"
        }
      ],
      "stateMutability": "nonpayable",
      "type": "function"
    },
    {
      "inputs": [],
      "name": "name",
      "outputs": [
        {
          "internalType": "string",
          "name": "",
          "type": "string"
        }
      ],
      "stateMutability": "view",
      "type": "function"
    },
    {
      "inputs": [
        {
          "internalType": "address",
          "name": "",
          "type": "address"
        }
      ],
      "name": "nonces",
      "outputs": [
        {
          "internalType": "uint256",
          "name": "",
          "type": "uint256"
        }
      ],
      "stateMutability": "view",
      "type": "function"
    },
    {
      "inputs": [
        {
          "internalType": "address",
          "name": "owner",
          "type": "address"
        },
        {
          "internalType": "address",
          "name": "spender",
          "type": "address"
        },
        {
          "internalType": "uint256",
          "name": "value",
          "type": "uint256"
        },
        {
          "internalType": "uint256",
          "name": "deadline",
          "type": "uint256"
        },
        {
          "internalType": "uint8",
          "name": "v",
          "type": "uint8"
        },
        {
          "internalType": "bytes32",
          "name": "r",
          "type": "bytes32"
        },
        {
          "internalType": "bytes32",
          "name": "s",
          "type": "bytes32"
        }
      ],
      "name": "permit",
      "outputs": [],
      "stateMutability": "nonpayable",
      "type": "function"
    },
    {
      "inputs": [],
      "name": "price0CumulativeLast",
      "outputs": [
        {
          "internalType": "uint256",
          "name": "",
          "type": "uint256"
        }
      ],
      "stateMutability": "view",
      "type": "function"
    },
    {
      "inputs": [],
      "name": "price1CumulativeLast",
      "outputs": [
        {
          "internalType": "uint256",
          "name": "",
          "type": "uint256"
        }
      ],
      "stateMutability": "view",
      "type": "function"
    },
    {
      "inputs": [
        {
          "internalType": "address",
          "name": "to",
          "type": "address"
        }
      ],
      "name": "skim",
      "outputs": [],
      "stateMutability": "nonpayable",
      "type": "function"
    },
    {
      "inputs": [
        {
          "internalType": "uint256",
          "name": "amount0Out",
          "type": "uint256"
        },
        {
          "internalType": "uint256",
          "name": "amount1Out",
          "type": "uint256"
        },
        {
          "internalType": "address",
          "name": "to",
          "type": "address"
        }
      ],
      "name": "swap",
      "outputs": [],
      "stateMutability": "nonpayable",
      "type": "function"
    },
    {
      "inputs": [],
      "name": "symbol",
      "outputs": [
        {
          "internalType": "string",
          "name": "",
          "type": "string"
        }
      ],
      "stateMutability": "view",
      "type": "function"
    },
    {
      "inputs": [],
      "name": "sync",
      "outputs": [],
      "stateMutability": "nonpayable",
      "type": "function"
    },
    {
      "inputs": [],
      "name": "token0",
      "outputs": [
        {
          "internalType": "address",
          "name": "",
          "type": "address"
        }
      ],
      "stateMutability": "view",
      "type": "function"
    },
    {
      "inputs": [],
      "name": "token1",
      "outputs": [
        {
          "internalType": "address",
          "name": "",
          "type": "address"
        }
      ],
      "stateMutability": "view",
      "type": "function"
    },
    {
      "inputs": [],
      "name": "totalSupply",
      "outputs": [
        {
          "internalType": "uint256",
          "name": "",
          "type": "uint256"
        }
      ],
      "stateMutability": "view",
      "type": "function"
    },
    {
      "inputs": [
        {
          "internalType": "address",
          "name": "to",
          "type": "address"
        },
        {
          "internalType": "uint256",
          "name": "value",
          "type": "uint256"
        }
      ],
      "name": "transfer",
      "outputs": [
        {
          "internalType": "bool",
          "name": "",
          "type": "bool"
        }
      ],
      "stateMutability": "nonpayable",
      "type": "function"
    },
    {
      "inputs": [
        {
          "internalType": "address",
          "name": "from",
          "type": "address"
        },
        {
          "internalType": "address",
          "name": "to",
          "type": "address"
        },
        {
          "internalType": "uint256",
          "name": "value",
          "type": "uint256"
        }
      ],
      "name": "transferFrom",
      "outputs": [
        {
          "internalType": "bool",
          "name": "",
          "type": "bool"
        }
      ],
      "stateMutability": "nonpayable",
      "type": "function"
    }
  ],
  "transactionHash": "0x843c80c90f1abbdb5da0a51fe0f41f96ab342b86f0f9c7a7bce74022a925773b",
  "args": [],
  "solcInputHash": "1f09b7e33c313fb0c9ad64378c3a9188",
  "bytecode": "0x60806040526001600c5534801561001557600080fd5b50604080518082018252600d81526c26b0b939902628102a37b5b2b760991b6020918201528151808301835260018152603160f81b9082015281517f8b73c3c69bb8fe3d512ecc4cf759cc79239f7b179b0ffacaa9a75d522b39400f818301527fdead479d1cc78720387fb7524f642cc7dba28f5ccdf2ed2e584fa2637f3658b7818401527fc89efdaa54c0f20c7adf612882df0950f5a951637e0307cdcb4c672f298b8bc660608201524660808201523060a0808301919091528351808303909101815260c09091019092528151910120600355600580546001600160a01b031916331790556127388061010b6000396000f3fe608060405234801561001057600080fd5b50600436106101b95760003560e01c80636d9a640a116100f9578063ba9a7a5611610097578063d21220a711610071578063d21220a7146104f1578063d505accf146104f9578063dd62ed3e1461054a578063fff6cae914610578576101b9565b8063ba9a7a56146104bb578063bc25cf77146104c3578063c45a0155146104e9576101b9565b80637ecebe00116100d35780637ecebe001461042257806389afcb441461044857806395d89b4114610487578063a9059cbb1461048f576101b9565b80636d9a640a146103c257806370a08231146103f45780637464fc3d1461041a576101b9565b806330adf81f11610166578063485cc95511610140578063485cc9551461035c5780635909c0d51461038c5780635a3d5493146103945780636a6278421461039c576101b9565b806330adf81f1461032e578063313ce567146103365780633644e51514610354576101b9565b80630dfe1681116101975780630dfe1681146102ba57806318160ddd146102de57806323b872dd146102f8576101b9565b806306fdde03146101be5780630902f1ac1461023b578063095ea7b31461027a575b600080fd5b6101c6610580565b6040805160208082528351818301528351919283929083019185019080838360005b838110156102005781810151838201526020016101e8565b50505050905090810190601f16801561022d5780820380516001836020036101000a031916815260200191505b509250505060405180910390f35b6102436105b9565b604080516dffffffffffffffffffffffffffff948516815292909316602083015263ffffffff168183015290519081900360600190f35b6102a66004803603604081101561029057600080fd5b506001600160a01b03813516906020013561060e565b604080519115158252519081900360200190f35b6102c2610625565b604080516001600160a01b039092168252519081900360200190f35b6102e6610634565b60408051918252519081900360200190f35b6102a66004803603606081101561030e57600080fd5b506001600160a01b0381358116916020810135909116906040013561063a565b6102e66106ec565b61033e610710565b6040805160ff9092168252519081900360200190f35b6102e6610715565b61038a6004803603604081101561037257600080fd5b506001600160a01b038135811691602001351661071b565b005b6102e66107aa565b6102e66107b0565b6102e6600480360360208110156103b257600080fd5b50356001600160a01b03166107b6565b61038a600480360360608110156103d857600080fd5b50803590602081013590604001356001600160a01b0316610b0c565b6102e66004803603602081101561040a57600080fd5b50356001600160a01b031661108b565b6102e66110aa565b6102e66004803603602081101561043857600080fd5b50356001600160a01b03166110b0565b61046e6004803603602081101561045e57600080fd5b50356001600160a01b03166110c2565b6040805192835260208301919091528051918290030190f35b6101c66114de565b6102a6600480360360408110156104a557600080fd5b506001600160a01b038135169060200135611517565b6102e6611524565b61038a600480360360208110156104d957600080fd5b50356001600160a01b031661152a565b6102c26116d6565b6102c26116e5565b61038a600480360360e081101561050f57600080fd5b506001600160a01b03813581169160208101359091169060408101359060608101359060ff6080820135169060a08101359060c001356116f4565b6102e66004803603604081101561056057600080fd5b506001600160a01b038135811691602001351661170c565b61038a611737565b6040518060400160405280600d81526020017f4d617273204c5020546f6b656e0000000000000000000000000000000000000081525081565b6008546dffffffffffffffffffffffffffff808216926e0100000000000000000000000000008304909116917c0100000000000000000000000000000000000000000000000000000000900463ffffffff1690565b600061061b3384846118e9565b5060015b92915050565b6006546001600160a01b031681565b60025490565b6001600160a01b03831660009081526001602090815260408083203384529091528120547fffffffffffffffffffffffffffffffffffffffffffffffffffffffffffffffff146106d7576001600160a01b03841660009081526001602090815260408083203384529091529020546106b2908361194b565b6001600160a01b03851660009081526001602090815260408083203384529091529020555b6106e28484846119a8565b5060019392505050565b7f6e71edae12b1b97f4d1f60370fef10105fa2faae0126114a169c64845d6126c981565b601281565b60035481565b6005546001600160a01b031633146107645760405162461bcd60e51b81526004018080602001828103825260238152602001806126346023913960400191505060405180910390fd5b600680546001600160a01b039384167fffffffffffffffffffffffff00000000000000000000000000000000000000009182161790915560078054929093169116179055565b60095481565b600a5481565b6000600c5460011461080f576040805162461bcd60e51b815260206004820152601a60248201527f4d61727353776170506169723a3a6c6f636b3a204c6f636b6564000000000000604482015290519081900360640190fd5b6000600c8190558061081f6105b9565b50600654604080517f70a0823100000000000000000000000000000000000000000000000000000000815230600482015290519395509193506000926001600160a01b03909116916370a08231916024808301926020929190829003018186803b15801561088c57600080fd5b505afa1580156108a0573d6000803e3d6000fd5b505050506040513d60208110156108b657600080fd5b5051600754604080517f70a0823100000000000000000000000000000000000000000000000000000000815230600482015290519293506000926001600160a01b03909216916370a0823191602480820192602092909190829003018186803b15801561092257600080fd5b505afa158015610936573d6000803e3d6000fd5b505050506040513d602081101561094c57600080fd5b50519050600061096c836dffffffffffffffffffffffffffff871661194b565b9050600061098a836dffffffffffffffffffffffffffff871661194b565b905060006109988787611a54565b905060006109a4610634565b9050806109dd576109c96103e86109c36109be8787611c29565b611c89565b9061194b565b98506109d860006103e8611cda565b610a2e565b610a2b6dffffffffffffffffffffffffffff89166109fb8684611c29565b81610a0257fe5b046dffffffffffffffffffffffffffff8916610a1e8685611c29565b81610a2557fe5b04611d63565b98505b60008911610a6d5760405162461bcd60e51b81526004018080602001828103825260318152602001806126a46031913960400191505060405180910390fd5b610a778a8a611cda565b610a8386868a8a611d79565b8115610abf57600854610abb906dffffffffffffffffffffffffffff808216916e010000000000000000000000000000900416611c29565b600b555b6040805185815260208101859052815133927f4c209b5fc8ad50758f13e2e1088ba56a560dff690a1c6fef26394f4c03821c4f928290030190a250506001600c5550949695505050505050565b600c54600114610b63576040805162461bcd60e51b815260206004820152601a60248201527f4d61727353776170506169723a3a6c6f636b3a204c6f636b6564000000000000604482015290519081900360640190fd5b6000600c5582151580610b765750600082115b610bb15760405162461bcd60e51b815260040180806020018281038252602e8152602001806126d5602e913960400191505060405180910390fd5b600080610bbc6105b9565b5091509150816dffffffffffffffffffffffffffff1685108015610bef5750806dffffffffffffffffffffffffffff1684105b610c2a5760405162461bcd60e51b815260040180806020018281038252602a81526020018061260a602a913960400191505060405180910390fd5b60065460075460009182916001600160a01b03918216919081169087168214801590610c685750806001600160a01b0316876001600160a01b031614155b610cb9576040805162461bcd60e51b815260206004820152601e60248201527f4d61727353776170506169723a3a737761703a20496e76616c696420746f0000604482015290519081900360640190fd5b8815610cca57610cca82888b612015565b8715610cdb57610cdb81888a612015565b604080517f70a0823100000000000000000000000000000000000000000000000000000000815230600482015290516001600160a01b038416916370a08231916024808301926020929190829003018186803b158015610d3a57600080fd5b505afa158015610d4e573d6000803e3d6000fd5b505050506040513d6020811015610d6457600080fd5b5051604080517f70a0823100000000000000000000000000000000000000000000000000000000815230600482015290519195506001600160a01b038316916370a0823191602480820192602092909190829003018186803b158015610dc957600080fd5b505afa158015610ddd573d6000803e3d6000fd5b505050506040513d6020811015610df357600080fd5b5051925060009150506dffffffffffffffffffffffffffff85168890038311610e1d576000610e33565b87856dffffffffffffffffffffffffffff160383035b9050600087856dffffffffffffffffffffffffffff16038311610e57576000610e6d565b87856dffffffffffffffffffffffffffff160383035b600554604080517f6fcca69b00000000000000000000000000000000000000000000000000000000815230600482015290519293506000926001600160a01b0390921691636fcca69b91602480820192606092909190829003018186803b158015610ed757600080fd5b505afa158015610eeb573d6000803e3d6000fd5b505050506040513d6060811015610f0157600080fd5b506040015190506000610f166103e88361194b565b90506000841180610f275750600083115b610f625760405162461bcd60e51b815260040180806020018281038252602d815260200180612584602d913960400191505060405180910390fd5b6000610f7d610f718684611c29565b6109c3896103e8611c29565b90506000610f8e610f718685611c29565b9050610fba620f4240610fb46dffffffffffffffffffffffffffff8d8116908d16611c29565b90611c29565b610fc48383611c29565b1015611017576040805162461bcd60e51b815260206004820152601560248201527f4d61727353776170506169723a3a737761703a204b0000000000000000000000604482015290519081900360640190fd5b505061102586868a8a611d79565b60408051858152602081018590528082018d9052606081018c905290516001600160a01b038b169133917fd78ad95fa46c994b6551d0da85fc275fe613ce37657fb8d5e3d130840159d8229181900360800190a350506001600c55505050505050505050565b6001600160a01b0381166000908152602081905260409020545b919050565b600b5481565b60046020526000908152604090205481565b600080600c5460011461111c576040805162461bcd60e51b815260206004820152601a60248201527f4d61727353776170506169723a3a6c6f636b3a204c6f636b6564000000000000604482015290519081900360640190fd5b6000600c8190558061112c6105b9565b50600654600754604080517f70a0823100000000000000000000000000000000000000000000000000000000815230600482015290519496509294506001600160a01b039182169391169160009184916370a08231916024808301926020929190829003018186803b1580156111a157600080fd5b505afa1580156111b5573d6000803e3d6000fd5b505050506040513d60208110156111cb57600080fd5b5051604080517f70a0823100000000000000000000000000000000000000000000000000000000815230600482015290519192506000916001600160a01b038516916370a08231916024808301926020929190829003018186803b15801561123257600080fd5b505afa158015611246573d6000803e3d6000fd5b505050506040513d602081101561125c57600080fd5b50519050600061126b3061108b565b905060006112798888611a54565b90506000611285610634565b9050806112928487611c29565b8161129957fe5b049a50806112a78486611c29565b816112ae57fe5b04995060008b1180156112c1575060008a115b6112fc5760405162461bcd60e51b81526004018080602001828103825260318152602001806125d96031913960400191505060405180910390fd5b61130630846121e5565b611311878d8d612015565b61131c868d8c612015565b604080517f70a0823100000000000000000000000000000000000000000000000000000000815230600482015290516001600160a01b038916916370a08231916024808301926020929190829003018186803b15801561137b57600080fd5b505afa15801561138f573d6000803e3d6000fd5b505050506040513d60208110156113a557600080fd5b5051604080517f70a0823100000000000000000000000000000000000000000000000000000000815230600482015290519196506001600160a01b038816916370a0823191602480820192602092909190829003018186803b15801561140a57600080fd5b505afa15801561141e573d6000803e3d6000fd5b505050506040513d602081101561143457600080fd5b5051935061144485858b8b611d79565b81156114805760085461147c906dffffffffffffffffffffffffffff808216916e010000000000000000000000000000900416611c29565b600b555b604080518c8152602081018c905281516001600160a01b038f169233927fdccd412f0b1252819cb1fd330b93224ca42612892bb3f4f789976e6d81936496929081900390910190a35050505050505050506001600c81905550915091565b6040518060400160405280600381526020017f4d4c50000000000000000000000000000000000000000000000000000000000081525081565b600061061b3384846119a8565b6103e881565b600c54600114611581576040805162461bcd60e51b815260206004820152601a60248201527f4d61727353776170506169723a3a6c6f636b3a204c6f636b6564000000000000604482015290519081900360640190fd5b6000600c55600654600754600854604080517f70a0823100000000000000000000000000000000000000000000000000000000815230600482015290516001600160a01b03948516949093169261164a9285928792611645926dffffffffffffffffffffffffffff169185916370a0823191602480820192602092909190829003018186803b15801561161357600080fd5b505afa158015611627573d6000803e3d6000fd5b505050506040513d602081101561163d57600080fd5b50519061194b565b612015565b6116cc81846116456008600e9054906101000a90046dffffffffffffffffffffffffffff166dffffffffffffffffffffffffffff16856001600160a01b03166370a08231306040518263ffffffff1660e01b815260040180826001600160a01b0316815260200191505060206040518083038186803b15801561161357600080fd5b50506001600c5550565b6005546001600160a01b031681565b6007546001600160a01b031681565b61170387878787878787612276565b50505050505050565b6001600160a01b03918216600090815260016020908152604080832093909416825291909152205490565b600c5460011461178e576040805162461bcd60e51b815260206004820152601a60248201527f4d61727353776170506169723a3a6c6f636b3a204c6f636b6564000000000000604482015290519081900360640190fd5b6000600c55600654604080517f70a0823100000000000000000000000000000000000000000000000000000000815230600482015290516118e2926001600160a01b0316916370a08231916024808301926020929190829003018186803b1580156117f857600080fd5b505afa15801561180c573d6000803e3d6000fd5b505050506040513d602081101561182257600080fd5b5051600754604080517f70a0823100000000000000000000000000000000000000000000000000000000815230600482015290516001600160a01b03909216916370a0823191602480820192602092909190829003018186803b15801561188857600080fd5b505afa15801561189c573d6000803e3d6000fd5b505050506040513d60208110156118b257600080fd5b50516008546dffffffffffffffffffffffffffff808216916e010000000000000000000000000000900416611d79565b6001600c55565b6001600160a01b03808416600081815260016020908152604080832094871680845294825291829020859055815185815291517f8c5be1e5ebec7d5bd14f71427d1e84f3dd0314c0f7b2291e5b200ac8c7c3b9259281900390910190a3505050565b6000828211156119a2576040805162461bcd60e51b815260206004820152601e60248201527f536166654d6174683a207375627472616374696f6e206f766572666c6f770000604482015290519081900360640190fd5b50900390565b6001600160a01b0383166000908152602081905260409020546119cb908261194b565b6001600160a01b0380851660009081526020819052604080822093909355908416815220546119fa90826124c4565b6001600160a01b038084166000818152602081815260409182902094909455805185815290519193928716927fddf252ad1be2c89b69c2b068fc378daa952ba7f163c4a11628f55a4df523b3ef92918290030190a3505050565b600554604080517f6fcca69b0000000000000000000000000000000000000000000000000000000081523060048201529051600092839283926001600160a01b0390921691636fcca69b91602480820192606092909190829003018186803b158015611abf57600080fd5b505afa158015611ad3573d6000803e3d6000fd5b505050506040513d6060811015611ae957600080fd5b508051602090910151600b5491935091508115611c14578015611c0f576000611b286109be6dffffffffffffffffffffffffffff898116908916611c29565b90506000611b3583611c89565b905080821115611c0c576000611b56611b4e848461194b565b610fb4610634565b90506000611be883611be2600560009054906101000a90046001600160a01b03166001600160a01b031663b68738666040518163ffffffff1660e01b815260040160206040518083038186803b158015611baf57600080fd5b505afa158015611bc3573d6000803e3d6000fd5b505050506040513d6020811015611bd957600080fd5b50518790611c29565b906124c4565b90506000818381611bf557fe5b0490508015611c0857611c088882611cda565b5050505b50505b611c20565b8015611c20576000600b555b50949350505050565b600082611c385750600061061f565b82820282848281611c4557fe5b0414611c825760405162461bcd60e51b81526004018080602001828103825260218152602001806126576021913960400191505060405180910390fd5b9392505050565b60006003821115611ccc575080600160028204015b81811015611cc657809150600281828581611cb557fe5b040181611cbe57fe5b049050611c9e565b506110a5565b81156110a557506001919050565b600254611ce790826124c4565b6002556001600160a01b038216600090815260208190526040902054611d0d90826124c4565b6001600160a01b0383166000818152602081815260408083209490945583518581529351929391927fddf252ad1be2c89b69c2b068fc378daa952ba7f163c4a11628f55a4df523b3ef9281900390910190a35050565b6000818310611d725781611c82565b5090919050565b6dffffffffffffffffffffffffffff8411801590611da557506dffffffffffffffffffffffffffff8311155b611df6576040805162461bcd60e51b815260206004820152601f60248201527f4d61727353776170506169723a3a5f7570646174653a204f766572666c6f7700604482015290519081900360640190fd5b60085463ffffffff428116917c010000000000000000000000000000000000000000000000000000000090048116820390811615801590611e4657506dffffffffffffffffffffffffffff841615155b8015611e6157506dffffffffffffffffffffffffffff831615155b15611f0b578063ffffffff16611e9e85611e7a8661251e565b7bffffffffffffffffffffffffffffffffffffffffffffffffffffffff1690612542565b600980547bffffffffffffffffffffffffffffffffffffffffffffffffffffffff929092169290920201905563ffffffff8116611ede84611e7a8761251e565b600a80547bffffffffffffffffffffffffffffffffffffffffffffffffffffffff92909216929092020190555b600880547fffffffffffffffffffffffffffffffffffff0000000000000000000000000000166dffffffffffffffffffffffffffff888116919091177fffffffff0000000000000000000000000000ffffffffffffffffffffffffffff166e0100000000000000000000000000008883168102919091177bffffffffffffffffffffffffffffffffffffffffffffffffffffffff167c010000000000000000000000000000000000000000000000000000000063ffffffff871602179283905560408051848416815291909304909116602082015281517f1c411e9a96e071241c2f21f7726b17ae89e3cab4c78be50e062b03a9fffbbad1929181900390910190a1505050505050565b604080518082018252601981527f7472616e7366657228616464726573732c75696e74323536290000000000000060209182015281516001600160a01b0385811660248301526044808301869052845180840390910181526064909201845291810180517bffffffffffffffffffffffffffffffffffffffffffffffffffffffff167fa9059cbb000000000000000000000000000000000000000000000000000000001781529251815160009460609489169392918291908083835b6020831061210e57805182527fffffffffffffffffffffffffffffffffffffffffffffffffffffffffffffffe090920191602091820191016120d1565b6001836020036101000a0380198251168184511680821785525050505050509050019150506000604051808303816000865af19150503d8060008114612170576040519150601f19603f3d011682016040523d82523d6000602084013e612175565b606091505b50915091508180156121a35750805115806121a357508080602001905160208110156121a057600080fd5b50515b6121de5760405162461bcd60e51b815260040180806020018281038252602c815260200180612678602c913960400191505060405180910390fd5b5050505050565b6001600160a01b038216600090815260208190526040902054612208908261194b565b6001600160a01b03831660009081526020819052604090205560025461222e908261194b565b6002556040805182815290516000916001600160a01b038516917fddf252ad1be2c89b69c2b068fc378daa952ba7f163c4a11628f55a4df523b3ef9181900360200190a35050565b428410156122cb576040805162461bcd60e51b815260206004820152601e60248201527f4d6172735377617045524332303a3a7065726d69743a20457870697265640000604482015290519081900360640190fd5b6003546001600160a01b0380891660008181526004602090815260408083208054600180820190925582517f6e71edae12b1b97f4d1f60370fef10105fa2faae0126114a169c64845d6126c98186015280840196909652958d166060860152608085018c905260a085019590955260c08085018b90528151808603909101815260e0850182528051908301207f19010000000000000000000000000000000000000000000000000000000000006101008601526101028501969096526101228085019690965280518085039096018652610142840180825286519683019690962095839052610162840180825286905260ff89166101828501526101a284018890526101c28401879052519193926101e2808201937fffffffffffffffffffffffffffffffffffffffffffffffffffffffffffffffe081019281900390910190855afa15801561241f573d6000803e3d6000fd5b50506040517fffffffffffffffffffffffffffffffffffffffffffffffffffffffffffffffe001519150506001600160a01b038116158015906124735750886001600160a01b0316816001600160a01b0316145b6124ae5760405162461bcd60e51b81526004018080602001828103825260288152602001806125b16028913960400191505060405180910390fd5b6124b98989896118e9565b505050505050505050565b600082820183811015611c82576040805162461bcd60e51b815260206004820152601b60248201527f536166654d6174683a206164646974696f6e206f766572666c6f770000000000604482015290519081900360640190fd5b6dffffffffffffffffffffffffffff166e0100000000000000000000000000000290565b60006dffffffffffffffffffffffffffff82167bffffffffffffffffffffffffffffffffffffffffffffffffffffffff84168161257b57fe5b04939250505056fe4d61727353776170506169723a3a737761703a20496e73756666696369656e7420696e70757420616d6f756e744d6172735377617045524332303a3a7065726d69743a20496e76616c6964207369676e61747572654d61727353776170506169723a3a6275726e3a20496e73756666696369656e74206c6971756964697479206275726e65644d61727353776170506169723a3a737761703a20496e73756666696369656e74206c69717569646974794d61727353776170506169723a3a696e697469616c697a653a20466f7262696464656e536166654d6174683a206d756c7469706c69636174696f6e206f766572666c6f774d61727353776170506169723a3a5f736166655472616e736665723a205472616e73666572206661696c65644d61727353776170506169723a3a6d696e743a20496e73756666696369656e74206c6971756964697479206d696e7465644d61727353776170506169723a3a737761703a20496e73756666696369656e74206f757470757420616d6f756e74a264697066735822122084348d031a87bc784131014291ff415096818acf2adb63a1993f339e57d6612964736f6c634300060c0033",
  "devdoc": {
    "kind": "dev",
    "methods": {
      "allowance(address,address)": {
        "details": "Returns the remaining number of tokens that `spender` will be allowed to spend on behalf of `owner` through {transferFrom}. This is zero by default. This value changes when {approve} or {transferFrom} are called."
      },
      "balanceOf(address)": {
        "details": "Returns the amount of tokens owned by `account`."
      },
      "totalSupply()": {
        "details": "Returns the amount of tokens in existence."
      }
    },
    "version": 1
  },
  "userdoc": {
    "kind": "user",
    "methods": {},
    "version": 1
  },
  "storageLayout": {
    "storage": [
      {
        "astId": 14345,
        "contract": "contracts/swap/MarsSwapPair.sol:MarsSwapPair",
        "label": "_balances",
        "offset": 0,
        "slot": "0",
        "type": "t_mapping(t_address,t_uint256)"
      },
      {
        "astId": 14351,
        "contract": "contracts/swap/MarsSwapPair.sol:MarsSwapPair",
        "label": "_allowances",
        "offset": 0,
        "slot": "1",
        "type": "t_mapping(t_address,t_mapping(t_address,t_uint256))"
      },
      {
        "astId": 14353,
        "contract": "contracts/swap/MarsSwapPair.sol:MarsSwapPair",
        "label": "_totalSupply",
        "offset": 0,
        "slot": "2",
        "type": "t_uint256"
      },
      {
        "astId": 14355,
        "contract": "contracts/swap/MarsSwapPair.sol:MarsSwapPair",
        "label": "DOMAIN_SEPARATOR",
        "offset": 0,
        "slot": "3",
        "type": "t_bytes32"
      },
      {
        "astId": 14362,
        "contract": "contracts/swap/MarsSwapPair.sol:MarsSwapPair",
        "label": "nonces",
        "offset": 0,
        "slot": "4",
        "type": "t_mapping(t_address,t_uint256)"
      },
      {
        "astId": 15215,
        "contract": "contracts/swap/MarsSwapPair.sol:MarsSwapPair",
        "label": "factory",
        "offset": 0,
        "slot": "5",
        "type": "t_address"
      },
      {
        "astId": 15218,
        "contract": "contracts/swap/MarsSwapPair.sol:MarsSwapPair",
        "label": "token0",
        "offset": 0,
        "slot": "6",
        "type": "t_address"
      },
      {
        "astId": 15221,
        "contract": "contracts/swap/MarsSwapPair.sol:MarsSwapPair",
        "label": "token1",
        "offset": 0,
        "slot": "7",
        "type": "t_address"
      },
      {
        "astId": 15223,
        "contract": "contracts/swap/MarsSwapPair.sol:MarsSwapPair",
        "label": "reserve0",
        "offset": 0,
        "slot": "8",
        "type": "t_uint112"
      },
      {
        "astId": 15225,
        "contract": "contracts/swap/MarsSwapPair.sol:MarsSwapPair",
        "label": "reserve1",
        "offset": 14,
        "slot": "8",
        "type": "t_uint112"
      },
      {
        "astId": 15227,
        "contract": "contracts/swap/MarsSwapPair.sol:MarsSwapPair",
        "label": "blockTimestampLast",
        "offset": 28,
        "slot": "8",
        "type": "t_uint32"
      },
      {
        "astId": 15230,
        "contract": "contracts/swap/MarsSwapPair.sol:MarsSwapPair",
        "label": "price0CumulativeLast",
        "offset": 0,
        "slot": "9",
        "type": "t_uint256"
      },
      {
        "astId": 15233,
        "contract": "contracts/swap/MarsSwapPair.sol:MarsSwapPair",
        "label": "price1CumulativeLast",
        "offset": 0,
        "slot": "10",
        "type": "t_uint256"
      },
      {
        "astId": 15236,
        "contract": "contracts/swap/MarsSwapPair.sol:MarsSwapPair",
        "label": "kLast",
        "offset": 0,
        "slot": "11",
        "type": "t_uint256"
      },
      {
        "astId": 15239,
        "contract": "contracts/swap/MarsSwapPair.sol:MarsSwapPair",
        "label": "unlocked",
        "offset": 0,
        "slot": "12",
        "type": "t_uint256"
      }
    ],
    "types": {
      "t_address": {
        "encoding": "inplace",
        "label": "address",
        "numberOfBytes": "20"
      },
      "t_bytes32": {
        "encoding": "inplace",
        "label": "bytes32",
        "numberOfBytes": "32"
      },
      "t_mapping(t_address,t_mapping(t_address,t_uint256))": {
        "encoding": "mapping",
        "key": "t_address",
        "label": "mapping(address => mapping(address => uint256))",
        "numberOfBytes": "32",
        "value": "t_mapping(t_address,t_uint256)"
      },
      "t_mapping(t_address,t_uint256)": {
        "encoding": "mapping",
        "key": "t_address",
        "label": "mapping(address => uint256)",
        "numberOfBytes": "32",
        "value": "t_uint256"
      },
      "t_uint112": {
        "encoding": "inplace",
        "label": "uint112",
        "numberOfBytes": "14"
      },
      "t_uint256": {
        "encoding": "inplace",
        "label": "uint256",
        "numberOfBytes": "32"
      },
      "t_uint32": {
        "encoding": "inplace",
        "label": "uint32",
        "numberOfBytes": "4"
      }
    }
  }
}