{
  "address": "0x55e71Da3767102C6Ebb1F5851031b373dc904A3f",
  "abi": [
    {
      "inputs": [
        {
          "internalType": "address",
          "name": "_factory",
          "type": "address"
        },
        {
          "internalType": "address",
          "name": "_WETH",
          "type": "address"
        }
      ],
      "stateMutability": "nonpayable",
      "type": "constructor"
    },
    {
      "anonymous": false,
      "inputs": [
        {
          "indexed": true,
          "internalType": "address",
          "name": "previousOwner",
          "type": "address"
        },
        {
          "indexed": true,
          "internalType": "address",
          "name": "newOwner",
          "type": "address"
        }
      ],
      "name": "OwnershipTransferred",
      "type": "event"
    },
    {
      "inputs": [],
      "name": "WETH",
      "outputs": [
        {
          "internalType": "address",
          "name": "",
          "type": "address"
        }
      ],
      "stateMutability": "view",
      "type": "function"
    },
    {
      "inputs": [
        {
          "internalType": "address",
          "name": "tokenA",
          "type": "address"
        },
        {
          "internalType": "address",
          "name": "tokenB",
          "type": "address"
        },
        {
          "internalType": "uint256",
          "name": "amountADesired",
          "type": "uint256"
        },
        {
          "internalType": "uint256",
          "name": "amountBDesired",
          "type": "uint256"
        },
        {
          "internalType": "uint256",
          "name": "amountAMin",
          "type": "uint256"
        },
        {
          "internalType": "uint256",
          "name": "amountBMin",
          "type": "uint256"
        },
        {
          "internalType": "address",
          "name": "to",
          "type": "address"
        },
        {
          "internalType": "uint256",
          "name": "deadline",
          "type": "uint256"
        }
      ],
      "name": "addLiquidity",
      "outputs": [
        {
          "internalType": "uint256",
          "name": "amountA",
          "type": "uint256"
        },
        {
          "internalType": "uint256",
          "name": "amountB",
          "type": "uint256"
        },
        {
          "internalType": "uint256",
          "name": "liquidity",
          "type": "uint256"
        }
      ],
      "stateMutability": "nonpayable",
      "type": "function"
    },
    {
      "inputs": [
        {
          "internalType": "address",
          "name": "token",
          "type": "address"
        },
        {
          "internalType": "uint256",
          "name": "amountTokenDesired",
          "type": "uint256"
        },
        {
          "internalType": "uint256",
          "name": "amountTokenMin",
          "type": "uint256"
        },
        {
          "internalType": "uint256",
          "name": "amountETHMin",
          "type": "uint256"
        },
        {
          "internalType": "address",
          "name": "to",
          "type": "address"
        },
        {
          "internalType": "uint256",
          "name": "deadline",
          "type": "uint256"
        }
      ],
      "name": "addLiquidityETH",
      "outputs": [
        {
          "internalType": "uint256",
          "name": "amountToken",
          "type": "uint256"
        },
        {
          "internalType": "uint256",
          "name": "amountETH",
          "type": "uint256"
        },
        {
          "internalType": "uint256",
          "name": "liquidity",
          "type": "uint256"
        }
      ],
      "stateMutability": "payable",
      "type": "function"
    },
    {
      "inputs": [],
      "name": "factory",
      "outputs": [
        {
          "internalType": "address",
          "name": "",
          "type": "address"
        }
      ],
      "stateMutability": "view",
      "type": "function"
    },
    {
      "inputs": [
        {
          "internalType": "uint256",
          "name": "amountOut",
          "type": "uint256"
        },
        {
          "internalType": "uint256",
          "name": "reserveIn",
          "type": "uint256"
        },
        {
          "internalType": "uint256",
          "name": "reserveOut",
          "type": "uint256"
        },
        {
          "internalType": "uint256",
          "name": "swapFee",
          "type": "uint256"
        }
      ],
      "name": "getAmountIn",
      "outputs": [
        {
          "internalType": "uint256",
          "name": "amountIn",
          "type": "uint256"
        }
      ],
      "stateMutability": "pure",
      "type": "function"
    },
    {
      "inputs": [
        {
          "internalType": "uint256",
          "name": "amountIn",
          "type": "uint256"
        },
        {
          "internalType": "uint256",
          "name": "reserveIn",
          "type": "uint256"
        },
        {
          "internalType": "uint256",
          "name": "reserveOut",
          "type": "uint256"
        },
        {
          "internalType": "uint256",
          "name": "swapFee",
          "type": "uint256"
        }
      ],
      "name": "getAmountOut",
      "outputs": [
        {
          "internalType": "uint256",
          "name": "amountOut",
          "type": "uint256"
        }
      ],
      "stateMutability": "pure",
      "type": "function"
    },
    {
      "inputs": [
        {
          "internalType": "uint256",
          "name": "amountOut",
          "type": "uint256"
        },
        {
          "internalType": "address[]",
          "name": "path",
          "type": "address[]"
        }
      ],
      "name": "getAmountsIn",
      "outputs": [
        {
          "internalType": "uint256[]",
          "name": "amounts",
          "type": "uint256[]"
        }
      ],
      "stateMutability": "view",
      "type": "function"
    },
    {
      "inputs": [
        {
          "internalType": "uint256",
          "name": "amountIn",
          "type": "uint256"
        },
        {
          "internalType": "address[]",
          "name": "path",
          "type": "address[]"
        }
      ],
      "name": "getAmountsOut",
      "outputs": [
        {
          "internalType": "uint256[]",
          "name": "amounts",
          "type": "uint256[]"
        }
      ],
      "stateMutability": "view",
      "type": "function"
    },
    {
      "inputs": [
        {
          "internalType": "address",
          "name": "account",
          "type": "address"
        }
      ],
      "name": "isOwner",
      "outputs": [
        {
          "internalType": "bool",
          "name": "",
          "type": "bool"
        }
      ],
      "stateMutability": "view",
      "type": "function"
    },
    {
      "inputs": [],
      "name": "owner",
      "outputs": [
        {
          "internalType": "address",
          "name": "",
          "type": "address"
        }
      ],
      "stateMutability": "view",
      "type": "function"
    },
    {
      "inputs": [
        {
          "internalType": "uint256",
          "name": "amountA",
          "type": "uint256"
        },
        {
          "internalType": "uint256",
          "name": "reserveA",
          "type": "uint256"
        },
        {
          "internalType": "uint256",
          "name": "reserveB",
          "type": "uint256"
        }
      ],
      "name": "quote",
      "outputs": [
        {
          "internalType": "uint256",
          "name": "amountB",
          "type": "uint256"
        }
      ],
      "stateMutability": "pure",
      "type": "function"
    },
    {
      "inputs": [
        {
          "internalType": "address",
          "name": "tokenA",
          "type": "address"
        },
        {
          "internalType": "address",
          "name": "tokenB",
          "type": "address"
        },
        {
          "internalType": "uint256",
          "name": "liquidity",
          "type": "uint256"
        },
        {
          "internalType": "uint256",
          "name": "amountAMin",
          "type": "uint256"
        },
        {
          "internalType": "uint256",
          "name": "amountBMin",
          "type": "uint256"
        },
        {
          "internalType": "address",
          "name": "to",
          "type": "address"
        },
        {
          "internalType": "uint256",
          "name": "deadline",
          "type": "uint256"
        }
      ],
      "name": "removeLiquidity",
      "outputs": [
        {
          "internalType": "uint256",
          "name": "amountA",
          "type": "uint256"
        },
        {
          "internalType": "uint256",
          "name": "amountB",
          "type": "uint256"
        }
      ],
      "stateMutability": "nonpayable",
      "type": "function"
    },
    {
      "inputs": [
        {
          "internalType": "address",
          "name": "token",
          "type": "address"
        },
        {
          "internalType": "uint256",
          "name": "liquidity",
          "type": "uint256"
        },
        {
          "internalType": "uint256",
          "name": "amountTokenMin",
          "type": "uint256"
        },
        {
          "internalType": "uint256",
          "name": "amountETHMin",
          "type": "uint256"
        },
        {
          "internalType": "address",
          "name": "to",
          "type": "address"
        },
        {
          "internalType": "uint256",
          "name": "deadline",
          "type": "uint256"
        }
      ],
      "name": "removeLiquidityETH",
      "outputs": [
        {
          "internalType": "uint256",
          "name": "amountToken",
          "type": "uint256"
        },
        {
          "internalType": "uint256",
          "name": "amountETH",
          "type": "uint256"
        }
      ],
      "stateMutability": "nonpayable",
      "type": "function"
    },
    {
      "inputs": [
        {
          "internalType": "address",
          "name": "token",
          "type": "address"
        },
        {
          "internalType": "uint256",
          "name": "liquidity",
          "type": "uint256"
        },
        {
          "internalType": "uint256",
          "name": "amountTokenMin",
          "type": "uint256"
        },
        {
          "internalType": "uint256",
          "name": "amountETHMin",
          "type": "uint256"
        },
        {
          "internalType": "address",
          "name": "to",
          "type": "address"
        },
        {
          "internalType": "uint256",
          "name": "deadline",
          "type": "uint256"
        }
      ],
      "name": "removeLiquidityETHSupportingFeeOnTransferTokens",
      "outputs": [
        {
          "internalType": "uint256",
          "name": "amountETH",
          "type": "uint256"
        }
      ],
      "stateMutability": "nonpayable",
      "type": "function"
    },
    {
      "inputs": [
        {
          "internalType": "address",
          "name": "token",
          "type": "address"
        },
        {
          "internalType": "uint256",
          "name": "liquidity",
          "type": "uint256"
        },
        {
          "internalType": "uint256",
          "name": "amountTokenMin",
          "type": "uint256"
        },
        {
          "internalType": "uint256",
          "name": "amountETHMin",
          "type": "uint256"
        },
        {
          "internalType": "address",
          "name": "to",
          "type": "address"
        },
        {
          "internalType": "uint256",
          "name": "deadline",
          "type": "uint256"
        },
        {
          "internalType": "bool",
          "name": "approveMax",
          "type": "bool"
        },
        {
          "internalType": "uint8",
          "name": "v",
          "type": "uint8"
        },
        {
          "internalType": "bytes32",
          "name": "r",
          "type": "bytes32"
        },
        {
          "internalType": "bytes32",
          "name": "s",
          "type": "bytes32"
        }
      ],
      "name": "removeLiquidityETHWithPermit",
      "outputs": [
        {
          "internalType": "uint256",
          "name": "amountToken",
          "type": "uint256"
        },
        {
          "internalType": "uint256",
          "name": "amountETH",
          "type": "uint256"
        }
      ],
      "stateMutability": "nonpayable",
      "type": "function"
    },
    {
      "inputs": [
        {
          "internalType": "address",
          "name": "token",
          "type": "address"
        },
        {
          "internalType": "uint256",
          "name": "liquidity",
          "type": "uint256"
        },
        {
          "internalType": "uint256",
          "name": "amountTokenMin",
          "type": "uint256"
        },
        {
          "internalType": "uint256",
          "name": "amountETHMin",
          "type": "uint256"
        },
        {
          "internalType": "address",
          "name": "to",
          "type": "address"
        },
        {
          "internalType": "uint256",
          "name": "deadline",
          "type": "uint256"
        },
        {
          "internalType": "bool",
          "name": "approveMax",
          "type": "bool"
        },
        {
          "internalType": "uint8",
          "name": "v",
          "type": "uint8"
        },
        {
          "internalType": "bytes32",
          "name": "r",
          "type": "bytes32"
        },
        {
          "internalType": "bytes32",
          "name": "s",
          "type": "bytes32"
        }
      ],
      "name": "removeLiquidityETHWithPermitSupportingFeeOnTransferTokens",
      "outputs": [
        {
          "internalType": "uint256",
          "name": "amountETH",
          "type": "uint256"
        }
      ],
      "stateMutability": "nonpayable",
      "type": "function"
    },
    {
      "inputs": [
        {
          "internalType": "address",
          "name": "tokenA",
          "type": "address"
        },
        {
          "internalType": "address",
          "name": "tokenB",
          "type": "address"
        },
        {
          "internalType": "uint256",
          "name": "liquidity",
          "type": "uint256"
        },
        {
          "internalType": "uint256",
          "name": "amountAMin",
          "type": "uint256"
        },
        {
          "internalType": "uint256",
          "name": "amountBMin",
          "type": "uint256"
        },
        {
          "internalType": "address",
          "name": "to",
          "type": "address"
        },
        {
          "internalType": "uint256",
          "name": "deadline",
          "type": "uint256"
        },
        {
          "internalType": "bool",
          "name": "approveMax",
          "type": "bool"
        },
        {
          "internalType": "uint8",
          "name": "v",
          "type": "uint8"
        },
        {
          "internalType": "bytes32",
          "name": "r",
          "type": "bytes32"
        },
        {
          "internalType": "bytes32",
          "name": "s",
          "type": "bytes32"
        }
      ],
      "name": "removeLiquidityWithPermit",
      "outputs": [
        {
          "internalType": "uint256",
          "name": "amountA",
          "type": "uint256"
        },
        {
          "internalType": "uint256",
          "name": "amountB",
          "type": "uint256"
        }
      ],
      "stateMutability": "nonpayable",
      "type": "function"
    },
    {
      "inputs": [],
      "name": "renounceOwnership",
      "outputs": [],
      "stateMutability": "nonpayable",
      "type": "function"
    },
    {
      "inputs": [
        {
          "internalType": "address",
          "name": "_swapFeeReward",
          "type": "address"
        }
      ],
      "name": "setSwapFeeReward",
      "outputs": [],
      "stateMutability": "nonpayable",
      "type": "function"
    },
    {
      "inputs": [
        {
          "internalType": "uint256",
          "name": "amountOut",
          "type": "uint256"
        },
        {
          "internalType": "address[]",
          "name": "path",
          "type": "address[]"
        },
        {
          "internalType": "address",
          "name": "to",
          "type": "address"
        },
        {
          "internalType": "uint256",
          "name": "deadline",
          "type": "uint256"
        }
      ],
      "name": "swapETHForExactTokens",
      "outputs": [
        {
          "internalType": "uint256[]",
          "name": "amounts",
          "type": "uint256[]"
        }
      ],
      "stateMutability": "payable",
      "type": "function"
    },
    {
      "inputs": [
        {
          "internalType": "uint256",
          "name": "amountOutMin",
          "type": "uint256"
        },
        {
          "internalType": "address[]",
          "name": "path",
          "type": "address[]"
        },
        {
          "internalType": "address",
          "name": "to",
          "type": "address"
        },
        {
          "internalType": "uint256",
          "name": "deadline",
          "type": "uint256"
        }
      ],
      "name": "swapExactETHForTokens",
      "outputs": [
        {
          "internalType": "uint256[]",
          "name": "amounts",
          "type": "uint256[]"
        }
      ],
      "stateMutability": "payable",
      "type": "function"
    },
    {
      "inputs": [
        {
          "internalType": "uint256",
          "name": "amountOutMin",
          "type": "uint256"
        },
        {
          "internalType": "address[]",
          "name": "path",
          "type": "address[]"
        },
        {
          "internalType": "address",
          "name": "to",
          "type": "address"
        },
        {
          "internalType": "uint256",
          "name": "deadline",
          "type": "uint256"
        }
      ],
      "name": "swapExactETHForTokensSupportingFeeOnTransferTokens",
      "outputs": [],
      "stateMutability": "payable",
      "type": "function"
    },
    {
      "inputs": [
        {
          "internalType": "uint256",
          "name": "amountIn",
          "type": "uint256"
        },
        {
          "internalType": "uint256",
          "name": "amountOutMin",
          "type": "uint256"
        },
        {
          "internalType": "address[]",
          "name": "path",
          "type": "address[]"
        },
        {
          "internalType": "address",
          "name": "to",
          "type": "address"
        },
        {
          "internalType": "uint256",
          "name": "deadline",
          "type": "uint256"
        }
      ],
      "name": "swapExactTokensForETH",
      "outputs": [
        {
          "internalType": "uint256[]",
          "name": "amounts",
          "type": "uint256[]"
        }
      ],
      "stateMutability": "nonpayable",
      "type": "function"
    },
    {
      "inputs": [
        {
          "internalType": "uint256",
          "name": "amountIn",
          "type": "uint256"
        },
        {
          "internalType": "uint256",
          "name": "amountOutMin",
          "type": "uint256"
        },
        {
          "internalType": "address[]",
          "name": "path",
          "type": "address[]"
        },
        {
          "internalType": "address",
          "name": "to",
          "type": "address"
        },
        {
          "internalType": "uint256",
          "name": "deadline",
          "type": "uint256"
        }
      ],
      "name": "swapExactTokensForETHSupportingFeeOnTransferTokens",
      "outputs": [],
      "stateMutability": "nonpayable",
      "type": "function"
    },
    {
      "inputs": [
        {
          "internalType": "uint256",
          "name": "amountIn",
          "type": "uint256"
        },
        {
          "internalType": "uint256",
          "name": "amountOutMin",
          "type": "uint256"
        },
        {
          "internalType": "address[]",
          "name": "path",
          "type": "address[]"
        },
        {
          "internalType": "address",
          "name": "to",
          "type": "address"
        },
        {
          "internalType": "uint256",
          "name": "deadline",
          "type": "uint256"
        }
      ],
      "name": "swapExactTokensForTokens",
      "outputs": [
        {
          "internalType": "uint256[]",
          "name": "amounts",
          "type": "uint256[]"
        }
      ],
      "stateMutability": "nonpayable",
      "type": "function"
    },
    {
      "inputs": [
        {
          "internalType": "uint256",
          "name": "amountIn",
          "type": "uint256"
        },
        {
          "internalType": "uint256",
          "name": "amountOutMin",
          "type": "uint256"
        },
        {
          "internalType": "address[]",
          "name": "path",
          "type": "address[]"
        },
        {
          "internalType": "address",
          "name": "to",
          "type": "address"
        },
        {
          "internalType": "uint256",
          "name": "deadline",
          "type": "uint256"
        }
      ],
      "name": "swapExactTokensForTokensSupportingFeeOnTransferTokens",
      "outputs": [],
      "stateMutability": "nonpayable",
      "type": "function"
    },
    {
      "inputs": [],
      "name": "swapFeeReward",
      "outputs": [
        {
          "internalType": "address",
          "name": "",
          "type": "address"
        }
      ],
      "stateMutability": "view",
      "type": "function"
    },
    {
      "inputs": [
        {
          "internalType": "uint256",
          "name": "amountOut",
          "type": "uint256"
        },
        {
          "internalType": "uint256",
          "name": "amountInMax",
          "type": "uint256"
        },
        {
          "internalType": "address[]",
          "name": "path",
          "type": "address[]"
        },
        {
          "internalType": "address",
          "name": "to",
          "type": "address"
        },
        {
          "internalType": "uint256",
          "name": "deadline",
          "type": "uint256"
        }
      ],
      "name": "swapTokensForExactETH",
      "outputs": [
        {
          "internalType": "uint256[]",
          "name": "amounts",
          "type": "uint256[]"
        }
      ],
      "stateMutability": "nonpayable",
      "type": "function"
    },
    {
      "inputs": [
        {
          "internalType": "uint256",
          "name": "amountOut",
          "type": "uint256"
        },
        {
          "internalType": "uint256",
          "name": "amountInMax",
          "type": "uint256"
        },
        {
          "internalType": "address[]",
          "name": "path",
          "type": "address[]"
        },
        {
          "internalType": "address",
          "name": "to",
          "type": "address"
        },
        {
          "internalType": "uint256",
          "name": "deadline",
          "type": "uint256"
        }
      ],
      "name": "swapTokensForExactTokens",
      "outputs": [
        {
          "internalType": "uint256[]",
          "name": "amounts",
          "type": "uint256[]"
        }
      ],
      "stateMutability": "nonpayable",
      "type": "function"
    },
    {
      "inputs": [
        {
          "internalType": "address",
          "name": "newOwner",
          "type": "address"
        }
      ],
      "name": "transferOwnership",
      "outputs": [],
      "stateMutability": "nonpayable",
      "type": "function"
    },
    {
      "stateMutability": "payable",
      "type": "receive"
    }
  ],
  "transactionHash": "0x5b35cdb45e3753c175ac77597c8f5bf1d896606d2fd691f4b1656914bb4df538",
  "args": [
    "0xcBa002d24bb91D0f80b1Eb2834eA814CAA2e718F",
    "0xae13d989daC2f0dEbFf460aC112a837C89BAa7cd"
  ],
  "solcInputHash": "7060ffb6b5b4ad032176699b0c8db182",
  "bytecode": "0x60c060405234801561001057600080fd5b506040516200514e3803806200514e8339818101604052604081101561003557600080fd5b508051602090910151600080546001600160a01b03191633178082556040516001600160a01b039190911691907f8be0079c531659141344cd1fd0a4f28419497f9722a3daafe3b4186f6b6457e0908290a36001600160601b0319606092831b8116608052911b1660a05260805160601c60a05160601c614f80620001ce600039806101e15280610e865280610ec15280610fb552806111e552806115c0528061175d5280611c055280611cf25280611dcc5280611eac5280612004528061208c52806122eb52806123805280612434528061251252806125b9528061262d5280612b545280612e615280612eb75280612eeb5280612f5f52806130ff528061325452806132dc525080611055528061112c52806112ab52806112e4528061145e5280611660528061173b52806118d65280611f5152806120be528061221d528061265f52806128af5280612ad95280612b025280612b325280612cca5280612e9552806131a4528061330e5280613d0b5280613d4e528061421452806144ba52806147f452806148ad52806149605250614f806000f3fe6080604052600436106101d15760003560e01c80638da5cb5b116100f7578063c45a015511610095578063f2fde38b11610064578063f2fde38b14610cf5578063f305d71914610d28578063fb3bdb4114610d6e578063fbbeedf114610df45761020a565b8063c45a015514610b36578063d06ca61f14610b4b578063ded9382a14610c02578063e8e3370014610c755761020a565b8063ad615dec116100d1578063ad615dec146109ca578063af2979eb14610a00578063b6f9de9514610a53578063baa2abde14610ad95761020a565b80638da5cb5b1461096f578063a3ddb30b146109a0578063ad5c4648146109b55761020a565b806352707d8c1161016f578063715018a61161013e578063715018a6146107a4578063791ac947146107b95780637ff36ab5146108515780638803dbee146108d75761020a565b806352707d8c1461060f578063571fd0121461065d5780635b0d5984146106995780635c11d7951461070c5761020a565b80632195995c116101ab5780632195995c1461041a5780632f54bf6e1461049857806338ed1739146104df5780634a25d94a146105775761020a565b806302751cec1461020f57806318cbafe51461027b5780631f00ca74146103635761020a565b3661020a57336001600160a01b037f0000000000000000000000000000000000000000000000000000000000000000161461020857fe5b005b600080fd5b34801561021b57600080fd5b50610262600480360360c081101561023257600080fd5b506001600160a01b0381358116916020810135916040820135916060810135916080820135169060a00135610e27565b6040805192835260208301919091528051918290030190f35b34801561028757600080fd5b50610313600480360360a081101561029e57600080fd5b8135916020810135918101906060810160408201356401000000008111156102c557600080fd5b8201836020820111156102d757600080fd5b803590602001918460208302840111640100000000831117156102f957600080fd5b91935091506001600160a01b038135169060200135610f53565b60408051602080825283518183015283519192839290830191858101910280838360005b8381101561034f578181015183820152602001610337565b505050509050019250505060405180910390f35b34801561036f57600080fd5b506103136004803603604081101561038657600080fd5b813591908101906040810160208201356401000000008111156103a857600080fd5b8201836020820111156103ba57600080fd5b803590602001918460208302840111640100000000831117156103dc57600080fd5b9190808060200260200160405190810160405280939291908181526020018383602002808284376000920191909152509295506112a4945050505050565b34801561042657600080fd5b50610262600480360361016081101561043e57600080fd5b506001600160a01b038135811691602081013582169160408201359160608101359160808201359160a08101359091169060c08101359060e081013515159060ff61010082013516906101208101359061014001356112da565b3480156104a457600080fd5b506104cb600480360360208110156104bb57600080fd5b50356001600160a01b03166113ed565b604080519115158252519081900360200190f35b3480156104eb57600080fd5b50610313600480360360a081101561050257600080fd5b81359160208101359181019060608101604082013564010000000081111561052957600080fd5b82018360208201111561053b57600080fd5b8035906020019184602083028401116401000000008311171561055d57600080fd5b91935091506001600160a01b038135169060200135611401565b34801561058357600080fd5b50610313600480360360a081101561059a57600080fd5b8135916020810135918101906060810160408201356401000000008111156105c157600080fd5b8201836020820111156105d357600080fd5b803590602001918460208302840111640100000000831117156105f557600080fd5b91935091506001600160a01b03813516906020013561155e565b34801561061b57600080fd5b5061064b6004803603608081101561063257600080fd5b508035906020810135906040810135906060013561170e565b60408051918252519081900360200190f35b34801561066957600080fd5b5061064b6004803603608081101561068057600080fd5b5080359060208101359060408101359060600135611725565b3480156106a557600080fd5b5061064b60048036036101408110156106bd57600080fd5b506001600160a01b0381358116916020810135916040820135916060810135916080820135169060a08101359060c081013515159060ff60e08201351690610100810135906101200135611733565b34801561071857600080fd5b50610208600480360360a081101561072f57600080fd5b81359160208101359181019060608101604082013564010000000081111561075657600080fd5b82018360208201111561076857600080fd5b8035906020019184602083028401116401000000008311171561078a57600080fd5b91935091506001600160a01b03813516906020013561185a565b3480156107b057600080fd5b50610208611ae9565b3480156107c557600080fd5b50610208600480360360a08110156107dc57600080fd5b81359160208101359181019060608101604082013564010000000081111561080357600080fd5b82018360208201111561081557600080fd5b8035906020019184602083028401116401000000008311171561083757600080fd5b91935091506001600160a01b038135169060200135611ba5565b6103136004803603608081101561086757600080fd5b8135919081019060408101602082013564010000000081111561088957600080fd5b82018360208201111561089b57600080fd5b803590602001918460208302840111640100000000831117156108bd57600080fd5b91935091506001600160a01b038135169060200135611e52565b3480156108e357600080fd5b50610313600480360360a08110156108fa57600080fd5b81359160208101359181019060608101604082013564010000000081111561092157600080fd5b82018360208201111561093357600080fd5b8035906020019184602083028401116401000000008311171561095557600080fd5b91935091506001600160a01b0381351690602001356121c0565b34801561097b57600080fd5b506109846122cb565b604080516001600160a01b039092168252519081900360200190f35b3480156109ac57600080fd5b506109846122da565b3480156109c157600080fd5b506109846122e9565b3480156109d657600080fd5b5061064b600480360360608110156109ed57600080fd5b508035906020810135906040013561230d565b348015610a0c57600080fd5b5061064b600480360360c0811015610a2357600080fd5b506001600160a01b0381358116916020810135916040820135916060810135916080820135169060a00135612322565b61020860048036036080811015610a6957600080fd5b81359190810190604081016020820135640100000000811115610a8b57600080fd5b820183602082011115610a9d57600080fd5b80359060200191846020830284011164010000000083111715610abf57600080fd5b91935091506001600160a01b0381351690602001356124ba565b348015610ae557600080fd5b50610262600480360360e0811015610afc57600080fd5b506001600160a01b038135811691602081013582169160408201359160608101359160808201359160a08101359091169060c0013561284f565b348015610b4257600080fd5b50610984612ad7565b348015610b5757600080fd5b5061031360048036036040811015610b6e57600080fd5b81359190810190604081016020820135640100000000811115610b9057600080fd5b820183602082011115610ba257600080fd5b80359060200191846020830284011164010000000083111715610bc457600080fd5b919080806020026020016040519081016040528093929190818152602001838360200280828437600092019190915250929550612afb945050505050565b348015610c0e57600080fd5b506102626004803603610140811015610c2657600080fd5b506001600160a01b0381358116916020810135916040820135916060810135916080820135169060a08101359060c081013515159060ff60e08201351690610100810135906101200135612b28565b348015610c8157600080fd5b50610cd76004803603610100811015610c9957600080fd5b506001600160a01b038135811691602081013582169160408201359160608101359160808201359160a08101359160c0820135169060e00135612c55565b60408051938452602084019290925282820152519081900360600190f35b348015610d0157600080fd5b5061020860048036036020811015610d1857600080fd5b50356001600160a01b0316612d9a565b610cd7600480360360c0811015610d3e57600080fd5b506001600160a01b0381358116916020810135916040820135916060810135916080820135169060a00135612e00565b61031360048036036080811015610d8457600080fd5b81359190810190604081016020820135640100000000811115610da657600080fd5b820183602082011115610db857600080fd5b80359060200191846020830284011164010000000083111715610dda57600080fd5b91935091506001600160a01b0381351690602001356130a5565b348015610e0057600080fd5b5061020860048036036020811015610e1757600080fd5b50356001600160a01b0316613442565b6000808242811015610e80576040805162461bcd60e51b815260206004820152601760248201527f4269737761705632526f757465723a2045585049524544000000000000000000604482015290519081900360640190fd5b610eaf897f00000000000000000000000000000000000000000000000000000000000000008a8a8a308a61284f565b9093509150610ebf8986856134d6565b7f00000000000000000000000000000000000000000000000000000000000000006001600160a01b0316632e1a7d4d836040518263ffffffff1660e01b815260040180828152602001915050600060405180830381600087803b158015610f2557600080fd5b505af1158015610f39573d6000803e3d6000fd5b50505050610f478583613676565b50965096945050505050565b60608142811015610fab576040805162461bcd60e51b815260206004820152601760248201527f4269737761705632526f757465723a2045585049524544000000000000000000604482015290519081900360640190fd5b6001600160a01b037f00000000000000000000000000000000000000000000000000000000000000001686866000198101818110610fe557fe5b905060200201356001600160a01b03166001600160a01b031614611050576040805162461bcd60e51b815260206004820152601c60248201527f4269737761705632526f757465723a20494e56414c49445f5041544800000000604482015290519081900360640190fd5b6110ae7f00000000000000000000000000000000000000000000000000000000000000008988888080602002602001604051908101604052809392919081815260200183836020028082843760009201919091525061378c92505050565b915086826001845103815181106110c157fe5b602002602001015110156111065760405162461bcd60e51b815260040180806020018281038252602a815260200180614e37602a913960400191505060405180910390fd5b6111a48686600081811061111657fe5b905060200201356001600160a01b03163361118a7f00000000000000000000000000000000000000000000000000000000000000008a8a600081811061115857fe5b905060200201356001600160a01b03168b8b600181811061117557fe5b905060200201356001600160a01b031661390c565b8560008151811061119757fe5b60200260200101516139f7565b6111e382878780806020026020016040519081016040528093929190818152602001838360200280828437600092019190915250309250613ba0915050565b7f00000000000000000000000000000000000000000000000000000000000000006001600160a01b0316632e1a7d4d8360018551038151811061122257fe5b60200260200101516040518263ffffffff1660e01b815260040180828152602001915050600060405180830381600087803b15801561126057600080fd5b505af1158015611274573d6000803e3d6000fd5b50505050611299848360018551038151811061128c57fe5b6020026020010151613676565b509695505050505050565b60606112d17f00000000000000000000000000000000000000000000000000000000000000008484613e99565b90505b92915050565b600080600061130a7f00000000000000000000000000000000000000000000000000000000000000008f8f61390c565b9050600087611319578c61131d565b6000195b604080517fd505accf00000000000000000000000000000000000000000000000000000000815233600482015230602482015260448101839052606481018c905260ff8a16608482015260a4810189905260c4810188905290519192506001600160a01b0384169163d505accf9160e48082019260009290919082900301818387803b1580156113ac57600080fd5b505af11580156113c0573d6000803e3d6000fd5b505050506113d38f8f8f8f8f8f8f61284f565b809450819550505050509b509b9950505050505050505050565b6000546001600160a01b0390811691161490565b60608142811015611459576040805162461bcd60e51b815260206004820152601760248201527f4269737761705632526f757465723a2045585049524544000000000000000000604482015290519081900360640190fd5b6114b77f00000000000000000000000000000000000000000000000000000000000000008988888080602002602001604051908101604052809392919081815260200183836020028082843760009201919091525061378c92505050565b915086826001845103815181106114ca57fe5b6020026020010151101561150f5760405162461bcd60e51b815260040180806020018281038252602a815260200180614e37602a913960400191505060405180910390fd5b61151f8686600081811061111657fe5b61129982878780806020026020016040519081016040528093929190818152602001838360200280828437600092019190915250899250613ba0915050565b606081428110156115b6576040805162461bcd60e51b815260206004820152601760248201527f4269737761705632526f757465723a2045585049524544000000000000000000604482015290519081900360640190fd5b6001600160a01b037f000000000000000000000000000000000000000000000000000000000000000016868660001981018181106115f057fe5b905060200201356001600160a01b03166001600160a01b03161461165b576040805162461bcd60e51b815260206004820152601c60248201527f4269737761705632526f757465723a20494e56414c49445f5041544800000000604482015290519081900360640190fd5b6116b97f000000000000000000000000000000000000000000000000000000000000000089888880806020026020016040519081016040528093929190818152602001838360200280828437600092019190915250613e9992505050565b915086826000815181106116c957fe5b602002602001015111156111065760405162461bcd60e51b8152600401808060200182810382526026815260200180614d3f6026913960400191505060405180910390fd5b600061171c85858585613ff8565b95945050505050565b600061171c858585856140db565b6000806117817f00000000000000000000000000000000000000000000000000000000000000008d7f000000000000000000000000000000000000000000000000000000000000000061390c565b9050600086611790578b611794565b6000195b604080517fd505accf00000000000000000000000000000000000000000000000000000000815233600482015230602482015260448101839052606481018b905260ff8916608482015260a4810188905260c4810187905290519192506001600160a01b0384169163d505accf9160e48082019260009290919082900301818387803b15801561182357600080fd5b505af1158015611837573d6000803e3d6000fd5b505050506118498d8d8d8d8d8d612322565b9d9c50505050505050505050505050565b80428110156118b0576040805162461bcd60e51b815260206004820152601760248201527f4269737761705632526f757465723a2045585049524544000000000000000000604482015290519081900360640190fd5b611925858560008181106118c057fe5b905060200201356001600160a01b03163361191f7f00000000000000000000000000000000000000000000000000000000000000008989600081811061190257fe5b905060200201356001600160a01b03168a8a600181811061117557fe5b8a6139f7565b60008585600019810181811061193757fe5b905060200201356001600160a01b03166001600160a01b03166370a08231856040518263ffffffff1660e01b815260040180826001600160a01b0316815260200191505060206040518083038186803b15801561199357600080fd5b505afa1580156119a7573d6000803e3d6000fd5b505050506040513d60208110156119bd57600080fd5b505160408051602088810282810182019093528882529293506119ff9290918991899182918501908490808284376000920191909152508892506141bd915050565b86611aa28288886000198101818110611a1457fe5b905060200201356001600160a01b03166001600160a01b03166370a08231886040518263ffffffff1660e01b815260040180826001600160a01b0316815260200191505060206040518083038186803b158015611a7057600080fd5b505afa158015611a84573d6000803e3d6000fd5b505050506040513d6020811015611a9a57600080fd5b505190614608565b1015611adf5760405162461bcd60e51b815260040180806020018281038252602a815260200180614e37602a913960400191505060405180910390fd5b5050505050505050565b611af2336113ed565b611b43576040805162461bcd60e51b815260206004820181905260248201527f4f776e61626c653a2063616c6c6572206973206e6f7420746865206f776e6572604482015290519081900360640190fd5b600080546040516001600160a01b03909116907f8be0079c531659141344cd1fd0a4f28419497f9722a3daafe3b4186f6b6457e0908390a3600080547fffffffffffffffffffffffff0000000000000000000000000000000000000000169055565b8042811015611bfb576040805162461bcd60e51b815260206004820152601760248201527f4269737761705632526f757465723a2045585049524544000000000000000000604482015290519081900360640190fd5b6001600160a01b037f00000000000000000000000000000000000000000000000000000000000000001685856000198101818110611c3557fe5b905060200201356001600160a01b03166001600160a01b031614611ca0576040805162461bcd60e51b815260206004820152601c60248201527f4269737761705632526f757465723a20494e56414c49445f5041544800000000604482015290519081900360640190fd5b611cb0858560008181106118c057fe5b611cee8585808060200260200160405190810160405280939291908181526020018383602002808284376000920191909152503092506141bd915050565b60007f00000000000000000000000000000000000000000000000000000000000000006001600160a01b03166370a08231306040518263ffffffff1660e01b815260040180826001600160a01b0316815260200191505060206040518083038186803b158015611d5d57600080fd5b505afa158015611d71573d6000803e3d6000fd5b505050506040513d6020811015611d8757600080fd5b5051905086811015611dca5760405162461bcd60e51b815260040180806020018281038252602a815260200180614e37602a913960400191505060405180910390fd5b7f00000000000000000000000000000000000000000000000000000000000000006001600160a01b0316632e1a7d4d826040518263ffffffff1660e01b815260040180828152602001915050600060405180830381600087803b158015611e3057600080fd5b505af1158015611e44573d6000803e3d6000fd5b50505050611adf8482613676565b60608142811015611eaa576040805162461bcd60e51b815260206004820152601760248201527f4269737761705632526f757465723a2045585049524544000000000000000000604482015290519081900360640190fd5b7f00000000000000000000000000000000000000000000000000000000000000006001600160a01b031686866000818110611ee157fe5b905060200201356001600160a01b03166001600160a01b031614611f4c576040805162461bcd60e51b815260206004820152601c60248201527f4269737761705632526f757465723a20494e56414c49445f5041544800000000604482015290519081900360640190fd5b611faa7f00000000000000000000000000000000000000000000000000000000000000003488888080602002602001604051908101604052809392919081815260200183836020028082843760009201919091525061378c92505050565b91508682600184510381518110611fbd57fe5b602002602001015110156120025760405162461bcd60e51b815260040180806020018281038252602a815260200180614e37602a913960400191505060405180910390fd5b7f00000000000000000000000000000000000000000000000000000000000000006001600160a01b031663d0e30db08360008151811061203e57fe5b60200260200101516040518263ffffffff1660e01b81526004016000604051808303818588803b15801561207157600080fd5b505af1158015612085573d6000803e3d6000fd5b50505050507f00000000000000000000000000000000000000000000000000000000000000006001600160a01b031663a9059cbb6120ea7f00000000000000000000000000000000000000000000000000000000000000008989600081811061190257fe5b846000815181106120f757fe5b60200260200101516040518363ffffffff1660e01b815260040180836001600160a01b0316815260200182815260200192505050602060405180830381600087803b15801561214557600080fd5b505af1158015612159573d6000803e3d6000fd5b505050506040513d602081101561216f57600080fd5b505161217757fe5b6121b682878780806020026020016040519081016040528093929190818152602001838360200280828437600092019190915250899250613ba0915050565b5095945050505050565b60608142811015612218576040805162461bcd60e51b815260206004820152601760248201527f4269737761705632526f757465723a2045585049524544000000000000000000604482015290519081900360640190fd5b6122767f000000000000000000000000000000000000000000000000000000000000000089888880806020026020016040519081016040528093929190818152602001838360200280828437600092019190915250613e9992505050565b9150868260008151811061228657fe5b6020026020010151111561150f5760405162461bcd60e51b8152600401808060200182810382526026815260200180614d3f6026913960400191505060405180910390fd5b6000546001600160a01b031690565b6001546001600160a01b031681565b7f000000000000000000000000000000000000000000000000000000000000000081565b600061231a848484614660565b949350505050565b6000814281101561237a576040805162461bcd60e51b815260206004820152601760248201527f4269737761705632526f757465723a2045585049524544000000000000000000604482015290519081900360640190fd5b6123a9887f0000000000000000000000000000000000000000000000000000000000000000898989308961284f565b90508092505061243288858a6001600160a01b03166370a08231306040518263ffffffff1660e01b815260040180826001600160a01b0316815260200191505060206040518083038186803b15801561240157600080fd5b505afa158015612415573d6000803e3d6000fd5b505050506040513d602081101561242b57600080fd5b50516134d6565b7f00000000000000000000000000000000000000000000000000000000000000006001600160a01b0316632e1a7d4d836040518263ffffffff1660e01b815260040180828152602001915050600060405180830381600087803b15801561249857600080fd5b505af11580156124ac573d6000803e3d6000fd5b505050506112998483613676565b8042811015612510576040805162461bcd60e51b815260206004820152601760248201527f4269737761705632526f757465723a2045585049524544000000000000000000604482015290519081900360640190fd5b7f00000000000000000000000000000000000000000000000000000000000000006001600160a01b03168585600081811061254757fe5b905060200201356001600160a01b03166001600160a01b0316146125b2576040805162461bcd60e51b815260206004820152601c60248201527f4269737761705632526f757465723a20494e56414c49445f5041544800000000604482015290519081900360640190fd5b60003490507f00000000000000000000000000000000000000000000000000000000000000006001600160a01b031663d0e30db0826040518263ffffffff1660e01b81526004016000604051808303818588803b15801561261257600080fd5b505af1158015612626573d6000803e3d6000fd5b50505050507f00000000000000000000000000000000000000000000000000000000000000006001600160a01b031663a9059cbb61268b7f00000000000000000000000000000000000000000000000000000000000000008989600081811061190257fe5b836040518363ffffffff1660e01b815260040180836001600160a01b0316815260200182815260200192505050602060405180830381600087803b1580156126d257600080fd5b505af11580156126e6573d6000803e3d6000fd5b505050506040513d60208110156126fc57600080fd5b505161270457fe5b60008686600019810181811061271657fe5b905060200201356001600160a01b03166001600160a01b03166370a08231866040518263ffffffff1660e01b815260040180826001600160a01b0316815260200191505060206040518083038186803b15801561277257600080fd5b505afa158015612786573d6000803e3d6000fd5b505050506040513d602081101561279c57600080fd5b505160408051602089810282810182019093528982529293506127de9290918a918a9182918501908490808284376000920191909152508992506141bd915050565b87611aa282898960001981018181106127f357fe5b905060200201356001600160a01b03166001600160a01b03166370a08231896040518263ffffffff1660e01b815260040180826001600160a01b0316815260200191505060206040518083038186803b158015611a7057600080fd5b60008082428110156128a8576040805162461bcd60e51b815260206004820152601760248201527f4269737761705632526f757465723a2045585049524544000000000000000000604482015290519081900360640190fd5b60006128d57f00000000000000000000000000000000000000000000000000000000000000008c8c61390c565b604080517f23b872dd0000000000000000000000000000000000000000000000000000000081523360048201526001600160a01b03831660248201819052604482018d9052915192935090916323b872dd916064808201926020929091908290030181600087803b15801561294957600080fd5b505af115801561295d573d6000803e3d6000fd5b505050506040513d602081101561297357600080fd5b5050604080517f89afcb440000000000000000000000000000000000000000000000000000000081526001600160a01b03888116600483015282516000938493928616926389afcb44926024808301939282900301818787803b1580156129d957600080fd5b505af11580156129ed573d6000803e3d6000fd5b505050506040513d6040811015612a0357600080fd5b50805160209091015190925090506000612a1d8e8e614706565b509050806001600160a01b03168e6001600160a01b031614612a40578183612a43565b82825b90975095508a871015612a875760405162461bcd60e51b8152600401808060200182810382526025815260200180614e616025913960400191505060405180910390fd5b89861015612ac65760405162461bcd60e51b8152600401808060200182810382526025815260200180614d8b6025913960400191505060405180910390fd5b505050505097509795505050505050565b7f000000000000000000000000000000000000000000000000000000000000000081565b60606112d17f0000000000000000000000000000000000000000000000000000000000000000848461378c565b6000806000612b787f00000000000000000000000000000000000000000000000000000000000000008e7f000000000000000000000000000000000000000000000000000000000000000061390c565b9050600087612b87578c612b8b565b6000195b604080517fd505accf00000000000000000000000000000000000000000000000000000000815233600482015230602482015260448101839052606481018c905260ff8a16608482015260a4810189905260c4810188905290519192506001600160a01b0384169163d505accf9160e48082019260009290919082900301818387803b158015612c1a57600080fd5b505af1158015612c2e573d6000803e3d6000fd5b50505050612c408e8e8e8e8e8e610e27565b909f909e509c50505050505050505050505050565b60008060008342811015612cb0576040805162461bcd60e51b815260206004820152601760248201527f4269737761705632526f757465723a2045585049524544000000000000000000604482015290519081900360640190fd5b612cbe8c8c8c8c8c8c6147e4565b90945092506000612cf07f00000000000000000000000000000000000000000000000000000000000000008e8e61390c565b9050612cfe8d3383886139f7565b612d0a8c3383876139f7565b806001600160a01b0316636a627842886040518263ffffffff1660e01b815260040180826001600160a01b03168152602001915050602060405180830381600087803b158015612d5957600080fd5b505af1158015612d6d573d6000803e3d6000fd5b505050506040513d6020811015612d8357600080fd5b5051949d939c50939a509198505050505050505050565b612da3336113ed565b612df4576040805162461bcd60e51b815260206004820181905260248201527f4f776e61626c653a2063616c6c6572206973206e6f7420746865206f776e6572604482015290519081900360640190fd5b612dfd81614a75565b50565b60008060008342811015612e5b576040805162461bcd60e51b815260206004820152601760248201527f4269737761705632526f757465723a2045585049524544000000000000000000604482015290519081900360640190fd5b612e898a7f00000000000000000000000000000000000000000000000000000000000000008b348c8c6147e4565b90945092506000612edb7f00000000000000000000000000000000000000000000000000000000000000008c7f000000000000000000000000000000000000000000000000000000000000000061390c565b9050612ee98b3383886139f7565b7f00000000000000000000000000000000000000000000000000000000000000006001600160a01b031663d0e30db0856040518263ffffffff1660e01b81526004016000604051808303818588803b158015612f4457600080fd5b505af1158015612f58573d6000803e3d6000fd5b50505050507f00000000000000000000000000000000000000000000000000000000000000006001600160a01b031663a9059cbb82866040518363ffffffff1660e01b815260040180836001600160a01b0316815260200182815260200192505050602060405180830381600087803b158015612fd457600080fd5b505af1158015612fe8573d6000803e3d6000fd5b505050506040513d6020811015612ffe57600080fd5b505161300657fe5b806001600160a01b0316636a627842886040518263ffffffff1660e01b815260040180826001600160a01b03168152602001915050602060405180830381600087803b15801561305557600080fd5b505af1158015613069573d6000803e3d6000fd5b505050506040513d602081101561307f57600080fd5b50519250348410156130975761309733853403613676565b505096509650969350505050565b606081428110156130fd576040805162461bcd60e51b815260206004820152601760248201527f4269737761705632526f757465723a2045585049524544000000000000000000604482015290519081900360640190fd5b7f00000000000000000000000000000000000000000000000000000000000000006001600160a01b03168686600081811061313457fe5b905060200201356001600160a01b03166001600160a01b03161461319f576040805162461bcd60e51b815260206004820152601c60248201527f4269737761705632526f757465723a20494e56414c49445f5041544800000000604482015290519081900360640190fd5b6131fd7f000000000000000000000000000000000000000000000000000000000000000088888880806020026020016040519081016040528093929190818152602001838360200280828437600092019190915250613e9992505050565b9150348260008151811061320d57fe5b602002602001015111156132525760405162461bcd60e51b8152600401808060200182810382526026815260200180614d3f6026913960400191505060405180910390fd5b7f00000000000000000000000000000000000000000000000000000000000000006001600160a01b031663d0e30db08360008151811061328e57fe5b60200260200101516040518263ffffffff1660e01b81526004016000604051808303818588803b1580156132c157600080fd5b505af11580156132d5573d6000803e3d6000fd5b50505050507f00000000000000000000000000000000000000000000000000000000000000006001600160a01b031663a9059cbb61333a7f00000000000000000000000000000000000000000000000000000000000000008989600081811061190257fe5b8460008151811061334757fe5b60200260200101516040518363ffffffff1660e01b815260040180836001600160a01b0316815260200182815260200192505050602060405180830381600087803b15801561339557600080fd5b505af11580156133a9573d6000803e3d6000fd5b505050506040513d60208110156133bf57600080fd5b50516133c757fe5b61340682878780806020026020016040519081016040528093929190818152602001838360200280828437600092019190915250899250613ba0915050565b8160008151811061341357fe5b60200260200101513411156121b6576121b6338360008151811061343357fe5b60200260200101513403613676565b61344b336113ed565b61349c576040805162461bcd60e51b815260206004820181905260248201527f4f776e61626c653a2063616c6c6572206973206e6f7420746865206f776e6572604482015290519081900360640190fd5b600180547fffffffffffffffffffffffff0000000000000000000000000000000000000000166001600160a01b0392909216919091179055565b604080516001600160a01b038481166024830152604480830185905283518084039091018152606490920183526020820180517bffffffffffffffffffffffffffffffffffffffffffffffffffffffff167fa9059cbb00000000000000000000000000000000000000000000000000000000178152925182516000946060949389169392918291908083835b6020831061359f57805182527fffffffffffffffffffffffffffffffffffffffffffffffffffffffffffffffe09092019160209182019101613562565b6001836020036101000a0380198251168184511680821785525050505050509050019150506000604051808303816000865af19150503d8060008114613601576040519150601f19603f3d011682016040523d82523d6000602084013e613606565b606091505b5091509150818015613634575080511580613634575080806020019051602081101561363157600080fd5b50515b61366f5760405162461bcd60e51b815260040180806020018281038252602d815260200180614f1e602d913960400191505060405180910390fd5b5050505050565b604080516000808252602082019092526001600160a01b0384169083906040518082805190602001908083835b602083106136e057805182527fffffffffffffffffffffffffffffffffffffffffffffffffffffffffffffffe090920191602091820191016136a3565b6001836020036101000a03801982511681845116808217855250505050505090500191505060006040518083038185875af1925050503d8060008114613742576040519150601f19603f3d011682016040523d82523d6000602084013e613747565b606091505b50509050806137875760405162461bcd60e51b8152600401808060200182810382526034815260200180614de16034913960400191505060405180910390fd5b505050565b60606002825110156137e5576040805162461bcd60e51b815260206004820152601b60248201527f4269737761704c6962726172793a20494e56414c49445f504154480000000000604482015290519081900360640190fd5b815167ffffffffffffffff811180156137fd57600080fd5b50604051908082528060200260200182016040528015613827578160200160208202803683370190505b509050828160008151811061383857fe5b60200260200101818152505060005b60018351038110156139045760008061388a8786858151811061386657fe5b602002602001015187866001018151811061387d57fe5b6020026020010151614b2d565b915091506138e084848151811061389d57fe5b602002602001015183836138db8b8a89815181106138b757fe5b60200260200101518b8a600101815181106138ce57fe5b6020026020010151614bfb565b613ff8565b8484600101815181106138ef57fe5b60209081029190910101525050600101613847565b509392505050565b600080600061391b8585614706565b604080517fffffffffffffffffffffffffffffffffffffffff000000000000000000000000606094851b811660208084019190915293851b81166034830152825160288184030181526048830184528051908501207fff0000000000000000000000000000000000000000000000000000000000000060688401529a90941b9093166069840152607d8301989098527fc6d0315cbbc99a89427579ebd63e9de3142122b052166708e08518ae66ed8b48609d808401919091528851808403909101815260bd909201909752805196019590952095945050505050565b604080516001600160a01b0385811660248301528481166044830152606480830185905283518084039091018152608490920183526020820180517bffffffffffffffffffffffffffffffffffffffffffffffffffffffff167f23b872dd0000000000000000000000000000000000000000000000000000000017815292518251600094606094938a169392918291908083835b60208310613ac857805182527fffffffffffffffffffffffffffffffffffffffffffffffffffffffffffffffe09092019160209182019101613a8b565b6001836020036101000a0380198251168184511680821785525050505050509050019150506000604051808303816000865af19150503d8060008114613b2a576040519150601f19603f3d011682016040523d82523d6000602084013e613b2f565b606091505b5091509150818015613b5d575080511580613b5d5750808060200190516020811015613b5a57600080fd5b50515b613b985760405162461bcd60e51b8152600401808060200182810382526031815260200180614db06031913960400191505060405180910390fd5b505050505050565b60005b6001835103811015613e9357600080848381518110613bbe57fe5b6020026020010151858460010181518110613bd557fe5b6020026020010151915091506000613bed8383614706565b5090506000878560010181518110613c0157fe5b60200260200101519050600080836001600160a01b0316866001600160a01b031614613c2f57826000613c33565b6000835b60015491935091506001600160a01b031615613cf357600154604080517fa9678a180000000000000000000000000000000000000000000000000000000081523360048201526001600160a01b0389811660248301528881166044830152606482018790529151919092169163a9678a189160848083019260209291908290030181600087803b158015613cc657600080fd5b505af1158015613cda573d6000803e3d6000fd5b505050506040513d6020811015613cf057600080fd5b50505b600060028a51038810613d065788613d47565b613d477f0000000000000000000000000000000000000000000000000000000000000000878c8b60020181518110613d3a57fe5b602002602001015161390c565b9050613d747f0000000000000000000000000000000000000000000000000000000000000000888861390c565b6001600160a01b031663022c0d9f84848460006040519080825280601f01601f191660200182016040528015613db1576020820181803683370190505b506040518563ffffffff1660e01b815260040180858152602001848152602001836001600160a01b0316815260200180602001828103825283818151815260200191508051906020019080838360005b83811015613e19578181015183820152602001613e01565b50505050905090810190601f168015613e465780820380516001836020036101000a031916815260200191505b5095505050505050600060405180830381600087803b158015613e6857600080fd5b505af1158015613e7c573d6000803e3d6000fd5b505060019099019850613ba3975050505050505050565b50505050565b6060600282511015613ef2576040805162461bcd60e51b815260206004820152601b60248201527f4269737761704c6962726172793a20494e56414c49445f504154480000000000604482015290519081900360640190fd5b815167ffffffffffffffff81118015613f0a57600080fd5b50604051908082528060200260200182016040528015613f34578160200160208202803683370190505b5090508281600183510381518110613f4857fe5b60209081029190910101528151600019015b801561390457600080613f8a87866001860381518110613f7657fe5b602002602001015187868151811061387d57fe5b91509150613fd3848481518110613f9d57fe5b60200260200101518383613fce8b8a60018a0381518110613fba57fe5b60200260200101518b8a815181106138ce57fe5b6140db565b846001850381518110613fe257fe5b6020908102919091010152505060001901613f5a565b60008085116140385760405162461bcd60e51b8152600401808060200182810382526028815260200180614ef66028913960400191505060405180910390fd5b6000841180156140485750600083115b6140835760405162461bcd60e51b8152600401808060200182810382526025815260200180614e866025913960400191505060405180910390fd5b600061409b6140946103e885614608565b8790614c7a565b905060006140a98286614c7a565b905060006140c3836140bd896103e8614c7a565b90614ce6565b90508082816140ce57fe5b0498975050505050505050565b600080851161411b5760405162461bcd60e51b8152600401808060200182810382526029815260200180614eab6029913960400191505060405180910390fd5b60008411801561412b5750600083115b6141665760405162461bcd60e51b8152600401808060200182810382526025815260200180614e866025913960400191505060405180910390fd5b600061417e6103e86141788789614c7a565b90614c7a565b9050600061419b6141916103e886614608565b614178878a614608565b90506141b260018284816141ab57fe5b0490614ce6565b979650505050505050565b60005b6001835103811015613787576000808483815181106141db57fe5b60200260200101518584600101815181106141f257fe5b602002602001015191509150600061420a8383614706565b509050600061423a7f0000000000000000000000000000000000000000000000000000000000000000858561390c565b9050600080600080846001600160a01b0316630902f1ac6040518163ffffffff1660e01b815260040160606040518083038186803b15801561427b57600080fd5b505afa15801561428f573d6000803e3d6000fd5b505050506040513d60608110156142a557600080fd5b5080516020909101516dffffffffffffffffffffffffffff91821693501690506000806001600160a01b038a8116908916146142e25782846142e5565b83835b9150915061433a828b6001600160a01b03166370a082318a6040518263ffffffff1660e01b815260040180826001600160a01b0316815260200191505060206040518083038186803b158015611a7057600080fd5b95506143b28683838a6001600160a01b03166354cf2aeb6040518163ffffffff1660e01b815260040160206040518083038186803b15801561437b57600080fd5b505afa15801561438f573d6000803e3d6000fd5b505050506040513d60208110156143a557600080fd5b505163ffffffff16613ff8565b6001549095506001600160a01b03161593506144769250505057600154604080517fa9678a180000000000000000000000000000000000000000000000000000000081523360048201526001600160a01b0389811660248301528881166044830152606482018590529151919092169163a9678a189160848083019260209291908290030181600087803b15801561444957600080fd5b505af115801561445d573d6000803e3d6000fd5b505050506040513d602081101561447357600080fd5b50505b600080856001600160a01b0316886001600160a01b03161461449a5782600061449e565b6000835b91509150600060028c51038a106144b5578a6144e9565b6144e97f0000000000000000000000000000000000000000000000000000000000000000898e8d60020181518110613d3a57fe5b60408051600080825260208201928390527f022c0d9f00000000000000000000000000000000000000000000000000000000835260248201878152604483018790526001600160a01b038086166064850152608060848501908152845160a48601819052969750908c169563022c0d9f958a958a958a9591949193919260c486019290918190849084905b8381101561458c578181015183820152602001614574565b50505050905090810190601f1680156145b95780820380516001836020036101000a031916815260200191505b5095505050505050600060405180830381600087803b1580156145db57600080fd5b505af11580156145ef573d6000803e3d6000fd5b50506001909b019a506141c09950505050505050505050565b808203828111156112d4576040805162461bcd60e51b815260206004820152601560248201527f64732d6d6174682d7375622d756e646572666c6f770000000000000000000000604482015290519081900360640190fd5b60008084116146a05760405162461bcd60e51b8152600401808060200182810382526022815260200180614e156022913960400191505060405180910390fd5b6000831180156146b05750600082115b6146eb5760405162461bcd60e51b8152600401808060200182810382526025815260200180614e866025913960400191505060405180910390fd5b826146f68584614c7a565b816146fd57fe5b04949350505050565b600080826001600160a01b0316846001600160a01b0316141561475a5760405162461bcd60e51b8152600401808060200182810382526022815260200180614ed46022913960400191505060405180910390fd5b826001600160a01b0316846001600160a01b03161061477a57828461477d565b83835b90925090506001600160a01b0382166147dd576040805162461bcd60e51b815260206004820152601b60248201527f4269737761704c6962726172793a205a45524f5f414444524553530000000000604482015290519081900360640190fd5b9250929050565b60008060006001600160a01b03167f00000000000000000000000000000000000000000000000000000000000000006001600160a01b031663e6a439058a8a6040518363ffffffff1660e01b815260040180836001600160a01b03168152602001826001600160a01b031681526020019250505060206040518083038186803b15801561487057600080fd5b505afa158015614884573d6000803e3d6000fd5b505050506040513d602081101561489a57600080fd5b50516001600160a01b03161415614958577f00000000000000000000000000000000000000000000000000000000000000006001600160a01b031663c9c6539689896040518363ffffffff1660e01b815260040180836001600160a01b03168152602001826001600160a01b0316815260200192505050602060405180830381600087803b15801561492b57600080fd5b505af115801561493f573d6000803e3d6000fd5b505050506040513d602081101561495557600080fd5b50505b6000806149867f00000000000000000000000000000000000000000000000000000000000000008b8b614b2d565b91509150816000148015614998575080155b156149a857879350869250614a68565b60006149b5898484614660565b9050878111614a0857858110156149fd5760405162461bcd60e51b8152600401808060200182810382526025815260200180614d8b6025913960400191505060405180910390fd5b889450925082614a66565b6000614a15898486614660565b905089811115614a2157fe5b87811015614a605760405162461bcd60e51b8152600401808060200182810382526025815260200180614e616025913960400191505060405180910390fd5b94508793505b505b5050965096945050505050565b6001600160a01b038116614aba5760405162461bcd60e51b8152600401808060200182810382526026815260200180614d656026913960400191505060405180910390fd5b600080546040516001600160a01b03808516939216917f8be0079c531659141344cd1fd0a4f28419497f9722a3daafe3b4186f6b6457e091a3600080547fffffffffffffffffffffffff0000000000000000000000000000000000000000166001600160a01b0392909216919091179055565b6000806000614b3c8585614706565b509050600080614b4d88888861390c565b6001600160a01b0316630902f1ac6040518163ffffffff1660e01b815260040160606040518083038186803b158015614b8557600080fd5b505afa158015614b99573d6000803e3d6000fd5b505050506040513d6060811015614baf57600080fd5b5080516020909101516dffffffffffffffffffffffffffff91821693501690506001600160a01b0387811690841614614be9578082614bec565b81815b90999098509650505050505050565b6000614c0884848461390c565b6001600160a01b03166354cf2aeb6040518163ffffffff1660e01b815260040160206040518083038186803b158015614c4057600080fd5b505afa158015614c54573d6000803e3d6000fd5b505050506040513d6020811015614c6a57600080fd5b505163ffffffff16949350505050565b6000811580614c9557505080820282828281614c9257fe5b04145b6112d4576040805162461bcd60e51b815260206004820152601460248201527f64732d6d6174682d6d756c2d6f766572666c6f77000000000000000000000000604482015290519081900360640190fd5b808201828110156112d4576040805162461bcd60e51b815260206004820152601460248201527f64732d6d6174682d6164642d6f766572666c6f77000000000000000000000000604482015290519081900360640190fdfe4269737761705632526f757465723a204558434553534956455f494e5055545f414d4f554e544f776e61626c653a206e6577206f776e657220697320746865207a65726f20616464726573734269737761705632526f757465723a20494e53554646494349454e545f425f414d4f554e545472616e7366657248656c7065723a3a7472616e7366657246726f6d3a207472616e7366657246726f6d206661696c65645472616e7366657248656c7065723a3a736166655472616e736665724554483a20455448207472616e73666572206661696c65644269737761704c6962726172793a20494e53554646494349454e545f414d4f554e544269737761705632526f757465723a20494e53554646494349454e545f4f55545055545f414d4f554e544269737761705632526f757465723a20494e53554646494349454e545f415f414d4f554e544269737761704c6962726172793a20494e53554646494349454e545f4c49515549444954594269737761704c6962726172793a20494e53554646494349454e545f4f55545055545f414d4f554e544269737761704c6962726172793a204944454e544943414c5f4144445245535345534269737761704c6962726172793a20494e53554646494349454e545f494e5055545f414d4f554e545472616e7366657248656c7065723a3a736166655472616e736665723a207472616e73666572206661696c6564a26469706673582212202458adea9013dae2335d648df782699ac07aa15d45b3f50ce707e34b69b0ece164736f6c634300060c0033",
  "devdoc": {
    "kind": "dev",
    "methods": {},
    "version": 1
  },
  "userdoc": {
    "kind": "user",
    "methods": {},
    "version": 1
  },
  "storageLayout": {
    "storage": [
      {
        "astId": 1960,
        "contract": "contracts/test/biswap/BiswapRouter.sol:BiswapRouter02",
        "label": "_owner",
        "offset": 0,
        "slot": "0",
        "type": "t_address"
      },
      {
        "astId": 2104,
        "contract": "contracts/test/biswap/BiswapRouter.sol:BiswapRouter02",
        "label": "swapFeeReward",
        "offset": 0,
        "slot": "1",
        "type": "t_address"
      }
    ],
    "types": {
      "t_address": {
        "encoding": "inplace",
        "label": "address",
        "numberOfBytes": "20"
      }
    }
  }
}