{
  "address": "0xDCCC0f640Aa5A3D7943ea24aaCb79E7D622dE578",
  "abi": [
    {
      "anonymous": false,
      "inputs": [
        {
          "indexed": true,
          "internalType": "address",
          "name": "owner",
          "type": "address"
        },
        {
          "indexed": true,
          "internalType": "address",
          "name": "spender",
          "type": "address"
        },
        {
          "indexed": false,
          "internalType": "uint256",
          "name": "value",
          "type": "uint256"
        }
      ],
      "name": "Approval",
      "type": "event"
    },
    {
      "anonymous": false,
      "inputs": [
        {
          "indexed": true,
          "internalType": "address",
          "name": "delegator",
          "type": "address"
        },
        {
          "indexed": true,
          "internalType": "address",
          "name": "fromDelegate",
          "type": "address"
        },
        {
          "indexed": true,
          "internalType": "address",
          "name": "toDelegate",
          "type": "address"
        }
      ],
      "name": "DelegateChanged",
      "type": "event"
    },
    {
      "anonymous": false,
      "inputs": [
        {
          "indexed": true,
          "internalType": "address",
          "name": "delegate",
          "type": "address"
        },
        {
          "indexed": false,
          "internalType": "uint256",
          "name": "previousBalance",
          "type": "uint256"
        },
        {
          "indexed": false,
          "internalType": "uint256",
          "name": "newBalance",
          "type": "uint256"
        }
      ],
      "name": "DelegateVotesChanged",
      "type": "event"
    },
    {
      "anonymous": false,
      "inputs": [
        {
          "indexed": true,
          "internalType": "address",
          "name": "previousOwner",
          "type": "address"
        },
        {
          "indexed": true,
          "internalType": "address",
          "name": "newOwner",
          "type": "address"
        }
      ],
      "name": "OwnershipTransferred",
      "type": "event"
    },
    {
      "anonymous": false,
      "inputs": [
        {
          "indexed": true,
          "internalType": "address",
          "name": "from",
          "type": "address"
        },
        {
          "indexed": true,
          "internalType": "address",
          "name": "to",
          "type": "address"
        },
        {
          "indexed": false,
          "internalType": "uint256",
          "name": "value",
          "type": "uint256"
        }
      ],
      "name": "Transfer",
      "type": "event"
    },
    {
      "inputs": [],
      "name": "DELEGATION_TYPEHASH",
      "outputs": [
        {
          "internalType": "bytes32",
          "name": "",
          "type": "bytes32"
        }
      ],
      "stateMutability": "view",
      "type": "function"
    },
    {
      "inputs": [],
      "name": "DOMAIN_TYPEHASH",
      "outputs": [
        {
          "internalType": "bytes32",
          "name": "",
          "type": "bytes32"
        }
      ],
      "stateMutability": "view",
      "type": "function"
    },
    {
      "inputs": [
        {
          "internalType": "address",
          "name": "_addMinter",
          "type": "address"
        }
      ],
      "name": "addMinter",
      "outputs": [
        {
          "internalType": "bool",
          "name": "",
          "type": "bool"
        }
      ],
      "stateMutability": "nonpayable",
      "type": "function"
    },
    {
      "inputs": [
        {
          "internalType": "address",
          "name": "owner",
          "type": "address"
        },
        {
          "internalType": "address",
          "name": "spender",
          "type": "address"
        }
      ],
      "name": "allowance",
      "outputs": [
        {
          "internalType": "uint256",
          "name": "",
          "type": "uint256"
        }
      ],
      "stateMutability": "view",
      "type": "function"
    },
    {
      "inputs": [
        {
          "internalType": "address",
          "name": "spender",
          "type": "address"
        },
        {
          "internalType": "uint256",
          "name": "amount",
          "type": "uint256"
        }
      ],
      "name": "approve",
      "outputs": [
        {
          "internalType": "bool",
          "name": "",
          "type": "bool"
        }
      ],
      "stateMutability": "nonpayable",
      "type": "function"
    },
    {
      "inputs": [
        {
          "internalType": "address",
          "name": "account",
          "type": "address"
        }
      ],
      "name": "balanceOf",
      "outputs": [
        {
          "internalType": "uint256",
          "name": "",
          "type": "uint256"
        }
      ],
      "stateMutability": "view",
      "type": "function"
    },
    {
      "inputs": [
        {
          "internalType": "address",
          "name": "",
          "type": "address"
        },
        {
          "internalType": "uint32",
          "name": "",
          "type": "uint32"
        }
      ],
      "name": "checkpoints",
      "outputs": [
        {
          "internalType": "uint32",
          "name": "fromBlock",
          "type": "uint32"
        },
        {
          "internalType": "uint256",
          "name": "votes",
          "type": "uint256"
        }
      ],
      "stateMutability": "view",
      "type": "function"
    },
    {
      "inputs": [],
      "name": "decimals",
      "outputs": [
        {
          "internalType": "uint8",
          "name": "",
          "type": "uint8"
        }
      ],
      "stateMutability": "view",
      "type": "function"
    },
    {
      "inputs": [
        {
          "internalType": "address",
          "name": "spender",
          "type": "address"
        },
        {
          "internalType": "uint256",
          "name": "subtractedValue",
          "type": "uint256"
        }
      ],
      "name": "decreaseAllowance",
      "outputs": [
        {
          "internalType": "bool",
          "name": "",
          "type": "bool"
        }
      ],
      "stateMutability": "nonpayable",
      "type": "function"
    },
    {
      "inputs": [
        {
          "internalType": "address",
          "name": "_delMinter",
          "type": "address"
        }
      ],
      "name": "delMinter",
      "outputs": [
        {
          "internalType": "bool",
          "name": "",
          "type": "bool"
        }
      ],
      "stateMutability": "nonpayable",
      "type": "function"
    },
    {
      "inputs": [
        {
          "internalType": "address",
          "name": "delegatee",
          "type": "address"
        }
      ],
      "name": "delegate",
      "outputs": [],
      "stateMutability": "nonpayable",
      "type": "function"
    },
    {
      "inputs": [
        {
          "internalType": "address",
          "name": "delegatee",
          "type": "address"
        },
        {
          "internalType": "uint256",
          "name": "nonce",
          "type": "uint256"
        },
        {
          "internalType": "uint256",
          "name": "expiry",
          "type": "uint256"
        },
        {
          "internalType": "uint8",
          "name": "v",
          "type": "uint8"
        },
        {
          "internalType": "bytes32",
          "name": "r",
          "type": "bytes32"
        },
        {
          "internalType": "bytes32",
          "name": "s",
          "type": "bytes32"
        }
      ],
      "name": "delegateBySig",
      "outputs": [],
      "stateMutability": "nonpayable",
      "type": "function"
    },
    {
      "inputs": [
        {
          "internalType": "address",
          "name": "delegator",
          "type": "address"
        }
      ],
      "name": "delegates",
      "outputs": [
        {
          "internalType": "address",
          "name": "",
          "type": "address"
        }
      ],
      "stateMutability": "view",
      "type": "function"
    },
    {
      "inputs": [
        {
          "internalType": "address",
          "name": "account",
          "type": "address"
        }
      ],
      "name": "getCurrentVotes",
      "outputs": [
        {
          "internalType": "uint256",
          "name": "",
          "type": "uint256"
        }
      ],
      "stateMutability": "view",
      "type": "function"
    },
    {
      "inputs": [
        {
          "internalType": "uint256",
          "name": "_index",
          "type": "uint256"
        }
      ],
      "name": "getMinter",
      "outputs": [
        {
          "internalType": "address",
          "name": "",
          "type": "address"
        }
      ],
      "stateMutability": "view",
      "type": "function"
    },
    {
      "inputs": [],
      "name": "getMinterLength",
      "outputs": [
        {
          "internalType": "uint256",
          "name": "",
          "type": "uint256"
        }
      ],
      "stateMutability": "view",
      "type": "function"
    },
    {
      "inputs": [],
      "name": "getOwner",
      "outputs": [
        {
          "internalType": "address",
          "name": "",
          "type": "address"
        }
      ],
      "stateMutability": "view",
      "type": "function"
    },
    {
      "inputs": [
        {
          "internalType": "address",
          "name": "account",
          "type": "address"
        },
        {
          "internalType": "uint256",
          "name": "blockNumber",
          "type": "uint256"
        }
      ],
      "name": "getPriorVotes",
      "outputs": [
        {
          "internalType": "uint256",
          "name": "",
          "type": "uint256"
        }
      ],
      "stateMutability": "view",
      "type": "function"
    },
    {
      "inputs": [
        {
          "internalType": "address",
          "name": "spender",
          "type": "address"
        },
        {
          "internalType": "uint256",
          "name": "addedValue",
          "type": "uint256"
        }
      ],
      "name": "increaseAllowance",
      "outputs": [
        {
          "internalType": "bool",
          "name": "",
          "type": "bool"
        }
      ],
      "stateMutability": "nonpayable",
      "type": "function"
    },
    {
      "inputs": [
        {
          "internalType": "address",
          "name": "account",
          "type": "address"
        }
      ],
      "name": "isMinter",
      "outputs": [
        {
          "internalType": "bool",
          "name": "",
          "type": "bool"
        }
      ],
      "stateMutability": "view",
      "type": "function"
    },
    {
      "inputs": [],
      "name": "maxSupply",
      "outputs": [
        {
          "internalType": "uint256",
          "name": "",
          "type": "uint256"
        }
      ],
      "stateMutability": "view",
      "type": "function"
    },
    {
      "inputs": [
        {
          "internalType": "address",
          "name": "_to",
          "type": "address"
        },
        {
          "internalType": "uint256",
          "name": "_amount",
          "type": "uint256"
        }
      ],
      "name": "mint",
      "outputs": [
        {
          "internalType": "bool",
          "name": "",
          "type": "bool"
        }
      ],
      "stateMutability": "nonpayable",
      "type": "function"
    },
    {
      "inputs": [],
      "name": "name",
      "outputs": [
        {
          "internalType": "string",
          "name": "",
          "type": "string"
        }
      ],
      "stateMutability": "view",
      "type": "function"
    },
    {
      "inputs": [
        {
          "internalType": "address",
          "name": "",
          "type": "address"
        }
      ],
      "name": "nonces",
      "outputs": [
        {
          "internalType": "uint256",
          "name": "",
          "type": "uint256"
        }
      ],
      "stateMutability": "view",
      "type": "function"
    },
    {
      "inputs": [
        {
          "internalType": "address",
          "name": "",
          "type": "address"
        }
      ],
      "name": "numCheckpoints",
      "outputs": [
        {
          "internalType": "uint32",
          "name": "",
          "type": "uint32"
        }
      ],
      "stateMutability": "view",
      "type": "function"
    },
    {
      "inputs": [],
      "name": "owner",
      "outputs": [
        {
          "internalType": "address",
          "name": "",
          "type": "address"
        }
      ],
      "stateMutability": "view",
      "type": "function"
    },
    {
      "inputs": [],
      "name": "preMineSupply",
      "outputs": [
        {
          "internalType": "uint256",
          "name": "",
          "type": "uint256"
        }
      ],
      "stateMutability": "view",
      "type": "function"
    },
    {
      "inputs": [],
      "name": "renounceOwnership",
      "outputs": [],
      "stateMutability": "nonpayable",
      "type": "function"
    },
    {
      "inputs": [],
      "name": "symbol",
      "outputs": [
        {
          "internalType": "string",
          "name": "",
          "type": "string"
        }
      ],
      "stateMutability": "view",
      "type": "function"
    },
    {
      "inputs": [],
      "name": "totalSupply",
      "outputs": [
        {
          "internalType": "uint256",
          "name": "",
          "type": "uint256"
        }
      ],
      "stateMutability": "view",
      "type": "function"
    },
    {
      "inputs": [
        {
          "internalType": "address",
          "name": "recipient",
          "type": "address"
        },
        {
          "internalType": "uint256",
          "name": "amount",
          "type": "uint256"
        }
      ],
      "name": "transfer",
      "outputs": [
        {
          "internalType": "bool",
          "name": "",
          "type": "bool"
        }
      ],
      "stateMutability": "nonpayable",
      "type": "function"
    },
    {
      "inputs": [
        {
          "internalType": "address",
          "name": "sender",
          "type": "address"
        },
        {
          "internalType": "address",
          "name": "recipient",
          "type": "address"
        },
        {
          "internalType": "uint256",
          "name": "amount",
          "type": "uint256"
        }
      ],
      "name": "transferFrom",
      "outputs": [
        {
          "internalType": "bool",
          "name": "",
          "type": "bool"
        }
      ],
      "stateMutability": "nonpayable",
      "type": "function"
    },
    {
      "inputs": [
        {
          "internalType": "address",
          "name": "newOwner",
          "type": "address"
        }
      ],
      "name": "transferOwnership",
      "outputs": [],
      "stateMutability": "nonpayable",
      "type": "function"
    }
  ],
  "transactionHash": "0x8495aecdd159c42d37450440cd5a5eb23c05a7d771df701f8d97eda3b76a837a",
  "args": [],
  "solcInputHash": "65c22612f1d6a33c8cc59ffae62279e5",
  "bytecode": "0x60806040523480156200001157600080fd5b506040518060400160405280600681526020016504269737761760d41b8152506040518060400160405280600381526020016242535760e81b81525060006200005f6200010260201b60201c565b600080546001600160a01b0319166001600160a01b0383169081178255604051929350917f8be0079c531659141344cd1fd0a4f28419497f9722a3daafe3b4186f6b6457e0908290a3508151620000be906004906020850190620002ab565b508051620000d4906005906020840190620002ab565b506006805460ff19166012179055620000f9336a084595161401484a00000062000106565b50505062000347565b3390565b60006001600160a01b03831662000164576040805162461bcd60e51b815260206004820152601f60248201527f42455032303a206d696e7420746f20746865207a65726f206164647265737300604482015290519081900360640190fd5b6b024306c4097859c43c0000006200018d600354846200024960201b620014fd1790919060201c565b11156200019d5750600062000243565b620001b9826003546200024960201b620014fd1790919060201c565b6003556001600160a01b038316600090815260016020908152604090912054620001ee918490620014fd62000249821b17901c565b6001600160a01b03841660008181526001602090815260408083209490945583518681529351929391927fddf252ad1be2c89b69c2b068fc378daa952ba7f163c4a11628f55a4df523b3ef9281900390910190a35b92915050565b600082820183811015620002a4576040805162461bcd60e51b815260206004820152601b60248201527f536166654d6174683a206164646974696f6e206f766572666c6f770000000000604482015290519081900360640190fd5b9392505050565b828054600181600116156101000203166002900490600052602060002090601f016020900481019282601f10620002ee57805160ff19168380011785556200031e565b828001600101855582156200031e579182015b828111156200031e57825182559160200191906001019062000301565b506200032c92915062000330565b5090565b5b808211156200032c576000815560010162000331565b6121fe80620003576000396000f3fe608060405234801561001057600080fd5b506004361061020b5760003560e01c8063715018a61161012a578063a9059cbb116100bd578063d5abeb011161008c578063e7a324dc11610071578063e7a324dc14610676578063f1127ed81461067e578063f2fde38b146106d05761020b565b8063d5abeb0114610640578063dd62ed3e146106485761020b565b8063a9059cbb14610581578063aa271e1a146105ad578063b4b5ea57146105d3578063c3cda520146105f95761020b565b80638da5cb5b116100f95780638da5cb5b1461051f57806395d89b4114610527578063983b2d561461052f578063a457c2d7146105555761020b565b8063715018a6146104bd578063782d6fe1146104c55780637ecebe00146104f1578063893d20e8146105175761020b565b8063313ce567116101a25780635b7121f8116101715780635b7121f8146104135780635c19a95c146104305780636fcfff451461045857806370a08231146104975761020b565b8063313ce5671461035b578063395093511461037957806340c10f19146103a5578063587cde1e146103d15761020b565b806318160ddd116101de57806318160ddd146102ef57806320606b70146102f757806323338b88146102ff57806323b872dd146103255761020b565b80630323aac71461021057806306fdde031461022a578063095ea7b3146102a75780630c16ea83146102e7575b600080fd5b6102186106f6565b60408051918252519081900360200190f35b610232610707565b6040805160208082528351818301528351919283929083019185019080838360005b8381101561026c578181015183820152602001610254565b50505050905090810190601f1680156102995780820380516001836020036101000a031916815260200191505b509250505060405180910390f35b6102d3600480360360408110156102bd57600080fd5b506001600160a01b03813516906020013561079d565b604080519115158252519081900360200190f35b6102186107bb565b6102186107ca565b6102186107d0565b6102d36004803603602081101561031557600080fd5b50356001600160a01b03166107f4565b6102d36004803603606081101561033b57600080fd5b506001600160a01b038135811691602081013590911690604001356108ba565b610363610941565b6040805160ff9092168252519081900360200190f35b6102d36004803603604081101561038f57600080fd5b506001600160a01b03813516906020013561094a565b6102d3600480360360408110156103bb57600080fd5b506001600160a01b038135169060200135610998565b6103f7600480360360208110156103e757600080fd5b50356001600160a01b0316610a24565b604080516001600160a01b039092168252519081900360200190f35b6103f76004803603602081101561042957600080fd5b5035610a42565b6104566004803603602081101561044657600080fd5b50356001600160a01b0316610b22565b005b61047e6004803603602081101561046e57600080fd5b50356001600160a01b0316610b2f565b6040805163ffffffff9092168252519081900360200190f35b610218600480360360208110156104ad57600080fd5b50356001600160a01b0316610b47565b610456610b62565b610218600480360360408110156104db57600080fd5b506001600160a01b038135169060200135610c38565b6102186004803603602081101561050757600080fd5b50356001600160a01b0316610e40565b6103f7610e52565b6103f7610e58565b610232610e67565b6102d36004803603602081101561054557600080fd5b50356001600160a01b0316610ec8565b6102d36004803603604081101561056b57600080fd5b506001600160a01b038135169060200135610f8e565b6102d36004803603604081101561059757600080fd5b506001600160a01b038135169060200135610ff6565b6102d3600480360360208110156105c357600080fd5b50356001600160a01b031661100a565b610218600480360360208110156105e957600080fd5b50356001600160a01b0316611017565b610456600480360360c081101561060f57600080fd5b506001600160a01b038135169060208101359060408101359060ff6060820135169060808101359060a0013561107b565b610218611345565b6102186004803603604081101561065e57600080fd5b506001600160a01b0381358116916020013516611355565b610218611380565b6106b06004803603604081101561069457600080fd5b5080356001600160a01b0316906020013563ffffffff166113a4565b6040805163ffffffff909316835260208301919091528051918290030190f35b610456600480360360208110156106e657600080fd5b50356001600160a01b03166113d1565b60006107026007611557565b905090565b60048054604080516020601f60026000196101006001881615020190951694909404938401819004810282018101909252828152606093909290918301828280156107935780601f1061076857610100808354040283529160200191610793565b820191906000526020600020905b81548152906001019060200180831161077657829003601f168201915b5050505050905090565b60006107b16107aa611562565b8484611566565b5060015b92915050565b6a084595161401484a00000090565b60035490565b7f8cad95687ba82c2ce50e74f7b754645e5117c3a5bec8151c0726d5857980a86681565b60006107fe611562565b6001600160a01b031661080f610e58565b6001600160a01b03161461086a576040805162461bcd60e51b815260206004820181905260248201527f4f776e61626c653a2063616c6c6572206973206e6f7420746865206f776e6572604482015290519081900360640190fd5b6001600160a01b0382166108af5760405162461bcd60e51b815260040180806020018281038252602381526020018061202c6023913960400191505060405180910390fd5b6107b5600783611652565b60006108c7848484611667565b610937846108d3611562565b61093285604051806060016040528060288152602001612072602891396001600160a01b038a16600090815260026020526040812090610911611562565b6001600160a01b0316815260208101919091526040016000205491906117b9565b611566565b5060019392505050565b60065460ff1690565b60006107b1610957611562565b846109328560026000610968611562565b6001600160a01b03908116825260208083019390935260409182016000908120918c1681529252902054906114fd565b60006109a33361100a565b6109f4576040805162461bcd60e51b815260206004820152601860248201527f63616c6c6572206973206e6f7420746865206d696e7465720000000000000000604482015290519081900360640190fd5b6109fe8383611850565b506001600160a01b038084166000908152600960205260408120546107b192168461196a565b6001600160a01b039081166000908152600960205260409020541690565b6000610a4c611562565b6001600160a01b0316610a5d610e58565b6001600160a01b031614610ab8576040805162461bcd60e51b815260206004820181905260248201527f4f776e61626c653a2063616c6c6572206973206e6f7420746865206f776e6572604482015290519081900360640190fd5b6001610ac26106f6565b03821115610b17576040805162461bcd60e51b815260206004820152601860248201527f4253573a20696e646578206f7574206f6620626f756e64730000000000000000604482015290519081900360640190fd5b6107b5600783611aac565b610b2c3382611ab8565b50565b600b6020526000908152604090205463ffffffff1681565b6001600160a01b031660009081526001602052604090205490565b610b6a611562565b6001600160a01b0316610b7b610e58565b6001600160a01b031614610bd6576040805162461bcd60e51b815260206004820181905260248201527f4f776e61626c653a2063616c6c6572206973206e6f7420746865206f776e6572604482015290519081900360640190fd5b600080546040516001600160a01b03909116907f8be0079c531659141344cd1fd0a4f28419497f9722a3daafe3b4186f6b6457e0908390a3600080547fffffffffffffffffffffffff0000000000000000000000000000000000000000169055565b6000438210610c785760405162461bcd60e51b81526004018080602001828103825260268152602001806120bb6026913960400191505060405180910390fd5b6001600160a01b0383166000908152600b602052604090205463ffffffff1680610ca65760009150506107b5565b6001600160a01b0384166000908152600a6020908152604080832063ffffffff600019860181168552925290912054168310610d15576001600160a01b0384166000908152600a602090815260408083206000199490940163ffffffff168352929052206001015490506107b5565b6001600160a01b0384166000908152600a6020908152604080832083805290915290205463ffffffff16831015610d505760009150506107b5565b600060001982015b8163ffffffff168163ffffffff161115610e0957600282820363ffffffff16048103610d82611f5e565b506001600160a01b0387166000908152600a6020908152604080832063ffffffff808616855290835292819020815180830190925280549093168082526001909301549181019190915290871415610de4576020015194506107b59350505050565b805163ffffffff16871115610dfb57819350610e02565b6001820392505b5050610d58565b506001600160a01b0385166000908152600a6020908152604080832063ffffffff9094168352929052206001015491505092915050565b600c6020526000908152604090205481565b60006107025b6000546001600160a01b031690565b60058054604080516020601f60026000196101006001881615020190951694909404938401819004810282018101909252828152606093909290918301828280156107935780601f1061076857610100808354040283529160200191610793565b6000610ed2611562565b6001600160a01b0316610ee3610e58565b6001600160a01b031614610f3e576040805162461bcd60e51b815260206004820181905260248201527f4f776e61626c653a2063616c6c6572206973206e6f7420746865206f776e6572604482015290519081900360640190fd5b6001600160a01b038216610f835760405162461bcd60e51b815260040180806020018281038252602381526020018061204f6023913960400191505060405180910390fd5b6107b5600783611b65565b60006107b1610f9b611562565b846109328560405180606001604052806025815260200161215d6025913960026000610fc5611562565b6001600160a01b03908116825260208083019390935260409182016000908120918d168152925290205491906117b9565b60006107b1611003611562565b8484611667565b60006107b5600783611b7a565b6001600160a01b0381166000908152600b602052604081205463ffffffff1680611042576000611074565b6001600160a01b0383166000908152600a6020908152604080832063ffffffff60001986011684529091529020600101545b9392505050565b60007f8cad95687ba82c2ce50e74f7b754645e5117c3a5bec8151c0726d5857980a8666110a6610707565b805190602001206110b5611b8f565b60408051602080820195909552808201939093526060830191909152306080808401919091528151808403909101815260a0830182528051908401207fe48329057bfd03d55e49b547132e39cffd9c1820ad7b9d4c5307691425d15adf60c08401526001600160a01b038b1660e084015261010083018a90526101208084018a905282518085039091018152610140840183528051908501207f19010000000000000000000000000000000000000000000000000000000000006101608501526101628401829052610182808501829052835180860390910181526101a285018085528151918701919091206000918290526101c2860180865281905260ff8b166101e287015261020286018a905261022286018990529351929650909492939092600192610242808401937fffffffffffffffffffffffffffffffffffffffffffffffffffffffffffffffe08301929081900390910190855afa158015611221573d6000803e3d6000fd5b50506040517fffffffffffffffffffffffffffffffffffffffffffffffffffffffffffffffe001519150506001600160a01b0381166112915760405162461bcd60e51b8152600401808060200182810382526025815260200180611f986025913960400191505060405180910390fd5b6001600160a01b0381166000908152600c6020526040902080546001810190915589146112ef5760405162461bcd60e51b815260040180806020018281038252602181526020018061209a6021913960400191505060405180910390fd5b8742111561132e5760405162461bcd60e51b81526004018080602001828103825260258152602001806121826025913960400191505060405180910390fd5b611338818b611ab8565b505050505b505050505050565b6b024306c4097859c43c00000090565b6001600160a01b03918216600090815260026020908152604080832093909416825291909152205490565b7fe48329057bfd03d55e49b547132e39cffd9c1820ad7b9d4c5307691425d15adf81565b600a6020908152600092835260408084209091529082529020805460019091015463ffffffff9091169082565b6113d9611562565b6001600160a01b03166113ea610e58565b6001600160a01b031614611445576040805162461bcd60e51b815260206004820181905260248201527f4f776e61626c653a2063616c6c6572206973206e6f7420746865206f776e6572604482015290519081900360640190fd5b6001600160a01b03811661148a5760405162461bcd60e51b81526004018080602001828103825260268152602001806120066026913960400191505060405180910390fd5b600080546040516001600160a01b03808516939216917f8be0079c531659141344cd1fd0a4f28419497f9722a3daafe3b4186f6b6457e091a3600080547fffffffffffffffffffffffff0000000000000000000000000000000000000000166001600160a01b0392909216919091179055565b600082820183811015611074576040805162461bcd60e51b815260206004820152601b60248201527f536166654d6174683a206164646974696f6e206f766572666c6f770000000000604482015290519081900360640190fd5b60006107b582611b93565b3390565b6001600160a01b0383166115ab5760405162461bcd60e51b8152600401808060200182810382526024815260200180611fe26024913960400191505060405180910390fd5b6001600160a01b0382166115f05760405162461bcd60e51b81526004018080602001828103825260228152602001806121a76022913960400191505060405180910390fd5b6001600160a01b03808416600081815260026020908152604080832094871680845294825291829020859055815185815291517f8c5be1e5ebec7d5bd14f71427d1e84f3dd0314c0f7b2291e5b200ac8c7c3b9259281900390910190a3505050565b6000611074836001600160a01b038416611b97565b6001600160a01b0383166116ac5760405162461bcd60e51b8152600401808060200182810382526025815260200180611fbd6025913960400191505060405180910390fd5b6001600160a01b0382166116f15760405162461bcd60e51b815260040180806020018281038252602381526020018061213a6023913960400191505060405180910390fd5b61172e81604051806060016040528060268152602001612114602691396001600160a01b03861660009081526001602052604090205491906117b9565b6001600160a01b03808516600090815260016020526040808220939093559084168152205461175d90826114fd565b6001600160a01b0380841660008181526001602090815260409182902094909455805185815290519193928716927fddf252ad1be2c89b69c2b068fc378daa952ba7f163c4a11628f55a4df523b3ef92918290030190a3505050565b600081848411156118485760405162461bcd60e51b81526004018080602001828103825283818151815260200191508051906020019080838360005b8381101561180d5781810151838201526020016117f5565b50505050905090810190601f16801561183a5780820380516001836020036101000a031916815260200191505b509250505060405180910390fd5b505050900390565b60006001600160a01b0383166118ad576040805162461bcd60e51b815260206004820152601f60248201527f42455032303a206d696e7420746f20746865207a65726f206164647265737300604482015290519081900360640190fd5b6b024306c4097859c43c0000006118cf600354846114fd90919063ffffffff16565b11156118dd575060006107b5565b6003546118ea90836114fd565b6003556001600160a01b03831660009081526001602052604090205461191090836114fd565b6001600160a01b03841660008181526001602090815260408083209490945583518681529351929391927fddf252ad1be2c89b69c2b068fc378daa952ba7f163c4a11628f55a4df523b3ef9281900390910190a392915050565b816001600160a01b0316836001600160a01b03161415801561198c5750600081115b15611aa7576001600160a01b03831615611a1e576001600160a01b0383166000908152600b602052604081205463ffffffff1690816119cc5760006119fe565b6001600160a01b0385166000908152600a6020908152604080832063ffffffff60001987011684529091529020600101545b90506000611a0c8285611c5d565b9050611a1a86848484611cba565b5050505b6001600160a01b03821615611aa7576001600160a01b0382166000908152600b602052604081205463ffffffff169081611a59576000611a8b565b6001600160a01b0384166000908152600a6020908152604080832063ffffffff60001987011684529091529020600101545b90506000611a9982856114fd565b905061133d85848484611cba565b505050565b60006110748383611e3a565b6001600160a01b0380831660009081526009602052604081205490911690611adf84610b47565b6001600160a01b0385811660008181526009602052604080822080547fffffffffffffffffffffffff000000000000000000000000000000000000000016898616908117909155905194955093928616927f3134e8a2e6d97e929a7e54011ea5485d7d196dd5f0ba4d4ef95803e8e3fc257f9190a4611b5f82848361196a565b50505050565b6000611074836001600160a01b038416611e9e565b6000611074836001600160a01b038416611ee8565b4690565b5490565b60008181526001830160205260408120548015611c535783546000198083019190810190600090879083908110611bca57fe5b9060005260206000200154905080876000018481548110611be757fe5b600091825260208083209091019290925582815260018981019092526040902090840190558654879080611c1757fe5b600190038181906000526020600020016000905590558660010160008781526020019081526020016000206000905560019450505050506107b5565b60009150506107b5565b600082821115611cb4576040805162461bcd60e51b815260206004820152601e60248201527f536166654d6174683a207375627472616374696f6e206f766572666c6f770000604482015290519081900360640190fd5b50900390565b6000611cde436040518060600160405280603381526020016120e160339139611f00565b905060008463ffffffff16118015611d2757506001600160a01b0385166000908152600a6020908152604080832063ffffffff6000198901811685529252909120548282169116145b15611d64576001600160a01b0385166000908152600a6020908152604080832063ffffffff60001989011684529091529020600101829055611df0565b60408051808201825263ffffffff808416825260208083018681526001600160a01b038a166000818152600a84528681208b861682528452868120955186549086167fffffffffffffffffffffffffffffffffffffffffffffffffffffffff000000009182161787559251600196870155908152600b9092529390208054928801909116919092161790555b604080518481526020810184905281516001600160a01b038816927fdec2bacdd2f05b59de34da9b523dff8be42e5e38e818c82fdb0bae774387a724928290030190a25050505050565b81546000908210611e7c5760405162461bcd60e51b8152600401808060200182810382526022815260200180611f766022913960400191505060405180910390fd5b826000018281548110611e8b57fe5b9060005260206000200154905092915050565b6000611eaa8383611ee8565b611ee0575081546001818101845560008481526020808220909301849055845484825282860190935260409020919091556107b5565b5060006107b5565b60009081526001919091016020526040902054151590565b6000816401000000008410611f565760405162461bcd60e51b815260206004820181815283516024840152835190928392604490910191908501908083836000831561180d5781810151838201526020016117f5565b509192915050565b60408051808201909152600080825260208201529056fe456e756d657261626c655365743a20696e646578206f7574206f6620626f756e64734253573a3a64656c656761746542795369673a20696e76616c6964207369676e617475726542455032303a207472616e736665722066726f6d20746865207a65726f206164647265737342455032303a20617070726f76652066726f6d20746865207a65726f20616464726573734f776e61626c653a206e6577206f776e657220697320746865207a65726f20616464726573734253573a205f64656c4d696e74657220697320746865207a65726f20616464726573734253573a205f6164644d696e74657220697320746865207a65726f206164647265737342455032303a207472616e7366657220616d6f756e74206578636565647320616c6c6f77616e63654253573a3a64656c656761746542795369673a20696e76616c6964206e6f6e63654253573a3a6765745072696f72566f7465733a206e6f74207965742064657465726d696e65644253573a3a5f7772697465436865636b706f696e743a20626c6f636b206e756d6265722065786365656473203332206269747342455032303a207472616e7366657220616d6f756e7420657863656564732062616c616e636542455032303a207472616e7366657220746f20746865207a65726f206164647265737342455032303a2064656372656173656420616c6c6f77616e63652062656c6f77207a65726f4253573a3a64656c656761746542795369673a207369676e6174757265206578706972656442455032303a20617070726f766520746f20746865207a65726f2061646472657373a2646970667358221220cab0319cee9473719b18c918850a07cb984b40a1a9588390ee8bbfafc9986d4664736f6c634300060c0033",
  "devdoc": {
    "kind": "dev",
    "methods": {
      "allowance(address,address)": {
        "details": "See {BEP20-allowance}."
      },
      "approve(address,uint256)": {
        "details": "See {BEP20-approve}. Requirements: - `spender` cannot be the zero address."
      },
      "balanceOf(address)": {
        "details": "See {BEP20-balanceOf}."
      },
      "decimals()": {
        "details": "Returns the token decimals."
      },
      "decreaseAllowance(address,uint256)": {
        "details": "Atomically decreases the allowance granted to `spender` by the caller. This is an alternative to {approve} that can be used as a mitigation for problems described in {BEP20-approve}. Emits an {Approval} event indicating the updated allowance. Requirements: - `spender` cannot be the zero address. - `spender` must have allowance for the caller of at least `subtractedValue`."
      },
      "delegate(address)": {
        "params": {
          "delegatee": "The address to delegate votes to"
        }
      },
      "delegateBySig(address,uint256,uint256,uint8,bytes32,bytes32)": {
        "params": {
          "delegatee": "The address to delegate votes to",
          "expiry": "The time at which to expire the signature",
          "nonce": "The contract state required to match the signature",
          "r": "Half of the ECDSA signature pair",
          "s": "Half of the ECDSA signature pair",
          "v": "The recovery byte of the signature"
        }
      },
      "delegates(address)": {
        "params": {
          "delegator": "The address to get delegatee for"
        }
      },
      "getCurrentVotes(address)": {
        "params": {
          "account": "The address to get votes balance"
        },
        "returns": {
          "_0": "The number of current votes for `account`"
        }
      },
      "getOwner()": {
        "details": "Returns the bep token owner."
      },
      "getPriorVotes(address,uint256)": {
        "details": "Block number must be a finalized block or else this function will revert to prevent misinformation.",
        "params": {
          "account": "The address of the account to check",
          "blockNumber": "The block number to get the vote balance at"
        },
        "returns": {
          "_0": "The number of votes the account had as of the given block"
        }
      },
      "increaseAllowance(address,uint256)": {
        "details": "Atomically increases the allowance granted to `spender` by the caller. This is an alternative to {approve} that can be used as a mitigation for problems described in {BEP20-approve}. Emits an {Approval} event indicating the updated allowance. Requirements: - `spender` cannot be the zero address."
      },
      "name()": {
        "details": "Returns the token name."
      },
      "owner()": {
        "details": "Returns the address of the current owner."
      },
      "renounceOwnership()": {
        "details": "Leaves the contract without owner. It will not be possible to call `onlyOwner` functions anymore. Can only be called by the current owner. NOTE: Renouncing ownership will leave the contract without an owner, thereby removing any functionality that is only available to the owner."
      },
      "symbol()": {
        "details": "Returns the token symbol."
      },
      "totalSupply()": {
        "details": "See {BEP20-totalSupply}."
      },
      "transfer(address,uint256)": {
        "details": "See {BEP20-transfer}. Requirements: - `recipient` cannot be the zero address. - the caller must have a balance of at least `amount`."
      },
      "transferFrom(address,address,uint256)": {
        "details": "See {BEP20-transferFrom}. Emits an {Approval} event indicating the updated allowance. This is not required by the EIP. See the note at the beginning of {BEP20}; Requirements: - `sender` and `recipient` cannot be the zero address. - `sender` must have a balance of at least `amount`. - the caller must have allowance for `sender`'s tokens of at least `amount`."
      },
      "transferOwnership(address)": {
        "details": "Transfers ownership of the contract to a new account (`newOwner`). Can only be called by the current owner."
      }
    },
    "version": 1
  },
  "userdoc": {
    "events": {
      "DelegateChanged(address,address,address)": {
        "notice": "An event thats emitted when an account changes its delegate"
      },
      "DelegateVotesChanged(address,uint256,uint256)": {
        "notice": "An event thats emitted when a delegate account's vote balance changes"
      }
    },
    "kind": "user",
    "methods": {
      "DELEGATION_TYPEHASH()": {
        "notice": "The EIP-712 typehash for the delegation struct used by the contract"
      },
      "DOMAIN_TYPEHASH()": {
        "notice": "The EIP-712 typehash for the contract's domain"
      },
      "checkpoints(address,uint32)": {
        "notice": "A record of votes checkpoints for each account, by index"
      },
      "delegate(address)": {
        "notice": "Delegate votes from `msg.sender` to `delegatee`"
      },
      "delegateBySig(address,uint256,uint256,uint8,bytes32,bytes32)": {
        "notice": "Delegates votes from signatory to `delegatee`"
      },
      "delegates(address)": {
        "notice": "Delegate votes from `msg.sender` to `delegatee`"
      },
      "getCurrentVotes(address)": {
        "notice": "Gets the current votes balance for `account`"
      },
      "getPriorVotes(address,uint256)": {
        "notice": "Determine the prior number of votes for an account as of a block number"
      },
      "mint(address,uint256)": {
        "notice": "Creates `_amount` token to `_to`."
      },
      "nonces(address)": {
        "notice": "A record of states for signing / validating signatures"
      },
      "numCheckpoints(address)": {
        "notice": "The number of checkpoints for each account"
      }
    },
    "version": 1
  },
  "storageLayout": {
    "storage": [
      {
        "astId": 290,
        "contract": "contracts/test/biswap-farm/BSWToken.sol:BSWToken",
        "label": "_owner",
        "offset": 0,
        "slot": "0",
        "type": "t_address"
      },
      {
        "astId": 14268,
        "contract": "contracts/test/biswap-farm/BSWToken.sol:BSWToken",
        "label": "_balances",
        "offset": 0,
        "slot": "1",
        "type": "t_mapping(t_address,t_uint256)"
      },
      {
        "astId": 14274,
        "contract": "contracts/test/biswap-farm/BSWToken.sol:BSWToken",
        "label": "_allowances",
        "offset": 0,
        "slot": "2",
        "type": "t_mapping(t_address,t_mapping(t_address,t_uint256))"
      },
      {
        "astId": 14276,
        "contract": "contracts/test/biswap-farm/BSWToken.sol:BSWToken",
        "label": "_totalSupply",
        "offset": 0,
        "slot": "3",
        "type": "t_uint256"
      },
      {
        "astId": 14278,
        "contract": "contracts/test/biswap-farm/BSWToken.sol:BSWToken",
        "label": "_name",
        "offset": 0,
        "slot": "4",
        "type": "t_string_storage"
      },
      {
        "astId": 14280,
        "contract": "contracts/test/biswap-farm/BSWToken.sol:BSWToken",
        "label": "_symbol",
        "offset": 0,
        "slot": "5",
        "type": "t_string_storage"
      },
      {
        "astId": 14282,
        "contract": "contracts/test/biswap-farm/BSWToken.sol:BSWToken",
        "label": "_decimals",
        "offset": 0,
        "slot": "6",
        "type": "t_uint8"
      },
      {
        "astId": 14801,
        "contract": "contracts/test/biswap-farm/BSWToken.sol:BSWToken",
        "label": "_minters",
        "offset": 0,
        "slot": "7",
        "type": "t_struct(AddressSet)2136_storage"
      },
      {
        "astId": 14837,
        "contract": "contracts/test/biswap-farm/BSWToken.sol:BSWToken",
        "label": "_delegates",
        "offset": 0,
        "slot": "9",
        "type": "t_mapping(t_address,t_address)"
      },
      {
        "astId": 14849,
        "contract": "contracts/test/biswap-farm/BSWToken.sol:BSWToken",
        "label": "checkpoints",
        "offset": 0,
        "slot": "10",
        "type": "t_mapping(t_address,t_mapping(t_uint32,t_struct(Checkpoint)14842_storage))"
      },
      {
        "astId": 14854,
        "contract": "contracts/test/biswap-farm/BSWToken.sol:BSWToken",
        "label": "numCheckpoints",
        "offset": 0,
        "slot": "11",
        "type": "t_mapping(t_address,t_uint32)"
      },
      {
        "astId": 14871,
        "contract": "contracts/test/biswap-farm/BSWToken.sol:BSWToken",
        "label": "nonces",
        "offset": 0,
        "slot": "12",
        "type": "t_mapping(t_address,t_uint256)"
      }
    ],
    "types": {
      "t_address": {
        "encoding": "inplace",
        "label": "address",
        "numberOfBytes": "20"
      },
      "t_array(t_bytes32)dyn_storage": {
        "base": "t_bytes32",
        "encoding": "dynamic_array",
        "label": "bytes32[]",
        "numberOfBytes": "32"
      },
      "t_bytes32": {
        "encoding": "inplace",
        "label": "bytes32",
        "numberOfBytes": "32"
      },
      "t_mapping(t_address,t_address)": {
        "encoding": "mapping",
        "key": "t_address",
        "label": "mapping(address => address)",
        "numberOfBytes": "32",
        "value": "t_address"
      },
      "t_mapping(t_address,t_mapping(t_address,t_uint256))": {
        "encoding": "mapping",
        "key": "t_address",
        "label": "mapping(address => mapping(address => uint256))",
        "numberOfBytes": "32",
        "value": "t_mapping(t_address,t_uint256)"
      },
      "t_mapping(t_address,t_mapping(t_uint32,t_struct(Checkpoint)14842_storage))": {
        "encoding": "mapping",
        "key": "t_address",
        "label": "mapping(address => mapping(uint32 => struct BSWToken.Checkpoint))",
        "numberOfBytes": "32",
        "value": "t_mapping(t_uint32,t_struct(Checkpoint)14842_storage)"
      },
      "t_mapping(t_address,t_uint256)": {
        "encoding": "mapping",
        "key": "t_address",
        "label": "mapping(address => uint256)",
        "numberOfBytes": "32",
        "value": "t_uint256"
      },
      "t_mapping(t_address,t_uint32)": {
        "encoding": "mapping",
        "key": "t_address",
        "label": "mapping(address => uint32)",
        "numberOfBytes": "32",
        "value": "t_uint32"
      },
      "t_mapping(t_bytes32,t_uint256)": {
        "encoding": "mapping",
        "key": "t_bytes32",
        "label": "mapping(bytes32 => uint256)",
        "numberOfBytes": "32",
        "value": "t_uint256"
      },
      "t_mapping(t_uint32,t_struct(Checkpoint)14842_storage)": {
        "encoding": "mapping",
        "key": "t_uint32",
        "label": "mapping(uint32 => struct BSWToken.Checkpoint)",
        "numberOfBytes": "32",
        "value": "t_struct(Checkpoint)14842_storage"
      },
      "t_string_storage": {
        "encoding": "bytes",
        "label": "string",
        "numberOfBytes": "32"
      },
      "t_struct(AddressSet)2136_storage": {
        "encoding": "inplace",
        "label": "struct EnumerableSet.AddressSet",
        "members": [
          {
            "astId": 2135,
            "contract": "contracts/test/biswap-farm/BSWToken.sol:BSWToken",
            "label": "_inner",
            "offset": 0,
            "slot": "0",
            "type": "t_struct(Set)1871_storage"
          }
        ],
        "numberOfBytes": "64"
      },
      "t_struct(Checkpoint)14842_storage": {
        "encoding": "inplace",
        "label": "struct BSWToken.Checkpoint",
        "members": [
          {
            "astId": 14839,
            "contract": "contracts/test/biswap-farm/BSWToken.sol:BSWToken",
            "label": "fromBlock",
            "offset": 0,
            "slot": "0",
            "type": "t_uint32"
          },
          {
            "astId": 14841,
            "contract": "contracts/test/biswap-farm/BSWToken.sol:BSWToken",
            "label": "votes",
            "offset": 0,
            "slot": "1",
            "type": "t_uint256"
          }
        ],
        "numberOfBytes": "64"
      },
      "t_struct(Set)1871_storage": {
        "encoding": "inplace",
        "label": "struct EnumerableSet.Set",
        "members": [
          {
            "astId": 1866,
            "contract": "contracts/test/biswap-farm/BSWToken.sol:BSWToken",
            "label": "_values",
            "offset": 0,
            "slot": "0",
            "type": "t_array(t_bytes32)dyn_storage"
          },
          {
            "astId": 1870,
            "contract": "contracts/test/biswap-farm/BSWToken.sol:BSWToken",
            "label": "_indexes",
            "offset": 0,
            "slot": "1",
            "type": "t_mapping(t_bytes32,t_uint256)"
          }
        ],
        "numberOfBytes": "64"
      },
      "t_uint256": {
        "encoding": "inplace",
        "label": "uint256",
        "numberOfBytes": "32"
      },
      "t_uint32": {
        "encoding": "inplace",
        "label": "uint32",
        "numberOfBytes": "4"
      },
      "t_uint8": {
        "encoding": "inplace",
        "label": "uint8",
        "numberOfBytes": "1"
      }
    }
  }
}