{
  "address": "0x68C78c46d4b2370b75cfb664208257c8c4ee775c",
  "abi": [
    {
      "inputs": [
        {
          "internalType": "address",
          "name": "_core",
          "type": "address"
        },
        {
          "internalType": "address",
          "name": "_xmsAddress",
          "type": "address"
        },
        {
          "internalType": "address",
          "name": "_vestingMaster",
          "type": "address"
        },
        {
          "internalType": "address",
          "name": "_rewardToken",
          "type": "address"
        },
        {
          "internalType": "uint256",
          "name": "_tokenPerBlock",
          "type": "uint256"
        },
        {
          "internalType": "uint256",
          "name": "_startBlock",
          "type": "uint256"
        },
        {
          "internalType": "uint256",
          "name": "_endBlock",
          "type": "uint256"
        }
      ],
      "stateMutability": "nonpayable",
      "type": "constructor"
    },
    {
      "anonymous": false,
      "inputs": [
        {
          "indexed": true,
          "internalType": "address",
          "name": "owner",
          "type": "address"
        },
        {
          "indexed": true,
          "internalType": "address",
          "name": "spender",
          "type": "address"
        },
        {
          "indexed": false,
          "internalType": "uint256",
          "name": "value",
          "type": "uint256"
        }
      ],
      "name": "Approval",
      "type": "event"
    },
    {
      "anonymous": false,
      "inputs": [
        {
          "indexed": true,
          "internalType": "address",
          "name": "_core",
          "type": "address"
        }
      ],
      "name": "CoreUpdate",
      "type": "event"
    },
    {
      "anonymous": false,
      "inputs": [
        {
          "indexed": true,
          "internalType": "address",
          "name": "delegator",
          "type": "address"
        },
        {
          "indexed": true,
          "internalType": "address",
          "name": "fromDelegate",
          "type": "address"
        },
        {
          "indexed": true,
          "internalType": "address",
          "name": "toDelegate",
          "type": "address"
        }
      ],
      "name": "DelegateChanged",
      "type": "event"
    },
    {
      "anonymous": false,
      "inputs": [
        {
          "indexed": true,
          "internalType": "address",
          "name": "delegate",
          "type": "address"
        },
        {
          "indexed": false,
          "internalType": "uint256",
          "name": "previousBalance",
          "type": "uint256"
        },
        {
          "indexed": false,
          "internalType": "uint256",
          "name": "newBalance",
          "type": "uint256"
        }
      ],
      "name": "DelegateVotesChanged",
      "type": "event"
    },
    {
      "anonymous": false,
      "inputs": [
        {
          "indexed": true,
          "internalType": "address",
          "name": "user",
          "type": "address"
        },
        {
          "indexed": true,
          "internalType": "uint256",
          "name": "pid",
          "type": "uint256"
        },
        {
          "indexed": false,
          "internalType": "uint256",
          "name": "amount",
          "type": "uint256"
        },
        {
          "indexed": false,
          "internalType": "uint256",
          "name": "totalAmount",
          "type": "uint256"
        },
        {
          "indexed": false,
          "internalType": "uint256",
          "name": "rewardDebt",
          "type": "uint256"
        }
      ],
      "name": "Deposit",
      "type": "event"
    },
    {
      "anonymous": false,
      "inputs": [
        {
          "indexed": true,
          "internalType": "address",
          "name": "user",
          "type": "address"
        },
        {
          "indexed": true,
          "internalType": "uint256",
          "name": "pid",
          "type": "uint256"
        },
        {
          "indexed": false,
          "internalType": "uint256",
          "name": "amount",
          "type": "uint256"
        }
      ],
      "name": "EmergencyWithdraw",
      "type": "event"
    },
    {
      "anonymous": false,
      "inputs": [
        {
          "indexed": false,
          "internalType": "address",
          "name": "account",
          "type": "address"
        }
      ],
      "name": "Paused",
      "type": "event"
    },
    {
      "anonymous": false,
      "inputs": [
        {
          "indexed": true,
          "internalType": "address",
          "name": "from",
          "type": "address"
        },
        {
          "indexed": true,
          "internalType": "address",
          "name": "to",
          "type": "address"
        },
        {
          "indexed": false,
          "internalType": "uint256",
          "name": "value",
          "type": "uint256"
        }
      ],
      "name": "Transfer",
      "type": "event"
    },
    {
      "anonymous": false,
      "inputs": [
        {
          "indexed": false,
          "internalType": "address",
          "name": "account",
          "type": "address"
        }
      ],
      "name": "Unpaused",
      "type": "event"
    },
    {
      "anonymous": false,
      "inputs": [
        {
          "indexed": true,
          "internalType": "address",
          "name": "user",
          "type": "address"
        },
        {
          "indexed": false,
          "internalType": "uint256",
          "name": "tokenPerBlock",
          "type": "uint256"
        }
      ],
      "name": "UpdateEmissionRate",
      "type": "event"
    },
    {
      "anonymous": false,
      "inputs": [
        {
          "indexed": true,
          "internalType": "address",
          "name": "user",
          "type": "address"
        },
        {
          "indexed": false,
          "internalType": "uint256",
          "name": "endBlock",
          "type": "uint256"
        }
      ],
      "name": "UpdateEndBlock",
      "type": "event"
    },
    {
      "anonymous": false,
      "inputs": [
        {
          "indexed": false,
          "internalType": "address",
          "name": "lpToken",
          "type": "address"
        },
        {
          "indexed": false,
          "internalType": "uint256",
          "name": "accTokenPerShare",
          "type": "uint256"
        },
        {
          "indexed": false,
          "internalType": "uint256",
          "name": "reward",
          "type": "uint256"
        },
        {
          "indexed": false,
          "internalType": "uint256",
          "name": "lpSupply",
          "type": "uint256"
        }
      ],
      "name": "UpdatePool",
      "type": "event"
    },
    {
      "anonymous": false,
      "inputs": [
        {
          "indexed": true,
          "internalType": "address",
          "name": "user",
          "type": "address"
        },
        {
          "indexed": false,
          "internalType": "address",
          "name": "vestingMaster",
          "type": "address"
        }
      ],
      "name": "UpdateVestingMaster",
      "type": "event"
    },
    {
      "anonymous": false,
      "inputs": [
        {
          "indexed": true,
          "internalType": "address",
          "name": "user",
          "type": "address"
        },
        {
          "indexed": true,
          "internalType": "uint256",
          "name": "pid",
          "type": "uint256"
        },
        {
          "indexed": false,
          "internalType": "uint256",
          "name": "amount",
          "type": "uint256"
        },
        {
          "indexed": false,
          "internalType": "uint256",
          "name": "totalAmount",
          "type": "uint256"
        },
        {
          "indexed": false,
          "internalType": "uint256",
          "name": "rewardDebt",
          "type": "uint256"
        }
      ],
      "name": "Withdraw",
      "type": "event"
    },
    {
      "inputs": [],
      "name": "BONUS_MULTIPLIER",
      "outputs": [
        {
          "internalType": "uint256",
          "name": "",
          "type": "uint256"
        }
      ],
      "stateMutability": "view",
      "type": "function"
    },
    {
      "inputs": [],
      "name": "DELEGATION_TYPEHASH",
      "outputs": [
        {
          "internalType": "bytes32",
          "name": "",
          "type": "bytes32"
        }
      ],
      "stateMutability": "view",
      "type": "function"
    },
    {
      "inputs": [],
      "name": "DOMAIN_TYPEHASH",
      "outputs": [
        {
          "internalType": "bytes32",
          "name": "",
          "type": "bytes32"
        }
      ],
      "stateMutability": "view",
      "type": "function"
    },
    {
      "inputs": [],
      "name": "MASTER_ROLE",
      "outputs": [
        {
          "internalType": "bytes32",
          "name": "",
          "type": "bytes32"
        }
      ],
      "stateMutability": "view",
      "type": "function"
    },
    {
      "inputs": [
        {
          "internalType": "uint256",
          "name": "_allocPoint",
          "type": "uint256"
        },
        {
          "internalType": "contract IERC20",
          "name": "_lpToken",
          "type": "address"
        },
        {
          "internalType": "bool",
          "name": "_locked",
          "type": "bool"
        },
        {
          "internalType": "bool",
          "name": "_withUpdate",
          "type": "bool"
        }
      ],
      "name": "addPool",
      "outputs": [],
      "stateMutability": "nonpayable",
      "type": "function"
    },
    {
      "inputs": [
        {
          "internalType": "address",
          "name": "owner",
          "type": "address"
        },
        {
          "internalType": "address",
          "name": "spender",
          "type": "address"
        }
      ],
      "name": "allowance",
      "outputs": [
        {
          "internalType": "uint256",
          "name": "",
          "type": "uint256"
        }
      ],
      "stateMutability": "view",
      "type": "function"
    },
    {
      "inputs": [
        {
          "internalType": "address",
          "name": "spender",
          "type": "address"
        },
        {
          "internalType": "uint256",
          "name": "amount",
          "type": "uint256"
        }
      ],
      "name": "approve",
      "outputs": [
        {
          "internalType": "bool",
          "name": "",
          "type": "bool"
        }
      ],
      "stateMutability": "nonpayable",
      "type": "function"
    },
    {
      "inputs": [
        {
          "internalType": "address",
          "name": "account",
          "type": "address"
        }
      ],
      "name": "balanceOf",
      "outputs": [
        {
          "internalType": "uint256",
          "name": "",
          "type": "uint256"
        }
      ],
      "stateMutability": "view",
      "type": "function"
    },
    {
      "inputs": [
        {
          "internalType": "address",
          "name": "",
          "type": "address"
        },
        {
          "internalType": "uint32",
          "name": "",
          "type": "uint32"
        }
      ],
      "name": "checkpoints",
      "outputs": [
        {
          "internalType": "uint32",
          "name": "fromBlock",
          "type": "uint32"
        },
        {
          "internalType": "uint256",
          "name": "votes",
          "type": "uint256"
        }
      ],
      "stateMutability": "view",
      "type": "function"
    },
    {
      "inputs": [],
      "name": "core",
      "outputs": [
        {
          "internalType": "contract ICore",
          "name": "",
          "type": "address"
        }
      ],
      "stateMutability": "view",
      "type": "function"
    },
    {
      "inputs": [],
      "name": "decimals",
      "outputs": [
        {
          "internalType": "uint8",
          "name": "",
          "type": "uint8"
        }
      ],
      "stateMutability": "view",
      "type": "function"
    },
    {
      "inputs": [
        {
          "internalType": "address",
          "name": "spender",
          "type": "address"
        },
        {
          "internalType": "uint256",
          "name": "subtractedValue",
          "type": "uint256"
        }
      ],
      "name": "decreaseAllowance",
      "outputs": [
        {
          "internalType": "bool",
          "name": "",
          "type": "bool"
        }
      ],
      "stateMutability": "nonpayable",
      "type": "function"
    },
    {
      "inputs": [
        {
          "internalType": "address",
          "name": "delegatee",
          "type": "address"
        }
      ],
      "name": "delegate",
      "outputs": [],
      "stateMutability": "nonpayable",
      "type": "function"
    },
    {
      "inputs": [
        {
          "internalType": "address",
          "name": "delegatee",
          "type": "address"
        },
        {
          "internalType": "uint256",
          "name": "nonce",
          "type": "uint256"
        },
        {
          "internalType": "uint256",
          "name": "expiry",
          "type": "uint256"
        },
        {
          "internalType": "uint8",
          "name": "v",
          "type": "uint8"
        },
        {
          "internalType": "bytes32",
          "name": "r",
          "type": "bytes32"
        },
        {
          "internalType": "bytes32",
          "name": "s",
          "type": "bytes32"
        }
      ],
      "name": "delegateBySig",
      "outputs": [],
      "stateMutability": "nonpayable",
      "type": "function"
    },
    {
      "inputs": [
        {
          "internalType": "address",
          "name": "",
          "type": "address"
        }
      ],
      "name": "delegates",
      "outputs": [
        {
          "internalType": "address",
          "name": "",
          "type": "address"
        }
      ],
      "stateMutability": "view",
      "type": "function"
    },
    {
      "inputs": [
        {
          "internalType": "uint256",
          "name": "_pid",
          "type": "uint256"
        },
        {
          "internalType": "uint256",
          "name": "_amount",
          "type": "uint256"
        }
      ],
      "name": "deposit",
      "outputs": [],
      "stateMutability": "nonpayable",
      "type": "function"
    },
    {
      "inputs": [
        {
          "internalType": "uint256",
          "name": "_pid",
          "type": "uint256"
        }
      ],
      "name": "emergencyWithdraw",
      "outputs": [],
      "stateMutability": "nonpayable",
      "type": "function"
    },
    {
      "inputs": [],
      "name": "endBlock",
      "outputs": [
        {
          "internalType": "uint256",
          "name": "",
          "type": "uint256"
        }
      ],
      "stateMutability": "view",
      "type": "function"
    },
    {
      "inputs": [
        {
          "internalType": "address",
          "name": "account",
          "type": "address"
        }
      ],
      "name": "getCurrentVotes",
      "outputs": [
        {
          "internalType": "uint256",
          "name": "",
          "type": "uint256"
        }
      ],
      "stateMutability": "view",
      "type": "function"
    },
    {
      "inputs": [
        {
          "internalType": "uint256",
          "name": "_from",
          "type": "uint256"
        },
        {
          "internalType": "uint256",
          "name": "_to",
          "type": "uint256"
        }
      ],
      "name": "getMultiplier",
      "outputs": [
        {
          "internalType": "uint256",
          "name": "",
          "type": "uint256"
        }
      ],
      "stateMutability": "pure",
      "type": "function"
    },
    {
      "inputs": [],
      "name": "getNoHarvestReward",
      "outputs": [
        {
          "internalType": "uint256",
          "name": "",
          "type": "uint256"
        }
      ],
      "stateMutability": "view",
      "type": "function"
    },
    {
      "inputs": [
        {
          "internalType": "address",
          "name": "account",
          "type": "address"
        },
        {
          "internalType": "uint256",
          "name": "blockNumber",
          "type": "uint256"
        }
      ],
      "name": "getPriorVotes",
      "outputs": [
        {
          "internalType": "uint256",
          "name": "",
          "type": "uint256"
        }
      ],
      "stateMutability": "view",
      "type": "function"
    },
    {
      "inputs": [
        {
          "internalType": "address",
          "name": "spender",
          "type": "address"
        },
        {
          "internalType": "uint256",
          "name": "addedValue",
          "type": "uint256"
        }
      ],
      "name": "increaseAllowance",
      "outputs": [
        {
          "internalType": "bool",
          "name": "",
          "type": "bool"
        }
      ],
      "stateMutability": "nonpayable",
      "type": "function"
    },
    {
      "inputs": [],
      "name": "massUpdatePools",
      "outputs": [],
      "stateMutability": "nonpayable",
      "type": "function"
    },
    {
      "inputs": [],
      "name": "name",
      "outputs": [
        {
          "internalType": "string",
          "name": "",
          "type": "string"
        }
      ],
      "stateMutability": "view",
      "type": "function"
    },
    {
      "inputs": [
        {
          "internalType": "address",
          "name": "",
          "type": "address"
        }
      ],
      "name": "nonces",
      "outputs": [
        {
          "internalType": "uint256",
          "name": "",
          "type": "uint256"
        }
      ],
      "stateMutability": "view",
      "type": "function"
    },
    {
      "inputs": [
        {
          "internalType": "address",
          "name": "",
          "type": "address"
        }
      ],
      "name": "numCheckpoints",
      "outputs": [
        {
          "internalType": "uint32",
          "name": "",
          "type": "uint32"
        }
      ],
      "stateMutability": "view",
      "type": "function"
    },
    {
      "inputs": [
        {
          "internalType": "address",
          "name": "",
          "type": "address"
        }
      ],
      "name": "pair2Pid",
      "outputs": [
        {
          "internalType": "uint256",
          "name": "",
          "type": "uint256"
        }
      ],
      "stateMutability": "view",
      "type": "function"
    },
    {
      "inputs": [],
      "name": "pause",
      "outputs": [],
      "stateMutability": "nonpayable",
      "type": "function"
    },
    {
      "inputs": [],
      "name": "paused",
      "outputs": [
        {
          "internalType": "bool",
          "name": "",
          "type": "bool"
        }
      ],
      "stateMutability": "view",
      "type": "function"
    },
    {
      "inputs": [
        {
          "internalType": "uint256",
          "name": "_pid",
          "type": "uint256"
        },
        {
          "internalType": "address",
          "name": "_user",
          "type": "address"
        }
      ],
      "name": "pendingToken",
      "outputs": [
        {
          "internalType": "uint256",
          "name": "",
          "type": "uint256"
        }
      ],
      "stateMutability": "view",
      "type": "function"
    },
    {
      "inputs": [
        {
          "internalType": "contract IERC20",
          "name": "",
          "type": "address"
        }
      ],
      "name": "poolExistence",
      "outputs": [
        {
          "internalType": "bool",
          "name": "",
          "type": "bool"
        }
      ],
      "stateMutability": "view",
      "type": "function"
    },
    {
      "inputs": [
        {
          "internalType": "uint256",
          "name": "",
          "type": "uint256"
        }
      ],
      "name": "poolInfo",
      "outputs": [
        {
          "internalType": "contract IERC20",
          "name": "lpToken",
          "type": "address"
        },
        {
          "internalType": "uint256",
          "name": "allocPoint",
          "type": "uint256"
        },
        {
          "internalType": "uint256",
          "name": "lastRewardBlock",
          "type": "uint256"
        },
        {
          "internalType": "uint256",
          "name": "accTokenPerShare",
          "type": "uint256"
        },
        {
          "internalType": "bool",
          "name": "locked",
          "type": "bool"
        }
      ],
      "stateMutability": "view",
      "type": "function"
    },
    {
      "inputs": [],
      "name": "poolLength",
      "outputs": [
        {
          "internalType": "uint256",
          "name": "",
          "type": "uint256"
        }
      ],
      "stateMutability": "view",
      "type": "function"
    },
    {
      "inputs": [],
      "name": "rewardToken",
      "outputs": [
        {
          "internalType": "contract IERC20",
          "name": "",
          "type": "address"
        }
      ],
      "stateMutability": "view",
      "type": "function"
    },
    {
      "inputs": [
        {
          "internalType": "address",
          "name": "core_",
          "type": "address"
        }
      ],
      "name": "setCore",
      "outputs": [],
      "stateMutability": "nonpayable",
      "type": "function"
    },
    {
      "inputs": [
        {
          "internalType": "uint256",
          "name": "_pid",
          "type": "uint256"
        },
        {
          "internalType": "uint256",
          "name": "_allocPoint",
          "type": "uint256"
        },
        {
          "internalType": "bool",
          "name": "_locked",
          "type": "bool"
        },
        {
          "internalType": "bool",
          "name": "_withUpdate",
          "type": "bool"
        }
      ],
      "name": "setPool",
      "outputs": [],
      "stateMutability": "nonpayable",
      "type": "function"
    },
    {
      "inputs": [],
      "name": "startBlock",
      "outputs": [
        {
          "internalType": "uint256",
          "name": "",
          "type": "uint256"
        }
      ],
      "stateMutability": "view",
      "type": "function"
    },
    {
      "inputs": [],
      "name": "symbol",
      "outputs": [
        {
          "internalType": "string",
          "name": "",
          "type": "string"
        }
      ],
      "stateMutability": "view",
      "type": "function"
    },
    {
      "inputs": [],
      "name": "tokenPerBlock",
      "outputs": [
        {
          "internalType": "uint256",
          "name": "",
          "type": "uint256"
        }
      ],
      "stateMutability": "view",
      "type": "function"
    },
    {
      "inputs": [],
      "name": "totalAllocPoint",
      "outputs": [
        {
          "internalType": "uint256",
          "name": "",
          "type": "uint256"
        }
      ],
      "stateMutability": "view",
      "type": "function"
    },
    {
      "inputs": [],
      "name": "totalSupply",
      "outputs": [
        {
          "internalType": "uint256",
          "name": "",
          "type": "uint256"
        }
      ],
      "stateMutability": "view",
      "type": "function"
    },
    {
      "inputs": [
        {
          "internalType": "address",
          "name": "to",
          "type": "address"
        },
        {
          "internalType": "uint256",
          "name": "amount",
          "type": "uint256"
        }
      ],
      "name": "transfer",
      "outputs": [
        {
          "internalType": "bool",
          "name": "",
          "type": "bool"
        }
      ],
      "stateMutability": "nonpayable",
      "type": "function"
    },
    {
      "inputs": [
        {
          "internalType": "address",
          "name": "from",
          "type": "address"
        },
        {
          "internalType": "address",
          "name": "to",
          "type": "address"
        },
        {
          "internalType": "uint256",
          "name": "amount",
          "type": "uint256"
        }
      ],
      "name": "transferFrom",
      "outputs": [
        {
          "internalType": "bool",
          "name": "",
          "type": "bool"
        }
      ],
      "stateMutability": "nonpayable",
      "type": "function"
    },
    {
      "inputs": [],
      "name": "unpause",
      "outputs": [],
      "stateMutability": "nonpayable",
      "type": "function"
    },
    {
      "inputs": [
        {
          "internalType": "uint256",
          "name": "_endBlock",
          "type": "uint256"
        }
      ],
      "name": "updateEndBlock",
      "outputs": [],
      "stateMutability": "nonpayable",
      "type": "function"
    },
    {
      "inputs": [
        {
          "internalType": "uint256",
          "name": "_pid",
          "type": "uint256"
        }
      ],
      "name": "updatePool",
      "outputs": [],
      "stateMutability": "nonpayable",
      "type": "function"
    },
    {
      "inputs": [
        {
          "internalType": "uint256",
          "name": "_tokenPerBlock",
          "type": "uint256"
        }
      ],
      "name": "updateTokenPerBlock",
      "outputs": [],
      "stateMutability": "nonpayable",
      "type": "function"
    },
    {
      "inputs": [
        {
          "internalType": "address",
          "name": "_vestingMaster",
          "type": "address"
        }
      ],
      "name": "updateVestingMaster",
      "outputs": [],
      "stateMutability": "nonpayable",
      "type": "function"
    },
    {
      "inputs": [
        {
          "internalType": "uint256",
          "name": "",
          "type": "uint256"
        },
        {
          "internalType": "address",
          "name": "",
          "type": "address"
        }
      ],
      "name": "userInfo",
      "outputs": [
        {
          "internalType": "uint256",
          "name": "amount",
          "type": "uint256"
        },
        {
          "internalType": "uint256",
          "name": "rewardDebt",
          "type": "uint256"
        }
      ],
      "stateMutability": "view",
      "type": "function"
    },
    {
      "inputs": [],
      "name": "vestingMaster",
      "outputs": [
        {
          "internalType": "contract IVestingMaster",
          "name": "",
          "type": "address"
        }
      ],
      "stateMutability": "view",
      "type": "function"
    },
    {
      "inputs": [
        {
          "internalType": "uint256",
          "name": "_pid",
          "type": "uint256"
        },
        {
          "internalType": "uint256",
          "name": "_amount",
          "type": "uint256"
        }
      ],
      "name": "withdraw",
      "outputs": [],
      "stateMutability": "nonpayable",
      "type": "function"
    },
    {
      "inputs": [],
      "name": "xmsAddress",
      "outputs": [
        {
          "internalType": "address",
          "name": "",
          "type": "address"
        }
      ],
      "stateMutability": "view",
      "type": "function"
    }
  ],
  "transactionHash": "0x74a6f6520cbeb348417470c7bd5f534178c6b2c181cadd3b004ed45c83fbae0d",
  "args": [
    "0x40fc3759Ccc4E466650891a91F34Bdd6129094D6",
    "0x70138966a7CcFd7DB437797126E547fcB21e69BC",
    "0x0000000000000000000000000000000000000000",
    "0x9Ff7010Fe2DbdD638257b8eaA1a65e73129361A3",
    "5000000000000000",
    0,
    "1000000000000000000"
  ],
  "solcInputHash": "2f541bcd60d5e1a907d6462ac5275e07",
  "bytecode": "0x608060405260006012553480156200001657600080fd5b5060405162004a3938038062004a39833981016040819052620000399162000228565b604080518082018252601581527f4d617273204661726d73205365656420546f6b656e0000000000000000000000602080830191825283518085019094526005808552641354d1515160da1b918501919091526001600081905580546001600160a81b0319166101006001600160a01b038e1602179055825192939284928492620000c7929091906200016e565b508051620000dd9060069060208401906200016e565b50506007805460ff191660121790555050508082106200011a5760405162461bcd60e51b81526004016200011190620002a5565b60405180910390fd5b601880546001600160a01b03199081166001600160a01b0398891617909155600c80548216968816969096179095556015805490951693909516929092179092556011919091556013556014555062000302565b828054600181600116156101000203166002900490600052602060002090601f016020900481019282601f10620001b157805160ff1916838001178555620001e1565b82800160010185558215620001e1579182015b82811115620001e1578251825591602001919060010190620001c4565b50620001ef929150620001f3565b5090565b5b80821115620001ef5760008155600101620001f4565b80516001600160a01b03811681146200022257600080fd5b92915050565b600080600080600080600060e0888a03121562000243578283fd5b6200024f89896200020a565b9650620002608960208a016200020a565b9550620002718960408a016200020a565b9450620002828960608a016200020a565b93506080880151925060a0880151915060c0880151905092959891949750929550565b60208082526037908201527f4c69717569646974794d696e696e674d61737465723a3a636f6e73747275637460408201527f6f723a20456e64206c657373207468616e207374617274000000000000000000606082015260800190565b61472780620003126000396000f3fe608060405234801561001057600080fd5b50600436106103565760003560e01c80635c19a95c116101c8578063a457c2d711610104578063dc224863116100a2578063e7a324dc1161007c578063e7a324dc146106a5578063f1127ed8146106ad578063f2f4eb26146106ce578063f7c618c1146106d657610356565b8063dc22486314610677578063dd62ed3e1461067f578063e2bbb1581461069257610356565b8063b4b5ea57116100de578063b4b5ea571461062b578063c3cda5201461063e578063c811658514610651578063cbd258b51461066457610356565b8063a457c2d7146105f2578063a9059cbb14610605578063ae0e597a1461061857610356565b80637ecebe00116101715780638aa285501161014b5780638aa28550146105ae5780638dbb1e3a146105b657806393f1a40b146105c957806395d89b41146105ea57610356565b80637ecebe001461058057806380009630146105935780638456cb59146105a657610356565b80636fcfff45116101a25780636fcfff451461053a57806370a082311461055a578063782d6fe11461056d57610356565b80635c19a95c146105175780635c975abb1461052a578063630b5ba11461053257610356565b806323ddfa3311610297578063441a3e701161024057806351eb05a61161021a57806351eb05a6146104d65780635312ea8e146104e9578063587cde1e146104fc5780635aca5e931461050f57610356565b8063441a3e70146104a857806348cd4cb1146104bb57806348e43af4146104c357610356565b8063395093511161027157806339509351146104855780633f4ba83a146104985780634198709a146104a057610356565b806323ddfa3314610455578063313ce56714610468578063382c05ad1461047d57610356565b80631526fe27116103045780631eccdf07116102de5780631eccdf071461041257806320606b70146104275780632124ca441461042f57806323b872dd1461044257610356565b80631526fe27146103de57806317caf6f11461040257806318160ddd1461040a57610356565b8063083c632311610335578063083c6323146103a3578063095ea7b3146103ab5780630a0ee036146103cb57610356565b80626f02311461035b57806306fdde0314610370578063081e3eda1461038e575b600080fd5b61036e61036936600461390f565b6106de565b005b61037861090d565b6040516103859190613b77565b60405180910390f35b6103966109a3565b6040516103859190613ad8565b6103966109a9565b6103be6103b9366004613833565b6109af565b6040516103859190613acd565b61036e6103d9366004613963565b6109cd565b6103f16103ec36600461390f565b610da4565b604051610385959493929190613b47565b610396610def565b610396610df5565b61041a610dfb565b6040516103859190613a56565b610396610e0a565b61036e61043d36600461379f565b610e2e565b6103be6104503660046137f3565b610f4c565b61036e6104633660046139d6565b610f66565b6104706111ae565b6040516103859190614615565b61041a6111b7565b6103be610493366004613833565b6111c6565b61036e611219565b6103966112dc565b61036e6104b63660046139b5565b6112e2565b6103966116bf565b6103966104d136600461393f565b6116c5565b61036e6104e436600461390f565b611865565b61036e6104f736600461390f565b611a67565b61041a61050a36600461379f565b611b6c565b610396611b87565b61036e61052536600461379f565b611ba5565b6103be611bb9565b61036e611bc2565b61054d61054836600461379f565b611be1565b60405161038591906145ee565b61039661056836600461379f565b611bf9565b61039661057b366004613833565b611c14565b61039661058e36600461379f565b611dfd565b61036e6105a136600461379f565b611e0f565b61036e611f31565b610396612095565b6103966105c43660046139b5565b61209a565b6105dc6105d736600461393f565b6120b2565b6040516103859291906145ca565b6103786120d6565b6103be610600366004613833565b612137565b6103be610613366004613833565b61219f565b61036e61062636600461390f565b6121b9565b61039661063936600461379f565b612354565b61036e61064c36600461385e565b6123b7565b61039661065f36600461379f565b6125a9565b6103be61067236600461379f565b6125bb565b6103966125d0565b61039661068d3660046137bb565b6125f4565b61036e6106a03660046139b5565b61261f565b610396612a17565b6106c06106bb3660046138be565b612a3b565b6040516103859291906145ff565b61041a612a68565b61041a612a7c565b6001546040517fe43581b80000000000000000000000000000000000000000000000000000000081526101009091046001600160a01b03169063e43581b89061072b903390600401613a56565b60206040518083038186803b15801561074357600080fd5b505afa158015610757573d6000803e3d6000fd5b505050506040513d601f19601f8201168201806040525081019061077b91906138f3565b8061081e57506001546040517f0c68ba210000000000000000000000000000000000000000000000000000000081526101009091046001600160a01b031690630c68ba21906107ce903390600401613a56565b60206040518083038186803b1580156107e657600080fd5b505afa1580156107fa573d6000803e3d6000fd5b505050506040513d601f19601f8201168201806040525081019061081e91906138f3565b6108435760405162461bcd60e51b815260040161083a90613fc3565b60405180910390fd5b601354811180156108545750438110155b6108705760405162461bcd60e51b815260040161083a906143c2565b60005b600d548110156108c257600d818154811061088a57fe5b90600052602060002090600502016002015482116108ba5760405162461bcd60e51b815260040161083a906143c2565b600101610873565b506108cb611bc2565b601481905560405133907f316ee89ca026e5355cff2b64939ee0e5af49bde19b755b42bbde0f5bea03982590610902908490613ad8565b60405180910390a250565b60058054604080516020601f60026000196101006001881615020190951694909404938401819004810282018101909252828152606093909290918301828280156109995780601f1061096e57610100808354040283529160200191610999565b820191906000526020600020905b81548152906001019060200180831161097c57829003601f168201915b5050505050905090565b600d5490565b60145481565b60006109c36109bc612a8b565b8484612a8f565b5060015b92915050565b6001546040517fe43581b80000000000000000000000000000000000000000000000000000000081526101009091046001600160a01b03169063e43581b890610a1a903390600401613a56565b60206040518083038186803b158015610a3257600080fd5b505afa158015610a46573d6000803e3d6000fd5b505050506040513d601f19601f82011682018060405250810190610a6a91906138f3565b80610b0d57506001546040517f0c68ba210000000000000000000000000000000000000000000000000000000081526101009091046001600160a01b031690630c68ba2190610abd903390600401613a56565b60206040518083038186803b158015610ad557600080fd5b505afa158015610ae9573d6000803e3d6000fd5b505050506040513d601f19601f82011682018060405250810190610b0d91906138f3565b610b295760405162461bcd60e51b815260040161083a90613fc3565b6001600160a01b038316600090815260106020526040902054839060ff1615610b645760405162461bcd60e51b815260040161083a90613eac565b6015546001600160a01b038281169116141580610b8e57506018546001600160a01b038281169116145b610baa5760405162461bcd60e51b815260040161083a90613c93565b6014544310610bcb5760405162461bcd60e51b815260040161083a9061441f565b8115610bd957610bd9611bc2565b60006013544311610bec57601354610bee565b435b601254909150610bfe9087612b43565b6012556001600160a01b038581166000818152601060209081526040808320805460017fffffffffffffffffffffffffffffffffffffffffffffffffffffffffffffff009182168117909255825160a0810184529586529285018c8152918501878152606086018581528b151560808801908152600d80548086018255975296517fd7b6990105719101dabeb77144f2a3385c8033acd3af97e9423a695e81ad1eb5600590970296870180547fffffffffffffffffffffffff000000000000000000000000000000000000000016919099161790975591517fd7b6990105719101dabeb77144f2a3385c8033acd3af97e9423a695e81ad1eb685015590517fd7b6990105719101dabeb77144f2a3385c8033acd3af97e9423a695e81ad1eb784015593517fd7b6990105719101dabeb77144f2a3385c8033acd3af97e9423a695e81ad1eb883015591517fd7b6990105719101dabeb77144f2a3385c8033acd3af97e9423a695e81ad1eb99091018054909216901515179055610d7f6109a3565b6001600160a01b039096166000908152600f6020526040902095039094555050505050565b600d8181548110610db157fe5b6000918252602090912060059091020180546001820154600283015460038401546004909401546001600160a01b0390931694509092909160ff1685565b60125481565b60045490565b600c546001600160a01b031681565b7f8cad95687ba82c2ce50e74f7b754645e5117c3a5bec8151c0726d5857980a86681565b6001546040517fe43581b80000000000000000000000000000000000000000000000000000000081526101009091046001600160a01b03169063e43581b890610e7b903390600401613a56565b60206040518083038186803b158015610e9357600080fd5b505afa158015610ea7573d6000803e3d6000fd5b505050506040513d601f19601f82011682018060405250810190610ecb91906138f3565b610ee75760405162461bcd60e51b815260040161083a90613cf0565b600c80547fffffffffffffffffffffffff0000000000000000000000000000000000000000166001600160a01b03831617905560405133907fedd017b4981fb4d0d4df1c48baed994ce8b4dc47ba89a2010ce592b7df5c6dc490610902908490613a56565b600060405162461bcd60e51b815260040161083a90613e18565b600d5484908110610f895760405162461bcd60e51b815260040161083a90614046565b6001546040517fe43581b80000000000000000000000000000000000000000000000000000000081526101009091046001600160a01b03169063e43581b890610fd6903390600401613a56565b60206040518083038186803b158015610fee57600080fd5b505afa158015611002573d6000803e3d6000fd5b505050506040513d601f19601f8201168201806040525081019061102691906138f3565b806110c957506001546040517f0c68ba210000000000000000000000000000000000000000000000000000000081526101009091046001600160a01b031690630c68ba2190611079903390600401613a56565b60206040518083038186803b15801561109157600080fd5b505afa1580156110a5573d6000803e3d6000fd5b505050506040513d601f19601f820116820180604052508101906110c991906138f3565b6110e55760405162461bcd60e51b815260040161083a90613fc3565b81156110f3576110f3611bc2565b6111308461112a600d888154811061110757fe5b906000526020600020906005020160010154601254612b6890919063ffffffff16565b90612b43565b60128190555083600d868154811061114457fe5b90600052602060002090600502016001018190555082600d868154811061116757fe5b6000918252602090912060059091020160040180547fffffffffffffffffffffffffffffffffffffffffffffffffffffffffffffff00169115159190911790555050505050565b60075460ff1690565b6018546001600160a01b031681565b60006109c36111d3612a8b565b8461121485600360006111e4612a8b565b6001600160a01b03908116825260208083019390935260409182016000908120918c168152925290205490612b43565b612a8f565b6001546040517fe43581b80000000000000000000000000000000000000000000000000000000081526101009091046001600160a01b03169063e43581b890611266903390600401613a56565b60206040518083038186803b15801561127e57600080fd5b505afa158015611292573d6000803e3d6000fd5b505050506040513d601f19601f820116820180604052508101906112b691906138f3565b6112d25760405162461bcd60e51b815260040161083a90613cf0565b6112da612b90565b565b60115481565b600d54829081106113055760405162461bcd60e51b815260040161083a90614046565b600260005414156113285760405162461bcd60e51b815260040161083a9061447c565b60026000908155600d80548590811061133d57fe5b60009182526020808320878452600e8252604080852033865290925292208054600590920290920192508411156113865760405162461bcd60e51b815260040161083a9061424e565b61138f85611865565b8054156116065760006113d082600101546113ca64e8d4a510006113c487600301548760000154612c1c90919063ffffffff16565b90612c56565b90612b68565b9050801561160457600483015460009060ff1680156113f95750600c546001600160a01b031615155b1561153f57600c54604080517f05e97bc6000000000000000000000000000000000000000000000000000000008152905161153c926001600160a01b0316916305e97bc6916004808301926020929190829003018186803b15801561145d57600080fd5b505afa158015611471573d6000803e3d6000fd5b505050506040513d601f19601f820116820180604052508101906114959190613927565b600c54604080517f05e97bc60000000000000000000000000000000000000000000000000000000081529051611536926001600160a01b0316916305e97bc6916004808301926020929190829003018186803b1580156114f457600080fd5b505afa158015611508573d6000803e3d6000fd5b505050506040513d601f19601f8201168201806040525081019061152c9190613927565b8590600101612c56565b90612c1c565b90505b6115523361154d8484612b68565b612c88565b5080156115f257600c54600090611572906001600160a01b031683612c88565b600c546040517f282d3fdf0000000000000000000000000000000000000000000000000000000081529192506001600160a01b03169063282d3fdf906115be9033908590600401613a6a565b600060405180830381600087803b1580156115d857600080fd5b505af11580156115ec573d6000803e3d6000fd5b50505050505b6017546115ff9083612b43565b601755505b505b83156116525780546116189085612b68565b815581546018546001600160a01b039081169116141561163c5761163c3385612e47565b8154611652906001600160a01b03163386612e77565b6003820154815461166d9164e8d4a51000916113c491612c1c565b600182018190558154604051879233927fe08737ac48a1dab4b1a46c7dc9398bd5bfc6d7ad6fabb7cd8caa254de14def35926116ab928a92916145d8565b60405180910390a350506001600055505050565b60135481565b600d54600090839081106116eb5760405162461bcd60e51b815260040161083a90614046565b6000600d85815481106116fa57fe5b60009182526020808320888452600e825260408085206001600160a01b038a811687529352842060059390930201600381015481546018549296509394909390929081169116146117e25783546040517f70a082310000000000000000000000000000000000000000000000000000000081526001600160a01b03909116906370a082319061178d903090600401613a56565b60206040518083038186803b1580156117a557600080fd5b505afa1580156117b9573d6000803e3d6000fd5b505050506040513d601f19601f820116820180604052508101906117dd9190613927565b6117ea565b6117ea610df5565b90508360020154431180156117fe57508015155b1561183157600061180e89612f1d565b905061182d611826836113c48464e8d4a51000612c1c565b8490612b43565b9250505b61185983600101546113ca64e8d4a510006113c4868860000154612c1c90919063ffffffff16565b98975050505050505050565b600d54819081106118885760405162461bcd60e51b815260040161083a90614046565b6000600d838154811061189757fe5b90600052602060002090600502019050806002015443116118b85750611a63565b6014548160020154106118cb5750611a63565b80546018546000916001600160a01b039182169116146119825781546040517f70a082310000000000000000000000000000000000000000000000000000000081526001600160a01b03909116906370a082319061192d903090600401613a56565b60206040518083038186803b15801561194557600080fd5b505afa158015611959573d6000803e3d6000fd5b505050506040513d601f19601f8201168201806040525081019061197d9190613927565b61198a565b61198a610df5565b9050600060145443101561199e57436119a2565b6014545b90508115806119b357506001830154155b156119c75760029092019190915550611a63565b60006119d286612f1d565b90506119f56119ea846113c48464e8d4a51000612c1c565b600386015490612b43565b600385015560028401829055601654611a0e9082612b43565b601655835460038501546040517f50a1a2d4fcb1c08863a0b14fcc7d9d728e2b21d8d7588b9cfa3991efe8112ee792611a56926001600160a01b039091169185908890613aa7565b60405180910390a1505050505b5050565b600d5481908110611a8a5760405162461bcd60e51b815260040161083a90614046565b60026000541415611aad5760405162461bcd60e51b815260040161083a9061447c565b60026000908155600d805484908110611ac257fe5b60009182526020808320868452600e825260408085203386529092529083208054848255600182019490945560059092020180546018549194509192916001600160a01b0391821691161415611b1c57611b1c3382612e47565b8254611b32906001600160a01b03163383612e77565b84336001600160a01b03167fbb757047c2b5f3974fe26b7c10f732e7bce710b0952a71082702781e62ae0595836040516116ab9190613ad8565b6008602052600090815260409020546001600160a01b031681565b6000611ba0601754601654612b6890919063ffffffff16565b905090565b611bb6611bb0612a8b565b82612fba565b50565b60015460ff1690565b600d5460005b81811015611a6357611bd981611865565b600101611bc8565b600a6020526000908152604090205463ffffffff1681565b6001600160a01b031660009081526002602052604090205490565b6000438210611c355760405162461bcd60e51b815260040161083a906144b3565b6001600160a01b0383166000908152600a602052604090205463ffffffff1680611c635760009150506109c7565b6001600160a01b038416600090815260096020908152604080832063ffffffff600019860181168552925290912054168310611cd2576001600160a01b03841660009081526009602090815260408083206000199490940163ffffffff168352929052206001015490506109c7565b6001600160a01b038416600090815260096020908152604080832083805290915290205463ffffffff16831015611d0d5760009150506109c7565b600060001982015b8163ffffffff168163ffffffff161115611dc657600282820363ffffffff16048103611d3f613788565b506001600160a01b038716600090815260096020908152604080832063ffffffff808616855290835292819020815180830190925280549093168082526001909301549181019190915290871415611da1576020015194506109c79350505050565b805163ffffffff16871115611db857819350611dbf565b6001820392505b5050611d15565b506001600160a01b038516600090815260096020908152604080832063ffffffff9094168352929052206001015491505092915050565b600b6020526000908152604090205481565b6001546040517fe43581b80000000000000000000000000000000000000000000000000000000081526101009091046001600160a01b03169063e43581b890611e5c903390600401613a56565b60206040518083038186803b158015611e7457600080fd5b505afa158015611e88573d6000803e3d6000fd5b505050506040513d601f19601f82011682018060405250810190611eac91906138f3565b611ec85760405162461bcd60e51b815260040161083a90613cf0565b600180547fffffffffffffffffffffff0000000000000000000000000000000000000000ff166101006001600160a01b038416908102919091179091556040517fad9400e618eb1344fde53db22397a1b82c765527ecbba3a5c86bcac15090828b90600090a250565b6001546040517fe43581b80000000000000000000000000000000000000000000000000000000081526101009091046001600160a01b03169063e43581b890611f7e903390600401613a56565b60206040518083038186803b158015611f9657600080fd5b505afa158015611faa573d6000803e3d6000fd5b505050506040513d601f19601f82011682018060405250810190611fce91906138f3565b8061207157506001546040517f0c68ba210000000000000000000000000000000000000000000000000000000081526101009091046001600160a01b031690630c68ba2190612021903390600401613a56565b60206040518083038186803b15801561203957600080fd5b505afa15801561204d573d6000803e3d6000fd5b505050506040513d601f19601f8201168201806040525081019061207191906138f3565b61208d5760405162461bcd60e51b815260040161083a90613fc3565b6112da613067565b600181565b60006120ab60016115368486612b68565b9392505050565b600e6020908152600092835260408084209091529082529020805460019091015482565b60068054604080516020601f60026000196101006001881615020190951694909404938401819004810282018101909252828152606093909290918301828280156109995780601f1061096e57610100808354040283529160200191610999565b60006109c3612144612a8b565b84611214856040518060600160405280602581526020016146cd602591396003600061216e612a8b565b6001600160a01b03908116825260208083019390935260409182016000908120918d168152925290205491906130df565b600060405162461bcd60e51b815260040161083a90613f09565b6001546040517fe43581b80000000000000000000000000000000000000000000000000000000081526101009091046001600160a01b03169063e43581b890612206903390600401613a56565b60206040518083038186803b15801561221e57600080fd5b505afa158015612232573d6000803e3d6000fd5b505050506040513d601f19601f8201168201806040525081019061225691906138f3565b806122f957506001546040517f0c68ba210000000000000000000000000000000000000000000000000000000081526101009091046001600160a01b031690630c68ba21906122a9903390600401613a56565b60206040518083038186803b1580156122c157600080fd5b505afa1580156122d5573d6000803e3d6000fd5b505050506040513d601f19601f820116820180604052508101906122f991906138f3565b6123155760405162461bcd60e51b815260040161083a90613fc3565b61231d611bc2565b601181905560405133907fe2492e003bbe8afa53088b406f0c1cb5d9e280370fc72a74cf116ffd343c405390610902908490613ad8565b6001600160a01b0381166000908152600a602052604081205463ffffffff168061237f5760006120ab565b6001600160a01b038316600090815260096020908152604080832063ffffffff60001986011684529091529020600101549392505050565b60007f8cad95687ba82c2ce50e74f7b754645e5117c3a5bec8151c0726d5857980a8666123e261090d565b805190602001206123f161310b565b306040516020016124059493929190613b05565b60405160208183030381529060405280519060200120905060007fe48329057bfd03d55e49b547132e39cffd9c1820ad7b9d4c5307691425d15adf8888886040516020016124569493929190613ae1565b60405160208183030381529060405280519060200120905060008282604051602001612483929190613a20565b6040516020818303038152906040528051906020012090506000600182888888604051600081526020016040526040516124c09493929190613b29565b6020604051602081039080840390855afa1580156124e2573d6000803e3d6000fd5b50506040517fffffffffffffffffffffffffffffffffffffffffffffffffffffffffffffffe001519150506001600160a01b0381166125335760405162461bcd60e51b815260040161083a90614308565b6001600160a01b0381166000908152600b6020526040902080546001810190915589146125725760405162461bcd60e51b815260040161083a906141ba565b874211156125925760405162461bcd60e51b815260040161083a906142ab565b61259c818b612fba565b505050505b505050505050565b600f6020526000908152604090205481565b60106020526000908152604090205460ff1681565b7f8b8c0776df2c2176edf6f82391c35ea4891146d7a976ee36fd07f1a6fb4ead4c81565b6001600160a01b03918216600090815260036020908152604080832093909416825291909152205490565b600d54829081106126425760405162461bcd60e51b815260040161083a90614046565b600260005414156126655760405162461bcd60e51b815260040161083a9061447c565b60026000908155600d80548590811061267a57fe5b60009182526020808320878452600e825260408085203386529092529220600590910290910191506126ab85611865565b8054156128325760006126e082600101546113ca64e8d4a510006113c487600301548760000154612c1c90919063ffffffff16565b9050801561283057600483015460009060ff1680156127095750600c546001600160a01b031615155b1561277057600c54604080517f05e97bc6000000000000000000000000000000000000000000000000000000008152905161276d926001600160a01b0316916305e97bc6916004808301926020929190829003018186803b15801561145d57600080fd5b90505b61277e3361154d8484612b68565b50801561281e57600c5460009061279e906001600160a01b031683612c88565b600c546040517f282d3fdf0000000000000000000000000000000000000000000000000000000081529192506001600160a01b03169063282d3fdf906127ea9033908590600401613a6a565b600060405180830381600087803b15801561280457600080fd5b505af1158015612818573d6000803e3d6000fd5b50505050505b60175461282b9083612b43565b601755505b505b83156129be5781546040517f70a082310000000000000000000000000000000000000000000000000000000081526000916001600160a01b0316906370a0823190612881903090600401613a56565b60206040518083038186803b15801561289957600080fd5b505afa1580156128ad573d6000803e3d6000fd5b505050506040513d601f19601f820116820180604052508101906128d19190613927565b83549091506128eb906001600160a01b031633308861310f565b82546040517f70a082310000000000000000000000000000000000000000000000000000000081526129899183916001600160a01b03909116906370a0823190612939903090600401613a56565b60206040518083038186803b15801561295157600080fd5b505afa158015612965573d6000803e3d6000fd5b505050506040513d601f19601f820116820180604052508101906113ca9190613927565b83546018549196506001600160a01b03918216911614156129ae576129ae3386613130565b81546129ba9086612b43565b8255505b600382015481546129d99164e8d4a51000916113c491612c1c565b600182018190558154604051879233927f7162984403f6c73c8639375d45a9187dfd04602231bd8e587c415718b5f7e5f9926116ab928a92916145d8565b7fe48329057bfd03d55e49b547132e39cffd9c1820ad7b9d4c5307691425d15adf81565b60096020908152600092835260408084209091529082529020805460019091015463ffffffff9091169082565b60015461010090046001600160a01b031690565b6015546001600160a01b031681565b3390565b6001600160a01b038316612ab55760405162461bcd60e51b815260040161083a9061415d565b6001600160a01b038216612adb5760405162461bcd60e51b815260040161083a90613bff565b6001600160a01b0380841660008181526003602090815260408083209487168084529490915290819020849055517f8c5be1e5ebec7d5bd14f71427d1e84f3dd0314c0f7b2291e5b200ac8c7c3b92590612b36908590613ad8565b60405180910390a3505050565b6000828201838110156120ab5760405162461bcd60e51b815260040161083a90613c5c565b600082821115612b8a5760405162461bcd60e51b815260040161083a90613d4d565b50900390565b612b98611bb9565b612bb45760405162461bcd60e51b815260040161083a90613bc8565b600180547fffffffffffffffffffffffffffffffffffffffffffffffffffffffffffffff001690557f5db9ee0a495bf2e6ff9c91a7834c1ba4fdd244a5e8aa4e537bd38aeae4b073aa612c05612a8b565b604051612c129190613a56565b60405180910390a1565b600082612c2b575060006109c7565b82820282848281612c3857fe5b04146120ab5760405162461bcd60e51b815260040161083a90613f66565b6000808211612c775760405162461bcd60e51b815260040161083a90613de1565b818381612c8057fe5b049392505050565b6015546040517f70a0823100000000000000000000000000000000000000000000000000000000815260009182916001600160a01b03909116906370a0823190612cd6903090600401613a56565b60206040518083038186803b158015612cee57600080fd5b505afa158015612d02573d6000803e3d6000fd5b505050506040513d601f19601f82011682018060405250810190612d269190613927565b60185460155491925060009182916001600160a01b03918216911614612d4d576000612d55565b612d55610df5565b905080831115612d8557612d698382612b68565b851115612d8157612d7a8382612b68565b9150612d85565b8491505b6015546040517fa9059cbb0000000000000000000000000000000000000000000000000000000081526001600160a01b039091169063a9059cbb90612dd09089908690600401613a6a565b602060405180830381600087803b158015612dea57600080fd5b505af1158015612dfe573d6000803e3d6000fd5b505050506040513d601f19601f82011682018060405250810190612e2291906138f3565b612e3e5760405162461bcd60e51b815260040161083a90614100565b50949350505050565b612e51828261315f565b6001600160a01b03808316600090815260086020526040812054611a6392169083613241565b612f188363a9059cbb60e01b8484604051602401612e96929190613a6a565b604080517fffffffffffffffffffffffffffffffffffffffffffffffffffffffffffffffe08184030181529190526020810180517bffffffffffffffffffffffffffffffffffffffffffffffffffffffff167fffffffff000000000000000000000000000000000000000000000000000000009093169290921790915261337e565b505050565b600080600d8381548110612f2d57fe5b9060005260206000209060050201905043816002015410612f605760405162461bcd60e51b815260040161083a90614510565b6000612f828260020154601454431015612f7a57436105c4565b60145461209a565b60125490915015612fb357612fb06012546113c4846001015461153660115486612c1c90919063ffffffff16565b92505b5050919050565b6001600160a01b0380831660009081526008602052604081205490911690612fe184611bf9565b6001600160a01b0385811660008181526008602052604080822080547fffffffffffffffffffffffff000000000000000000000000000000000000000016898616908117909155905194955093928616927f3134e8a2e6d97e929a7e54011ea5485d7d196dd5f0ba4d4ef95803e8e3fc257f9190a4613061828483613241565b50505050565b61306f611bb9565b1561308c5760405162461bcd60e51b815260040161083a90613e75565b600180547fffffffffffffffffffffffffffffffffffffffffffffffffffffffffffffff0016811790557f62e78cea01bee320cd4e420270b5ea74000d11b0c9f74754ebdbfc544b05a258612c05612a8b565b600081848411156131035760405162461bcd60e51b815260040161083a9190613b77565b505050900390565b4690565b613061846323b872dd60e01b858585604051602401612e9693929190613a83565b61313a828261340d565b6001600160a01b03808316600090815260086020526040812054611a63921683613241565b6001600160a01b0382166131855760405162461bcd60e51b815260040161083a906140a3565b61319182600083612f18565b6131ce81604051806060016040528060228152602001614673602291396001600160a01b03851660009081526002602052604090205491906130df565b6001600160a01b0383166000908152600260205260409020556004546131f49082612b68565b6004556040516000906001600160a01b038416907fddf252ad1be2c89b69c2b068fc378daa952ba7f163c4a11628f55a4df523b3ef90613235908590613ad8565b60405180910390a35050565b816001600160a01b0316836001600160a01b0316141580156132635750600081115b15612f18576001600160a01b038316156132f5576001600160a01b0383166000908152600a602052604081205463ffffffff1690816132a35760006132d5565b6001600160a01b038516600090815260096020908152604080832063ffffffff60001987011684529091529020600101545b905060006132e38285612b68565b90506132f1868484846134c1565b5050505b6001600160a01b03821615612f18576001600160a01b0382166000908152600a602052604081205463ffffffff169081613330576000613362565b6001600160a01b038416600090815260096020908152604080832063ffffffff60001987011684529091529020600101545b905060006133708285612b43565b90506125a1858484846134c1565b60606133d3826040518060400160405280602081526020017f5361666545524332303a206c6f772d6c6576656c2063616c6c206661696c6564815250856001600160a01b03166136419092919063ffffffff16565b805190915015612f1857808060200190518101906133f191906138f3565b612f185760405162461bcd60e51b815260040161083a90614365565b6001600160a01b0382166134335760405162461bcd60e51b815260040161083a90614593565b61343f60008383612f18565b60045461344c9082612b43565b6004556001600160a01b0382166000908152600260205260409020546134729082612b43565b6001600160a01b0383166000818152600260205260408082209390935591519091907fddf252ad1be2c89b69c2b068fc378daa952ba7f163c4a11628f55a4df523b3ef90613235908590613ad8565b60006134e54360405180606001604052806038815260200161469560389139613658565b905060008463ffffffff1611801561352e57506001600160a01b038516600090815260096020908152604080832063ffffffff6000198901811685529252909120548282169116145b1561356b576001600160a01b038516600090815260096020908152604080832063ffffffff600019890116845290915290206001018290556135f7565b60408051808201825263ffffffff808416825260208083018681526001600160a01b038a166000818152600984528681208b861682528452868120955186549086167fffffffffffffffffffffffffffffffffffffffffffffffffffffffff000000009182161787559251600196870155908152600a9092529390208054928801909116919092161790555b846001600160a01b03167fdec2bacdd2f05b59de34da9b523dff8be42e5e38e818c82fdb0bae774387a72484846040516136329291906145ca565b60405180910390a25050505050565b60606136508484600085613688565b949350505050565b60008164010000000084106136805760405162461bcd60e51b815260040161083a9190613b77565b509192915050565b6060824710156136aa5760405162461bcd60e51b815260040161083a90613d84565b6136b385613749565b6136cf5760405162461bcd60e51b815260040161083a90614217565b60006060866001600160a01b031685876040516136ec9190613a04565b60006040518083038185875af1925050503d8060008114613729576040519150601f19603f3d011682016040523d82523d6000602084013e61372e565b606091505b509150915061373e82828661374f565b979650505050505050565b3b151590565b6060831561375e5750816120ab565b82511561376e5782518084602001fd5b8160405162461bcd60e51b815260040161083a9190613b77565b604080518082019091526000808252602082015290565b6000602082840312156137b0578081fd5b81356120ab8161464f565b600080604083850312156137cd578081fd5b82356137d88161464f565b915060208301356137e88161464f565b809150509250929050565b600080600060608486031215613807578081fd5b83356138128161464f565b925060208401356138228161464f565b929592945050506040919091013590565b60008060408385031215613845578182fd5b82356138508161464f565b946020939093013593505050565b60008060008060008060c08789031215613876578182fd5b86356138818161464f565b95506020870135945060408701359350606087013560ff811681146138a4578283fd5b9598949750929560808101359460a0909101359350915050565b600080604083850312156138d0578182fd5b82356138db8161464f565b9150602083013563ffffffff811681146137e8578182fd5b600060208284031215613904578081fd5b81516120ab81614664565b600060208284031215613920578081fd5b5035919050565b600060208284031215613938578081fd5b5051919050565b60008060408385031215613951578182fd5b8235915060208301356137e88161464f565b60008060008060808587031215613978578384fd5b84359350602085013561398a8161464f565b9250604085013561399a81614664565b915060608501356139aa81614664565b939692955090935050565b600080604083850312156139c7578182fd5b50508035926020909101359150565b600080600080608085870312156139eb578182fd5b8435935060208501359250604085013561399a81614664565b60008251613a16818460208701614623565b9190910192915050565b7f190100000000000000000000000000000000000000000000000000000000000081526002810192909252602282015260420190565b6001600160a01b0391909116815260200190565b6001600160a01b03929092168252602082015260400190565b6001600160a01b039384168152919092166020820152604081019190915260600190565b6001600160a01b0394909416845260208401929092526040830152606082015260800190565b901515815260200190565b90815260200190565b9384526001600160a01b039290921660208401526040830152606082015260800190565b938452602084019290925260408301526001600160a01b0316606082015260800190565b93845260ff9290921660208401526040830152606082015260800190565b6001600160a01b039590951685526020850193909352604084019190915260608301521515608082015260a00190565b6000602082528251806020840152613b96816040850160208701614623565b601f017fffffffffffffffffffffffffffffffffffffffffffffffffffffffffffffffe0169190910160400192915050565b60208082526014908201527f5061757361626c653a206e6f7420706175736564000000000000000000000000604082015260600190565b60208082526022908201527f45524332303a20617070726f766520746f20746865207a65726f20616464726560408201527f7373000000000000000000000000000000000000000000000000000000000000606082015260800190565b6020808252601b908201527f536166654d6174683a206164646974696f6e206f766572666c6f770000000000604082015260600190565b6020808252603e908201527f4c69717569646974794d696e696e674d61737465723a3a6e6f6e4475706c696360408201527f617465643a204475706c6963617465642072657761726420616e64206c700000606082015260800190565b6020808252602f908201527f436f72655265663a3a6f6e6c79476f7665726e6f723a2043616c6c657220697360408201527f206e6f74206120676f7665726e6f720000000000000000000000000000000000606082015260800190565b6020808252601e908201527f536166654d6174683a207375627472616374696f6e206f766572666c6f770000604082015260600190565b60208082526026908201527f416464726573733a20696e73756666696369656e742062616c616e636520666f60408201527f722063616c6c0000000000000000000000000000000000000000000000000000606082015260800190565b6020808252601a908201527f536166654d6174683a206469766973696f6e206279207a65726f000000000000604082015260600190565b6020808252603d908201527f4c69717569646974794d696e696e674d61737465723a3a7472616e736665724660408201527f726f6d3a204e6f7420737570706f7274207472616e7366657246726f6d000000606082015260800190565b60208082526010908201527f5061757361626c653a2070617573656400000000000000000000000000000000604082015260600190565b60208082526033908201527f4c69717569646974794d696e696e674d61737465723a3a6e6f6e4475706c696360408201527f617465643a204475706c696361746564206c7000000000000000000000000000606082015260800190565b60208082526035908201527f4c69717569646974794d696e696e674d61737465723a3a7472616e736665723a60408201527f204e6f7420737570706f7274207472616e736665720000000000000000000000606082015260800190565b60208082526021908201527f536166654d6174683a206d756c7469706c69636174696f6e206f766572666c6f60408201527f7700000000000000000000000000000000000000000000000000000000000000606082015260800190565b60208082526045908201527f436f72655265663a3a6f6e6c79477561726469616e4f72476f7665726e6f723a60408201527f2043616c6c6572206973206e6f74206120677561726469616e206f7220676f7660608201527f65726e6f72000000000000000000000000000000000000000000000000000000608082015260a00190565b6020808252602d908201527f4c69717569646974794d696e696e674d61737465723a3a76616c69646174655060408201527f69643a204e6f7420657869737400000000000000000000000000000000000000606082015260800190565b60208082526021908201527f45524332303a206275726e2066726f6d20746865207a65726f2061646472657360408201527f7300000000000000000000000000000000000000000000000000000000000000606082015260800190565b60208082526039908201527f4c69717569646974794d696e696e674d61737465723a3a73616665546f6b656e60408201527f5472616e736665723a205472616e73666572206661696c656400000000000000606082015260800190565b60208082526024908201527f45524332303a20617070726f76652066726f6d20746865207a65726f2061646460408201527f7265737300000000000000000000000000000000000000000000000000000000606082015260800190565b60208082526026908201527f44414f546f6b656e3a3a64656c656761746542795369673a20496e76616c696460408201527f206e6f6e63650000000000000000000000000000000000000000000000000000606082015260800190565b6020808252601d908201527f416464726573733a2063616c6c20746f206e6f6e2d636f6e7472616374000000604082015260600190565b60208082526029908201527f4c69717569646974794d696e696e674d61737465723a3a77697468647261773a60408201527f204e6f7420676f6f640000000000000000000000000000000000000000000000606082015260800190565b6020808252602a908201527f44414f546f6b656e3a3a64656c656761746542795369673a205369676e61747560408201527f7265206578706972656400000000000000000000000000000000000000000000606082015260800190565b6020808252602a908201527f44414f546f6b656e3a3a64656c656761746542795369673a20496e76616c696460408201527f207369676e617475726500000000000000000000000000000000000000000000606082015260800190565b6020808252602a908201527f5361666545524332303a204552433230206f7065726174696f6e20646964206e60408201527f6f74207375636365656400000000000000000000000000000000000000000000606082015260800190565b6020808252602b908201527f4c69717569646974794d696e696e674d61737465723a3a757064617465456e6460408201527f426c6f636b3a204c657373000000000000000000000000000000000000000000606082015260800190565b6020808252602f908201527f4c69717569646974794d696e696e674d61737465723a3a616464506f6f6c3a2060408201527f45786365656420656e64626c6f636b0000000000000000000000000000000000606082015260800190565b6020808252601f908201527f5265656e7472616e637947756172643a207265656e7472616e742063616c6c00604082015260600190565b6020808252602b908201527f44414f546f6b656e3a3a6765745072696f72566f7465733a204e6f742079657460408201527f2064657465726d696e6564000000000000000000000000000000000000000000606082015260800190565b60208082526051908201527f4c69717569646974794d696e696e674d61737465723a3a5f676574546f6b656e60408201527f5265776172643a204d757374206c6974746c65207468616e207468652063757260608201527f72656e7420626c6f636b206e756d626572000000000000000000000000000000608082015260a00190565b6020808252601f908201527f45524332303a206d696e7420746f20746865207a65726f206164647265737300604082015260600190565b918252602082015260400190565b9283526020830191909152604082015260600190565b63ffffffff91909116815260200190565b63ffffffff929092168252602082015260400190565b60ff91909116815260200190565b60005b8381101561463e578181015183820152602001614626565b838111156130615750506000910152565b6001600160a01b0381168114611bb657600080fd5b8015158114611bb657600080fdfe45524332303a206275726e20616d6f756e7420657863656564732062616c616e636544414f546f6b656e3a3a5f7772697465436865636b706f696e743a20426c6f636b206e756d6265722065786365656473203332206269747345524332303a2064656372656173656420616c6c6f77616e63652062656c6f77207a65726fa2646970667358221220bd427863c2baa84ea345140b579d44ddf5870838c18ce70437ce14fbb8b7d60564736f6c634300060c0033",
  "devdoc": {
    "kind": "dev",
    "methods": {
      "allowance(address,address)": {
        "details": "See {IERC20-allowance}."
      },
      "approve(address,uint256)": {
        "details": "See {IERC20-approve}. Requirements: - `spender` cannot be the zero address."
      },
      "balanceOf(address)": {
        "details": "See {IERC20-balanceOf}."
      },
      "decimals()": {
        "details": "Returns the number of decimals used to get its user representation. For example, if `decimals` equals `2`, a balance of `505` tokens should be displayed to a user as `5,05` (`505 / 10 ** 2`). Tokens usually opt for a value of 18, imitating the relationship between Ether and Wei. This is the value {ERC20} uses, unless {_setupDecimals} is called. NOTE: This information is only used for _display_ purposes: it in no way affects any of the arithmetic of the contract, including {IERC20-balanceOf} and {IERC20-transfer}."
      },
      "decreaseAllowance(address,uint256)": {
        "details": "Atomically decreases the allowance granted to `spender` by the caller. This is an alternative to {approve} that can be used as a mitigation for problems described in {IERC20-approve}. Emits an {Approval} event indicating the updated allowance. Requirements: - `spender` cannot be the zero address. - `spender` must have allowance for the caller of at least `subtractedValue`."
      },
      "delegate(address)": {
        "params": {
          "delegatee": "The address to delegate votes to"
        }
      },
      "delegateBySig(address,uint256,uint256,uint8,bytes32,bytes32)": {
        "params": {
          "delegatee": "The address to delegate votes to",
          "expiry": "The time at which to expire the signature",
          "nonce": "The contract state required to match the signature",
          "r": "Half of the ECDSA signature pair",
          "s": "Half of the ECDSA signature pair",
          "v": "The recovery byte of the signature"
        }
      },
      "getCurrentVotes(address)": {
        "params": {
          "account": "The address to get votes balance"
        },
        "returns": {
          "_0": "The number of current votes for `account`"
        }
      },
      "getPriorVotes(address,uint256)": {
        "details": "Block number must be a finalized block or else this function will revert to prevent misinformation.",
        "params": {
          "account": "The address of the account to check",
          "blockNumber": "The block number to get the vote balance at"
        },
        "returns": {
          "_0": "The number of votes the account had as of the given block"
        }
      },
      "increaseAllowance(address,uint256)": {
        "details": "Atomically increases the allowance granted to `spender` by the caller. This is an alternative to {approve} that can be used as a mitigation for problems described in {IERC20-approve}. Emits an {Approval} event indicating the updated allowance. Requirements: - `spender` cannot be the zero address."
      },
      "name()": {
        "details": "Returns the name of the token."
      },
      "paused()": {
        "details": "Returns true if the contract is paused, and false otherwise."
      },
      "symbol()": {
        "details": "Returns the symbol of the token, usually a shorter version of the name."
      },
      "totalSupply()": {
        "details": "See {IERC20-totalSupply}."
      },
      "transfer(address,uint256)": {
        "params": {
          "amount": "The number of tokens to transfer",
          "to": "The address of the destination account"
        },
        "returns": {
          "_0": "Whether or not the transfer succeeded"
        }
      },
      "transferFrom(address,address,uint256)": {
        "params": {
          "amount": "The number of tokens to transfer",
          "from": "The address of the source account",
          "to": "The address of the destination account"
        },
        "returns": {
          "_0": "Whether or not the transfer succeeded"
        }
      }
    },
    "version": 1
  },
  "userdoc": {
    "events": {
      "DelegateChanged(address,address,address)": {
        "notice": "An event thats emitted when an account changes its delegate"
      },
      "DelegateVotesChanged(address,uint256,uint256)": {
        "notice": "An event thats emitted when a delegate account's vote balance changes"
      }
    },
    "kind": "user",
    "methods": {
      "DELEGATION_TYPEHASH()": {
        "notice": "The EIP-712 typehash for the delegation struct used by the contract"
      },
      "DOMAIN_TYPEHASH()": {
        "notice": "The EIP-712 typehash for the contract's domain"
      },
      "checkpoints(address,uint32)": {
        "notice": "A record of votes checkpoints for each account, by index"
      },
      "delegate(address)": {
        "notice": "Delegate votes from `msg.sender` to `delegatee`"
      },
      "delegateBySig(address,uint256,uint256,uint8,bytes32,bytes32)": {
        "notice": "Delegates votes from signatory to `delegatee`"
      },
      "delegates(address)": {
        "notice": "A record of each accounts delegate"
      },
      "getCurrentVotes(address)": {
        "notice": "Gets the current votes balance for `account`"
      },
      "getPriorVotes(address,uint256)": {
        "notice": "Determine the prior number of votes for an account as of a block number"
      },
      "nonces(address)": {
        "notice": "A record of states for signing / validating signatures"
      },
      "numCheckpoints(address)": {
        "notice": "The number of checkpoints for each account"
      },
      "transfer(address,uint256)": {
        "notice": "Transfer `amount` tokens from `msg.sender` to `to`"
      },
      "transferFrom(address,address,uint256)": {
        "notice": "Transfer `amount` tokens from `from` to `to`"
      }
    },
    "version": 1
  },
  "storageLayout": {
    "storage": [
      {
        "astId": 2455,
        "contract": "contracts/test/LiquidityMiningMaster.sol:LiquidityMiningMaster",
        "label": "_status",
        "offset": 0,
        "slot": "0",
        "type": "t_uint256"
      },
      {
        "astId": 2370,
        "contract": "contracts/test/LiquidityMiningMaster.sol:LiquidityMiningMaster",
        "label": "_paused",
        "offset": 0,
        "slot": "1",
        "type": "t_bool"
      },
      {
        "astId": 11642,
        "contract": "contracts/test/LiquidityMiningMaster.sol:LiquidityMiningMaster",
        "label": "_core",
        "offset": 1,
        "slot": "1",
        "type": "t_contract(ICore)11634"
      },
      {
        "astId": 764,
        "contract": "contracts/test/LiquidityMiningMaster.sol:LiquidityMiningMaster",
        "label": "_balances",
        "offset": 0,
        "slot": "2",
        "type": "t_mapping(t_address,t_uint256)"
      },
      {
        "astId": 770,
        "contract": "contracts/test/LiquidityMiningMaster.sol:LiquidityMiningMaster",
        "label": "_allowances",
        "offset": 0,
        "slot": "3",
        "type": "t_mapping(t_address,t_mapping(t_address,t_uint256))"
      },
      {
        "astId": 772,
        "contract": "contracts/test/LiquidityMiningMaster.sol:LiquidityMiningMaster",
        "label": "_totalSupply",
        "offset": 0,
        "slot": "4",
        "type": "t_uint256"
      },
      {
        "astId": 774,
        "contract": "contracts/test/LiquidityMiningMaster.sol:LiquidityMiningMaster",
        "label": "_name",
        "offset": 0,
        "slot": "5",
        "type": "t_string_storage"
      },
      {
        "astId": 776,
        "contract": "contracts/test/LiquidityMiningMaster.sol:LiquidityMiningMaster",
        "label": "_symbol",
        "offset": 0,
        "slot": "6",
        "type": "t_string_storage"
      },
      {
        "astId": 778,
        "contract": "contracts/test/LiquidityMiningMaster.sol:LiquidityMiningMaster",
        "label": "_decimals",
        "offset": 0,
        "slot": "7",
        "type": "t_uint8"
      },
      {
        "astId": 11821,
        "contract": "contracts/test/LiquidityMiningMaster.sol:LiquidityMiningMaster",
        "label": "delegates",
        "offset": 0,
        "slot": "8",
        "type": "t_mapping(t_address,t_address)"
      },
      {
        "astId": 11828,
        "contract": "contracts/test/LiquidityMiningMaster.sol:LiquidityMiningMaster",
        "label": "checkpoints",
        "offset": 0,
        "slot": "9",
        "type": "t_mapping(t_address,t_mapping(t_uint32,t_struct(Checkpoint)14052_storage))"
      },
      {
        "astId": 11833,
        "contract": "contracts/test/LiquidityMiningMaster.sol:LiquidityMiningMaster",
        "label": "numCheckpoints",
        "offset": 0,
        "slot": "10",
        "type": "t_mapping(t_address,t_uint32)"
      },
      {
        "astId": 11850,
        "contract": "contracts/test/LiquidityMiningMaster.sol:LiquidityMiningMaster",
        "label": "nonces",
        "offset": 0,
        "slot": "11",
        "type": "t_mapping(t_address,t_uint256)"
      },
      {
        "astId": 12610,
        "contract": "contracts/test/LiquidityMiningMaster.sol:LiquidityMiningMaster",
        "label": "vestingMaster",
        "offset": 0,
        "slot": "12",
        "type": "t_contract(IVestingMaster)11432"
      },
      {
        "astId": 12614,
        "contract": "contracts/test/LiquidityMiningMaster.sol:LiquidityMiningMaster",
        "label": "poolInfo",
        "offset": 0,
        "slot": "13",
        "type": "t_array(t_struct(PoolInfo)14134_storage)dyn_storage"
      },
      {
        "astId": 12621,
        "contract": "contracts/test/LiquidityMiningMaster.sol:LiquidityMiningMaster",
        "label": "userInfo",
        "offset": 0,
        "slot": "14",
        "type": "t_mapping(t_uint256,t_mapping(t_address,t_struct(UserInfo)14123_storage))"
      },
      {
        "astId": 12626,
        "contract": "contracts/test/LiquidityMiningMaster.sol:LiquidityMiningMaster",
        "label": "pair2Pid",
        "offset": 0,
        "slot": "15",
        "type": "t_mapping(t_address,t_uint256)"
      },
      {
        "astId": 12631,
        "contract": "contracts/test/LiquidityMiningMaster.sol:LiquidityMiningMaster",
        "label": "poolExistence",
        "offset": 0,
        "slot": "16",
        "type": "t_mapping(t_contract(IERC20)1328,t_bool)"
      },
      {
        "astId": 12634,
        "contract": "contracts/test/LiquidityMiningMaster.sol:LiquidityMiningMaster",
        "label": "tokenPerBlock",
        "offset": 0,
        "slot": "17",
        "type": "t_uint256"
      },
      {
        "astId": 12642,
        "contract": "contracts/test/LiquidityMiningMaster.sol:LiquidityMiningMaster",
        "label": "totalAllocPoint",
        "offset": 0,
        "slot": "18",
        "type": "t_uint256"
      },
      {
        "astId": 12645,
        "contract": "contracts/test/LiquidityMiningMaster.sol:LiquidityMiningMaster",
        "label": "startBlock",
        "offset": 0,
        "slot": "19",
        "type": "t_uint256"
      },
      {
        "astId": 12648,
        "contract": "contracts/test/LiquidityMiningMaster.sol:LiquidityMiningMaster",
        "label": "endBlock",
        "offset": 0,
        "slot": "20",
        "type": "t_uint256"
      },
      {
        "astId": 12651,
        "contract": "contracts/test/LiquidityMiningMaster.sol:LiquidityMiningMaster",
        "label": "rewardToken",
        "offset": 0,
        "slot": "21",
        "type": "t_contract(IERC20)1328"
      },
      {
        "astId": 12653,
        "contract": "contracts/test/LiquidityMiningMaster.sol:LiquidityMiningMaster",
        "label": "_accShareReward",
        "offset": 0,
        "slot": "22",
        "type": "t_uint256"
      },
      {
        "astId": 12655,
        "contract": "contracts/test/LiquidityMiningMaster.sol:LiquidityMiningMaster",
        "label": "_accHarvestedReward",
        "offset": 0,
        "slot": "23",
        "type": "t_uint256"
      },
      {
        "astId": 12657,
        "contract": "contracts/test/LiquidityMiningMaster.sol:LiquidityMiningMaster",
        "label": "xmsAddress",
        "offset": 0,
        "slot": "24",
        "type": "t_address"
      }
    ],
    "types": {
      "t_address": {
        "encoding": "inplace",
        "label": "address",
        "numberOfBytes": "20"
      },
      "t_array(t_struct(PoolInfo)14134_storage)dyn_storage": {
        "base": "t_struct(PoolInfo)14134_storage",
        "encoding": "dynamic_array",
        "label": "struct ILiquidityMiningMaster.PoolInfo[]",
        "numberOfBytes": "32"
      },
      "t_bool": {
        "encoding": "inplace",
        "label": "bool",
        "numberOfBytes": "1"
      },
      "t_contract(ICore)11634": {
        "encoding": "inplace",
        "label": "contract ICore",
        "numberOfBytes": "20"
      },
      "t_contract(IERC20)1328": {
        "encoding": "inplace",
        "label": "contract IERC20",
        "numberOfBytes": "20"
      },
      "t_contract(IVestingMaster)11432": {
        "encoding": "inplace",
        "label": "contract IVestingMaster",
        "numberOfBytes": "20"
      },
      "t_mapping(t_address,t_address)": {
        "encoding": "mapping",
        "key": "t_address",
        "label": "mapping(address => address)",
        "numberOfBytes": "32",
        "value": "t_address"
      },
      "t_mapping(t_address,t_mapping(t_address,t_uint256))": {
        "encoding": "mapping",
        "key": "t_address",
        "label": "mapping(address => mapping(address => uint256))",
        "numberOfBytes": "32",
        "value": "t_mapping(t_address,t_uint256)"
      },
      "t_mapping(t_address,t_mapping(t_uint32,t_struct(Checkpoint)14052_storage))": {
        "encoding": "mapping",
        "key": "t_address",
        "label": "mapping(address => mapping(uint32 => struct IDAOToken.Checkpoint))",
        "numberOfBytes": "32",
        "value": "t_mapping(t_uint32,t_struct(Checkpoint)14052_storage)"
      },
      "t_mapping(t_address,t_struct(UserInfo)14123_storage)": {
        "encoding": "mapping",
        "key": "t_address",
        "label": "mapping(address => struct ILiquidityMiningMaster.UserInfo)",
        "numberOfBytes": "32",
        "value": "t_struct(UserInfo)14123_storage"
      },
      "t_mapping(t_address,t_uint256)": {
        "encoding": "mapping",
        "key": "t_address",
        "label": "mapping(address => uint256)",
        "numberOfBytes": "32",
        "value": "t_uint256"
      },
      "t_mapping(t_address,t_uint32)": {
        "encoding": "mapping",
        "key": "t_address",
        "label": "mapping(address => uint32)",
        "numberOfBytes": "32",
        "value": "t_uint32"
      },
      "t_mapping(t_contract(IERC20)1328,t_bool)": {
        "encoding": "mapping",
        "key": "t_contract(IERC20)1328",
        "label": "mapping(contract IERC20 => bool)",
        "numberOfBytes": "32",
        "value": "t_bool"
      },
      "t_mapping(t_uint256,t_mapping(t_address,t_struct(UserInfo)14123_storage))": {
        "encoding": "mapping",
        "key": "t_uint256",
        "label": "mapping(uint256 => mapping(address => struct ILiquidityMiningMaster.UserInfo))",
        "numberOfBytes": "32",
        "value": "t_mapping(t_address,t_struct(UserInfo)14123_storage)"
      },
      "t_mapping(t_uint32,t_struct(Checkpoint)14052_storage)": {
        "encoding": "mapping",
        "key": "t_uint32",
        "label": "mapping(uint32 => struct IDAOToken.Checkpoint)",
        "numberOfBytes": "32",
        "value": "t_struct(Checkpoint)14052_storage"
      },
      "t_string_storage": {
        "encoding": "bytes",
        "label": "string",
        "numberOfBytes": "32"
      },
      "t_struct(Checkpoint)14052_storage": {
        "encoding": "inplace",
        "label": "struct IDAOToken.Checkpoint",
        "members": [
          {
            "astId": 14049,
            "contract": "contracts/test/LiquidityMiningMaster.sol:LiquidityMiningMaster",
            "label": "fromBlock",
            "offset": 0,
            "slot": "0",
            "type": "t_uint32"
          },
          {
            "astId": 14051,
            "contract": "contracts/test/LiquidityMiningMaster.sol:LiquidityMiningMaster",
            "label": "votes",
            "offset": 0,
            "slot": "1",
            "type": "t_uint256"
          }
        ],
        "numberOfBytes": "64"
      },
      "t_struct(PoolInfo)14134_storage": {
        "encoding": "inplace",
        "label": "struct ILiquidityMiningMaster.PoolInfo",
        "members": [
          {
            "astId": 14125,
            "contract": "contracts/test/LiquidityMiningMaster.sol:LiquidityMiningMaster",
            "label": "lpToken",
            "offset": 0,
            "slot": "0",
            "type": "t_contract(IERC20)1328"
          },
          {
            "astId": 14127,
            "contract": "contracts/test/LiquidityMiningMaster.sol:LiquidityMiningMaster",
            "label": "allocPoint",
            "offset": 0,
            "slot": "1",
            "type": "t_uint256"
          },
          {
            "astId": 14129,
            "contract": "contracts/test/LiquidityMiningMaster.sol:LiquidityMiningMaster",
            "label": "lastRewardBlock",
            "offset": 0,
            "slot": "2",
            "type": "t_uint256"
          },
          {
            "astId": 14131,
            "contract": "contracts/test/LiquidityMiningMaster.sol:LiquidityMiningMaster",
            "label": "accTokenPerShare",
            "offset": 0,
            "slot": "3",
            "type": "t_uint256"
          },
          {
            "astId": 14133,
            "contract": "contracts/test/LiquidityMiningMaster.sol:LiquidityMiningMaster",
            "label": "locked",
            "offset": 0,
            "slot": "4",
            "type": "t_bool"
          }
        ],
        "numberOfBytes": "160"
      },
      "t_struct(UserInfo)14123_storage": {
        "encoding": "inplace",
        "label": "struct ILiquidityMiningMaster.UserInfo",
        "members": [
          {
            "astId": 14120,
            "contract": "contracts/test/LiquidityMiningMaster.sol:LiquidityMiningMaster",
            "label": "amount",
            "offset": 0,
            "slot": "0",
            "type": "t_uint256"
          },
          {
            "astId": 14122,
            "contract": "contracts/test/LiquidityMiningMaster.sol:LiquidityMiningMaster",
            "label": "rewardDebt",
            "offset": 0,
            "slot": "1",
            "type": "t_uint256"
          }
        ],
        "numberOfBytes": "64"
      },
      "t_uint256": {
        "encoding": "inplace",
        "label": "uint256",
        "numberOfBytes": "32"
      },
      "t_uint32": {
        "encoding": "inplace",
        "label": "uint32",
        "numberOfBytes": "4"
      },
      "t_uint8": {
        "encoding": "inplace",
        "label": "uint8",
        "numberOfBytes": "1"
      }
    }
  }
}