{
  "address": "0xD21cBd58d1D8FeaBBC8c05F5bF2241321Ef9DE1c",
  "abi": [
    {
      "inputs": [
        {
          "internalType": "contract BSWToken",
          "name": "_BSW",
          "type": "address"
        },
        {
          "internalType": "address",
          "name": "_devaddr",
          "type": "address"
        },
        {
          "internalType": "address",
          "name": "_refAddr",
          "type": "address"
        },
        {
          "internalType": "address",
          "name": "_safuaddr",
          "type": "address"
        },
        {
          "internalType": "uint256",
          "name": "_BSWPerBlock",
          "type": "uint256"
        },
        {
          "internalType": "uint256",
          "name": "_startBlock",
          "type": "uint256"
        },
        {
          "internalType": "uint256",
          "name": "_stakingPercent",
          "type": "uint256"
        },
        {
          "internalType": "uint256",
          "name": "_devPercent",
          "type": "uint256"
        },
        {
          "internalType": "uint256",
          "name": "_refPercent",
          "type": "uint256"
        },
        {
          "internalType": "uint256",
          "name": "_safuPercent",
          "type": "uint256"
        }
      ],
      "stateMutability": "nonpayable",
      "type": "constructor"
    },
    {
      "anonymous": false,
      "inputs": [
        {
          "indexed": true,
          "internalType": "address",
          "name": "user",
          "type": "address"
        },
        {
          "indexed": true,
          "internalType": "uint256",
          "name": "pid",
          "type": "uint256"
        },
        {
          "indexed": false,
          "internalType": "uint256",
          "name": "amount",
          "type": "uint256"
        }
      ],
      "name": "Deposit",
      "type": "event"
    },
    {
      "anonymous": false,
      "inputs": [
        {
          "indexed": true,
          "internalType": "address",
          "name": "user",
          "type": "address"
        },
        {
          "indexed": true,
          "internalType": "uint256",
          "name": "pid",
          "type": "uint256"
        },
        {
          "indexed": false,
          "internalType": "uint256",
          "name": "amount",
          "type": "uint256"
        }
      ],
      "name": "EmergencyWithdraw",
      "type": "event"
    },
    {
      "anonymous": false,
      "inputs": [
        {
          "indexed": true,
          "internalType": "address",
          "name": "previousOwner",
          "type": "address"
        },
        {
          "indexed": true,
          "internalType": "address",
          "name": "newOwner",
          "type": "address"
        }
      ],
      "name": "OwnershipTransferred",
      "type": "event"
    },
    {
      "anonymous": false,
      "inputs": [
        {
          "indexed": true,
          "internalType": "address",
          "name": "user",
          "type": "address"
        },
        {
          "indexed": true,
          "internalType": "uint256",
          "name": "pid",
          "type": "uint256"
        },
        {
          "indexed": false,
          "internalType": "uint256",
          "name": "amount",
          "type": "uint256"
        }
      ],
      "name": "Withdraw",
      "type": "event"
    },
    {
      "inputs": [],
      "name": "BONUS_MULTIPLIER",
      "outputs": [
        {
          "internalType": "uint256",
          "name": "",
          "type": "uint256"
        }
      ],
      "stateMutability": "view",
      "type": "function"
    },
    {
      "inputs": [],
      "name": "BSW",
      "outputs": [
        {
          "internalType": "contract BSWToken",
          "name": "",
          "type": "address"
        }
      ],
      "stateMutability": "view",
      "type": "function"
    },
    {
      "inputs": [],
      "name": "BSWPerBlock",
      "outputs": [
        {
          "internalType": "uint256",
          "name": "",
          "type": "uint256"
        }
      ],
      "stateMutability": "view",
      "type": "function"
    },
    {
      "inputs": [
        {
          "internalType": "uint256",
          "name": "_allocPoint",
          "type": "uint256"
        },
        {
          "internalType": "contract IBEP20",
          "name": "_lpToken",
          "type": "address"
        },
        {
          "internalType": "bool",
          "name": "_withUpdate",
          "type": "bool"
        }
      ],
      "name": "add",
      "outputs": [],
      "stateMutability": "nonpayable",
      "type": "function"
    },
    {
      "inputs": [
        {
          "internalType": "uint256",
          "name": "_pid",
          "type": "uint256"
        },
        {
          "internalType": "uint256",
          "name": "_amount",
          "type": "uint256"
        }
      ],
      "name": "deposit",
      "outputs": [],
      "stateMutability": "nonpayable",
      "type": "function"
    },
    {
      "inputs": [],
      "name": "depositedBsw",
      "outputs": [
        {
          "internalType": "uint256",
          "name": "",
          "type": "uint256"
        }
      ],
      "stateMutability": "view",
      "type": "function"
    },
    {
      "inputs": [],
      "name": "devPercent",
      "outputs": [
        {
          "internalType": "uint256",
          "name": "",
          "type": "uint256"
        }
      ],
      "stateMutability": "view",
      "type": "function"
    },
    {
      "inputs": [],
      "name": "devaddr",
      "outputs": [
        {
          "internalType": "address",
          "name": "",
          "type": "address"
        }
      ],
      "stateMutability": "view",
      "type": "function"
    },
    {
      "inputs": [
        {
          "internalType": "uint256",
          "name": "_pid",
          "type": "uint256"
        }
      ],
      "name": "emergencyWithdraw",
      "outputs": [],
      "stateMutability": "nonpayable",
      "type": "function"
    },
    {
      "inputs": [
        {
          "internalType": "uint256",
          "name": "_amount",
          "type": "uint256"
        }
      ],
      "name": "enterStaking",
      "outputs": [],
      "stateMutability": "nonpayable",
      "type": "function"
    },
    {
      "inputs": [
        {
          "internalType": "uint256",
          "name": "_from",
          "type": "uint256"
        },
        {
          "internalType": "uint256",
          "name": "_to",
          "type": "uint256"
        }
      ],
      "name": "getMultiplier",
      "outputs": [
        {
          "internalType": "uint256",
          "name": "",
          "type": "uint256"
        }
      ],
      "stateMutability": "view",
      "type": "function"
    },
    {
      "inputs": [],
      "name": "lastBlockDevWithdraw",
      "outputs": [
        {
          "internalType": "uint256",
          "name": "",
          "type": "uint256"
        }
      ],
      "stateMutability": "view",
      "type": "function"
    },
    {
      "inputs": [
        {
          "internalType": "uint256",
          "name": "_amount",
          "type": "uint256"
        }
      ],
      "name": "leaveStaking",
      "outputs": [],
      "stateMutability": "nonpayable",
      "type": "function"
    },
    {
      "inputs": [],
      "name": "massUpdatePools",
      "outputs": [],
      "stateMutability": "nonpayable",
      "type": "function"
    },
    {
      "inputs": [
        {
          "internalType": "uint256",
          "name": "_pid",
          "type": "uint256"
        }
      ],
      "name": "migrate",
      "outputs": [],
      "stateMutability": "nonpayable",
      "type": "function"
    },
    {
      "inputs": [],
      "name": "migrator",
      "outputs": [
        {
          "internalType": "contract IMigratorChef",
          "name": "",
          "type": "address"
        }
      ],
      "stateMutability": "view",
      "type": "function"
    },
    {
      "inputs": [],
      "name": "owner",
      "outputs": [
        {
          "internalType": "address",
          "name": "",
          "type": "address"
        }
      ],
      "stateMutability": "view",
      "type": "function"
    },
    {
      "inputs": [
        {
          "internalType": "uint256",
          "name": "_pid",
          "type": "uint256"
        },
        {
          "internalType": "address",
          "name": "_user",
          "type": "address"
        }
      ],
      "name": "pendingBSW",
      "outputs": [
        {
          "internalType": "uint256",
          "name": "",
          "type": "uint256"
        }
      ],
      "stateMutability": "view",
      "type": "function"
    },
    {
      "inputs": [],
      "name": "percentDec",
      "outputs": [
        {
          "internalType": "uint256",
          "name": "",
          "type": "uint256"
        }
      ],
      "stateMutability": "view",
      "type": "function"
    },
    {
      "inputs": [
        {
          "internalType": "uint256",
          "name": "",
          "type": "uint256"
        }
      ],
      "name": "poolInfo",
      "outputs": [
        {
          "internalType": "contract IBEP20",
          "name": "lpToken",
          "type": "address"
        },
        {
          "internalType": "uint256",
          "name": "allocPoint",
          "type": "uint256"
        },
        {
          "internalType": "uint256",
          "name": "lastRewardBlock",
          "type": "uint256"
        },
        {
          "internalType": "uint256",
          "name": "accBSWPerShare",
          "type": "uint256"
        }
      ],
      "stateMutability": "view",
      "type": "function"
    },
    {
      "inputs": [],
      "name": "poolLength",
      "outputs": [
        {
          "internalType": "uint256",
          "name": "",
          "type": "uint256"
        }
      ],
      "stateMutability": "view",
      "type": "function"
    },
    {
      "inputs": [],
      "name": "refAddr",
      "outputs": [
        {
          "internalType": "address",
          "name": "",
          "type": "address"
        }
      ],
      "stateMutability": "view",
      "type": "function"
    },
    {
      "inputs": [],
      "name": "refPercent",
      "outputs": [
        {
          "internalType": "uint256",
          "name": "",
          "type": "uint256"
        }
      ],
      "stateMutability": "view",
      "type": "function"
    },
    {
      "inputs": [],
      "name": "renounceOwnership",
      "outputs": [],
      "stateMutability": "nonpayable",
      "type": "function"
    },
    {
      "inputs": [],
      "name": "safuPercent",
      "outputs": [
        {
          "internalType": "uint256",
          "name": "",
          "type": "uint256"
        }
      ],
      "stateMutability": "view",
      "type": "function"
    },
    {
      "inputs": [],
      "name": "safuaddr",
      "outputs": [
        {
          "internalType": "address",
          "name": "",
          "type": "address"
        }
      ],
      "stateMutability": "view",
      "type": "function"
    },
    {
      "inputs": [
        {
          "internalType": "uint256",
          "name": "_pid",
          "type": "uint256"
        },
        {
          "internalType": "uint256",
          "name": "_allocPoint",
          "type": "uint256"
        },
        {
          "internalType": "bool",
          "name": "_withUpdate",
          "type": "bool"
        }
      ],
      "name": "set",
      "outputs": [],
      "stateMutability": "nonpayable",
      "type": "function"
    },
    {
      "inputs": [
        {
          "internalType": "address",
          "name": "_devaddr",
          "type": "address"
        }
      ],
      "name": "setDevAddress",
      "outputs": [],
      "stateMutability": "nonpayable",
      "type": "function"
    },
    {
      "inputs": [
        {
          "internalType": "contract IMigratorChef",
          "name": "_migrator",
          "type": "address"
        }
      ],
      "name": "setMigrator",
      "outputs": [],
      "stateMutability": "nonpayable",
      "type": "function"
    },
    {
      "inputs": [
        {
          "internalType": "address",
          "name": "_refaddr",
          "type": "address"
        }
      ],
      "name": "setRefAddress",
      "outputs": [],
      "stateMutability": "nonpayable",
      "type": "function"
    },
    {
      "inputs": [
        {
          "internalType": "address",
          "name": "_safuaddr",
          "type": "address"
        }
      ],
      "name": "setSafuAddress",
      "outputs": [],
      "stateMutability": "nonpayable",
      "type": "function"
    },
    {
      "inputs": [],
      "name": "stakingPercent",
      "outputs": [
        {
          "internalType": "uint256",
          "name": "",
          "type": "uint256"
        }
      ],
      "stateMutability": "view",
      "type": "function"
    },
    {
      "inputs": [],
      "name": "startBlock",
      "outputs": [
        {
          "internalType": "uint256",
          "name": "",
          "type": "uint256"
        }
      ],
      "stateMutability": "view",
      "type": "function"
    },
    {
      "inputs": [],
      "name": "totalAllocPoint",
      "outputs": [
        {
          "internalType": "uint256",
          "name": "",
          "type": "uint256"
        }
      ],
      "stateMutability": "view",
      "type": "function"
    },
    {
      "inputs": [
        {
          "internalType": "address",
          "name": "newOwner",
          "type": "address"
        }
      ],
      "name": "transferOwnership",
      "outputs": [],
      "stateMutability": "nonpayable",
      "type": "function"
    },
    {
      "inputs": [
        {
          "internalType": "uint256",
          "name": "newAmount",
          "type": "uint256"
        }
      ],
      "name": "updateBswPerBlock",
      "outputs": [],
      "stateMutability": "nonpayable",
      "type": "function"
    },
    {
      "inputs": [
        {
          "internalType": "uint256",
          "name": "multiplierNumber",
          "type": "uint256"
        }
      ],
      "name": "updateMultiplier",
      "outputs": [],
      "stateMutability": "nonpayable",
      "type": "function"
    },
    {
      "inputs": [
        {
          "internalType": "uint256",
          "name": "_pid",
          "type": "uint256"
        }
      ],
      "name": "updatePool",
      "outputs": [],
      "stateMutability": "nonpayable",
      "type": "function"
    },
    {
      "inputs": [
        {
          "internalType": "uint256",
          "name": "",
          "type": "uint256"
        },
        {
          "internalType": "address",
          "name": "",
          "type": "address"
        }
      ],
      "name": "userInfo",
      "outputs": [
        {
          "internalType": "uint256",
          "name": "amount",
          "type": "uint256"
        },
        {
          "internalType": "uint256",
          "name": "rewardDebt",
          "type": "uint256"
        }
      ],
      "stateMutability": "view",
      "type": "function"
    },
    {
      "inputs": [
        {
          "internalType": "uint256",
          "name": "_pid",
          "type": "uint256"
        },
        {
          "internalType": "uint256",
          "name": "_amount",
          "type": "uint256"
        }
      ],
      "name": "withdraw",
      "outputs": [],
      "stateMutability": "nonpayable",
      "type": "function"
    },
    {
      "inputs": [],
      "name": "withdrawDevAndRefFee",
      "outputs": [],
      "stateMutability": "nonpayable",
      "type": "function"
    }
  ],
  "transactionHash": "0xbec6005e9f044cafd757bf47cfcf26c8a0e450512fbd2f2708954028184df8bc",
  "args": [
    "0xDCCC0f640Aa5A3D7943ea24aaCb79E7D622dE578",
    "0x1904BFcb93EdC9BF961Eead2e5c0de81dCc1D37D",
    "0x1904BFcb93EdC9BF961Eead2e5c0de81dCc1D37D",
    "0x1904BFcb93EdC9BF961Eead2e5c0de81dCc1D37D",
    "1000000000000000000",
    0,
    857000,
    90000,
    43000,
    10000
  ],
  "solcInputHash": "ac0e0d268ac00ee58ad1cac15120989b",
  "bytecode": "0x6080604052620f42406002556001600c55600060105534801561002157600080fd5b5060405162002c3938038062002c39833981810160405261014081101561004757600080fd5b508051602082015160408301516060840151608085015160a086015160c087015160e08801516101008901516101209099015197989697959694959394929391929091600061009461023b565b600080546001600160a01b0319166001600160a01b0383169081178255604051929350917f8be0079c531659141344cd1fd0a4f28419497f9722a3daafe3b4186f6b6457e0908290a350600180546001600160a01b03199081166001600160a01b039c8d1690811783556007805483169c8e169c909c17909b556009805482169a8d169a909a17909955600880548a16988c1698909817909755600b9590955560118490556003929092556004908155600591909155600692909255600a819055604080516080810182529586526103e860208701818152918701928352600060608801818152600e8054978801815590915296517fbb7b4a454dc3493923482f07822329ed19e8244eff582cc204f8554c3620c3fd9590940294850180549096169390971692909217909355517fbb7b4a454dc3493923482f07822329ed19e8244eff582cc204f8554c3620c3fe82015590517fbb7b4a454dc3493923482f07822329ed19e8244eff582cc204f8554c3620c3ff82015590517fbb7b4a454dc3493923482f07822329ed19e8244eff582cc204f8554c3620c4009091015560105561023f565b3390565b6129ea806200024f6000396000f3fe608060405234801561001057600080fd5b50600436106102d25760003560e01c80635312ea8e116101865780638da5cb5b116100e3578063d0d41fe111610097578063e2bbb15811610071578063e2bbb1581461066d578063f2fde38b14610690578063fc3c28af146106b6576102d2565b8063d0d41fe114610637578063d49e77cd1461065d578063e0dcd30d14610665576102d2565b806393f1a40b116100c857806393f1a40b146105e2578063b76e360c14610627578063be1193ea1461062f576102d2565b80638da5cb5b146105b75780638dbb1e3a146105bf576102d2565b806369d0c5b81161013a5780637c7be2fa1161011f5780637c7be2fa146105815780637cd07e47146105a75780638aa28550146105af576102d2565b806369d0c5b814610571578063715018a614610579576102d2565b80635ffe61461161016b5780635ffe614614610521578063630b5ba11461053e57806364482f7914610546576102d2565b80635312ea8e146104fc57806359d5335b14610519576102d2565b806323cf31181161023457806341441d3b116101e8578063454b0608116101cd578063454b0608146104ba57806348cd4cb1146104d757806351eb05a6146104df576102d2565b806341441d3b1461047a578063441a3e7014610497576102d2565b8063305371ee11610219578063305371ee14610431578063333667dc146104555780634062726514610472576102d2565b806323cf3118146103df578063295315bf14610405576102d2565b80631526fe271161028b57806318678a731161027057806318678a731461039b5780631eaaa045146103a357806321b1aecb146103d7576102d2565b80631526fe271461034657806317caf6f114610393576102d2565b8063081e3eda116102bc578063081e3eda146103195780631058d2811461032157806312270c401461033e576102d2565b8062a2e3be146102d7578063061e26af146102f1575b600080fd5b6102df6106be565b60408051918252519081900360200190f35b6103176004803603602081101561030757600080fd5b50356001600160a01b03166106c4565b005b6102df610772565b6103176004803603602081101561033757600080fd5b5035610778565b61031761090d565b6103636004803603602081101561035c57600080fd5b5035610b7b565b604080516001600160a01b0390951685526020850193909352838301919091526060830152519081900360800190f35b6102df610bbc565b6102df610bc2565b610317600480360360608110156103b957600080fd5b508035906001600160a01b0360208201351690604001351515610bc8565b6102df610d77565b610317600480360360208110156103f557600080fd5b50356001600160a01b0316610d7d565b6102df6004803603604081101561041b57600080fd5b50803590602001356001600160a01b0316610e2b565b610439610fc3565b604080516001600160a01b039092168252519081900360200190f35b6103176004803603602081101561046b57600080fd5b5035610fd2565b6102df611106565b6103176004803603602081101561049057600080fd5b503561110c565b610317600480360360408110156104ad57600080fd5b5080359060200135611245565b610317600480360360208110156104d057600080fd5b50356113e9565b6102df6116c2565b610317600480360360208110156104f557600080fd5b50356116c8565b6103176004803603602081101561051257600080fd5b50356118bf565b6102df61195a565b6103176004803603602081101561053757600080fd5b5035611960565b6103176119d9565b6103176004803603606081101561055c57600080fd5b508035906020810135906040013515156119fc565b610439611ae9565b610317611af8565b6103176004803603602081101561059757600080fd5b50356001600160a01b0316611bce565b610439611c7c565b6102df611c8b565b610439611c91565b6102df600480360360408110156105d557600080fd5b5080359060200135611ca0565b61060e600480360360408110156105f857600080fd5b50803590602001356001600160a01b0316611cbb565b6040805192835260208301919091528051918290030190f35b6102df611cdf565b6102df611ce5565b6103176004803603602081101561064d57600080fd5b50356001600160a01b0316611ceb565b610439611d99565b610439611da8565b6103176004803603604081101561068357600080fd5b5080359060200135611db7565b610317600480360360208110156106a657600080fd5b50356001600160a01b0316611f0e565b6102df61203a565b60065481565b6106cc612040565b6001600160a01b03166106dd611c91565b6001600160a01b031614610738576040805162461bcd60e51b815260206004820181905260248201527f4f776e61626c653a2063616c6c6572206973206e6f7420746865206f776e6572604482015290519081900360640190fd5b600980547fffffffffffffffffffffffff0000000000000000000000000000000000000000166001600160a01b0392909216919091179055565b600e5490565b6000600e60008154811061078857fe5b600091825260208083203384527ff4803e074bd026baaf6ed2e288c9515f68c72fb7216eebdd7cae1718a53ec375909152604090922080546004909202909201925083111561081e576040805162461bcd60e51b815260206004820152601260248201527f77697468647261773a206e6f7420676f6f640000000000000000000000000000604482015290519081900360640190fd5b61082860006116c8565b6000610862826001015461085c64e8d4a510006108568760030154876000015461204490919063ffffffff16565b9061209d565b90612104565b90508015610874576108743382612161565b83156108af5781546108869085612104565b8255825461089e906001600160a01b0316338661233d565b6012546108ab9085612104565b6012555b600383015482546108ca9164e8d4a510009161085691612044565b600183015560408051858152905160009133917ff279e6a1f5e320cca91135676d9cb6e44ca8a08c0b88342bcdb1144f6511b5689181900360200190a350505050565b43600a5410610963576040805162461bcd60e51b815260206004820152601260248201527f7761697420666f72206e657720626c6f636b0000000000000000000000000000604482015290519081900360640190fd5b6000610971600a5443611ca0565b9050600061098a600b548361204490919063ffffffff16565b6001546007546002546004549394506001600160a01b03928316936340c10f1993909216916109bf9190610856908790612044565b6040518363ffffffff1660e01b815260040180836001600160a01b0316815260200182815260200192505050602060405180830381600087803b158015610a0557600080fd5b505af1158015610a19573d6000803e3d6000fd5b505050506040513d6020811015610a2f57600080fd5b50506001546008546002546006546001600160a01b03938416936340c10f19931691610a6091610856908790612044565b6040518363ffffffff1660e01b815260040180836001600160a01b0316815260200182815260200192505050602060405180830381600087803b158015610aa657600080fd5b505af1158015610aba573d6000803e3d6000fd5b505050506040513d6020811015610ad057600080fd5b50506001546009546002546005546001600160a01b03938416936340c10f19931691610b0191610856908790612044565b6040518363ffffffff1660e01b815260040180836001600160a01b0316815260200182815260200192505050602060405180830381600087803b158015610b4757600080fd5b505af1158015610b5b573d6000803e3d6000fd5b505050506040513d6020811015610b7157600080fd5b505043600a555050565b600e8181548110610b8857fe5b600091825260209091206004909102018054600182015460028301546003909301546001600160a01b039092169350919084565b60105481565b60125481565b610bd0612040565b6001600160a01b0316610be1611c91565b6001600160a01b031614610c3c576040805162461bcd60e51b815260206004820181905260248201527f4f776e61626c653a2063616c6c6572206973206e6f7420746865206f776e6572604482015290519081900360640190fd5b8015610c4a57610c4a6119d9565b60006011544311610c5d57601154610c5f565b435b601054909150610c6f90856123bd565b601055604080516080810182526001600160a01b03948516815260208101958652908101918252600060608201818152600e8054600181018255925291517fbb7b4a454dc3493923482f07822329ed19e8244eff582cc204f8554c3620c3fd600490920291820180547fffffffffffffffffffffffff000000000000000000000000000000000000000016919096161790945593517fbb7b4a454dc3493923482f07822329ed19e8244eff582cc204f8554c3620c3fe840155517fbb7b4a454dc3493923482f07822329ed19e8244eff582cc204f8554c3620c3ff8301555090517fbb7b4a454dc3493923482f07822329ed19e8244eff582cc204f8554c3620c40090910155565b60025481565b610d85612040565b6001600160a01b0316610d96611c91565b6001600160a01b031614610df1576040805162461bcd60e51b815260206004820181905260248201527f4f776e61626c653a2063616c6c6572206973206e6f7420746865206f776e6572604482015290519081900360640190fd5b600d80547fffffffffffffffffffffffff0000000000000000000000000000000000000000166001600160a01b0392909216919091179055565b600080600e8481548110610e3b57fe5b60009182526020808320878452600f825260408085206001600160a01b03898116875290845281862060049586029093016003810154815484517f70a082310000000000000000000000000000000000000000000000000000000081523098810198909852935191985093969395939492909116926370a08231926024808301939192829003018186803b158015610ed257600080fd5b505afa158015610ee6573d6000803e3d6000fd5b505050506040513d6020811015610efc57600080fd5b5051905086610f0a57506012545b836002015443118015610f1c57508015155b15610f8e576000610f31856002015443611ca0565b90506000610f6a600254610856600354610f646010546108568c60010154610f64600b548b61204490919063ffffffff16565b90612044565b9050610f89610f82846108568464e8d4a51000612044565b85906123bd565b935050505b610fb6836001015461085c64e8d4a5100061085686886000015461204490919063ffffffff16565b9450505050505b92915050565b6001546001600160a01b031681565b610fda612040565b6001600160a01b0316610feb611c91565b6001600160a01b031614611046576040805162461bcd60e51b815260206004820181905260248201527f4f776e61626c653a2063616c6c6572206973206e6f7420746865206f776e6572604482015290519081900360640190fd5b6801a055690d9db800008111156110a4576040805162461bcd60e51b815260206004820152601460248201527f4d61782070657220626c6f636b20333020425357000000000000000000000000604482015290519081900360640190fd5b670de0b6b3a7640000811015611101576040805162461bcd60e51b815260206004820152601360248201527f4d696e2070657220626c6f636b20312042535700000000000000000000000000604482015290519081900360640190fd5b600b55565b600b5481565b6000600e60008154811061111c57fe5b600091825260208083203384527ff4803e074bd026baaf6ed2e288c9515f68c72fb7216eebdd7cae1718a53ec37590915260408320600490920201925090611163906116c8565b8054156111ac576000611198826001015461085c64e8d4a510006108568760030154876000015461204490919063ffffffff16565b905080156111aa576111aa3382612161565b505b82156111e85781546111c9906001600160a01b0316333086612417565b80546111d590846123bd565b81556012546111e490846123bd565b6012555b600382015481546112039164e8d4a510009161085691612044565b600182015560408051848152905160009133917f90890809c654f11d6e72a28fa60149770a0d11ec6c92319d6ceb2bb0a4ea1a159181900360200190a3505050565b81611297576040805162461bcd60e51b815260206004820152601960248201527f77697468647261772042535720627920756e7374616b696e6700000000000000604482015290519081900360640190fd5b6000600e83815481106112a657fe5b60009182526020808320868452600f825260408085203386529092529220805460049092029092019250831115611324576040805162461bcd60e51b815260206004820152601260248201527f77697468647261773a206e6f7420676f6f640000000000000000000000000000604482015290519081900360640190fd5b61132d846116c8565b600061135b826001015461085c64e8d4a510006108568760030154876000015461204490919063ffffffff16565b90506113673382612161565b81546113739085612104565b80835560038401546113909164e8d4a51000916108569190612044565b600183015582546113ab906001600160a01b0316338661233d565b604080518581529051869133917ff279e6a1f5e320cca91135676d9cb6e44ca8a08c0b88342bcdb1144f6511b5689181900360200190a35050505050565b600d546001600160a01b0316611446576040805162461bcd60e51b815260206004820152601460248201527f6d6967726174653a206e6f206d69677261746f72000000000000000000000000604482015290519081900360640190fd5b6000600e828154811061145557fe5b600091825260208083206004928302018054604080517f70a082310000000000000000000000000000000000000000000000000000000081523095810195909552519195506001600160a01b0316939284926370a0823192602480840193829003018186803b1580156114c757600080fd5b505afa1580156114db573d6000803e3d6000fd5b505050506040513d60208110156114f157600080fd5b5051600d54909150611510906001600160a01b038481169116836124a5565b600d54604080517fce5494bb0000000000000000000000000000000000000000000000000000000081526001600160a01b0385811660048301529151600093929092169163ce5494bb9160248082019260209290919082900301818787803b15801561157b57600080fd5b505af115801561158f573d6000803e3d6000fd5b505050506040513d60208110156115a557600080fd5b5051604080517f70a0823100000000000000000000000000000000000000000000000000000000815230600482015290519192506001600160a01b038316916370a0823191602480820192602092909190829003018186803b15801561160a57600080fd5b505afa15801561161e573d6000803e3d6000fd5b505050506040513d602081101561163457600080fd5b50518214611689576040805162461bcd60e51b815260206004820152600c60248201527f6d6967726174653a206261640000000000000000000000000000000000000000604482015290519081900360640190fd5b83547fffffffffffffffffffffffff0000000000000000000000000000000000000000166001600160a01b039190911617909255505050565b60115481565b6000600e82815481106116d757fe5b90600052602060002090600402019050806002015443116116f857506118bc565b8054604080517f70a0823100000000000000000000000000000000000000000000000000000000815230600482015290516000926001600160a01b0316916370a08231916024808301926020929190829003018186803b15801561175b57600080fd5b505afa15801561176f573d6000803e3d6000fd5b505050506040513d602081101561178557600080fd5b505190508261179357506012545b600081116117a85750436002909101556118bc565b60006117b8836002015443611ca0565b905060006117eb600254610856600354610f646010546108568a60010154610f64600b548b61204490919063ffffffff16565b600154604080517f40c10f190000000000000000000000000000000000000000000000000000000081523060048201526024810184905290519293506001600160a01b03909116916340c10f19916044808201926020929091908290030181600087803b15801561185b57600080fd5b505af115801561186f573d6000803e3d6000fd5b505050506040513d602081101561188557600080fd5b506118a9905061189e846108568464e8d4a51000612044565b6003860154906123bd565b6003850155505043600290920191909155505b50565b6000600e82815481106118ce57fe5b60009182526020808320858452600f82526040808520338087529352909320805460049093029093018054909450611913926001600160a01b0391909116919061233d565b80546040805191825251849133917fbb757047c2b5f3974fe26b7c10f732e7bce710b0952a71082702781e62ae05959181900360200190a360008082556001909101555050565b60055481565b611968612040565b6001600160a01b0316611979611c91565b6001600160a01b0316146119d4576040805162461bcd60e51b815260206004820181905260248201527f4f776e61626c653a2063616c6c6572206973206e6f7420746865206f776e6572604482015290519081900360640190fd5b600c55565b600e5460005b818110156119f8576119f0816116c8565b6001016119df565b5050565b611a04612040565b6001600160a01b0316611a15611c91565b6001600160a01b031614611a70576040805162461bcd60e51b815260206004820181905260248201527f4f776e61626c653a2063616c6c6572206973206e6f7420746865206f776e6572604482015290519081900360640190fd5b8015611a7e57611a7e6119d9565b611abb82611ab5600e8681548110611a9257fe5b90600052602060002090600402016001015460105461210490919063ffffffff16565b906123bd565b60108190555081600e8481548110611acf57fe5b906000526020600020906004020160010181905550505050565b6009546001600160a01b031681565b611b00612040565b6001600160a01b0316611b11611c91565b6001600160a01b031614611b6c576040805162461bcd60e51b815260206004820181905260248201527f4f776e61626c653a2063616c6c6572206973206e6f7420746865206f776e6572604482015290519081900360640190fd5b600080546040516001600160a01b03909116907f8be0079c531659141344cd1fd0a4f28419497f9722a3daafe3b4186f6b6457e0908390a3600080547fffffffffffffffffffffffff0000000000000000000000000000000000000000169055565b611bd6612040565b6001600160a01b0316611be7611c91565b6001600160a01b031614611c42576040805162461bcd60e51b815260206004820181905260248201527f4f776e61626c653a2063616c6c6572206973206e6f7420746865206f776e6572604482015290519081900360640190fd5b600880547fffffffffffffffffffffffff0000000000000000000000000000000000000000166001600160a01b0392909216919091179055565b600d546001600160a01b031681565b600c5481565b6000546001600160a01b031690565b600c54600090611cb490610f648486612104565b9392505050565b600f6020908152600092835260408084209091529082529020805460019091015482565b600a5481565b60035481565b611cf3612040565b6001600160a01b0316611d04611c91565b6001600160a01b031614611d5f576040805162461bcd60e51b815260206004820181905260248201527f4f776e61626c653a2063616c6c6572206973206e6f7420746865206f776e6572604482015290519081900360640190fd5b600780547fffffffffffffffffffffffff0000000000000000000000000000000000000000166001600160a01b0392909216919091179055565b6007546001600160a01b031681565b6008546001600160a01b031681565b81611e09576040805162461bcd60e51b815260206004820152601660248201527f6465706f73697420425357206279207374616b696e6700000000000000000000604482015290519081900360640190fd5b6000600e8381548110611e1857fe5b60009182526020808320868452600f82526040808520338652909252922060049091029091019150611e49846116c8565b805415611e8c576000611e7e826001015461085c64e8d4a510006108568760030154876000015461204490919063ffffffff16565b9050611e8a3382612161565b505b8154611ea3906001600160a01b0316333086612417565b8054611eaf90846123bd565b8082556003830154611ecc9164e8d4a51000916108569190612044565b6001820155604080518481529051859133917f90890809c654f11d6e72a28fa60149770a0d11ec6c92319d6ceb2bb0a4ea1a159181900360200190a350505050565b611f16612040565b6001600160a01b0316611f27611c91565b6001600160a01b031614611f82576040805162461bcd60e51b815260206004820181905260248201527f4f776e61626c653a2063616c6c6572206973206e6f7420746865206f776e6572604482015290519081900360640190fd5b6001600160a01b038116611fc75760405162461bcd60e51b81526004018080602001828103825260268152602001806129126026913960400191505060405180910390fd5b600080546040516001600160a01b03808516939216917f8be0079c531659141344cd1fd0a4f28419497f9722a3daafe3b4186f6b6457e091a3600080547fffffffffffffffffffffffff0000000000000000000000000000000000000000166001600160a01b0392909216919091179055565b60045481565b3390565b60008261205357506000610fbd565b8282028284828161206057fe5b0414611cb45760405162461bcd60e51b815260040180806020018281038252602181526020018061295e6021913960400191505060405180910390fd5b60008082116120f3576040805162461bcd60e51b815260206004820152601a60248201527f536166654d6174683a206469766973696f6e206279207a65726f000000000000604482015290519081900360640190fd5b8183816120fc57fe5b049392505050565b60008282111561215b576040805162461bcd60e51b815260206004820152601e60248201527f536166654d6174683a207375627472616374696f6e206f766572666c6f770000604482015290519081900360640190fd5b50900390565b600154604080517f70a0823100000000000000000000000000000000000000000000000000000000815230600482015290516000926001600160a01b0316916370a08231916024808301926020929190829003018186803b1580156121c557600080fd5b505afa1580156121d9573d6000803e3d6000fd5b505050506040513d60208110156121ef57600080fd5b505190508082111561229c57600154604080517fa9059cbb0000000000000000000000000000000000000000000000000000000081526001600160a01b038681166004830152602482018590529151919092169163a9059cbb9160448083019260209291908290030181600087803b15801561226a57600080fd5b505af115801561227e573d6000803e3d6000fd5b505050506040513d602081101561229457600080fd5b506123389050565b600154604080517fa9059cbb0000000000000000000000000000000000000000000000000000000081526001600160a01b038681166004830152602482018690529151919092169163a9059cbb9160448083019260209291908290030181600087803b15801561230b57600080fd5b505af115801561231f573d6000803e3d6000fd5b505050506040513d602081101561233557600080fd5b50505b505050565b604080516001600160a01b038416602482015260448082018490528251808303909101815260649091019091526020810180517bffffffffffffffffffffffffffffffffffffffffffffffffffffffff167fa9059cbb000000000000000000000000000000000000000000000000000000001790526123389084906125fb565b600082820183811015611cb4576040805162461bcd60e51b815260206004820152601b60248201527f536166654d6174683a206164646974696f6e206f766572666c6f770000000000604482015290519081900360640190fd5b604080516001600160a01b0380861660248301528416604482015260648082018490528251808303909101815260849091019091526020810180517bffffffffffffffffffffffffffffffffffffffffffffffffffffffff167f23b872dd0000000000000000000000000000000000000000000000000000000017905261249f9085906125fb565b50505050565b8015806125445750604080517fdd62ed3e0000000000000000000000000000000000000000000000000000000081523060048201526001600160a01b03848116602483015291519185169163dd62ed3e91604480820192602092909190829003018186803b15801561251657600080fd5b505afa15801561252a573d6000803e3d6000fd5b505050506040513d602081101561254057600080fd5b5051155b61257f5760405162461bcd60e51b815260040180806020018281038252603681526020018061297f6036913960400191505060405180910390fd5b604080516001600160a01b038416602482015260448082018490528251808303909101815260649091019091526020810180517bffffffffffffffffffffffffffffffffffffffffffffffffffffffff167f095ea7b3000000000000000000000000000000000000000000000000000000001790526123389084905b6060612650826040518060400160405280602081526020017f5361666542455032303a206c6f772d6c6576656c2063616c6c206661696c6564815250856001600160a01b03166126ac9092919063ffffffff16565b8051909150156123385780806020019051602081101561266f57600080fd5b50516123385760405162461bcd60e51b815260040180806020018281038252602a8152602001806128e8602a913960400191505060405180910390fd5b60606126bb84846000856126c3565b949350505050565b6060824710156127045760405162461bcd60e51b81526004018080602001828103825260268152602001806129386026913960400191505060405180910390fd5b61270d8561283d565b61275e576040805162461bcd60e51b815260206004820152601d60248201527f416464726573733a2063616c6c20746f206e6f6e2d636f6e7472616374000000604482015290519081900360640190fd5b60006060866001600160a01b031685876040518082805190602001908083835b602083106127bb57805182527fffffffffffffffffffffffffffffffffffffffffffffffffffffffffffffffe0909201916020918201910161277e565b6001836020036101000a03801982511681845116808217855250505050505090500191505060006040518083038185875af1925050503d806000811461281d576040519150601f19603f3d011682016040523d82523d6000602084013e612822565b606091505b5091509150612832828286612843565b979650505050505050565b3b151590565b60608315612852575081611cb4565b8251156128625782518084602001fd5b8160405162461bcd60e51b81526004018080602001828103825283818151815260200191508051906020019080838360005b838110156128ac578181015183820152602001612894565b50505050905090810190601f1680156128d95780820380516001836020036101000a031916815260200191505b509250505060405180910390fdfe5361666542455032303a204245503230206f7065726174696f6e20646964206e6f7420737563636565644f776e61626c653a206e6577206f776e657220697320746865207a65726f2061646472657373416464726573733a20696e73756666696369656e742062616c616e636520666f722063616c6c536166654d6174683a206d756c7469706c69636174696f6e206f766572666c6f775361666542455032303a20617070726f76652066726f6d206e6f6e2d7a65726f20746f206e6f6e2d7a65726f20616c6c6f77616e6365a26469706673582212204a4c26b403c6ae5840bb810ed5beb882d898ea7a9dfa0e2b4079661ca2d3301764736f6c634300060c0033",
  "devdoc": {
    "kind": "dev",
    "methods": {
      "owner()": {
        "details": "Returns the address of the current owner."
      },
      "renounceOwnership()": {
        "details": "Leaves the contract without owner. It will not be possible to call `onlyOwner` functions anymore. Can only be called by the current owner. NOTE: Renouncing ownership will leave the contract without an owner, thereby removing any functionality that is only available to the owner."
      },
      "transferOwnership(address)": {
        "details": "Transfers ownership of the contract to a new account (`newOwner`). Can only be called by the current owner."
      }
    },
    "version": 1
  },
  "userdoc": {
    "kind": "user",
    "methods": {},
    "version": 1
  },
  "storageLayout": {
    "storage": [
      {
        "astId": 290,
        "contract": "contracts/test/biswap/MasterChefBSW.sol:MasterChefBSW",
        "label": "_owner",
        "offset": 0,
        "slot": "0",
        "type": "t_address"
      },
      {
        "astId": 15587,
        "contract": "contracts/test/biswap/MasterChefBSW.sol:MasterChefBSW",
        "label": "BSW",
        "offset": 0,
        "slot": "1",
        "type": "t_contract(BSWToken)15549"
      },
      {
        "astId": 15590,
        "contract": "contracts/test/biswap/MasterChefBSW.sol:MasterChefBSW",
        "label": "percentDec",
        "offset": 0,
        "slot": "2",
        "type": "t_uint256"
      },
      {
        "astId": 15592,
        "contract": "contracts/test/biswap/MasterChefBSW.sol:MasterChefBSW",
        "label": "stakingPercent",
        "offset": 0,
        "slot": "3",
        "type": "t_uint256"
      },
      {
        "astId": 15594,
        "contract": "contracts/test/biswap/MasterChefBSW.sol:MasterChefBSW",
        "label": "devPercent",
        "offset": 0,
        "slot": "4",
        "type": "t_uint256"
      },
      {
        "astId": 15596,
        "contract": "contracts/test/biswap/MasterChefBSW.sol:MasterChefBSW",
        "label": "refPercent",
        "offset": 0,
        "slot": "5",
        "type": "t_uint256"
      },
      {
        "astId": 15598,
        "contract": "contracts/test/biswap/MasterChefBSW.sol:MasterChefBSW",
        "label": "safuPercent",
        "offset": 0,
        "slot": "6",
        "type": "t_uint256"
      },
      {
        "astId": 15600,
        "contract": "contracts/test/biswap/MasterChefBSW.sol:MasterChefBSW",
        "label": "devaddr",
        "offset": 0,
        "slot": "7",
        "type": "t_address"
      },
      {
        "astId": 15602,
        "contract": "contracts/test/biswap/MasterChefBSW.sol:MasterChefBSW",
        "label": "safuaddr",
        "offset": 0,
        "slot": "8",
        "type": "t_address"
      },
      {
        "astId": 15604,
        "contract": "contracts/test/biswap/MasterChefBSW.sol:MasterChefBSW",
        "label": "refAddr",
        "offset": 0,
        "slot": "9",
        "type": "t_address"
      },
      {
        "astId": 15606,
        "contract": "contracts/test/biswap/MasterChefBSW.sol:MasterChefBSW",
        "label": "lastBlockDevWithdraw",
        "offset": 0,
        "slot": "10",
        "type": "t_uint256"
      },
      {
        "astId": 15608,
        "contract": "contracts/test/biswap/MasterChefBSW.sol:MasterChefBSW",
        "label": "BSWPerBlock",
        "offset": 0,
        "slot": "11",
        "type": "t_uint256"
      },
      {
        "astId": 15611,
        "contract": "contracts/test/biswap/MasterChefBSW.sol:MasterChefBSW",
        "label": "BONUS_MULTIPLIER",
        "offset": 0,
        "slot": "12",
        "type": "t_uint256"
      },
      {
        "astId": 15613,
        "contract": "contracts/test/biswap/MasterChefBSW.sol:MasterChefBSW",
        "label": "migrator",
        "offset": 0,
        "slot": "13",
        "type": "t_contract(IMigratorChef)15563"
      },
      {
        "astId": 15616,
        "contract": "contracts/test/biswap/MasterChefBSW.sol:MasterChefBSW",
        "label": "poolInfo",
        "offset": 0,
        "slot": "14",
        "type": "t_array(t_struct(PoolInfo)15585_storage)dyn_storage"
      },
      {
        "astId": 15622,
        "contract": "contracts/test/biswap/MasterChefBSW.sol:MasterChefBSW",
        "label": "userInfo",
        "offset": 0,
        "slot": "15",
        "type": "t_mapping(t_uint256,t_mapping(t_address,t_struct(UserInfo)15576_storage))"
      },
      {
        "astId": 15625,
        "contract": "contracts/test/biswap/MasterChefBSW.sol:MasterChefBSW",
        "label": "totalAllocPoint",
        "offset": 0,
        "slot": "16",
        "type": "t_uint256"
      },
      {
        "astId": 15627,
        "contract": "contracts/test/biswap/MasterChefBSW.sol:MasterChefBSW",
        "label": "startBlock",
        "offset": 0,
        "slot": "17",
        "type": "t_uint256"
      },
      {
        "astId": 15629,
        "contract": "contracts/test/biswap/MasterChefBSW.sol:MasterChefBSW",
        "label": "depositedBsw",
        "offset": 0,
        "slot": "18",
        "type": "t_uint256"
      }
    ],
    "types": {
      "t_address": {
        "encoding": "inplace",
        "label": "address",
        "numberOfBytes": "20"
      },
      "t_array(t_struct(PoolInfo)15585_storage)dyn_storage": {
        "base": "t_struct(PoolInfo)15585_storage",
        "encoding": "dynamic_array",
        "label": "struct MasterChefBSW.PoolInfo[]",
        "numberOfBytes": "32"
      },
      "t_contract(BSWToken)15549": {
        "encoding": "inplace",
        "label": "contract BSWToken",
        "numberOfBytes": "20"
      },
      "t_contract(IBEP20)17209": {
        "encoding": "inplace",
        "label": "contract IBEP20",
        "numberOfBytes": "20"
      },
      "t_contract(IMigratorChef)15563": {
        "encoding": "inplace",
        "label": "contract IMigratorChef",
        "numberOfBytes": "20"
      },
      "t_mapping(t_address,t_struct(UserInfo)15576_storage)": {
        "encoding": "mapping",
        "key": "t_address",
        "label": "mapping(address => struct MasterChefBSW.UserInfo)",
        "numberOfBytes": "32",
        "value": "t_struct(UserInfo)15576_storage"
      },
      "t_mapping(t_uint256,t_mapping(t_address,t_struct(UserInfo)15576_storage))": {
        "encoding": "mapping",
        "key": "t_uint256",
        "label": "mapping(uint256 => mapping(address => struct MasterChefBSW.UserInfo))",
        "numberOfBytes": "32",
        "value": "t_mapping(t_address,t_struct(UserInfo)15576_storage)"
      },
      "t_struct(PoolInfo)15585_storage": {
        "encoding": "inplace",
        "label": "struct MasterChefBSW.PoolInfo",
        "members": [
          {
            "astId": 15578,
            "contract": "contracts/test/biswap/MasterChefBSW.sol:MasterChefBSW",
            "label": "lpToken",
            "offset": 0,
            "slot": "0",
            "type": "t_contract(IBEP20)17209"
          },
          {
            "astId": 15580,
            "contract": "contracts/test/biswap/MasterChefBSW.sol:MasterChefBSW",
            "label": "allocPoint",
            "offset": 0,
            "slot": "1",
            "type": "t_uint256"
          },
          {
            "astId": 15582,
            "contract": "contracts/test/biswap/MasterChefBSW.sol:MasterChefBSW",
            "label": "lastRewardBlock",
            "offset": 0,
            "slot": "2",
            "type": "t_uint256"
          },
          {
            "astId": 15584,
            "contract": "contracts/test/biswap/MasterChefBSW.sol:MasterChefBSW",
            "label": "accBSWPerShare",
            "offset": 0,
            "slot": "3",
            "type": "t_uint256"
          }
        ],
        "numberOfBytes": "128"
      },
      "t_struct(UserInfo)15576_storage": {
        "encoding": "inplace",
        "label": "struct MasterChefBSW.UserInfo",
        "members": [
          {
            "astId": 15573,
            "contract": "contracts/test/biswap/MasterChefBSW.sol:MasterChefBSW",
            "label": "amount",
            "offset": 0,
            "slot": "0",
            "type": "t_uint256"
          },
          {
            "astId": 15575,
            "contract": "contracts/test/biswap/MasterChefBSW.sol:MasterChefBSW",
            "label": "rewardDebt",
            "offset": 0,
            "slot": "1",
            "type": "t_uint256"
          }
        ],
        "numberOfBytes": "64"
      },
      "t_uint256": {
        "encoding": "inplace",
        "label": "uint256",
        "numberOfBytes": "32"
      }
    }
  }
}