{
  "address": "0x42139b329FCb6287C95398B441Be27eADC576469",
  "abi": [
    {
      "inputs": [
        {
          "internalType": "address",
          "name": "_core",
          "type": "address"
        },
        {
          "internalType": "address",
          "name": "_upToken",
          "type": "address"
        },
        {
          "internalType": "address",
          "name": "_WBNB",
          "type": "address"
        },
        {
          "internalType": "address",
          "name": "_vestingMaster",
          "type": "address"
        },
        {
          "internalType": "uint256",
          "name": "_tokenPerBlock",
          "type": "uint256"
        },
        {
          "internalType": "uint256",
          "name": "_startBlock",
          "type": "uint256"
        },
        {
          "internalType": "uint256",
          "name": "_endBlock",
          "type": "uint256"
        }
      ],
      "stateMutability": "nonpayable",
      "type": "constructor"
    },
    {
      "anonymous": false,
      "inputs": [
        {
          "indexed": false,
          "internalType": "uint256",
          "name": "_allocPoint",
          "type": "uint256"
        },
        {
          "indexed": false,
          "internalType": "address",
          "name": "_lpToken",
          "type": "address"
        },
        {
          "indexed": false,
          "internalType": "bool",
          "name": "_locked",
          "type": "bool"
        }
      ],
      "name": "AddPool",
      "type": "event"
    },
    {
      "anonymous": false,
      "inputs": [
        {
          "indexed": true,
          "internalType": "address",
          "name": "owner",
          "type": "address"
        },
        {
          "indexed": true,
          "internalType": "address",
          "name": "spender",
          "type": "address"
        },
        {
          "indexed": false,
          "internalType": "uint256",
          "name": "value",
          "type": "uint256"
        }
      ],
      "name": "Approval",
      "type": "event"
    },
    {
      "anonymous": false,
      "inputs": [
        {
          "indexed": true,
          "internalType": "address",
          "name": "_core",
          "type": "address"
        }
      ],
      "name": "CoreUpdate",
      "type": "event"
    },
    {
      "anonymous": false,
      "inputs": [
        {
          "indexed": true,
          "internalType": "address",
          "name": "user",
          "type": "address"
        },
        {
          "indexed": true,
          "internalType": "uint256",
          "name": "pid",
          "type": "uint256"
        },
        {
          "indexed": false,
          "internalType": "uint256",
          "name": "amount",
          "type": "uint256"
        },
        {
          "indexed": false,
          "internalType": "uint256",
          "name": "totalAmount",
          "type": "uint256"
        },
        {
          "indexed": false,
          "internalType": "uint256",
          "name": "rewardDebt",
          "type": "uint256"
        }
      ],
      "name": "Deposit",
      "type": "event"
    },
    {
      "anonymous": false,
      "inputs": [
        {
          "indexed": true,
          "internalType": "address",
          "name": "user",
          "type": "address"
        },
        {
          "indexed": true,
          "internalType": "uint256",
          "name": "pid",
          "type": "uint256"
        },
        {
          "indexed": false,
          "internalType": "uint256",
          "name": "amount",
          "type": "uint256"
        }
      ],
      "name": "EmergencyWithdraw",
      "type": "event"
    },
    {
      "anonymous": false,
      "inputs": [
        {
          "indexed": false,
          "internalType": "address",
          "name": "account",
          "type": "address"
        }
      ],
      "name": "Paused",
      "type": "event"
    },
    {
      "anonymous": false,
      "inputs": [
        {
          "indexed": false,
          "internalType": "uint256",
          "name": "_pid",
          "type": "uint256"
        },
        {
          "indexed": false,
          "internalType": "uint256",
          "name": "_allocPoint",
          "type": "uint256"
        },
        {
          "indexed": false,
          "internalType": "bool",
          "name": "_locked",
          "type": "bool"
        }
      ],
      "name": "SetPool",
      "type": "event"
    },
    {
      "anonymous": false,
      "inputs": [
        {
          "indexed": true,
          "internalType": "address",
          "name": "from",
          "type": "address"
        },
        {
          "indexed": true,
          "internalType": "address",
          "name": "to",
          "type": "address"
        },
        {
          "indexed": false,
          "internalType": "uint256",
          "name": "value",
          "type": "uint256"
        }
      ],
      "name": "Transfer",
      "type": "event"
    },
    {
      "anonymous": false,
      "inputs": [
        {
          "indexed": false,
          "internalType": "address",
          "name": "account",
          "type": "address"
        }
      ],
      "name": "Unpaused",
      "type": "event"
    },
    {
      "anonymous": false,
      "inputs": [
        {
          "indexed": true,
          "internalType": "address",
          "name": "user",
          "type": "address"
        },
        {
          "indexed": false,
          "internalType": "uint256",
          "name": "tokenPerBlock",
          "type": "uint256"
        }
      ],
      "name": "UpdateEmissionRate",
      "type": "event"
    },
    {
      "anonymous": false,
      "inputs": [
        {
          "indexed": true,
          "internalType": "address",
          "name": "user",
          "type": "address"
        },
        {
          "indexed": false,
          "internalType": "uint256",
          "name": "endBlock",
          "type": "uint256"
        }
      ],
      "name": "UpdateEndBlock",
      "type": "event"
    },
    {
      "anonymous": false,
      "inputs": [
        {
          "indexed": false,
          "internalType": "address",
          "name": "lpToken",
          "type": "address"
        },
        {
          "indexed": false,
          "internalType": "uint256",
          "name": "accTokenPerShare",
          "type": "uint256"
        },
        {
          "indexed": false,
          "internalType": "uint256",
          "name": "reward",
          "type": "uint256"
        },
        {
          "indexed": false,
          "internalType": "uint256",
          "name": "lpSupply",
          "type": "uint256"
        }
      ],
      "name": "UpdatePool",
      "type": "event"
    },
    {
      "anonymous": false,
      "inputs": [
        {
          "indexed": true,
          "internalType": "address",
          "name": "user",
          "type": "address"
        },
        {
          "indexed": false,
          "internalType": "address",
          "name": "vestingMaster",
          "type": "address"
        }
      ],
      "name": "UpdateVestingMaster",
      "type": "event"
    },
    {
      "anonymous": false,
      "inputs": [
        {
          "indexed": true,
          "internalType": "address",
          "name": "user",
          "type": "address"
        },
        {
          "indexed": true,
          "internalType": "uint256",
          "name": "pid",
          "type": "uint256"
        },
        {
          "indexed": false,
          "internalType": "uint256",
          "name": "amount",
          "type": "uint256"
        },
        {
          "indexed": false,
          "internalType": "uint256",
          "name": "totalAmount",
          "type": "uint256"
        },
        {
          "indexed": false,
          "internalType": "uint256",
          "name": "rewardDebt",
          "type": "uint256"
        }
      ],
      "name": "Withdraw",
      "type": "event"
    },
    {
      "inputs": [],
      "name": "MASTER_ROLE",
      "outputs": [
        {
          "internalType": "bytes32",
          "name": "",
          "type": "bytes32"
        }
      ],
      "stateMutability": "view",
      "type": "function"
    },
    {
      "inputs": [
        {
          "internalType": "uint256",
          "name": "_allocPoint",
          "type": "uint256"
        },
        {
          "internalType": "contract IERC20",
          "name": "_lpToken",
          "type": "address"
        },
        {
          "internalType": "bool",
          "name": "_locked",
          "type": "bool"
        }
      ],
      "name": "addPool",
      "outputs": [],
      "stateMutability": "nonpayable",
      "type": "function"
    },
    {
      "inputs": [
        {
          "internalType": "address",
          "name": "owner",
          "type": "address"
        },
        {
          "internalType": "address",
          "name": "spender",
          "type": "address"
        }
      ],
      "name": "allowance",
      "outputs": [
        {
          "internalType": "uint256",
          "name": "",
          "type": "uint256"
        }
      ],
      "stateMutability": "view",
      "type": "function"
    },
    {
      "inputs": [
        {
          "internalType": "address",
          "name": "spender",
          "type": "address"
        },
        {
          "internalType": "uint256",
          "name": "amount",
          "type": "uint256"
        }
      ],
      "name": "approve",
      "outputs": [
        {
          "internalType": "bool",
          "name": "",
          "type": "bool"
        }
      ],
      "stateMutability": "nonpayable",
      "type": "function"
    },
    {
      "inputs": [
        {
          "internalType": "address",
          "name": "account",
          "type": "address"
        }
      ],
      "name": "balanceOf",
      "outputs": [
        {
          "internalType": "uint256",
          "name": "",
          "type": "uint256"
        }
      ],
      "stateMutability": "view",
      "type": "function"
    },
    {
      "inputs": [],
      "name": "core",
      "outputs": [
        {
          "internalType": "contract ICore",
          "name": "",
          "type": "address"
        }
      ],
      "stateMutability": "view",
      "type": "function"
    },
    {
      "inputs": [],
      "name": "decimals",
      "outputs": [
        {
          "internalType": "uint8",
          "name": "",
          "type": "uint8"
        }
      ],
      "stateMutability": "view",
      "type": "function"
    },
    {
      "inputs": [
        {
          "internalType": "address",
          "name": "spender",
          "type": "address"
        },
        {
          "internalType": "uint256",
          "name": "subtractedValue",
          "type": "uint256"
        }
      ],
      "name": "decreaseAllowance",
      "outputs": [
        {
          "internalType": "bool",
          "name": "",
          "type": "bool"
        }
      ],
      "stateMutability": "nonpayable",
      "type": "function"
    },
    {
      "inputs": [
        {
          "internalType": "uint256",
          "name": "_pid",
          "type": "uint256"
        },
        {
          "internalType": "uint256",
          "name": "_amount",
          "type": "uint256"
        }
      ],
      "name": "deposit",
      "outputs": [],
      "stateMutability": "nonpayable",
      "type": "function"
    },
    {
      "inputs": [
        {
          "internalType": "uint256",
          "name": "_pid",
          "type": "uint256"
        }
      ],
      "name": "emergencyWithdraw",
      "outputs": [],
      "stateMutability": "nonpayable",
      "type": "function"
    },
    {
      "inputs": [],
      "name": "endBlock",
      "outputs": [
        {
          "internalType": "uint256",
          "name": "",
          "type": "uint256"
        }
      ],
      "stateMutability": "view",
      "type": "function"
    },
    {
      "inputs": [],
      "name": "getNoHarvestReward",
      "outputs": [
        {
          "internalType": "uint256",
          "name": "",
          "type": "uint256"
        }
      ],
      "stateMutability": "view",
      "type": "function"
    },
    {
      "inputs": [
        {
          "internalType": "address",
          "name": "spender",
          "type": "address"
        },
        {
          "internalType": "uint256",
          "name": "addedValue",
          "type": "uint256"
        }
      ],
      "name": "increaseAllowance",
      "outputs": [
        {
          "internalType": "bool",
          "name": "",
          "type": "bool"
        }
      ],
      "stateMutability": "nonpayable",
      "type": "function"
    },
    {
      "inputs": [],
      "name": "massUpdatePools",
      "outputs": [],
      "stateMutability": "nonpayable",
      "type": "function"
    },
    {
      "inputs": [],
      "name": "name",
      "outputs": [
        {
          "internalType": "string",
          "name": "",
          "type": "string"
        }
      ],
      "stateMutability": "view",
      "type": "function"
    },
    {
      "inputs": [
        {
          "internalType": "address",
          "name": "",
          "type": "address"
        }
      ],
      "name": "pair2Pid",
      "outputs": [
        {
          "internalType": "uint256",
          "name": "",
          "type": "uint256"
        }
      ],
      "stateMutability": "view",
      "type": "function"
    },
    {
      "inputs": [],
      "name": "pause",
      "outputs": [],
      "stateMutability": "nonpayable",
      "type": "function"
    },
    {
      "inputs": [],
      "name": "paused",
      "outputs": [
        {
          "internalType": "bool",
          "name": "",
          "type": "bool"
        }
      ],
      "stateMutability": "view",
      "type": "function"
    },
    {
      "inputs": [
        {
          "internalType": "uint256",
          "name": "_pid",
          "type": "uint256"
        },
        {
          "internalType": "address",
          "name": "_user",
          "type": "address"
        }
      ],
      "name": "pendingToken",
      "outputs": [
        {
          "internalType": "uint256",
          "name": "",
          "type": "uint256"
        }
      ],
      "stateMutability": "view",
      "type": "function"
    },
    {
      "inputs": [
        {
          "internalType": "contract IERC20",
          "name": "",
          "type": "address"
        }
      ],
      "name": "poolExistence",
      "outputs": [
        {
          "internalType": "bool",
          "name": "",
          "type": "bool"
        }
      ],
      "stateMutability": "view",
      "type": "function"
    },
    {
      "inputs": [
        {
          "internalType": "uint256",
          "name": "",
          "type": "uint256"
        }
      ],
      "name": "poolInfo",
      "outputs": [
        {
          "internalType": "contract IERC20",
          "name": "lpToken",
          "type": "address"
        },
        {
          "internalType": "uint256",
          "name": "allocPoint",
          "type": "uint256"
        },
        {
          "internalType": "uint256",
          "name": "lastRewardBlock",
          "type": "uint256"
        },
        {
          "internalType": "uint256",
          "name": "accTokenPerShare",
          "type": "uint256"
        },
        {
          "internalType": "bool",
          "name": "locked",
          "type": "bool"
        }
      ],
      "stateMutability": "view",
      "type": "function"
    },
    {
      "inputs": [],
      "name": "poolLength",
      "outputs": [
        {
          "internalType": "uint256",
          "name": "",
          "type": "uint256"
        }
      ],
      "stateMutability": "view",
      "type": "function"
    },
    {
      "inputs": [],
      "name": "rewardToken",
      "outputs": [
        {
          "internalType": "contract IERC20",
          "name": "",
          "type": "address"
        }
      ],
      "stateMutability": "view",
      "type": "function"
    },
    {
      "inputs": [
        {
          "internalType": "address",
          "name": "core_",
          "type": "address"
        }
      ],
      "name": "setCore",
      "outputs": [],
      "stateMutability": "nonpayable",
      "type": "function"
    },
    {
      "inputs": [
        {
          "internalType": "uint256",
          "name": "_pid",
          "type": "uint256"
        },
        {
          "internalType": "uint256",
          "name": "_allocPoint",
          "type": "uint256"
        },
        {
          "internalType": "bool",
          "name": "_locked",
          "type": "bool"
        }
      ],
      "name": "setPool",
      "outputs": [],
      "stateMutability": "nonpayable",
      "type": "function"
    },
    {
      "inputs": [],
      "name": "startBlock",
      "outputs": [
        {
          "internalType": "uint256",
          "name": "",
          "type": "uint256"
        }
      ],
      "stateMutability": "view",
      "type": "function"
    },
    {
      "inputs": [],
      "name": "symbol",
      "outputs": [
        {
          "internalType": "string",
          "name": "",
          "type": "string"
        }
      ],
      "stateMutability": "view",
      "type": "function"
    },
    {
      "inputs": [],
      "name": "tokenPerBlock",
      "outputs": [
        {
          "internalType": "uint256",
          "name": "",
          "type": "uint256"
        }
      ],
      "stateMutability": "view",
      "type": "function"
    },
    {
      "inputs": [],
      "name": "totalAllocPoint",
      "outputs": [
        {
          "internalType": "uint256",
          "name": "",
          "type": "uint256"
        }
      ],
      "stateMutability": "view",
      "type": "function"
    },
    {
      "inputs": [],
      "name": "totalSupply",
      "outputs": [
        {
          "internalType": "uint256",
          "name": "",
          "type": "uint256"
        }
      ],
      "stateMutability": "view",
      "type": "function"
    },
    {
      "inputs": [
        {
          "internalType": "address",
          "name": "to",
          "type": "address"
        },
        {
          "internalType": "uint256",
          "name": "amount",
          "type": "uint256"
        }
      ],
      "name": "transfer",
      "outputs": [
        {
          "internalType": "bool",
          "name": "",
          "type": "bool"
        }
      ],
      "stateMutability": "nonpayable",
      "type": "function"
    },
    {
      "inputs": [
        {
          "internalType": "address",
          "name": "from",
          "type": "address"
        },
        {
          "internalType": "address",
          "name": "to",
          "type": "address"
        },
        {
          "internalType": "uint256",
          "name": "amount",
          "type": "uint256"
        }
      ],
      "name": "transferFrom",
      "outputs": [
        {
          "internalType": "bool",
          "name": "",
          "type": "bool"
        }
      ],
      "stateMutability": "nonpayable",
      "type": "function"
    },
    {
      "inputs": [],
      "name": "unpause",
      "outputs": [],
      "stateMutability": "nonpayable",
      "type": "function"
    },
    {
      "inputs": [],
      "name": "upToken",
      "outputs": [
        {
          "internalType": "contract IERC20",
          "name": "",
          "type": "address"
        }
      ],
      "stateMutability": "view",
      "type": "function"
    },
    {
      "inputs": [
        {
          "internalType": "uint256",
          "name": "_endBlock",
          "type": "uint256"
        }
      ],
      "name": "updateEndBlock",
      "outputs": [],
      "stateMutability": "nonpayable",
      "type": "function"
    },
    {
      "inputs": [
        {
          "internalType": "uint256",
          "name": "_pid",
          "type": "uint256"
        }
      ],
      "name": "updatePool",
      "outputs": [],
      "stateMutability": "nonpayable",
      "type": "function"
    },
    {
      "inputs": [
        {
          "internalType": "uint256",
          "name": "_tokenPerBlock",
          "type": "uint256"
        }
      ],
      "name": "updateTokenPerBlock",
      "outputs": [],
      "stateMutability": "nonpayable",
      "type": "function"
    },
    {
      "inputs": [
        {
          "internalType": "address",
          "name": "_vestingMaster",
          "type": "address"
        }
      ],
      "name": "updateVestingMaster",
      "outputs": [],
      "stateMutability": "nonpayable",
      "type": "function"
    },
    {
      "inputs": [
        {
          "internalType": "uint256",
          "name": "",
          "type": "uint256"
        },
        {
          "internalType": "address",
          "name": "",
          "type": "address"
        }
      ],
      "name": "userInfo",
      "outputs": [
        {
          "internalType": "uint256",
          "name": "amount",
          "type": "uint256"
        },
        {
          "internalType": "uint256",
          "name": "rewardDebt",
          "type": "uint256"
        }
      ],
      "stateMutability": "view",
      "type": "function"
    },
    {
      "inputs": [],
      "name": "vestingMaster",
      "outputs": [
        {
          "internalType": "contract IVestingMaster",
          "name": "",
          "type": "address"
        }
      ],
      "stateMutability": "view",
      "type": "function"
    },
    {
      "inputs": [
        {
          "internalType": "uint256",
          "name": "_pid",
          "type": "uint256"
        },
        {
          "internalType": "uint256",
          "name": "_amount",
          "type": "uint256"
        }
      ],
      "name": "withdraw",
      "outputs": [],
      "stateMutability": "nonpayable",
      "type": "function"
    },
    {
      "stateMutability": "payable",
      "type": "receive"
    }
  ],
  "transactionHash": "0x809128982643912dab8360f7af0e2e8ac3a9b4f0f28c1fd07a8a9c0810e0a252",
  "args": [
    "0x40fc3759Ccc4E466650891a91F34Bdd6129094D6",
    "0x4C2e91C8eD9eed3aFa2cC5ecBb26ae752c83dA59",
    "0xae13d989daC2f0dEbFf460aC112a837C89BAa7cd",
    "0x0000000000000000000000000000000000000000",
    "500000000000000",
    0,
    "1000000000000000000"
  ],
  "solcInputHash": "2f541bcd60d5e1a907d6462ac5275e07",
  "bytecode": "0x60806040526000600d553480156200001657600080fd5b5060405162003e4438038062003e44833981016040819052620000399162000242565b86868686868686866040518060400160405280601381526020017f5550204661726d73205365656420546f6b656e0000000000000000000000000081525060405180604001604052806006815260200165155414d1515160d21b81525060016000819055508160049080519060200190620000b692919062000188565b508051620000cc90600590602084019062000188565b5050600680546001600160a01b039093166201000002610100600160b01b031960ff199094166012179390931692909217909155508082106200012c5760405162461bcd60e51b81526004016200012390620002bf565b60405180910390fd5b601180546001600160a01b03199081166001600160a01b039889161790915560108054821696881696909617909555600780549095169390951692909217909255600c91909155600e55600f55506200030e9650505050505050565b828054600181600116156101000203166002900490600052602060002090601f016020900481019282601f10620001cb57805160ff1916838001178555620001fb565b82800160010185558215620001fb579182015b82811115620001fb578251825591602001919060010190620001de565b50620002099291506200020d565b5090565b5b808211156200020957600081556001016200020e565b80516001600160a01b03811681146200023c57600080fd5b92915050565b600080600080600080600060e0888a0312156200025d578283fd5b62000269898962000224565b96506200027a8960208a0162000224565b95506200028b8960408a0162000224565b94506200029c8960608a0162000224565b93506080880151925060a0880151915060c0880151905092959891949750929550565b6020808252602f908201527f5374616b696e675265776172643a3a636f6e7374727563746f723a20456e642060408201526e1b195cdcc81d1a185b881cdd185c9d608a1b606082015260800190565b613b26806200031e6000396000f3fe6080604052600436106102c95760003560e01c80635312ea8e1161017957806395d89b41116100d6578063cbd258b51161008a578063e2bbb15811610064578063e2bbb15814610745578063f2f4eb2614610765578063f7c618c11461077a576102d0565b8063cbd258b5146106f0578063dc22486314610710578063dd62ed3e14610725576102d0565b8063a9059cbb116100bb578063a9059cbb14610690578063ae0e597a146106b0578063c8116585146106d0576102d0565b806395d89b411461065b578063a457c2d714610670576102d0565b806370a082311161012d578063800096301161011257806380009630146105f85780638456cb591461061857806393f1a40b1461062d576102d0565b806370a08231146105b85780637abceffd146105d8576102d0565b80635c975abb1161015e5780635c975abb1461057957806361a548e31461058e578063630b5ba1146105a3576102d0565b80635312ea8e146105445780635aca5e9314610564576102d0565b806323b872dd11610227578063441a3e70116101db57806348cd4cb1116101c057806348cd4cb1146104ef57806348e43af41461050457806351eb05a614610524576102d0565b8063441a3e70146104af57806346ca6bea146104cf576102d0565b8063395093511161020c57806339509351146104655780633f4ba83a146104855780634198709a1461049a576102d0565b806323b872dd14610423578063313ce56714610443576102d0565b80631526fe271161027e57806318160ddd1161026357806318160ddd146103cc5780631eccdf07146103e15780632124ca4414610403576102d0565b80631526fe271461038657806317caf6f1146103b7576102d0565b8063081e3eda116102af578063081e3eda14610322578063083c632314610344578063095ea7b314610359576102d0565b80626f0231146102d557806306fdde03146102f7576102d0565b366102d057005b600080fd5b3480156102e157600080fd5b506102f56102f0366004612fb0565b61078f565b005b34801561030357600080fd5b5061030c6109b4565b604051610319919061316a565b60405180910390f35b34801561032e57600080fd5b50610337610a68565b6040516103199190613131565b34801561035057600080fd5b50610337610a6e565b34801561036557600080fd5b50610379610374366004612f69565b610a74565b6040516103199190613126565b34801561039257600080fd5b506103a66103a1366004612fb0565b610a92565b60405161031995949392919061313a565b3480156103c357600080fd5b50610337610add565b3480156103d857600080fd5b50610337610ae3565b3480156103ed57600080fd5b506103f6610ae9565b60405161031991906130af565b34801561040f57600080fd5b506102f561041e366004612ed5565b610af8565b34801561042f57600080fd5b5061037961043e366004612f29565b610c17565b34801561044f57600080fd5b50610458610c31565b6040516103199190613a49565b34801561047157600080fd5b50610379610480366004612f69565b610c3a565b34801561049157600080fd5b506102f5610c8d565b3480156104a657600080fd5b50610337610d51565b3480156104bb57600080fd5b506102f56104ca366004613045565b610d57565b3480156104db57600080fd5b506102f56104ea366004613066565b611134565b3480156104fb57600080fd5b5061033761139a565b34801561051057600080fd5b5061033761051f366004612fe0565b6113a0565b34801561053057600080fd5b506102f561053f366004612fb0565b611540565b34801561055057600080fd5b506102f561055f366004612fb0565b611742565b34801561057057600080fd5b50610337611847565b34801561058557600080fd5b50610379611865565b34801561059a57600080fd5b506103f6611873565b3480156105af57600080fd5b506102f5611882565b3480156105c457600080fd5b506103376105d3366004612ed5565b6118a1565b3480156105e457600080fd5b506102f56105f3366004613004565b6118bc565b34801561060457600080fd5b506102f5610613366004612ed5565b611ccc565b34801561062457600080fd5b506102f5611df0565b34801561063957600080fd5b5061064d610648366004612fe0565b611f56565b604051610319929190613a0d565b34801561066757600080fd5b5061030c611f7a565b34801561067c57600080fd5b5061037961068b366004612f69565b611ff9565b34801561069c57600080fd5b506103796106ab366004612f69565b612061565b3480156106bc57600080fd5b506102f56106cb366004612fb0565b61207b565b3480156106dc57600080fd5b506103376106eb366004612ed5565b612218565b3480156106fc57600080fd5b5061037961070b366004612ed5565b61222a565b34801561071c57600080fd5b5061033761223f565b34801561073157600080fd5b50610337610740366004612ef1565b612263565b34801561075157600080fd5b506102f5610760366004613045565b61228e565b34801561077157600080fd5b506103f66126c8565b34801561078657600080fd5b506103f66126dd565b6006546040517fe43581b8000000000000000000000000000000000000000000000000000000008152620100009091046001600160a01b03169063e43581b8906107dd9033906004016130af565b60206040518083038186803b1580156107f557600080fd5b505afa158015610809573d6000803e3d6000fd5b505050506040513d601f19601f8201168201806040525081019061082d9190612f94565b806108d157506006546040517f0c68ba21000000000000000000000000000000000000000000000000000000008152620100009091046001600160a01b031690630c68ba21906108819033906004016130af565b60206040518083038186803b15801561089957600080fd5b505afa1580156108ad573d6000803e3d6000fd5b505050506040513d601f19601f820116820180604052508101906108d19190612f94565b6108f65760405162461bcd60e51b81526004016108ed90613559565b60405180910390fd5b600e5481116109175760405162461bcd60e51b81526004016108ed90613750565b60005b600854811015610969576008818154811061093157fe5b90600052602060002090600502016002015482116109615760405162461bcd60e51b81526004016108ed90613750565b60010161091a565b50610972611882565b600f81905560405133907f316ee89ca026e5355cff2b64939ee0e5af49bde19b755b42bbde0f5bea039825906109a9908490613131565b60405180910390a250565b60048054604080516020601f60027fffffffffffffffffffffffffffffffffffffffffffffffffffffffffffffffff610100600188161502019095169490940493840181900481028201810190925282815260609390929091830182828015610a5e5780601f10610a3357610100808354040283529160200191610a5e565b820191906000526020600020905b815481529060010190602001808311610a4157829003601f168201915b5050505050905090565b60085490565b600f5481565b6000610a88610a816126ec565b84846126f0565b5060015b92915050565b60088181548110610a9f57fe5b6000918252602090912060059091020180546001820154600283015460038401546004909401546001600160a01b0390931694509092909160ff1685565b600d5481565b60035490565b6007546001600160a01b031681565b6006546040517fe43581b8000000000000000000000000000000000000000000000000000000008152620100009091046001600160a01b03169063e43581b890610b469033906004016130af565b60206040518083038186803b158015610b5e57600080fd5b505afa158015610b72573d6000803e3d6000fd5b505050506040513d601f19601f82011682018060405250810190610b969190612f94565b610bb25760405162461bcd60e51b81526004016108ed9061339d565b600780547fffffffffffffffffffffffff0000000000000000000000000000000000000000166001600160a01b03831617905560405133907fedd017b4981fb4d0d4df1c48baed994ce8b4dc47ba89a2010ce592b7df5c6dc4906109a99084906130af565b600060405162461bcd60e51b81526004016108ed90613431565b60065460ff1690565b6000610a88610c476126ec565b84610c888560026000610c586126ec565b6001600160a01b03908116825260208083019390935260409182016000908120918c1681529252902054906127a4565b6126f0565b6006546040517fe43581b8000000000000000000000000000000000000000000000000000000008152620100009091046001600160a01b03169063e43581b890610cdb9033906004016130af565b60206040518083038186803b158015610cf357600080fd5b505afa158015610d07573d6000803e3d6000fd5b505050506040513d601f19601f82011682018060405250810190610d2b9190612f94565b610d475760405162461bcd60e51b81526004016108ed9061339d565b610d4f6127d0565b565b600c5481565b60085482908110610d7a5760405162461bcd60e51b81526004016108ed906132e3565b60026000541415610d9d5760405162461bcd60e51b81526004016108ed9061397e565b600260009081556008805485908110610db257fe5b600091825260208083208784526009825260408085203386529092529220805460059092029092019250841115610dfb5760405162461bcd60e51b81526004016108ed906135dc565b610e0485611540565b80541561107b576000610e458260010154610e3f64e8d4a51000610e398760030154876000015461285c90919063ffffffff16565b90612896565b906128c8565b9050801561107957600483015460009060ff168015610e6e57506007546001600160a01b031615155b15610fb457600754604080517f05e97bc60000000000000000000000000000000000000000000000000000000081529051610fb1926001600160a01b0316916305e97bc6916004808301926020929190829003018186803b158015610ed257600080fd5b505afa158015610ee6573d6000803e3d6000fd5b505050506040513d601f19601f82011682018060405250810190610f0a9190612fc8565b600754604080517f05e97bc60000000000000000000000000000000000000000000000000000000081529051610fab926001600160a01b0316916305e97bc6916004808301926020929190829003018186803b158015610f6957600080fd5b505afa158015610f7d573d6000803e3d6000fd5b505050506040513d601f19601f82011682018060405250810190610fa19190612fc8565b8590600101612896565b9061285c565b90505b610fc733610fc284846128c8565b6128f0565b50801561106757600754600090610fe7906001600160a01b0316836128f0565b6007546040517f282d3fdf0000000000000000000000000000000000000000000000000000000081529192506001600160a01b03169063282d3fdf9061103390339085906004016130c3565b600060405180830381600087803b15801561104d57600080fd5b505af1158015611061573d6000803e3d6000fd5b50505050505b60135461107490836127a4565b601355505b505b83156110c757805461108d90856128c8565b815581546011546001600160a01b03908116911614156110b1576110b1338561291d565b81546110c7906001600160a01b031633866129ff565b600382015481546110e29164e8d4a5100091610e399161285c565b600182018190558154604051879233927fe08737ac48a1dab4b1a46c7dc9398bd5bfc6d7ad6fabb7cd8caa254de14def3592611120928a9291613a33565b60405180910390a350506001600055505050565b600854839081106111575760405162461bcd60e51b81526004016108ed906132e3565b6006546040517fe43581b8000000000000000000000000000000000000000000000000000000008152620100009091046001600160a01b03169063e43581b8906111a59033906004016130af565b60206040518083038186803b1580156111bd57600080fd5b505afa1580156111d1573d6000803e3d6000fd5b505050506040513d601f19601f820116820180604052508101906111f59190612f94565b8061129957506006546040517f0c68ba21000000000000000000000000000000000000000000000000000000008152620100009091046001600160a01b031690630c68ba21906112499033906004016130af565b60206040518083038186803b15801561126157600080fd5b505afa158015611275573d6000803e3d6000fd5b505050506040513d601f19601f820116820180604052508101906112999190612f94565b6112b55760405162461bcd60e51b81526004016108ed90613559565b6112bd611882565b6112fa836112f4600887815481106112d157fe5b906000526020600020906005020160010154600d546128c890919063ffffffff16565b906127a4565b600d81905550826008858154811061130e57fe5b906000526020600020906005020160010181905550816008858154811061133157fe5b906000526020600020906005020160040160006101000a81548160ff0219169083151502179055507f8f987a9b62724ae68030752859382563c5fd80a0c4f9ba7c067d4a9e50da652284848460405161138c93929190613a1b565b60405180910390a150505050565b600e5481565b600854600090839081106113c65760405162461bcd60e51b81526004016108ed906132e3565b6000600885815481106113d557fe5b600091825260208083208884526009825260408085206001600160a01b038a811687529352842060059390930201600381015481546011549296509394909390929081169116146114bd5783546040517f70a082310000000000000000000000000000000000000000000000000000000081526001600160a01b03909116906370a08231906114689030906004016130af565b60206040518083038186803b15801561148057600080fd5b505afa158015611494573d6000803e3d6000fd5b505050506040513d601f19601f820116820180604052508101906114b89190612fc8565b6114c5565b6114c5610ae3565b90508360020154431180156114d957508015155b1561150c5760006114e989612aa5565b905061150861150183610e398464e8d4a5100061285c565b84906127a4565b9250505b6115348360010154610e3f64e8d4a51000610e3986886000015461285c90919063ffffffff16565b98975050505050505050565b600854819081106115635760405162461bcd60e51b81526004016108ed906132e3565b60006008838154811061157257fe5b9060005260206000209060050201905080600201544311611593575061173e565b600f548160020154106115a6575061173e565b80546011546000916001600160a01b0391821691161461165d5781546040517f70a082310000000000000000000000000000000000000000000000000000000081526001600160a01b03909116906370a08231906116089030906004016130af565b60206040518083038186803b15801561162057600080fd5b505afa158015611634573d6000803e3d6000fd5b505050506040513d601f19601f820116820180604052508101906116589190612fc8565b611665565b611665610ae3565b90506000600f54431015611679574361167d565b600f545b905081158061168e57506001830154155b156116a2576002909201919091555061173e565b60006116ad86612aa5565b90506116d06116c584610e398464e8d4a5100061285c565b6003860154906127a4565b6003850155600284018290556012546116e990826127a4565b601255835460038501546040517f50a1a2d4fcb1c08863a0b14fcc7d9d728e2b21d8d7588b9cfa3991efe8112ee792611731926001600160a01b039091169185908890613100565b60405180910390a1505050505b5050565b600854819081106117655760405162461bcd60e51b81526004016108ed906132e3565b600260005414156117885760405162461bcd60e51b81526004016108ed9061397e565b60026000908155600880548490811061179d57fe5b600091825260208083208684526009825260408085203386529092529083208054848255600182019490945560059092020180546011549194509192916001600160a01b03918216911614156117f7576117f7338261291d565b825461180d906001600160a01b031633836129ff565b84336001600160a01b03167fbb757047c2b5f3974fe26b7c10f732e7bce710b0952a71082702781e62ae0595836040516111209190613131565b60006118606013546012546128c890919063ffffffff16565b905090565b600654610100900460ff1690565b6011546001600160a01b031681565b60085460005b8181101561173e5761189981611540565b600101611888565b6001600160a01b031660009081526001602052604090205490565b6006546040517fe43581b8000000000000000000000000000000000000000000000000000000008152620100009091046001600160a01b03169063e43581b89061190a9033906004016130af565b60206040518083038186803b15801561192257600080fd5b505afa158015611936573d6000803e3d6000fd5b505050506040513d601f19601f8201168201806040525081019061195a9190612f94565b806119fe57506006546040517f0c68ba21000000000000000000000000000000000000000000000000000000008152620100009091046001600160a01b031690630c68ba21906119ae9033906004016130af565b60206040518083038186803b1580156119c657600080fd5b505afa1580156119da573d6000803e3d6000fd5b505050506040513d601f19601f820116820180604052508101906119fe9190612f94565b611a1a5760405162461bcd60e51b81526004016108ed90613559565b6001600160a01b0382166000908152600b6020526040902054829060ff1615611a555760405162461bcd60e51b81526004016108ed906131bb565b6010546001600160a01b038281169116141580611a7f57506011546001600160a01b038281169116145b611a9b5760405162461bcd60e51b81526004016108ed90613340565b600f544310611abc5760405162461bcd60e51b81526004016108ed906136f3565b611ac4611882565b6000600e544311611ad757600e54611ad9565b435b600d54909150611ae990866127a4565b600d556001600160a01b038481166000818152600b60209081526040808320805460017fffffffffffffffffffffffffffffffffffffffffffffffffffffffffffffff009182168117909255825160a0810184529586529285018b8152918501878152606086018581528a151560808801908152600880548086018255975296517ff3f7a9fe364faab93b216da50a3214154f22a0a2b415b23a84c8169e8b636ee3600590970296870180547fffffffffffffffffffffffff000000000000000000000000000000000000000016919099161790975591517ff3f7a9fe364faab93b216da50a3214154f22a0a2b415b23a84c8169e8b636ee485015590517ff3f7a9fe364faab93b216da50a3214154f22a0a2b415b23a84c8169e8b636ee584015593517ff3f7a9fe364faab93b216da50a3214154f22a0a2b415b23a84c8169e8b636ee683015591517ff3f7a9fe364faab93b216da50a3214154f22a0a2b415b23a84c8169e8b636ee79091018054909216901515179055611c6a610a68565b6001600160a01b0386166000908152600a60205260409081902092909103909155517fdb1bd39f8335c9b10acbc6afb000d15247c2ad3d0aa1e481a6b44594e7cc1d6590611cbd908790879087906139ec565b60405180910390a15050505050565b6006546040517fe43581b8000000000000000000000000000000000000000000000000000000008152620100009091046001600160a01b03169063e43581b890611d1a9033906004016130af565b60206040518083038186803b158015611d3257600080fd5b505afa158015611d46573d6000803e3d6000fd5b505050506040513d601f19601f82011682018060405250810190611d6a9190612f94565b611d865760405162461bcd60e51b81526004016108ed9061339d565b600680547fffffffffffffffffffff0000000000000000000000000000000000000000ffff16620100006001600160a01b038416908102919091179091556040517fad9400e618eb1344fde53db22397a1b82c765527ecbba3a5c86bcac15090828b90600090a250565b6006546040517fe43581b8000000000000000000000000000000000000000000000000000000008152620100009091046001600160a01b03169063e43581b890611e3e9033906004016130af565b60206040518083038186803b158015611e5657600080fd5b505afa158015611e6a573d6000803e3d6000fd5b505050506040513d601f19601f82011682018060405250810190611e8e9190612f94565b80611f3257506006546040517f0c68ba21000000000000000000000000000000000000000000000000000000008152620100009091046001600160a01b031690630c68ba2190611ee29033906004016130af565b60206040518083038186803b158015611efa57600080fd5b505afa158015611f0e573d6000803e3d6000fd5b505050506040513d601f19601f82011682018060405250810190611f329190612f94565b611f4e5760405162461bcd60e51b81526004016108ed90613559565b610d4f612b43565b60096020908152600092835260408084209091529082529020805460019091015482565b60058054604080516020601f60027fffffffffffffffffffffffffffffffffffffffffffffffffffffffffffffffff610100600188161502019095169490940493840181900481028201810190925282815260609390929091830182828015610a5e5780601f10610a3357610100808354040283529160200191610a5e565b6000610a886120066126ec565b84610c8885604051806060016040528060258152602001613acc60259139600260006120306126ec565b6001600160a01b03908116825260208083019390935260409182016000908120918d16815292529020549190612bbd565b600060405162461bcd60e51b81526004016108ed90613841565b6006546040517fe43581b8000000000000000000000000000000000000000000000000000000008152620100009091046001600160a01b03169063e43581b8906120c99033906004016130af565b60206040518083038186803b1580156120e157600080fd5b505afa1580156120f5573d6000803e3d6000fd5b505050506040513d601f19601f820116820180604052508101906121199190612f94565b806121bd57506006546040517f0c68ba21000000000000000000000000000000000000000000000000000000008152620100009091046001600160a01b031690630c68ba219061216d9033906004016130af565b60206040518083038186803b15801561218557600080fd5b505afa158015612199573d6000803e3d6000fd5b505050506040513d601f19601f820116820180604052508101906121bd9190612f94565b6121d95760405162461bcd60e51b81526004016108ed90613559565b6121e1611882565b600c81905560405133907fe2492e003bbe8afa53088b406f0c1cb5d9e280370fc72a74cf116ffd343c4053906109a9908490613131565b600a6020526000908152604090205481565b600b6020526000908152604090205460ff1681565b7f8b8c0776df2c2176edf6f82391c35ea4891146d7a976ee36fd07f1a6fb4ead4c81565b6001600160a01b03918216600090815260026020908152604080832093909416825291909152205490565b600854829081106122b15760405162461bcd60e51b81526004016108ed906132e3565b600260005414156122d45760405162461bcd60e51b81526004016108ed9061397e565b60026000556122e1611865565b156122fe5760405162461bcd60e51b81526004016108ed906134c5565b60006008848154811061230d57fe5b6000918252602080832087845260098252604080852033865290925292206005909102909101915061233e85611540565b8054156124c55760006123738260010154610e3f64e8d4a51000610e398760030154876000015461285c90919063ffffffff16565b905080156124c357600483015460009060ff16801561239c57506007546001600160a01b031615155b1561240357600754604080517f05e97bc60000000000000000000000000000000000000000000000000000000081529051612400926001600160a01b0316916305e97bc6916004808301926020929190829003018186803b158015610ed257600080fd5b90505b61241133610fc284846128c8565b5080156124b157600754600090612431906001600160a01b0316836128f0565b6007546040517f282d3fdf0000000000000000000000000000000000000000000000000000000081529192506001600160a01b03169063282d3fdf9061247d90339085906004016130c3565b600060405180830381600087803b15801561249757600080fd5b505af11580156124ab573d6000803e3d6000fd5b50505050505b6013546124be90836127a4565b601355505b505b83801561265a5782546040517f70a082310000000000000000000000000000000000000000000000000000000081526000916001600160a01b0316906370a08231906125159030906004016130af565b60206040518083038186803b15801561252d57600080fd5b505afa158015612541573d6000803e3d6000fd5b505050506040513d601f19601f820116820180604052508101906125659190612fc8565b845490915061257f906001600160a01b0316333089612be9565b83546040517f70a082310000000000000000000000000000000000000000000000000000000081526000916001600160a01b0316906370a08231906125c89030906004016130af565b60206040518083038186803b1580156125e057600080fd5b505afa1580156125f4573d6000803e3d6000fd5b505050506040513d601f19601f820116820180604052508101906126189190612fc8565b905061262481836128c8565b85546011549194506001600160a01b0391821691161415612649576126493384612c10565b835461265590846127a4565b845550505b600383015482546126759164e8d4a5100091610e399161285c565b600183018190558254604051889233927f7162984403f6c73c8639375d45a9187dfd04602231bd8e587c415718b5f7e5f9926126b392879291613a33565b60405180910390a35050600160005550505050565b6006546201000090046001600160a01b031690565b6010546001600160a01b031681565b3390565b6001600160a01b0383166127165760405162461bcd60e51b81526004016108ed906137ad565b6001600160a01b03821661273c5760405162461bcd60e51b81526004016108ed9061324f565b6001600160a01b0380841660008181526002602090815260408083209487168084529490915290819020849055517f8c5be1e5ebec7d5bd14f71427d1e84f3dd0314c0f7b2291e5b200ac8c7c3b92590612797908590613131565b60405180910390a3505050565b6000828201838110156127c95760405162461bcd60e51b81526004016108ed906132ac565b9392505050565b6127d8611865565b6127f45760405162461bcd60e51b81526004016108ed90613218565b600680547fffffffffffffffffffffffffffffffffffffffffffffffffffffffffffff00ff1690557f5db9ee0a495bf2e6ff9c91a7834c1ba4fdd244a5e8aa4e537bd38aeae4b073aa6128456126ec565b60405161285291906130af565b60405180910390a1565b60008261286b57506000610a8c565b8282028284828161287857fe5b04146127c95760405162461bcd60e51b81526004016108ed906134fc565b60008082116128b75760405162461bcd60e51b81526004016108ed9061348e565b8183816128c057fe5b049392505050565b6000828211156128ea5760405162461bcd60e51b81526004016108ed906133fa565b50900390565b600047818184116129015783612903565b815b90508015612915576129158582612cc4565b949350505050565b6001600160a01b0382166129435760405162461bcd60e51b81526004016108ed90613639565b61294f82600083612aa0565b61298c81604051806060016040528060228152602001613aaa602291396001600160a01b0385166000908152600160205260409020549190612bbd565b6001600160a01b0383166000908152600160205260409020556003546129b290826128c8565b6003556040516000906001600160a01b038416907fddf252ad1be2c89b69c2b068fc378daa952ba7f163c4a11628f55a4df523b3ef906129f3908590613131565b60405180910390a35050565b612aa08363a9059cbb60e01b8484604051602401612a1e9291906130c3565b604080517fffffffffffffffffffffffffffffffffffffffffffffffffffffffffffffffe08184030181529190526020810180517bffffffffffffffffffffffffffffffffffffffffffffffffffffffff167fffffffff0000000000000000000000000000000000000000000000000000000090931692909217909152612d51565b505050565b60008060088381548110612ab557fe5b9060005260206000209060050201905043816002015410612ae85760405162461bcd60e51b81526004016108ed906138fb565b6000612b0b8260020154600f54431015612b025743612b06565b600f545b612de0565b600d5490915015612b3c57612b39600d54610e398460010154610fab600c548661285c90919063ffffffff16565b92505b5050919050565b612b4b611865565b15612b685760405162461bcd60e51b81526004016108ed906134c5565b600680547fffffffffffffffffffffffffffffffffffffffffffffffffffffffffffff00ff166101001790557f62e78cea01bee320cd4e420270b5ea74000d11b0c9f74754ebdbfc544b05a2586128456126ec565b60008184841115612be15760405162461bcd60e51b81526004016108ed919061316a565b505050900390565b612c0a846323b872dd60e01b858585604051602401612a1e939291906130dc565b50505050565b6001600160a01b038216612c365760405162461bcd60e51b81526004016108ed906139b5565b612c4260008383612aa0565b600354612c4f90826127a4565b6003556001600160a01b038216600090815260016020526040902054612c7590826127a4565b6001600160a01b0383166000818152600160205260408082209390935591519091907fddf252ad1be2c89b69c2b068fc378daa952ba7f163c4a11628f55a4df523b3ef906129f3908590613131565b604080516000808252602082019092526001600160a01b038416908390604051612cee9190613093565b60006040518083038185875af1925050503d8060008114612d2b576040519150601f19603f3d011682016040523d82523d6000602084013e612d30565b606091505b5050905080612aa05760405162461bcd60e51b81526004016108ed90613696565b6060612da6826040518060400160405280602081526020017f5361666545524332303a206c6f772d6c6576656c2063616c6c206661696c6564815250856001600160a01b0316612dec9092919063ffffffff16565b805190915015612aa05780806020019051810190612dc49190612f94565b612aa05760405162461bcd60e51b81526004016108ed9061389e565b60006127c982846128c8565b6060612915848460008585612e0085612e96565b612e1c5760405162461bcd60e51b81526004016108ed9061380a565b60006060866001600160a01b03168587604051612e399190613093565b60006040518083038185875af1925050503d8060008114612e76576040519150601f19603f3d011682016040523d82523d6000602084013e612e7b565b606091505b5091509150612e8b828286612e9c565b979650505050505050565b3b151590565b60608315612eab5750816127c9565b825115612ebb5782518084602001fd5b8160405162461bcd60e51b81526004016108ed919061316a565b600060208284031215612ee6578081fd5b81356127c981613a83565b60008060408385031215612f03578081fd5b8235612f0e81613a83565b91506020830135612f1e81613a83565b809150509250929050565b600080600060608486031215612f3d578081fd5b8335612f4881613a83565b92506020840135612f5881613a83565b929592945050506040919091013590565b60008060408385031215612f7b578182fd5b8235612f8681613a83565b946020939093013593505050565b600060208284031215612fa5578081fd5b81516127c981613a9b565b600060208284031215612fc1578081fd5b5035919050565b600060208284031215612fd9578081fd5b5051919050565b60008060408385031215612ff2578182fd5b823591506020830135612f1e81613a83565b600080600060608486031215613018578283fd5b83359250602084013561302a81613a83565b9150604084013561303a81613a9b565b809150509250925092565b60008060408385031215613057578182fd5b50508035926020909101359150565b60008060006060848603121561307a578283fd5b8335925060208401359150604084013561303a81613a9b565b600082516130a5818460208701613a57565b9190910192915050565b6001600160a01b0391909116815260200190565b6001600160a01b03929092168252602082015260400190565b6001600160a01b039384168152919092166020820152604081019190915260600190565b6001600160a01b0394909416845260208401929092526040830152606082015260800190565b901515815260200190565b90815260200190565b6001600160a01b039590951685526020850193909352604084019190915260608301521515608082015260a00190565b6000602082528251806020840152613189816040850160208701613a57565b601f017fffffffffffffffffffffffffffffffffffffffffffffffffffffffffffffffe0169190910160400192915050565b60208082526028908201527f5374616b696e675265776172643a3a6e6f6e4475706c6963617465643a20447560408201527f706c696361746564000000000000000000000000000000000000000000000000606082015260800190565b60208082526014908201527f5061757361626c653a206e6f7420706175736564000000000000000000000000604082015260600190565b60208082526022908201527f45524332303a20617070726f766520746f20746865207a65726f20616464726560408201527f7373000000000000000000000000000000000000000000000000000000000000606082015260800190565b6020808252601b908201527f536166654d6174683a206164646974696f6e206f766572666c6f770000000000604082015260600190565b60208082526025908201527f5374616b696e675265776172643a3a76616c69646174655069643a204e6f742060408201527f6578697374000000000000000000000000000000000000000000000000000000606082015260800190565b60208082526036908201527f5374616b696e675265776172643a3a6e6f6e4475706c6963617465643a20447560408201527f706c6963617465642072657761726420616e64206c7000000000000000000000606082015260800190565b6020808252602f908201527f436f72655265663a3a6f6e6c79476f7665726e6f723a2043616c6c657220697360408201527f206e6f74206120676f7665726e6f720000000000000000000000000000000000606082015260800190565b6020808252601e908201527f536166654d6174683a207375627472616374696f6e206f766572666c6f770000604082015260600190565b60208082526036908201527f5374616b696e67526577617264733a3a7472616e7366657246726f6d3a204e6f60408201527f7420737570706f7274207472616e7366657246726f6d00000000000000000000606082015260800190565b6020808252601a908201527f536166654d6174683a206469766973696f6e206279207a65726f000000000000604082015260600190565b60208082526010908201527f5061757361626c653a2070617573656400000000000000000000000000000000604082015260600190565b60208082526021908201527f536166654d6174683a206d756c7469706c69636174696f6e206f766572666c6f60408201527f7700000000000000000000000000000000000000000000000000000000000000606082015260800190565b60208082526045908201527f436f72655265663a3a6f6e6c79477561726469616e4f72476f7665726e6f723a60408201527f2043616c6c6572206973206e6f74206120677561726469616e206f7220676f7660608201527f65726e6f72000000000000000000000000000000000000000000000000000000608082015260a00190565b60208082526021908201527f5374616b696e675265776172643a3a77697468647261773a204e6f7420676f6f60408201527f6400000000000000000000000000000000000000000000000000000000000000606082015260800190565b60208082526021908201527f45524332303a206275726e2066726f6d20746865207a65726f2061646472657360408201527f7300000000000000000000000000000000000000000000000000000000000000606082015260800190565b60208082526034908201527f5472616e7366657248656c7065723a3a736166655472616e736665724554483a60408201527f20457468207472616e73666572206661696c6564000000000000000000000000606082015260800190565b60208082526027908201527f5374616b696e675265776172643a3a616464506f6f6c3a20457863656564206560408201527f6e64626c6f636b00000000000000000000000000000000000000000000000000606082015260800190565b60208082526023908201527f5374616b696e675265776172643a3a757064617465456e64426c6f636b3a204c60408201527f6573730000000000000000000000000000000000000000000000000000000000606082015260800190565b60208082526024908201527f45524332303a20617070726f76652066726f6d20746865207a65726f2061646460408201527f7265737300000000000000000000000000000000000000000000000000000000606082015260800190565b6020808252601d908201527f416464726573733a2063616c6c20746f206e6f6e2d636f6e7472616374000000604082015260600190565b6020808252602e908201527f5374616b696e67526577617264733a3a7472616e736665723a204e6f7420737560408201527f70706f7274207472616e73666572000000000000000000000000000000000000606082015260800190565b6020808252602a908201527f5361666545524332303a204552433230206f7065726174696f6e20646964206e60408201527f6f74207375636365656400000000000000000000000000000000000000000000606082015260800190565b60208082526057908201527f5374616b696e675265776172643a3a676574546f6b656e5265776172643a4c6160408201527f7374526577617264426c6f636b204d757374206c6974746c65207468616e207460608201527f68652063757272656e7420626c6f636b206e756d626572000000000000000000608082015260a00190565b6020808252601f908201527f5265656e7472616e637947756172643a207265656e7472616e742063616c6c00604082015260600190565b6020808252601f908201527f45524332303a206d696e7420746f20746865207a65726f206164647265737300604082015260600190565b9283526001600160a01b039190911660208301521515604082015260600190565b918252602082015260400190565b92835260208301919091521515604082015260600190565b9283526020830191909152604082015260600190565b60ff91909116815260200190565b60005b83811015613a72578181015183820152602001613a5a565b83811115612c0a5750506000910152565b6001600160a01b0381168114613a9857600080fd5b50565b8015158114613a9857600080fdfe45524332303a206275726e20616d6f756e7420657863656564732062616c616e636545524332303a2064656372656173656420616c6c6f77616e63652062656c6f77207a65726fa264697066735822122029fb52ca7e079991de5a736dc3dcf8d1737f7b1d3c9447c61b2b2f17fdf5d53164736f6c634300060c0033",
  "devdoc": {
    "kind": "dev",
    "methods": {
      "allowance(address,address)": {
        "details": "See {IERC20-allowance}."
      },
      "approve(address,uint256)": {
        "details": "See {IERC20-approve}. Requirements: - `spender` cannot be the zero address."
      },
      "balanceOf(address)": {
        "details": "See {IERC20-balanceOf}."
      },
      "decimals()": {
        "details": "Returns the number of decimals used to get its user representation. For example, if `decimals` equals `2`, a balance of `505` tokens should be displayed to a user as `5,05` (`505 / 10 ** 2`). Tokens usually opt for a value of 18, imitating the relationship between Ether and Wei. This is the value {ERC20} uses, unless {_setupDecimals} is called. NOTE: This information is only used for _display_ purposes: it in no way affects any of the arithmetic of the contract, including {IERC20-balanceOf} and {IERC20-transfer}."
      },
      "decreaseAllowance(address,uint256)": {
        "details": "Atomically decreases the allowance granted to `spender` by the caller. This is an alternative to {approve} that can be used as a mitigation for problems described in {IERC20-approve}. Emits an {Approval} event indicating the updated allowance. Requirements: - `spender` cannot be the zero address. - `spender` must have allowance for the caller of at least `subtractedValue`."
      },
      "increaseAllowance(address,uint256)": {
        "details": "Atomically increases the allowance granted to `spender` by the caller. This is an alternative to {approve} that can be used as a mitigation for problems described in {IERC20-approve}. Emits an {Approval} event indicating the updated allowance. Requirements: - `spender` cannot be the zero address."
      },
      "name()": {
        "details": "Returns the name of the token."
      },
      "paused()": {
        "details": "Returns true if the contract is paused, and false otherwise."
      },
      "symbol()": {
        "details": "Returns the symbol of the token, usually a shorter version of the name."
      },
      "totalSupply()": {
        "details": "See {IERC20-totalSupply}."
      }
    },
    "version": 1
  },
  "userdoc": {
    "kind": "user",
    "methods": {},
    "version": 1
  },
  "storageLayout": {
    "storage": [
      {
        "astId": 2455,
        "contract": "contracts/StakingRewardsBNB.sol:StakingRewardsBNB",
        "label": "_status",
        "offset": 0,
        "slot": "0",
        "type": "t_uint256"
      },
      {
        "astId": 764,
        "contract": "contracts/StakingRewardsBNB.sol:StakingRewardsBNB",
        "label": "_balances",
        "offset": 0,
        "slot": "1",
        "type": "t_mapping(t_address,t_uint256)"
      },
      {
        "astId": 770,
        "contract": "contracts/StakingRewardsBNB.sol:StakingRewardsBNB",
        "label": "_allowances",
        "offset": 0,
        "slot": "2",
        "type": "t_mapping(t_address,t_mapping(t_address,t_uint256))"
      },
      {
        "astId": 772,
        "contract": "contracts/StakingRewardsBNB.sol:StakingRewardsBNB",
        "label": "_totalSupply",
        "offset": 0,
        "slot": "3",
        "type": "t_uint256"
      },
      {
        "astId": 774,
        "contract": "contracts/StakingRewardsBNB.sol:StakingRewardsBNB",
        "label": "_name",
        "offset": 0,
        "slot": "4",
        "type": "t_string_storage"
      },
      {
        "astId": 776,
        "contract": "contracts/StakingRewardsBNB.sol:StakingRewardsBNB",
        "label": "_symbol",
        "offset": 0,
        "slot": "5",
        "type": "t_string_storage"
      },
      {
        "astId": 778,
        "contract": "contracts/StakingRewardsBNB.sol:StakingRewardsBNB",
        "label": "_decimals",
        "offset": 0,
        "slot": "6",
        "type": "t_uint8"
      },
      {
        "astId": 2370,
        "contract": "contracts/StakingRewardsBNB.sol:StakingRewardsBNB",
        "label": "_paused",
        "offset": 1,
        "slot": "6",
        "type": "t_bool"
      },
      {
        "astId": 11642,
        "contract": "contracts/StakingRewardsBNB.sol:StakingRewardsBNB",
        "label": "_core",
        "offset": 2,
        "slot": "6",
        "type": "t_contract(ICore)11634"
      },
      {
        "astId": 2758,
        "contract": "contracts/StakingRewardsBNB.sol:StakingRewardsBNB",
        "label": "vestingMaster",
        "offset": 0,
        "slot": "7",
        "type": "t_contract(IVestingMaster)11432"
      },
      {
        "astId": 2762,
        "contract": "contracts/StakingRewardsBNB.sol:StakingRewardsBNB",
        "label": "poolInfo",
        "offset": 0,
        "slot": "8",
        "type": "t_array(t_struct(PoolInfo)11199_storage)dyn_storage"
      },
      {
        "astId": 2769,
        "contract": "contracts/StakingRewardsBNB.sol:StakingRewardsBNB",
        "label": "userInfo",
        "offset": 0,
        "slot": "9",
        "type": "t_mapping(t_uint256,t_mapping(t_address,t_struct(UserInfo)11188_storage))"
      },
      {
        "astId": 2774,
        "contract": "contracts/StakingRewardsBNB.sol:StakingRewardsBNB",
        "label": "pair2Pid",
        "offset": 0,
        "slot": "10",
        "type": "t_mapping(t_address,t_uint256)"
      },
      {
        "astId": 2779,
        "contract": "contracts/StakingRewardsBNB.sol:StakingRewardsBNB",
        "label": "poolExistence",
        "offset": 0,
        "slot": "11",
        "type": "t_mapping(t_contract(IERC20)1328,t_bool)"
      },
      {
        "astId": 2782,
        "contract": "contracts/StakingRewardsBNB.sol:StakingRewardsBNB",
        "label": "tokenPerBlock",
        "offset": 0,
        "slot": "12",
        "type": "t_uint256"
      },
      {
        "astId": 2786,
        "contract": "contracts/StakingRewardsBNB.sol:StakingRewardsBNB",
        "label": "totalAllocPoint",
        "offset": 0,
        "slot": "13",
        "type": "t_uint256"
      },
      {
        "astId": 2789,
        "contract": "contracts/StakingRewardsBNB.sol:StakingRewardsBNB",
        "label": "startBlock",
        "offset": 0,
        "slot": "14",
        "type": "t_uint256"
      },
      {
        "astId": 2792,
        "contract": "contracts/StakingRewardsBNB.sol:StakingRewardsBNB",
        "label": "endBlock",
        "offset": 0,
        "slot": "15",
        "type": "t_uint256"
      },
      {
        "astId": 2795,
        "contract": "contracts/StakingRewardsBNB.sol:StakingRewardsBNB",
        "label": "rewardToken",
        "offset": 0,
        "slot": "16",
        "type": "t_contract(IERC20)1328"
      },
      {
        "astId": 2798,
        "contract": "contracts/StakingRewardsBNB.sol:StakingRewardsBNB",
        "label": "upToken",
        "offset": 0,
        "slot": "17",
        "type": "t_contract(IERC20)1328"
      },
      {
        "astId": 2800,
        "contract": "contracts/StakingRewardsBNB.sol:StakingRewardsBNB",
        "label": "_accShareReward",
        "offset": 0,
        "slot": "18",
        "type": "t_uint256"
      },
      {
        "astId": 2802,
        "contract": "contracts/StakingRewardsBNB.sol:StakingRewardsBNB",
        "label": "_accHarvestedReward",
        "offset": 0,
        "slot": "19",
        "type": "t_uint256"
      }
    ],
    "types": {
      "t_address": {
        "encoding": "inplace",
        "label": "address",
        "numberOfBytes": "20"
      },
      "t_array(t_struct(PoolInfo)11199_storage)dyn_storage": {
        "base": "t_struct(PoolInfo)11199_storage",
        "encoding": "dynamic_array",
        "label": "struct IStakingRewards.PoolInfo[]",
        "numberOfBytes": "32"
      },
      "t_bool": {
        "encoding": "inplace",
        "label": "bool",
        "numberOfBytes": "1"
      },
      "t_contract(ICore)11634": {
        "encoding": "inplace",
        "label": "contract ICore",
        "numberOfBytes": "20"
      },
      "t_contract(IERC20)1328": {
        "encoding": "inplace",
        "label": "contract IERC20",
        "numberOfBytes": "20"
      },
      "t_contract(IVestingMaster)11432": {
        "encoding": "inplace",
        "label": "contract IVestingMaster",
        "numberOfBytes": "20"
      },
      "t_mapping(t_address,t_mapping(t_address,t_uint256))": {
        "encoding": "mapping",
        "key": "t_address",
        "label": "mapping(address => mapping(address => uint256))",
        "numberOfBytes": "32",
        "value": "t_mapping(t_address,t_uint256)"
      },
      "t_mapping(t_address,t_struct(UserInfo)11188_storage)": {
        "encoding": "mapping",
        "key": "t_address",
        "label": "mapping(address => struct IStakingRewards.UserInfo)",
        "numberOfBytes": "32",
        "value": "t_struct(UserInfo)11188_storage"
      },
      "t_mapping(t_address,t_uint256)": {
        "encoding": "mapping",
        "key": "t_address",
        "label": "mapping(address => uint256)",
        "numberOfBytes": "32",
        "value": "t_uint256"
      },
      "t_mapping(t_contract(IERC20)1328,t_bool)": {
        "encoding": "mapping",
        "key": "t_contract(IERC20)1328",
        "label": "mapping(contract IERC20 => bool)",
        "numberOfBytes": "32",
        "value": "t_bool"
      },
      "t_mapping(t_uint256,t_mapping(t_address,t_struct(UserInfo)11188_storage))": {
        "encoding": "mapping",
        "key": "t_uint256",
        "label": "mapping(uint256 => mapping(address => struct IStakingRewards.UserInfo))",
        "numberOfBytes": "32",
        "value": "t_mapping(t_address,t_struct(UserInfo)11188_storage)"
      },
      "t_string_storage": {
        "encoding": "bytes",
        "label": "string",
        "numberOfBytes": "32"
      },
      "t_struct(PoolInfo)11199_storage": {
        "encoding": "inplace",
        "label": "struct IStakingRewards.PoolInfo",
        "members": [
          {
            "astId": 11190,
            "contract": "contracts/StakingRewardsBNB.sol:StakingRewardsBNB",
            "label": "lpToken",
            "offset": 0,
            "slot": "0",
            "type": "t_contract(IERC20)1328"
          },
          {
            "astId": 11192,
            "contract": "contracts/StakingRewardsBNB.sol:StakingRewardsBNB",
            "label": "allocPoint",
            "offset": 0,
            "slot": "1",
            "type": "t_uint256"
          },
          {
            "astId": 11194,
            "contract": "contracts/StakingRewardsBNB.sol:StakingRewardsBNB",
            "label": "lastRewardBlock",
            "offset": 0,
            "slot": "2",
            "type": "t_uint256"
          },
          {
            "astId": 11196,
            "contract": "contracts/StakingRewardsBNB.sol:StakingRewardsBNB",
            "label": "accTokenPerShare",
            "offset": 0,
            "slot": "3",
            "type": "t_uint256"
          },
          {
            "astId": 11198,
            "contract": "contracts/StakingRewardsBNB.sol:StakingRewardsBNB",
            "label": "locked",
            "offset": 0,
            "slot": "4",
            "type": "t_bool"
          }
        ],
        "numberOfBytes": "160"
      },
      "t_struct(UserInfo)11188_storage": {
        "encoding": "inplace",
        "label": "struct IStakingRewards.UserInfo",
        "members": [
          {
            "astId": 11185,
            "contract": "contracts/StakingRewardsBNB.sol:StakingRewardsBNB",
            "label": "amount",
            "offset": 0,
            "slot": "0",
            "type": "t_uint256"
          },
          {
            "astId": 11187,
            "contract": "contracts/StakingRewardsBNB.sol:StakingRewardsBNB",
            "label": "rewardDebt",
            "offset": 0,
            "slot": "1",
            "type": "t_uint256"
          }
        ],
        "numberOfBytes": "64"
      },
      "t_uint256": {
        "encoding": "inplace",
        "label": "uint256",
        "numberOfBytes": "32"
      },
      "t_uint8": {
        "encoding": "inplace",
        "label": "uint8",
        "numberOfBytes": "1"
      }
    }
  }
}