{
  "address": "0xB36Ba4fdc7beBbd0B6D9c630a2E3F8Bbfe11c808",
  "abi": [
    {
      "inputs": [
        {
          "internalType": "address",
          "name": "_core",
          "type": "address"
        },
        {
          "internalType": "address",
          "name": "_upToken",
          "type": "address"
        },
        {
          "internalType": "address",
          "name": "_rewardToken",
          "type": "address"
        },
        {
          "internalType": "address",
          "name": "_vestingMaster",
          "type": "address"
        },
        {
          "internalType": "uint256",
          "name": "_tokenPerBlock",
          "type": "uint256"
        },
        {
          "internalType": "uint256",
          "name": "_startBlock",
          "type": "uint256"
        },
        {
          "internalType": "uint256",
          "name": "_endBlock",
          "type": "uint256"
        }
      ],
      "stateMutability": "nonpayable",
      "type": "constructor"
    },
    {
      "anonymous": false,
      "inputs": [
        {
          "indexed": false,
          "internalType": "uint256",
          "name": "_allocPoint",
          "type": "uint256"
        },
        {
          "indexed": false,
          "internalType": "address",
          "name": "_lpToken",
          "type": "address"
        },
        {
          "indexed": false,
          "internalType": "bool",
          "name": "_locked",
          "type": "bool"
        }
      ],
      "name": "AddPool",
      "type": "event"
    },
    {
      "anonymous": false,
      "inputs": [
        {
          "indexed": true,
          "internalType": "address",
          "name": "owner",
          "type": "address"
        },
        {
          "indexed": true,
          "internalType": "address",
          "name": "spender",
          "type": "address"
        },
        {
          "indexed": false,
          "internalType": "uint256",
          "name": "value",
          "type": "uint256"
        }
      ],
      "name": "Approval",
      "type": "event"
    },
    {
      "anonymous": false,
      "inputs": [
        {
          "indexed": true,
          "internalType": "address",
          "name": "_core",
          "type": "address"
        }
      ],
      "name": "CoreUpdate",
      "type": "event"
    },
    {
      "anonymous": false,
      "inputs": [
        {
          "indexed": true,
          "internalType": "address",
          "name": "user",
          "type": "address"
        },
        {
          "indexed": true,
          "internalType": "uint256",
          "name": "pid",
          "type": "uint256"
        },
        {
          "indexed": false,
          "internalType": "uint256",
          "name": "amount",
          "type": "uint256"
        },
        {
          "indexed": false,
          "internalType": "uint256",
          "name": "totalAmount",
          "type": "uint256"
        },
        {
          "indexed": false,
          "internalType": "uint256",
          "name": "rewardDebt",
          "type": "uint256"
        }
      ],
      "name": "Deposit",
      "type": "event"
    },
    {
      "anonymous": false,
      "inputs": [
        {
          "indexed": true,
          "internalType": "address",
          "name": "user",
          "type": "address"
        },
        {
          "indexed": true,
          "internalType": "uint256",
          "name": "pid",
          "type": "uint256"
        },
        {
          "indexed": false,
          "internalType": "uint256",
          "name": "amount",
          "type": "uint256"
        }
      ],
      "name": "EmergencyWithdraw",
      "type": "event"
    },
    {
      "anonymous": false,
      "inputs": [
        {
          "indexed": false,
          "internalType": "address",
          "name": "account",
          "type": "address"
        }
      ],
      "name": "Paused",
      "type": "event"
    },
    {
      "anonymous": false,
      "inputs": [
        {
          "indexed": false,
          "internalType": "uint256",
          "name": "_pid",
          "type": "uint256"
        },
        {
          "indexed": false,
          "internalType": "uint256",
          "name": "_allocPoint",
          "type": "uint256"
        },
        {
          "indexed": false,
          "internalType": "bool",
          "name": "_locked",
          "type": "bool"
        }
      ],
      "name": "SetPool",
      "type": "event"
    },
    {
      "anonymous": false,
      "inputs": [
        {
          "indexed": true,
          "internalType": "address",
          "name": "from",
          "type": "address"
        },
        {
          "indexed": true,
          "internalType": "address",
          "name": "to",
          "type": "address"
        },
        {
          "indexed": false,
          "internalType": "uint256",
          "name": "value",
          "type": "uint256"
        }
      ],
      "name": "Transfer",
      "type": "event"
    },
    {
      "anonymous": false,
      "inputs": [
        {
          "indexed": false,
          "internalType": "address",
          "name": "account",
          "type": "address"
        }
      ],
      "name": "Unpaused",
      "type": "event"
    },
    {
      "anonymous": false,
      "inputs": [
        {
          "indexed": true,
          "internalType": "address",
          "name": "user",
          "type": "address"
        },
        {
          "indexed": false,
          "internalType": "uint256",
          "name": "tokenPerBlock",
          "type": "uint256"
        }
      ],
      "name": "UpdateEmissionRate",
      "type": "event"
    },
    {
      "anonymous": false,
      "inputs": [
        {
          "indexed": true,
          "internalType": "address",
          "name": "user",
          "type": "address"
        },
        {
          "indexed": false,
          "internalType": "uint256",
          "name": "endBlock",
          "type": "uint256"
        }
      ],
      "name": "UpdateEndBlock",
      "type": "event"
    },
    {
      "anonymous": false,
      "inputs": [
        {
          "indexed": false,
          "internalType": "address",
          "name": "lpToken",
          "type": "address"
        },
        {
          "indexed": false,
          "internalType": "uint256",
          "name": "accTokenPerShare",
          "type": "uint256"
        },
        {
          "indexed": false,
          "internalType": "uint256",
          "name": "reward",
          "type": "uint256"
        },
        {
          "indexed": false,
          "internalType": "uint256",
          "name": "lpSupply",
          "type": "uint256"
        }
      ],
      "name": "UpdatePool",
      "type": "event"
    },
    {
      "anonymous": false,
      "inputs": [
        {
          "indexed": true,
          "internalType": "address",
          "name": "user",
          "type": "address"
        },
        {
          "indexed": false,
          "internalType": "address",
          "name": "vestingMaster",
          "type": "address"
        }
      ],
      "name": "UpdateVestingMaster",
      "type": "event"
    },
    {
      "anonymous": false,
      "inputs": [
        {
          "indexed": true,
          "internalType": "address",
          "name": "user",
          "type": "address"
        },
        {
          "indexed": true,
          "internalType": "uint256",
          "name": "pid",
          "type": "uint256"
        },
        {
          "indexed": false,
          "internalType": "uint256",
          "name": "amount",
          "type": "uint256"
        },
        {
          "indexed": false,
          "internalType": "uint256",
          "name": "totalAmount",
          "type": "uint256"
        },
        {
          "indexed": false,
          "internalType": "uint256",
          "name": "rewardDebt",
          "type": "uint256"
        }
      ],
      "name": "Withdraw",
      "type": "event"
    },
    {
      "inputs": [],
      "name": "MASTER_ROLE",
      "outputs": [
        {
          "internalType": "bytes32",
          "name": "",
          "type": "bytes32"
        }
      ],
      "stateMutability": "view",
      "type": "function"
    },
    {
      "inputs": [
        {
          "internalType": "uint256",
          "name": "_allocPoint",
          "type": "uint256"
        },
        {
          "internalType": "contract IERC20",
          "name": "_lpToken",
          "type": "address"
        },
        {
          "internalType": "bool",
          "name": "_locked",
          "type": "bool"
        }
      ],
      "name": "addPool",
      "outputs": [],
      "stateMutability": "nonpayable",
      "type": "function"
    },
    {
      "inputs": [
        {
          "internalType": "address",
          "name": "owner",
          "type": "address"
        },
        {
          "internalType": "address",
          "name": "spender",
          "type": "address"
        }
      ],
      "name": "allowance",
      "outputs": [
        {
          "internalType": "uint256",
          "name": "",
          "type": "uint256"
        }
      ],
      "stateMutability": "view",
      "type": "function"
    },
    {
      "inputs": [
        {
          "internalType": "address",
          "name": "spender",
          "type": "address"
        },
        {
          "internalType": "uint256",
          "name": "amount",
          "type": "uint256"
        }
      ],
      "name": "approve",
      "outputs": [
        {
          "internalType": "bool",
          "name": "",
          "type": "bool"
        }
      ],
      "stateMutability": "nonpayable",
      "type": "function"
    },
    {
      "inputs": [
        {
          "internalType": "address",
          "name": "account",
          "type": "address"
        }
      ],
      "name": "balanceOf",
      "outputs": [
        {
          "internalType": "uint256",
          "name": "",
          "type": "uint256"
        }
      ],
      "stateMutability": "view",
      "type": "function"
    },
    {
      "inputs": [],
      "name": "core",
      "outputs": [
        {
          "internalType": "contract ICore",
          "name": "",
          "type": "address"
        }
      ],
      "stateMutability": "view",
      "type": "function"
    },
    {
      "inputs": [],
      "name": "decimals",
      "outputs": [
        {
          "internalType": "uint8",
          "name": "",
          "type": "uint8"
        }
      ],
      "stateMutability": "view",
      "type": "function"
    },
    {
      "inputs": [
        {
          "internalType": "address",
          "name": "spender",
          "type": "address"
        },
        {
          "internalType": "uint256",
          "name": "subtractedValue",
          "type": "uint256"
        }
      ],
      "name": "decreaseAllowance",
      "outputs": [
        {
          "internalType": "bool",
          "name": "",
          "type": "bool"
        }
      ],
      "stateMutability": "nonpayable",
      "type": "function"
    },
    {
      "inputs": [
        {
          "internalType": "uint256",
          "name": "_pid",
          "type": "uint256"
        },
        {
          "internalType": "uint256",
          "name": "_amount",
          "type": "uint256"
        }
      ],
      "name": "deposit",
      "outputs": [],
      "stateMutability": "nonpayable",
      "type": "function"
    },
    {
      "inputs": [
        {
          "internalType": "uint256",
          "name": "_pid",
          "type": "uint256"
        }
      ],
      "name": "emergencyWithdraw",
      "outputs": [],
      "stateMutability": "nonpayable",
      "type": "function"
    },
    {
      "inputs": [],
      "name": "endBlock",
      "outputs": [
        {
          "internalType": "uint256",
          "name": "",
          "type": "uint256"
        }
      ],
      "stateMutability": "view",
      "type": "function"
    },
    {
      "inputs": [],
      "name": "getNoHarvestReward",
      "outputs": [
        {
          "internalType": "uint256",
          "name": "",
          "type": "uint256"
        }
      ],
      "stateMutability": "view",
      "type": "function"
    },
    {
      "inputs": [
        {
          "internalType": "address",
          "name": "spender",
          "type": "address"
        },
        {
          "internalType": "uint256",
          "name": "addedValue",
          "type": "uint256"
        }
      ],
      "name": "increaseAllowance",
      "outputs": [
        {
          "internalType": "bool",
          "name": "",
          "type": "bool"
        }
      ],
      "stateMutability": "nonpayable",
      "type": "function"
    },
    {
      "inputs": [],
      "name": "massUpdatePools",
      "outputs": [],
      "stateMutability": "nonpayable",
      "type": "function"
    },
    {
      "inputs": [],
      "name": "name",
      "outputs": [
        {
          "internalType": "string",
          "name": "",
          "type": "string"
        }
      ],
      "stateMutability": "view",
      "type": "function"
    },
    {
      "inputs": [
        {
          "internalType": "address",
          "name": "",
          "type": "address"
        }
      ],
      "name": "pair2Pid",
      "outputs": [
        {
          "internalType": "uint256",
          "name": "",
          "type": "uint256"
        }
      ],
      "stateMutability": "view",
      "type": "function"
    },
    {
      "inputs": [],
      "name": "pause",
      "outputs": [],
      "stateMutability": "nonpayable",
      "type": "function"
    },
    {
      "inputs": [],
      "name": "paused",
      "outputs": [
        {
          "internalType": "bool",
          "name": "",
          "type": "bool"
        }
      ],
      "stateMutability": "view",
      "type": "function"
    },
    {
      "inputs": [
        {
          "internalType": "uint256",
          "name": "_pid",
          "type": "uint256"
        },
        {
          "internalType": "address",
          "name": "_user",
          "type": "address"
        }
      ],
      "name": "pendingToken",
      "outputs": [
        {
          "internalType": "uint256",
          "name": "",
          "type": "uint256"
        }
      ],
      "stateMutability": "view",
      "type": "function"
    },
    {
      "inputs": [
        {
          "internalType": "contract IERC20",
          "name": "",
          "type": "address"
        }
      ],
      "name": "poolExistence",
      "outputs": [
        {
          "internalType": "bool",
          "name": "",
          "type": "bool"
        }
      ],
      "stateMutability": "view",
      "type": "function"
    },
    {
      "inputs": [
        {
          "internalType": "uint256",
          "name": "",
          "type": "uint256"
        }
      ],
      "name": "poolInfo",
      "outputs": [
        {
          "internalType": "contract IERC20",
          "name": "lpToken",
          "type": "address"
        },
        {
          "internalType": "uint256",
          "name": "allocPoint",
          "type": "uint256"
        },
        {
          "internalType": "uint256",
          "name": "lastRewardBlock",
          "type": "uint256"
        },
        {
          "internalType": "uint256",
          "name": "accTokenPerShare",
          "type": "uint256"
        },
        {
          "internalType": "bool",
          "name": "locked",
          "type": "bool"
        }
      ],
      "stateMutability": "view",
      "type": "function"
    },
    {
      "inputs": [],
      "name": "poolLength",
      "outputs": [
        {
          "internalType": "uint256",
          "name": "",
          "type": "uint256"
        }
      ],
      "stateMutability": "view",
      "type": "function"
    },
    {
      "inputs": [],
      "name": "rewardToken",
      "outputs": [
        {
          "internalType": "contract IERC20",
          "name": "",
          "type": "address"
        }
      ],
      "stateMutability": "view",
      "type": "function"
    },
    {
      "inputs": [
        {
          "internalType": "address",
          "name": "core_",
          "type": "address"
        }
      ],
      "name": "setCore",
      "outputs": [],
      "stateMutability": "nonpayable",
      "type": "function"
    },
    {
      "inputs": [
        {
          "internalType": "uint256",
          "name": "_pid",
          "type": "uint256"
        },
        {
          "internalType": "uint256",
          "name": "_allocPoint",
          "type": "uint256"
        },
        {
          "internalType": "bool",
          "name": "_locked",
          "type": "bool"
        }
      ],
      "name": "setPool",
      "outputs": [],
      "stateMutability": "nonpayable",
      "type": "function"
    },
    {
      "inputs": [],
      "name": "startBlock",
      "outputs": [
        {
          "internalType": "uint256",
          "name": "",
          "type": "uint256"
        }
      ],
      "stateMutability": "view",
      "type": "function"
    },
    {
      "inputs": [],
      "name": "symbol",
      "outputs": [
        {
          "internalType": "string",
          "name": "",
          "type": "string"
        }
      ],
      "stateMutability": "view",
      "type": "function"
    },
    {
      "inputs": [],
      "name": "tokenPerBlock",
      "outputs": [
        {
          "internalType": "uint256",
          "name": "",
          "type": "uint256"
        }
      ],
      "stateMutability": "view",
      "type": "function"
    },
    {
      "inputs": [],
      "name": "totalAllocPoint",
      "outputs": [
        {
          "internalType": "uint256",
          "name": "",
          "type": "uint256"
        }
      ],
      "stateMutability": "view",
      "type": "function"
    },
    {
      "inputs": [],
      "name": "totalSupply",
      "outputs": [
        {
          "internalType": "uint256",
          "name": "",
          "type": "uint256"
        }
      ],
      "stateMutability": "view",
      "type": "function"
    },
    {
      "inputs": [
        {
          "internalType": "address",
          "name": "to",
          "type": "address"
        },
        {
          "internalType": "uint256",
          "name": "amount",
          "type": "uint256"
        }
      ],
      "name": "transfer",
      "outputs": [
        {
          "internalType": "bool",
          "name": "",
          "type": "bool"
        }
      ],
      "stateMutability": "nonpayable",
      "type": "function"
    },
    {
      "inputs": [
        {
          "internalType": "address",
          "name": "from",
          "type": "address"
        },
        {
          "internalType": "address",
          "name": "to",
          "type": "address"
        },
        {
          "internalType": "uint256",
          "name": "amount",
          "type": "uint256"
        }
      ],
      "name": "transferFrom",
      "outputs": [
        {
          "internalType": "bool",
          "name": "",
          "type": "bool"
        }
      ],
      "stateMutability": "nonpayable",
      "type": "function"
    },
    {
      "inputs": [],
      "name": "unpause",
      "outputs": [],
      "stateMutability": "nonpayable",
      "type": "function"
    },
    {
      "inputs": [],
      "name": "upToken",
      "outputs": [
        {
          "internalType": "contract IERC20",
          "name": "",
          "type": "address"
        }
      ],
      "stateMutability": "view",
      "type": "function"
    },
    {
      "inputs": [
        {
          "internalType": "uint256",
          "name": "_endBlock",
          "type": "uint256"
        }
      ],
      "name": "updateEndBlock",
      "outputs": [],
      "stateMutability": "nonpayable",
      "type": "function"
    },
    {
      "inputs": [
        {
          "internalType": "uint256",
          "name": "_pid",
          "type": "uint256"
        }
      ],
      "name": "updatePool",
      "outputs": [],
      "stateMutability": "nonpayable",
      "type": "function"
    },
    {
      "inputs": [
        {
          "internalType": "uint256",
          "name": "_tokenPerBlock",
          "type": "uint256"
        }
      ],
      "name": "updateTokenPerBlock",
      "outputs": [],
      "stateMutability": "nonpayable",
      "type": "function"
    },
    {
      "inputs": [
        {
          "internalType": "address",
          "name": "_vestingMaster",
          "type": "address"
        }
      ],
      "name": "updateVestingMaster",
      "outputs": [],
      "stateMutability": "nonpayable",
      "type": "function"
    },
    {
      "inputs": [
        {
          "internalType": "uint256",
          "name": "",
          "type": "uint256"
        },
        {
          "internalType": "address",
          "name": "",
          "type": "address"
        }
      ],
      "name": "userInfo",
      "outputs": [
        {
          "internalType": "uint256",
          "name": "amount",
          "type": "uint256"
        },
        {
          "internalType": "uint256",
          "name": "rewardDebt",
          "type": "uint256"
        }
      ],
      "stateMutability": "view",
      "type": "function"
    },
    {
      "inputs": [],
      "name": "vestingMaster",
      "outputs": [
        {
          "internalType": "contract IVestingMaster",
          "name": "",
          "type": "address"
        }
      ],
      "stateMutability": "view",
      "type": "function"
    },
    {
      "inputs": [
        {
          "internalType": "uint256",
          "name": "_pid",
          "type": "uint256"
        },
        {
          "internalType": "uint256",
          "name": "_amount",
          "type": "uint256"
        }
      ],
      "name": "withdraw",
      "outputs": [],
      "stateMutability": "nonpayable",
      "type": "function"
    }
  ],
  "transactionHash": "0xe0274171094f07a02154d947ca5fbd088a83c89edb957ada5cf9677cbf7a5751",
  "args": [
    "0x40fc3759Ccc4E466650891a91F34Bdd6129094D6",
    "0x4C2e91C8eD9eed3aFa2cC5ecBb26ae752c83dA59",
    "0x9Ff7010Fe2DbdD638257b8eaA1a65e73129361A3",
    "0x0000000000000000000000000000000000000000",
    "500000000000000000",
    0,
    "1000000000000000000"
  ],
  "solcInputHash": "2f541bcd60d5e1a907d6462ac5275e07",
  "bytecode": "0x60806040526000600d553480156200001657600080fd5b5060405162003ca038038062003ca0833981016040819052620000399162000226565b604080518082018252601381527f5550204661726d73205365656420546f6b656e00000000000000000000000000602080830191825283518085019094526006845265155414d1515160d21b90840152600160005581518a9391620000a291600491906200016c565b508051620000b89060059060208401906200016c565b5050600680546001600160a01b039093166201000002610100600160b01b031960ff19909416601217939093169290921790915550808210620001185760405162461bcd60e51b81526004016200010f90620002a3565b60405180910390fd5b601180546001600160a01b03199081166001600160a01b039889161790915560108054821696881696909617909555600780549095169390951692909217909255600c91909155600e55600f5550620002f2565b828054600181600116156101000203166002900490600052602060002090601f016020900481019282601f10620001af57805160ff1916838001178555620001df565b82800160010185558215620001df579182015b82811115620001df578251825591602001919060010190620001c2565b50620001ed929150620001f1565b5090565b5b80821115620001ed5760008155600101620001f2565b80516001600160a01b03811681146200022057600080fd5b92915050565b600080600080600080600060e0888a03121562000241578283fd5b6200024d898962000208565b96506200025e8960208a0162000208565b95506200026f8960408a0162000208565b9450620002808960608a0162000208565b93506080880151925060a0880151915060c0880151905092959891949750929550565b6020808252602f908201527f5374616b696e675265776172643a3a636f6e7374727563746f723a20456e642060408201526e1b195cdcc81d1a185b881cdd185c9d608a1b606082015260800190565b61399e80620003026000396000f3fe608060405234801561001057600080fd5b50600436106102d25760003560e01c80635312ea8e1161018657806395d89b41116100e3578063cbd258b511610097578063e2bbb15811610071578063e2bbb15814610559578063f2f4eb261461056c578063f7c618c114610574576102d2565b8063cbd258b51461052b578063dc2248631461053e578063dd62ed3e14610546576102d2565b8063a9059cbb116100c8578063a9059cbb146104f2578063ae0e597a14610505578063c811658514610518576102d2565b806395d89b41146104d7578063a457c2d7146104df576102d2565b806370a082311161013a578063800096301161011f578063800096301461049b5780638456cb59146104ae57806393f1a40b146104b6576102d2565b806370a08231146104755780637abceffd14610488576102d2565b80635c975abb1161016b5780635c975abb1461045d57806361a548e314610465578063630b5ba11461046d576102d2565b80635312ea8e146104425780635aca5e9314610455576102d2565b806323b872dd11610234578063441a3e70116101e857806348cd4cb1116101cd57806348cd4cb11461041457806348e43af41461041c57806351eb05a61461042f576102d2565b8063441a3e70146103ee57806346ca6bea14610401576102d2565b8063395093511161021957806339509351146103cb5780633f4ba83a146103de5780634198709a146103e6576102d2565b806323b872dd146103a3578063313ce567146103b6576102d2565b80631526fe271161028b57806318160ddd1161027057806318160ddd146103735780631eccdf071461037b5780632124ca4414610390576102d2565b80631526fe271461034757806317caf6f11461036b576102d2565b8063081e3eda116102bc578063081e3eda1461030a578063083c63231461031f578063095ea7b314610327576102d2565b80626f0231146102d757806306fdde03146102ec575b600080fd5b6102ea6102e5366004612e28565b61057c565b005b6102f46107a1565b6040516103019190612fe2565b60405180910390f35b610312610855565b6040516103019190612fa9565b61031261085b565b61033a610335366004612de1565b610861565b6040516103019190612f9e565b61035a610355366004612e28565b61087f565b604051610301959493929190612fb2565b6103126108ca565b6103126108d0565b6103836108d6565b6040516103019190612f27565b6102ea61039e366004612d4d565b6108e5565b61033a6103b1366004612da1565b610a04565b6103be610a1e565b60405161030191906138c1565b61033a6103d9366004612de1565b610a27565b6102ea610a7a565b610312610b3e565b6102ea6103fc366004612ebd565b610b44565b6102ea61040f366004612ede565b610f21565b610312611187565b61031261042a366004612e58565b61118d565b6102ea61043d366004612e28565b61132d565b6102ea610450366004612e28565b61152f565b610312611634565b61033a611652565b610383611660565b6102ea61166f565b610312610483366004612d4d565b61168e565b6102ea610496366004612e7c565b6116a9565b6102ea6104a9366004612d4d565b611ab9565b6102ea611bdd565b6104c96104c4366004612e58565b611d43565b604051610301929190613885565b6102f4611d67565b61033a6104ed366004612de1565b611de6565b61033a610500366004612de1565b611e4e565b6102ea610513366004612e28565b611e68565b610312610526366004612d4d565b612005565b61033a610539366004612d4d565b612017565b61031261202c565b610312610554366004612d69565b612050565b6102ea610567366004612ebd565b61207b565b6103836124b5565b6103836124ca565b6006546040517fe43581b8000000000000000000000000000000000000000000000000000000008152620100009091046001600160a01b03169063e43581b8906105ca903390600401612f27565b60206040518083038186803b1580156105e257600080fd5b505afa1580156105f6573d6000803e3d6000fd5b505050506040513d601f19601f8201168201806040525081019061061a9190612e0c565b806106be57506006546040517f0c68ba21000000000000000000000000000000000000000000000000000000008152620100009091046001600160a01b031690630c68ba219061066e903390600401612f27565b60206040518083038186803b15801561068657600080fd5b505afa15801561069a573d6000803e3d6000fd5b505050506040513d601f19601f820116820180604052508101906106be9190612e0c565b6106e35760405162461bcd60e51b81526004016106da9061342e565b60405180910390fd5b600e5481116107045760405162461bcd60e51b81526004016106da906135c8565b60005b600854811015610756576008818154811061071e57fe5b906000526020600020906005020160020154821161074e5760405162461bcd60e51b81526004016106da906135c8565b600101610707565b5061075f61166f565b600f81905560405133907f316ee89ca026e5355cff2b64939ee0e5af49bde19b755b42bbde0f5bea03982590610796908490612fa9565b60405180910390a250565b60048054604080516020601f60027fffffffffffffffffffffffffffffffffffffffffffffffffffffffffffffffff61010060018816150201909516949094049384018190048102820181019092528281526060939092909183018282801561084b5780601f106108205761010080835404028352916020019161084b565b820191906000526020600020905b81548152906001019060200180831161082e57829003601f168201915b5050505050905090565b60085490565b600f5481565b600061087561086e6124d9565b84846124dd565b5060015b92915050565b6008818154811061088c57fe5b6000918252602090912060059091020180546001820154600283015460038401546004909401546001600160a01b0390931694509092909160ff1685565b600d5481565b60035490565b6007546001600160a01b031681565b6006546040517fe43581b8000000000000000000000000000000000000000000000000000000008152620100009091046001600160a01b03169063e43581b890610933903390600401612f27565b60206040518083038186803b15801561094b57600080fd5b505afa15801561095f573d6000803e3d6000fd5b505050506040513d601f19601f820116820180604052508101906109839190612e0c565b61099f5760405162461bcd60e51b81526004016106da90613215565b600780547fffffffffffffffffffffffff0000000000000000000000000000000000000000166001600160a01b03831617905560405133907fedd017b4981fb4d0d4df1c48baed994ce8b4dc47ba89a2010ce592b7df5c6dc490610796908490612f27565b600060405162461bcd60e51b81526004016106da90613306565b60065460ff1690565b6000610875610a346124d9565b84610a758560026000610a456124d9565b6001600160a01b03908116825260208083019390935260409182016000908120918c168152925290205490612591565b6124dd565b6006546040517fe43581b8000000000000000000000000000000000000000000000000000000008152620100009091046001600160a01b03169063e43581b890610ac8903390600401612f27565b60206040518083038186803b158015610ae057600080fd5b505afa158015610af4573d6000803e3d6000fd5b505050506040513d601f19601f82011682018060405250810190610b189190612e0c565b610b345760405162461bcd60e51b81526004016106da90613215565b610b3c6125bd565b565b600c5481565b60085482908110610b675760405162461bcd60e51b81526004016106da9061315b565b60026000541415610b8a5760405162461bcd60e51b81526004016106da906137f6565b600260009081556008805485908110610b9f57fe5b600091825260208083208784526009825260408085203386529092529220805460059092029092019250841115610be85760405162461bcd60e51b81526004016106da906134b1565b610bf18561132d565b805415610e68576000610c328260010154610c2c64e8d4a51000610c268760030154876000015461264990919063ffffffff16565b90612683565b906126b5565b90508015610e6657600483015460009060ff168015610c5b57506007546001600160a01b031615155b15610da157600754604080517f05e97bc60000000000000000000000000000000000000000000000000000000081529051610d9e926001600160a01b0316916305e97bc6916004808301926020929190829003018186803b158015610cbf57600080fd5b505afa158015610cd3573d6000803e3d6000fd5b505050506040513d601f19601f82011682018060405250810190610cf79190612e40565b600754604080517f05e97bc60000000000000000000000000000000000000000000000000000000081529051610d98926001600160a01b0316916305e97bc6916004808301926020929190829003018186803b158015610d5657600080fd5b505afa158015610d6a573d6000803e3d6000fd5b505050506040513d601f19601f82011682018060405250810190610d8e9190612e40565b8590600101612683565b90612649565b90505b610db433610daf84846126b5565b6126dd565b508015610e5457600754600090610dd4906001600160a01b0316836126dd565b6007546040517f282d3fdf0000000000000000000000000000000000000000000000000000000081529192506001600160a01b03169063282d3fdf90610e209033908590600401612f3b565b600060405180830381600087803b158015610e3a57600080fd5b505af1158015610e4e573d6000803e3d6000fd5b50505050505b601354610e619083612591565b601355505b505b8315610eb4578054610e7a90856126b5565b815581546011546001600160a01b0390811691161415610e9e57610e9e33856127f4565b8154610eb4906001600160a01b031633866128d6565b60038201548154610ecf9164e8d4a5100091610c2691612649565b600182018190558154604051879233927fe08737ac48a1dab4b1a46c7dc9398bd5bfc6d7ad6fabb7cd8caa254de14def3592610f0d928a92916138ab565b60405180910390a350506001600055505050565b60085483908110610f445760405162461bcd60e51b81526004016106da9061315b565b6006546040517fe43581b8000000000000000000000000000000000000000000000000000000008152620100009091046001600160a01b03169063e43581b890610f92903390600401612f27565b60206040518083038186803b158015610faa57600080fd5b505afa158015610fbe573d6000803e3d6000fd5b505050506040513d601f19601f82011682018060405250810190610fe29190612e0c565b8061108657506006546040517f0c68ba21000000000000000000000000000000000000000000000000000000008152620100009091046001600160a01b031690630c68ba2190611036903390600401612f27565b60206040518083038186803b15801561104e57600080fd5b505afa158015611062573d6000803e3d6000fd5b505050506040513d601f19601f820116820180604052508101906110869190612e0c565b6110a25760405162461bcd60e51b81526004016106da9061342e565b6110aa61166f565b6110e7836110e1600887815481106110be57fe5b906000526020600020906005020160010154600d546126b590919063ffffffff16565b90612591565b600d8190555082600885815481106110fb57fe5b906000526020600020906005020160010181905550816008858154811061111e57fe5b906000526020600020906005020160040160006101000a81548160ff0219169083151502179055507f8f987a9b62724ae68030752859382563c5fd80a0c4f9ba7c067d4a9e50da652284848460405161117993929190613893565b60405180910390a150505050565b600e5481565b600854600090839081106111b35760405162461bcd60e51b81526004016106da9061315b565b6000600885815481106111c257fe5b600091825260208083208884526009825260408085206001600160a01b038a811687529352842060059390930201600381015481546011549296509394909390929081169116146112aa5783546040517f70a082310000000000000000000000000000000000000000000000000000000081526001600160a01b03909116906370a0823190611255903090600401612f27565b60206040518083038186803b15801561126d57600080fd5b505afa158015611281573d6000803e3d6000fd5b505050506040513d601f19601f820116820180604052508101906112a59190612e40565b6112b2565b6112b26108d0565b90508360020154431180156112c657508015155b156112f95760006112d68961297c565b90506112f56112ee83610c268464e8d4a51000612649565b8490612591565b9250505b6113218360010154610c2c64e8d4a51000610c2686886000015461264990919063ffffffff16565b98975050505050505050565b600854819081106113505760405162461bcd60e51b81526004016106da9061315b565b60006008838154811061135f57fe5b9060005260206000209060050201905080600201544311611380575061152b565b600f54816002015410611393575061152b565b80546011546000916001600160a01b0391821691161461144a5781546040517f70a082310000000000000000000000000000000000000000000000000000000081526001600160a01b03909116906370a08231906113f5903090600401612f27565b60206040518083038186803b15801561140d57600080fd5b505afa158015611421573d6000803e3d6000fd5b505050506040513d601f19601f820116820180604052508101906114459190612e40565b611452565b6114526108d0565b90506000600f54431015611466574361146a565b600f545b905081158061147b57506001830154155b1561148f576002909201919091555061152b565b600061149a8661297c565b90506114bd6114b284610c268464e8d4a51000612649565b600386015490612591565b6003850155600284018290556012546114d69082612591565b601255835460038501546040517f50a1a2d4fcb1c08863a0b14fcc7d9d728e2b21d8d7588b9cfa3991efe8112ee79261151e926001600160a01b039091169185908890612f78565b60405180910390a1505050505b5050565b600854819081106115525760405162461bcd60e51b81526004016106da9061315b565b600260005414156115755760405162461bcd60e51b81526004016106da906137f6565b60026000908155600880548490811061158a57fe5b600091825260208083208684526009825260408085203386529092529083208054848255600182019490945560059092020180546011549194509192916001600160a01b03918216911614156115e4576115e433826127f4565b82546115fa906001600160a01b031633836128d6565b84336001600160a01b03167fbb757047c2b5f3974fe26b7c10f732e7bce710b0952a71082702781e62ae059583604051610f0d9190612fa9565b600061164d6013546012546126b590919063ffffffff16565b905090565b600654610100900460ff1690565b6011546001600160a01b031681565b60085460005b8181101561152b576116868161132d565b600101611675565b6001600160a01b031660009081526001602052604090205490565b6006546040517fe43581b8000000000000000000000000000000000000000000000000000000008152620100009091046001600160a01b03169063e43581b8906116f7903390600401612f27565b60206040518083038186803b15801561170f57600080fd5b505afa158015611723573d6000803e3d6000fd5b505050506040513d601f19601f820116820180604052508101906117479190612e0c565b806117eb57506006546040517f0c68ba21000000000000000000000000000000000000000000000000000000008152620100009091046001600160a01b031690630c68ba219061179b903390600401612f27565b60206040518083038186803b1580156117b357600080fd5b505afa1580156117c7573d6000803e3d6000fd5b505050506040513d601f19601f820116820180604052508101906117eb9190612e0c565b6118075760405162461bcd60e51b81526004016106da9061342e565b6001600160a01b0382166000908152600b6020526040902054829060ff16156118425760405162461bcd60e51b81526004016106da90613033565b6010546001600160a01b03828116911614158061186c57506011546001600160a01b038281169116145b6118885760405162461bcd60e51b81526004016106da906131b8565b600f5443106118a95760405162461bcd60e51b81526004016106da9061356b565b6118b161166f565b6000600e5443116118c457600e546118c6565b435b600d549091506118d69086612591565b600d556001600160a01b038481166000818152600b60209081526040808320805460017fffffffffffffffffffffffffffffffffffffffffffffffffffffffffffffff009182168117909255825160a0810184529586529285018b8152918501878152606086018581528a151560808801908152600880548086018255975296517ff3f7a9fe364faab93b216da50a3214154f22a0a2b415b23a84c8169e8b636ee3600590970296870180547fffffffffffffffffffffffff000000000000000000000000000000000000000016919099161790975591517ff3f7a9fe364faab93b216da50a3214154f22a0a2b415b23a84c8169e8b636ee485015590517ff3f7a9fe364faab93b216da50a3214154f22a0a2b415b23a84c8169e8b636ee584015593517ff3f7a9fe364faab93b216da50a3214154f22a0a2b415b23a84c8169e8b636ee683015591517ff3f7a9fe364faab93b216da50a3214154f22a0a2b415b23a84c8169e8b636ee79091018054909216901515179055611a57610855565b6001600160a01b0386166000908152600a60205260409081902092909103909155517fdb1bd39f8335c9b10acbc6afb000d15247c2ad3d0aa1e481a6b44594e7cc1d6590611aaa90879087908790613864565b60405180910390a15050505050565b6006546040517fe43581b8000000000000000000000000000000000000000000000000000000008152620100009091046001600160a01b03169063e43581b890611b07903390600401612f27565b60206040518083038186803b158015611b1f57600080fd5b505afa158015611b33573d6000803e3d6000fd5b505050506040513d601f19601f82011682018060405250810190611b579190612e0c565b611b735760405162461bcd60e51b81526004016106da90613215565b600680547fffffffffffffffffffff0000000000000000000000000000000000000000ffff16620100006001600160a01b038416908102919091179091556040517fad9400e618eb1344fde53db22397a1b82c765527ecbba3a5c86bcac15090828b90600090a250565b6006546040517fe43581b8000000000000000000000000000000000000000000000000000000008152620100009091046001600160a01b03169063e43581b890611c2b903390600401612f27565b60206040518083038186803b158015611c4357600080fd5b505afa158015611c57573d6000803e3d6000fd5b505050506040513d601f19601f82011682018060405250810190611c7b9190612e0c565b80611d1f57506006546040517f0c68ba21000000000000000000000000000000000000000000000000000000008152620100009091046001600160a01b031690630c68ba2190611ccf903390600401612f27565b60206040518083038186803b158015611ce757600080fd5b505afa158015611cfb573d6000803e3d6000fd5b505050506040513d601f19601f82011682018060405250810190611d1f9190612e0c565b611d3b5760405162461bcd60e51b81526004016106da9061342e565b610b3c612a1a565b60096020908152600092835260408084209091529082529020805460019091015482565b60058054604080516020601f60027fffffffffffffffffffffffffffffffffffffffffffffffffffffffffffffffff61010060018816150201909516949094049384018190048102820181019092528281526060939092909183018282801561084b5780601f106108205761010080835404028352916020019161084b565b6000610875611df36124d9565b84610a75856040518060600160405280602581526020016139446025913960026000611e1d6124d9565b6001600160a01b03908116825260208083019390935260409182016000908120918d16815292529020549190612a94565b600060405162461bcd60e51b81526004016106da906136b9565b6006546040517fe43581b8000000000000000000000000000000000000000000000000000000008152620100009091046001600160a01b03169063e43581b890611eb6903390600401612f27565b60206040518083038186803b158015611ece57600080fd5b505afa158015611ee2573d6000803e3d6000fd5b505050506040513d601f19601f82011682018060405250810190611f069190612e0c565b80611faa57506006546040517f0c68ba21000000000000000000000000000000000000000000000000000000008152620100009091046001600160a01b031690630c68ba2190611f5a903390600401612f27565b60206040518083038186803b158015611f7257600080fd5b505afa158015611f86573d6000803e3d6000fd5b505050506040513d601f19601f82011682018060405250810190611faa9190612e0c565b611fc65760405162461bcd60e51b81526004016106da9061342e565b611fce61166f565b600c81905560405133907fe2492e003bbe8afa53088b406f0c1cb5d9e280370fc72a74cf116ffd343c405390610796908490612fa9565b600a6020526000908152604090205481565b600b6020526000908152604090205460ff1681565b7f8b8c0776df2c2176edf6f82391c35ea4891146d7a976ee36fd07f1a6fb4ead4c81565b6001600160a01b03918216600090815260026020908152604080832093909416825291909152205490565b6008548290811061209e5760405162461bcd60e51b81526004016106da9061315b565b600260005414156120c15760405162461bcd60e51b81526004016106da906137f6565b60026000556120ce611652565b156120eb5760405162461bcd60e51b81526004016106da9061339a565b6000600884815481106120fa57fe5b6000918252602080832087845260098252604080852033865290925292206005909102909101915061212b8561132d565b8054156122b25760006121608260010154610c2c64e8d4a51000610c268760030154876000015461264990919063ffffffff16565b905080156122b057600483015460009060ff16801561218957506007546001600160a01b031615155b156121f057600754604080517f05e97bc600000000000000000000000000000000000000000000000000000000815290516121ed926001600160a01b0316916305e97bc6916004808301926020929190829003018186803b158015610cbf57600080fd5b90505b6121fe33610daf84846126b5565b50801561229e5760075460009061221e906001600160a01b0316836126dd565b6007546040517f282d3fdf0000000000000000000000000000000000000000000000000000000081529192506001600160a01b03169063282d3fdf9061226a9033908590600401612f3b565b600060405180830381600087803b15801561228457600080fd5b505af1158015612298573d6000803e3d6000fd5b50505050505b6013546122ab9083612591565b601355505b505b8380156124475782546040517f70a082310000000000000000000000000000000000000000000000000000000081526000916001600160a01b0316906370a0823190612302903090600401612f27565b60206040518083038186803b15801561231a57600080fd5b505afa15801561232e573d6000803e3d6000fd5b505050506040513d601f19601f820116820180604052508101906123529190612e40565b845490915061236c906001600160a01b0316333089612ac0565b83546040517f70a082310000000000000000000000000000000000000000000000000000000081526000916001600160a01b0316906370a08231906123b5903090600401612f27565b60206040518083038186803b1580156123cd57600080fd5b505afa1580156123e1573d6000803e3d6000fd5b505050506040513d601f19601f820116820180604052508101906124059190612e40565b905061241181836126b5565b85546011549194506001600160a01b0391821691161415612436576124363384612ae7565b83546124429084612591565b845550505b600383015482546124629164e8d4a5100091610c2691612649565b600183018190558254604051889233927f7162984403f6c73c8639375d45a9187dfd04602231bd8e587c415718b5f7e5f9926124a0928792916138ab565b60405180910390a35050600160005550505050565b6006546201000090046001600160a01b031690565b6010546001600160a01b031681565b3390565b6001600160a01b0383166125035760405162461bcd60e51b81526004016106da90613625565b6001600160a01b0382166125295760405162461bcd60e51b81526004016106da906130c7565b6001600160a01b0380841660008181526002602090815260408083209487168084529490915290819020849055517f8c5be1e5ebec7d5bd14f71427d1e84f3dd0314c0f7b2291e5b200ac8c7c3b92590612584908590612fa9565b60405180910390a3505050565b6000828201838110156125b65760405162461bcd60e51b81526004016106da90613124565b9392505050565b6125c5611652565b6125e15760405162461bcd60e51b81526004016106da90613090565b600680547fffffffffffffffffffffffffffffffffffffffffffffffffffffffffffff00ff1690557f5db9ee0a495bf2e6ff9c91a7834c1ba4fdd244a5e8aa4e537bd38aeae4b073aa6126326124d9565b60405161263f9190612f27565b60405180910390a1565b60008261265857506000610879565b8282028284828161266557fe5b04146125b65760405162461bcd60e51b81526004016106da906133d1565b60008082116126a45760405162461bcd60e51b81526004016106da90613363565b8183816126ad57fe5b049392505050565b6000828211156126d75760405162461bcd60e51b81526004016106da90613272565b50900390565b6010546040517f70a0823100000000000000000000000000000000000000000000000000000000815260009182916001600160a01b03909116906370a082319061272b903090600401612f27565b60206040518083038186803b15801561274357600080fd5b505afa158015612757573d6000803e3d6000fd5b505050506040513d601f19601f8201168201806040525081019061277b9190612e40565b60115460105491925060009182916001600160a01b039182169116146127a25760006127aa565b6127aa6108d0565b9050808311156127d4576127be83826126b5565b9250828511156127d0578291506127d4565b8491505b6010546127eb906001600160a01b031687846128d6565b50949350505050565b6001600160a01b03821661281a5760405162461bcd60e51b81526004016106da9061350e565b61282682600083612977565b61286381604051806060016040528060228152602001613922602291396001600160a01b0385166000908152600160205260409020549190612a94565b6001600160a01b03831660009081526001602052604090205560035461288990826126b5565b6003556040516000906001600160a01b038416907fddf252ad1be2c89b69c2b068fc378daa952ba7f163c4a11628f55a4df523b3ef906128ca908590612fa9565b60405180910390a35050565b6129778363a9059cbb60e01b84846040516024016128f5929190612f3b565b604080517fffffffffffffffffffffffffffffffffffffffffffffffffffffffffffffffe08184030181529190526020810180517bffffffffffffffffffffffffffffffffffffffffffffffffffffffff167fffffffff0000000000000000000000000000000000000000000000000000000090931692909217909152612b9b565b505050565b6000806008838154811061298c57fe5b90600052602060002090600502019050438160020154106129bf5760405162461bcd60e51b81526004016106da90613773565b60006129e28260020154600f544310156129d957436129dd565b600f545b612c2a565b600d5490915015612a1357612a10600d54610c268460010154610d98600c548661264990919063ffffffff16565b92505b5050919050565b612a22611652565b15612a3f5760405162461bcd60e51b81526004016106da9061339a565b600680547fffffffffffffffffffffffffffffffffffffffffffffffffffffffffffff00ff166101001790557f62e78cea01bee320cd4e420270b5ea74000d11b0c9f74754ebdbfc544b05a2586126326124d9565b60008184841115612ab85760405162461bcd60e51b81526004016106da9190612fe2565b505050900390565b612ae1846323b872dd60e01b8585856040516024016128f593929190612f54565b50505050565b6001600160a01b038216612b0d5760405162461bcd60e51b81526004016106da9061382d565b612b1960008383612977565b600354612b269082612591565b6003556001600160a01b038216600090815260016020526040902054612b4c9082612591565b6001600160a01b0383166000818152600160205260408082209390935591519091907fddf252ad1be2c89b69c2b068fc378daa952ba7f163c4a11628f55a4df523b3ef906128ca908590612fa9565b6060612bf0826040518060400160405280602081526020017f5361666545524332303a206c6f772d6c6576656c2063616c6c206661696c6564815250856001600160a01b0316612c369092919063ffffffff16565b8051909150156129775780806020019051810190612c0e9190612e0c565b6129775760405162461bcd60e51b81526004016106da90613716565b60006125b682846126b5565b6060612c458484600085612c4d565b949350505050565b606082471015612c6f5760405162461bcd60e51b81526004016106da906132a9565b612c7885612d0e565b612c945760405162461bcd60e51b81526004016106da90613682565b60006060866001600160a01b03168587604051612cb19190612f0b565b60006040518083038185875af1925050503d8060008114612cee576040519150601f19603f3d011682016040523d82523d6000602084013e612cf3565b606091505b5091509150612d03828286612d14565b979650505050505050565b3b151590565b60608315612d235750816125b6565b825115612d335782518084602001fd5b8160405162461bcd60e51b81526004016106da9190612fe2565b600060208284031215612d5e578081fd5b81356125b6816138fb565b60008060408385031215612d7b578081fd5b8235612d86816138fb565b91506020830135612d96816138fb565b809150509250929050565b600080600060608486031215612db5578081fd5b8335612dc0816138fb565b92506020840135612dd0816138fb565b929592945050506040919091013590565b60008060408385031215612df3578182fd5b8235612dfe816138fb565b946020939093013593505050565b600060208284031215612e1d578081fd5b81516125b681613913565b600060208284031215612e39578081fd5b5035919050565b600060208284031215612e51578081fd5b5051919050565b60008060408385031215612e6a578182fd5b823591506020830135612d96816138fb565b600080600060608486031215612e90578283fd5b833592506020840135612ea2816138fb565b91506040840135612eb281613913565b809150509250925092565b60008060408385031215612ecf578182fd5b50508035926020909101359150565b600080600060608486031215612ef2578283fd5b83359250602084013591506040840135612eb281613913565b60008251612f1d8184602087016138cf565b9190910192915050565b6001600160a01b0391909116815260200190565b6001600160a01b03929092168252602082015260400190565b6001600160a01b039384168152919092166020820152604081019190915260600190565b6001600160a01b0394909416845260208401929092526040830152606082015260800190565b901515815260200190565b90815260200190565b6001600160a01b039590951685526020850193909352604084019190915260608301521515608082015260a00190565b60006020825282518060208401526130018160408501602087016138cf565b601f017fffffffffffffffffffffffffffffffffffffffffffffffffffffffffffffffe0169190910160400192915050565b60208082526028908201527f5374616b696e675265776172643a3a6e6f6e4475706c6963617465643a20447560408201527f706c696361746564000000000000000000000000000000000000000000000000606082015260800190565b60208082526014908201527f5061757361626c653a206e6f7420706175736564000000000000000000000000604082015260600190565b60208082526022908201527f45524332303a20617070726f766520746f20746865207a65726f20616464726560408201527f7373000000000000000000000000000000000000000000000000000000000000606082015260800190565b6020808252601b908201527f536166654d6174683a206164646974696f6e206f766572666c6f770000000000604082015260600190565b60208082526025908201527f5374616b696e675265776172643a3a76616c69646174655069643a204e6f742060408201527f6578697374000000000000000000000000000000000000000000000000000000606082015260800190565b60208082526036908201527f5374616b696e675265776172643a3a6e6f6e4475706c6963617465643a20447560408201527f706c6963617465642072657761726420616e64206c7000000000000000000000606082015260800190565b6020808252602f908201527f436f72655265663a3a6f6e6c79476f7665726e6f723a2043616c6c657220697360408201527f206e6f74206120676f7665726e6f720000000000000000000000000000000000606082015260800190565b6020808252601e908201527f536166654d6174683a207375627472616374696f6e206f766572666c6f770000604082015260600190565b60208082526026908201527f416464726573733a20696e73756666696369656e742062616c616e636520666f60408201527f722063616c6c0000000000000000000000000000000000000000000000000000606082015260800190565b60208082526036908201527f5374616b696e67526577617264733a3a7472616e7366657246726f6d3a204e6f60408201527f7420737570706f7274207472616e7366657246726f6d00000000000000000000606082015260800190565b6020808252601a908201527f536166654d6174683a206469766973696f6e206279207a65726f000000000000604082015260600190565b60208082526010908201527f5061757361626c653a2070617573656400000000000000000000000000000000604082015260600190565b60208082526021908201527f536166654d6174683a206d756c7469706c69636174696f6e206f766572666c6f60408201527f7700000000000000000000000000000000000000000000000000000000000000606082015260800190565b60208082526045908201527f436f72655265663a3a6f6e6c79477561726469616e4f72476f7665726e6f723a60408201527f2043616c6c6572206973206e6f74206120677561726469616e206f7220676f7660608201527f65726e6f72000000000000000000000000000000000000000000000000000000608082015260a00190565b60208082526021908201527f5374616b696e675265776172643a3a77697468647261773a204e6f7420676f6f60408201527f6400000000000000000000000000000000000000000000000000000000000000606082015260800190565b60208082526021908201527f45524332303a206275726e2066726f6d20746865207a65726f2061646472657360408201527f7300000000000000000000000000000000000000000000000000000000000000606082015260800190565b60208082526027908201527f5374616b696e675265776172643a3a616464506f6f6c3a20457863656564206560408201527f6e64626c6f636b00000000000000000000000000000000000000000000000000606082015260800190565b60208082526023908201527f5374616b696e675265776172643a3a757064617465456e64426c6f636b3a204c60408201527f6573730000000000000000000000000000000000000000000000000000000000606082015260800190565b60208082526024908201527f45524332303a20617070726f76652066726f6d20746865207a65726f2061646460408201527f7265737300000000000000000000000000000000000000000000000000000000606082015260800190565b6020808252601d908201527f416464726573733a2063616c6c20746f206e6f6e2d636f6e7472616374000000604082015260600190565b6020808252602e908201527f5374616b696e67526577617264733a3a7472616e736665723a204e6f7420737560408201527f70706f7274207472616e73666572000000000000000000000000000000000000606082015260800190565b6020808252602a908201527f5361666545524332303a204552433230206f7065726174696f6e20646964206e60408201527f6f74207375636365656400000000000000000000000000000000000000000000606082015260800190565b60208082526057908201527f5374616b696e675265776172643a3a676574546f6b656e5265776172643a4c6160408201527f7374526577617264426c6f636b204d757374206c6974746c65207468616e207460608201527f68652063757272656e7420626c6f636b206e756d626572000000000000000000608082015260a00190565b6020808252601f908201527f5265656e7472616e637947756172643a207265656e7472616e742063616c6c00604082015260600190565b6020808252601f908201527f45524332303a206d696e7420746f20746865207a65726f206164647265737300604082015260600190565b9283526001600160a01b039190911660208301521515604082015260600190565b918252602082015260400190565b92835260208301919091521515604082015260600190565b9283526020830191909152604082015260600190565b60ff91909116815260200190565b60005b838110156138ea5781810151838201526020016138d2565b83811115612ae15750506000910152565b6001600160a01b038116811461391057600080fd5b50565b801515811461391057600080fdfe45524332303a206275726e20616d6f756e7420657863656564732062616c616e636545524332303a2064656372656173656420616c6c6f77616e63652062656c6f77207a65726fa2646970667358221220fe8f50812e7790fef195445bbd558d9308560ccf9464df0a0a1256b227f2bb8664736f6c634300060c0033",
  "devdoc": {
    "kind": "dev",
    "methods": {
      "allowance(address,address)": {
        "details": "See {IERC20-allowance}."
      },
      "approve(address,uint256)": {
        "details": "See {IERC20-approve}. Requirements: - `spender` cannot be the zero address."
      },
      "balanceOf(address)": {
        "details": "See {IERC20-balanceOf}."
      },
      "decimals()": {
        "details": "Returns the number of decimals used to get its user representation. For example, if `decimals` equals `2`, a balance of `505` tokens should be displayed to a user as `5,05` (`505 / 10 ** 2`). Tokens usually opt for a value of 18, imitating the relationship between Ether and Wei. This is the value {ERC20} uses, unless {_setupDecimals} is called. NOTE: This information is only used for _display_ purposes: it in no way affects any of the arithmetic of the contract, including {IERC20-balanceOf} and {IERC20-transfer}."
      },
      "decreaseAllowance(address,uint256)": {
        "details": "Atomically decreases the allowance granted to `spender` by the caller. This is an alternative to {approve} that can be used as a mitigation for problems described in {IERC20-approve}. Emits an {Approval} event indicating the updated allowance. Requirements: - `spender` cannot be the zero address. - `spender` must have allowance for the caller of at least `subtractedValue`."
      },
      "increaseAllowance(address,uint256)": {
        "details": "Atomically increases the allowance granted to `spender` by the caller. This is an alternative to {approve} that can be used as a mitigation for problems described in {IERC20-approve}. Emits an {Approval} event indicating the updated allowance. Requirements: - `spender` cannot be the zero address."
      },
      "name()": {
        "details": "Returns the name of the token."
      },
      "paused()": {
        "details": "Returns true if the contract is paused, and false otherwise."
      },
      "symbol()": {
        "details": "Returns the symbol of the token, usually a shorter version of the name."
      },
      "totalSupply()": {
        "details": "See {IERC20-totalSupply}."
      }
    },
    "version": 1
  },
  "userdoc": {
    "kind": "user",
    "methods": {},
    "version": 1
  },
  "storageLayout": {
    "storage": [
      {
        "astId": 2455,
        "contract": "contracts/StakingRewards.sol:StakingRewards",
        "label": "_status",
        "offset": 0,
        "slot": "0",
        "type": "t_uint256"
      },
      {
        "astId": 764,
        "contract": "contracts/StakingRewards.sol:StakingRewards",
        "label": "_balances",
        "offset": 0,
        "slot": "1",
        "type": "t_mapping(t_address,t_uint256)"
      },
      {
        "astId": 770,
        "contract": "contracts/StakingRewards.sol:StakingRewards",
        "label": "_allowances",
        "offset": 0,
        "slot": "2",
        "type": "t_mapping(t_address,t_mapping(t_address,t_uint256))"
      },
      {
        "astId": 772,
        "contract": "contracts/StakingRewards.sol:StakingRewards",
        "label": "_totalSupply",
        "offset": 0,
        "slot": "3",
        "type": "t_uint256"
      },
      {
        "astId": 774,
        "contract": "contracts/StakingRewards.sol:StakingRewards",
        "label": "_name",
        "offset": 0,
        "slot": "4",
        "type": "t_string_storage"
      },
      {
        "astId": 776,
        "contract": "contracts/StakingRewards.sol:StakingRewards",
        "label": "_symbol",
        "offset": 0,
        "slot": "5",
        "type": "t_string_storage"
      },
      {
        "astId": 778,
        "contract": "contracts/StakingRewards.sol:StakingRewards",
        "label": "_decimals",
        "offset": 0,
        "slot": "6",
        "type": "t_uint8"
      },
      {
        "astId": 2370,
        "contract": "contracts/StakingRewards.sol:StakingRewards",
        "label": "_paused",
        "offset": 1,
        "slot": "6",
        "type": "t_bool"
      },
      {
        "astId": 11642,
        "contract": "contracts/StakingRewards.sol:StakingRewards",
        "label": "_core",
        "offset": 2,
        "slot": "6",
        "type": "t_contract(ICore)11634"
      },
      {
        "astId": 2758,
        "contract": "contracts/StakingRewards.sol:StakingRewards",
        "label": "vestingMaster",
        "offset": 0,
        "slot": "7",
        "type": "t_contract(IVestingMaster)11432"
      },
      {
        "astId": 2762,
        "contract": "contracts/StakingRewards.sol:StakingRewards",
        "label": "poolInfo",
        "offset": 0,
        "slot": "8",
        "type": "t_array(t_struct(PoolInfo)11199_storage)dyn_storage"
      },
      {
        "astId": 2769,
        "contract": "contracts/StakingRewards.sol:StakingRewards",
        "label": "userInfo",
        "offset": 0,
        "slot": "9",
        "type": "t_mapping(t_uint256,t_mapping(t_address,t_struct(UserInfo)11188_storage))"
      },
      {
        "astId": 2774,
        "contract": "contracts/StakingRewards.sol:StakingRewards",
        "label": "pair2Pid",
        "offset": 0,
        "slot": "10",
        "type": "t_mapping(t_address,t_uint256)"
      },
      {
        "astId": 2779,
        "contract": "contracts/StakingRewards.sol:StakingRewards",
        "label": "poolExistence",
        "offset": 0,
        "slot": "11",
        "type": "t_mapping(t_contract(IERC20)1328,t_bool)"
      },
      {
        "astId": 2782,
        "contract": "contracts/StakingRewards.sol:StakingRewards",
        "label": "tokenPerBlock",
        "offset": 0,
        "slot": "12",
        "type": "t_uint256"
      },
      {
        "astId": 2786,
        "contract": "contracts/StakingRewards.sol:StakingRewards",
        "label": "totalAllocPoint",
        "offset": 0,
        "slot": "13",
        "type": "t_uint256"
      },
      {
        "astId": 2789,
        "contract": "contracts/StakingRewards.sol:StakingRewards",
        "label": "startBlock",
        "offset": 0,
        "slot": "14",
        "type": "t_uint256"
      },
      {
        "astId": 2792,
        "contract": "contracts/StakingRewards.sol:StakingRewards",
        "label": "endBlock",
        "offset": 0,
        "slot": "15",
        "type": "t_uint256"
      },
      {
        "astId": 2795,
        "contract": "contracts/StakingRewards.sol:StakingRewards",
        "label": "rewardToken",
        "offset": 0,
        "slot": "16",
        "type": "t_contract(IERC20)1328"
      },
      {
        "astId": 2798,
        "contract": "contracts/StakingRewards.sol:StakingRewards",
        "label": "upToken",
        "offset": 0,
        "slot": "17",
        "type": "t_contract(IERC20)1328"
      },
      {
        "astId": 2800,
        "contract": "contracts/StakingRewards.sol:StakingRewards",
        "label": "_accShareReward",
        "offset": 0,
        "slot": "18",
        "type": "t_uint256"
      },
      {
        "astId": 2802,
        "contract": "contracts/StakingRewards.sol:StakingRewards",
        "label": "_accHarvestedReward",
        "offset": 0,
        "slot": "19",
        "type": "t_uint256"
      }
    ],
    "types": {
      "t_address": {
        "encoding": "inplace",
        "label": "address",
        "numberOfBytes": "20"
      },
      "t_array(t_struct(PoolInfo)11199_storage)dyn_storage": {
        "base": "t_struct(PoolInfo)11199_storage",
        "encoding": "dynamic_array",
        "label": "struct IStakingRewards.PoolInfo[]",
        "numberOfBytes": "32"
      },
      "t_bool": {
        "encoding": "inplace",
        "label": "bool",
        "numberOfBytes": "1"
      },
      "t_contract(ICore)11634": {
        "encoding": "inplace",
        "label": "contract ICore",
        "numberOfBytes": "20"
      },
      "t_contract(IERC20)1328": {
        "encoding": "inplace",
        "label": "contract IERC20",
        "numberOfBytes": "20"
      },
      "t_contract(IVestingMaster)11432": {
        "encoding": "inplace",
        "label": "contract IVestingMaster",
        "numberOfBytes": "20"
      },
      "t_mapping(t_address,t_mapping(t_address,t_uint256))": {
        "encoding": "mapping",
        "key": "t_address",
        "label": "mapping(address => mapping(address => uint256))",
        "numberOfBytes": "32",
        "value": "t_mapping(t_address,t_uint256)"
      },
      "t_mapping(t_address,t_struct(UserInfo)11188_storage)": {
        "encoding": "mapping",
        "key": "t_address",
        "label": "mapping(address => struct IStakingRewards.UserInfo)",
        "numberOfBytes": "32",
        "value": "t_struct(UserInfo)11188_storage"
      },
      "t_mapping(t_address,t_uint256)": {
        "encoding": "mapping",
        "key": "t_address",
        "label": "mapping(address => uint256)",
        "numberOfBytes": "32",
        "value": "t_uint256"
      },
      "t_mapping(t_contract(IERC20)1328,t_bool)": {
        "encoding": "mapping",
        "key": "t_contract(IERC20)1328",
        "label": "mapping(contract IERC20 => bool)",
        "numberOfBytes": "32",
        "value": "t_bool"
      },
      "t_mapping(t_uint256,t_mapping(t_address,t_struct(UserInfo)11188_storage))": {
        "encoding": "mapping",
        "key": "t_uint256",
        "label": "mapping(uint256 => mapping(address => struct IStakingRewards.UserInfo))",
        "numberOfBytes": "32",
        "value": "t_mapping(t_address,t_struct(UserInfo)11188_storage)"
      },
      "t_string_storage": {
        "encoding": "bytes",
        "label": "string",
        "numberOfBytes": "32"
      },
      "t_struct(PoolInfo)11199_storage": {
        "encoding": "inplace",
        "label": "struct IStakingRewards.PoolInfo",
        "members": [
          {
            "astId": 11190,
            "contract": "contracts/StakingRewards.sol:StakingRewards",
            "label": "lpToken",
            "offset": 0,
            "slot": "0",
            "type": "t_contract(IERC20)1328"
          },
          {
            "astId": 11192,
            "contract": "contracts/StakingRewards.sol:StakingRewards",
            "label": "allocPoint",
            "offset": 0,
            "slot": "1",
            "type": "t_uint256"
          },
          {
            "astId": 11194,
            "contract": "contracts/StakingRewards.sol:StakingRewards",
            "label": "lastRewardBlock",
            "offset": 0,
            "slot": "2",
            "type": "t_uint256"
          },
          {
            "astId": 11196,
            "contract": "contracts/StakingRewards.sol:StakingRewards",
            "label": "accTokenPerShare",
            "offset": 0,
            "slot": "3",
            "type": "t_uint256"
          },
          {
            "astId": 11198,
            "contract": "contracts/StakingRewards.sol:StakingRewards",
            "label": "locked",
            "offset": 0,
            "slot": "4",
            "type": "t_bool"
          }
        ],
        "numberOfBytes": "160"
      },
      "t_struct(UserInfo)11188_storage": {
        "encoding": "inplace",
        "label": "struct IStakingRewards.UserInfo",
        "members": [
          {
            "astId": 11185,
            "contract": "contracts/StakingRewards.sol:StakingRewards",
            "label": "amount",
            "offset": 0,
            "slot": "0",
            "type": "t_uint256"
          },
          {
            "astId": 11187,
            "contract": "contracts/StakingRewards.sol:StakingRewards",
            "label": "rewardDebt",
            "offset": 0,
            "slot": "1",
            "type": "t_uint256"
          }
        ],
        "numberOfBytes": "64"
      },
      "t_uint256": {
        "encoding": "inplace",
        "label": "uint256",
        "numberOfBytes": "32"
      },
      "t_uint8": {
        "encoding": "inplace",
        "label": "uint8",
        "numberOfBytes": "1"
      }
    }
  }
}