{
  "address": "0x8e82d15120f2079a92b3304033BAC7260cE17898",
  "abi": [
    {
      "inputs": [
        {
          "internalType": "address[]",
          "name": "_addresses",
          "type": "address[]"
        },
        {
          "internalType": "uint256",
          "name": "_pid",
          "type": "uint256"
        },
        {
          "internalType": "address[]",
          "name": "_earnedToUpPath0",
          "type": "address[]"
        },
        {
          "internalType": "address[]",
          "name": "_earnedToUpPath1",
          "type": "address[]"
        },
        {
          "internalType": "address[]",
          "name": "_earnedToToken0Path0",
          "type": "address[]"
        },
        {
          "internalType": "address[]",
          "name": "_earnedToToken0Path1",
          "type": "address[]"
        },
        {
          "internalType": "address[]",
          "name": "_earnedToToken1Path0",
          "type": "address[]"
        },
        {
          "internalType": "address[]",
          "name": "_earnedToToken1Path1",
          "type": "address[]"
        },
        {
          "internalType": "uint256",
          "name": "_controllerFee",
          "type": "uint256"
        },
        {
          "internalType": "uint256",
          "name": "_buyBackRate",
          "type": "uint256"
        },
        {
          "internalType": "uint256",
          "name": "_entranceFeeFactor",
          "type": "uint256"
        },
        {
          "internalType": "uint256",
          "name": "_withdrawFeeFactor",
          "type": "uint256"
        },
        {
          "internalType": "bool",
          "name": "_isCollect",
          "type": "bool"
        }
      ],
      "stateMutability": "nonpayable",
      "type": "constructor"
    },
    {
      "anonymous": false,
      "inputs": [
        {
          "indexed": true,
          "internalType": "address",
          "name": "_core",
          "type": "address"
        }
      ],
      "name": "CoreUpdate",
      "type": "event"
    },
    {
      "anonymous": false,
      "inputs": [
        {
          "indexed": false,
          "internalType": "address",
          "name": "user",
          "type": "address"
        },
        {
          "indexed": false,
          "internalType": "uint256",
          "name": "amount",
          "type": "uint256"
        }
      ],
      "name": "Deposit",
      "type": "event"
    },
    {
      "anonymous": false,
      "inputs": [
        {
          "indexed": true,
          "internalType": "address",
          "name": "previousOwner",
          "type": "address"
        },
        {
          "indexed": true,
          "internalType": "address",
          "name": "newOwner",
          "type": "address"
        }
      ],
      "name": "OwnershipTransferred",
      "type": "event"
    },
    {
      "anonymous": false,
      "inputs": [
        {
          "indexed": false,
          "internalType": "address",
          "name": "account",
          "type": "address"
        }
      ],
      "name": "Paused",
      "type": "event"
    },
    {
      "anonymous": false,
      "inputs": [
        {
          "indexed": false,
          "internalType": "address",
          "name": "_buyBackRouter0Address",
          "type": "address"
        },
        {
          "indexed": false,
          "internalType": "address",
          "name": "_buyBackRouter1Address",
          "type": "address"
        }
      ],
      "name": "SetBuyBackRouterAddress",
      "type": "event"
    },
    {
      "anonymous": false,
      "inputs": [
        {
          "indexed": false,
          "internalType": "bool",
          "name": "_isCollect",
          "type": "bool"
        }
      ],
      "name": "SetCollect",
      "type": "event"
    },
    {
      "anonymous": false,
      "inputs": [
        {
          "indexed": false,
          "internalType": "address[]",
          "name": "_earnedToToken0Path0",
          "type": "address[]"
        },
        {
          "indexed": false,
          "internalType": "address[]",
          "name": "_earnedToToken0Path1",
          "type": "address[]"
        }
      ],
      "name": "SetEarnedToToken0Path",
      "type": "event"
    },
    {
      "anonymous": false,
      "inputs": [
        {
          "indexed": false,
          "internalType": "address",
          "name": "_earnedToToken0Router0Address",
          "type": "address"
        },
        {
          "indexed": false,
          "internalType": "address",
          "name": "_earnedToToken0Router1Address",
          "type": "address"
        }
      ],
      "name": "SetEarnedToToken0RouterAddress",
      "type": "event"
    },
    {
      "anonymous": false,
      "inputs": [
        {
          "indexed": false,
          "internalType": "address[]",
          "name": "_earnedToToken1Path0",
          "type": "address[]"
        },
        {
          "indexed": false,
          "internalType": "address[]",
          "name": "_earnedToToken1Path1",
          "type": "address[]"
        }
      ],
      "name": "SetEarnedToToken1Path",
      "type": "event"
    },
    {
      "anonymous": false,
      "inputs": [
        {
          "indexed": false,
          "internalType": "address",
          "name": "_earnedToToken1Router0Address",
          "type": "address"
        },
        {
          "indexed": false,
          "internalType": "address",
          "name": "_earnedToToken1Router1Address",
          "type": "address"
        }
      ],
      "name": "SetEarnedToToken1RouterAddress",
      "type": "event"
    },
    {
      "anonymous": false,
      "inputs": [
        {
          "indexed": false,
          "internalType": "address[]",
          "name": "_earnedToUpPath0",
          "type": "address[]"
        },
        {
          "indexed": false,
          "internalType": "address[]",
          "name": "_earnedToUpPath1",
          "type": "address[]"
        }
      ],
      "name": "SetEarnedToUpPath",
      "type": "event"
    },
    {
      "anonymous": false,
      "inputs": [
        {
          "indexed": false,
          "internalType": "bool",
          "name": "_onlyGov",
          "type": "bool"
        }
      ],
      "name": "SetOnlyGov",
      "type": "event"
    },
    {
      "anonymous": false,
      "inputs": [
        {
          "indexed": false,
          "internalType": "address",
          "name": "_rewardsAddress",
          "type": "address"
        }
      ],
      "name": "SetRewardsAddress",
      "type": "event"
    },
    {
      "anonymous": false,
      "inputs": [
        {
          "indexed": false,
          "internalType": "uint256",
          "name": "_entranceFeeFactor",
          "type": "uint256"
        },
        {
          "indexed": false,
          "internalType": "uint256",
          "name": "_withdrawFeeFactor",
          "type": "uint256"
        },
        {
          "indexed": false,
          "internalType": "uint256",
          "name": "_controllerFee",
          "type": "uint256"
        },
        {
          "indexed": false,
          "internalType": "uint256",
          "name": "_buyBackRate",
          "type": "uint256"
        },
        {
          "indexed": false,
          "internalType": "uint256",
          "name": "_slippageFactor",
          "type": "uint256"
        }
      ],
      "name": "SetSettings",
      "type": "event"
    },
    {
      "anonymous": false,
      "inputs": [
        {
          "indexed": false,
          "internalType": "address",
          "name": "_wantRouterAddress",
          "type": "address"
        }
      ],
      "name": "SetWantRouterAddress",
      "type": "event"
    },
    {
      "anonymous": false,
      "inputs": [
        {
          "indexed": false,
          "internalType": "address",
          "name": "account",
          "type": "address"
        }
      ],
      "name": "Unpaused",
      "type": "event"
    },
    {
      "anonymous": false,
      "inputs": [
        {
          "indexed": false,
          "internalType": "address",
          "name": "user",
          "type": "address"
        },
        {
          "indexed": false,
          "internalType": "uint256",
          "name": "amount",
          "type": "uint256"
        }
      ],
      "name": "Withdraw",
      "type": "event"
    },
    {
      "inputs": [],
      "name": "MASTER_ROLE",
      "outputs": [
        {
          "internalType": "bytes32",
          "name": "",
          "type": "bytes32"
        }
      ],
      "stateMutability": "view",
      "type": "function"
    },
    {
      "inputs": [],
      "name": "MINIMUM_SHARES",
      "outputs": [
        {
          "internalType": "uint256",
          "name": "",
          "type": "uint256"
        }
      ],
      "stateMutability": "view",
      "type": "function"
    },
    {
      "inputs": [],
      "name": "UPAddress",
      "outputs": [
        {
          "internalType": "address",
          "name": "",
          "type": "address"
        }
      ],
      "stateMutability": "view",
      "type": "function"
    },
    {
      "inputs": [],
      "name": "UPFarmAddress",
      "outputs": [
        {
          "internalType": "address",
          "name": "",
          "type": "address"
        }
      ],
      "stateMutability": "view",
      "type": "function"
    },
    {
      "inputs": [],
      "name": "buyBackRate",
      "outputs": [
        {
          "internalType": "uint256",
          "name": "",
          "type": "uint256"
        }
      ],
      "stateMutability": "view",
      "type": "function"
    },
    {
      "inputs": [],
      "name": "buyBackRateMax",
      "outputs": [
        {
          "internalType": "uint256",
          "name": "",
          "type": "uint256"
        }
      ],
      "stateMutability": "view",
      "type": "function"
    },
    {
      "inputs": [],
      "name": "buyBackRateUL",
      "outputs": [
        {
          "internalType": "uint256",
          "name": "",
          "type": "uint256"
        }
      ],
      "stateMutability": "view",
      "type": "function"
    },
    {
      "inputs": [],
      "name": "buyBackRouter0Address",
      "outputs": [
        {
          "internalType": "address",
          "name": "",
          "type": "address"
        }
      ],
      "stateMutability": "view",
      "type": "function"
    },
    {
      "inputs": [],
      "name": "buyBackRouter1Address",
      "outputs": [
        {
          "internalType": "address",
          "name": "",
          "type": "address"
        }
      ],
      "stateMutability": "view",
      "type": "function"
    },
    {
      "inputs": [],
      "name": "controllerFee",
      "outputs": [
        {
          "internalType": "uint256",
          "name": "",
          "type": "uint256"
        }
      ],
      "stateMutability": "view",
      "type": "function"
    },
    {
      "inputs": [],
      "name": "controllerFeeMax",
      "outputs": [
        {
          "internalType": "uint256",
          "name": "",
          "type": "uint256"
        }
      ],
      "stateMutability": "view",
      "type": "function"
    },
    {
      "inputs": [],
      "name": "controllerFeeUL",
      "outputs": [
        {
          "internalType": "uint256",
          "name": "",
          "type": "uint256"
        }
      ],
      "stateMutability": "view",
      "type": "function"
    },
    {
      "inputs": [],
      "name": "core",
      "outputs": [
        {
          "internalType": "contract ICore",
          "name": "",
          "type": "address"
        }
      ],
      "stateMutability": "view",
      "type": "function"
    },
    {
      "inputs": [
        {
          "internalType": "uint256",
          "name": "_wantAmt",
          "type": "uint256"
        }
      ],
      "name": "deposit",
      "outputs": [
        {
          "internalType": "uint256",
          "name": "",
          "type": "uint256"
        }
      ],
      "stateMutability": "nonpayable",
      "type": "function"
    },
    {
      "inputs": [],
      "name": "earn",
      "outputs": [],
      "stateMutability": "nonpayable",
      "type": "function"
    },
    {
      "inputs": [],
      "name": "earnedAddress",
      "outputs": [
        {
          "internalType": "address",
          "name": "",
          "type": "address"
        }
      ],
      "stateMutability": "view",
      "type": "function"
    },
    {
      "inputs": [
        {
          "internalType": "uint256",
          "name": "",
          "type": "uint256"
        }
      ],
      "name": "earnedToToken0Path0",
      "outputs": [
        {
          "internalType": "address",
          "name": "",
          "type": "address"
        }
      ],
      "stateMutability": "view",
      "type": "function"
    },
    {
      "inputs": [
        {
          "internalType": "uint256",
          "name": "",
          "type": "uint256"
        }
      ],
      "name": "earnedToToken0Path1",
      "outputs": [
        {
          "internalType": "address",
          "name": "",
          "type": "address"
        }
      ],
      "stateMutability": "view",
      "type": "function"
    },
    {
      "inputs": [],
      "name": "earnedToToken0Router0Address",
      "outputs": [
        {
          "internalType": "address",
          "name": "",
          "type": "address"
        }
      ],
      "stateMutability": "view",
      "type": "function"
    },
    {
      "inputs": [],
      "name": "earnedToToken0Router1Address",
      "outputs": [
        {
          "internalType": "address",
          "name": "",
          "type": "address"
        }
      ],
      "stateMutability": "view",
      "type": "function"
    },
    {
      "inputs": [
        {
          "internalType": "uint256",
          "name": "",
          "type": "uint256"
        }
      ],
      "name": "earnedToToken1Path0",
      "outputs": [
        {
          "internalType": "address",
          "name": "",
          "type": "address"
        }
      ],
      "stateMutability": "view",
      "type": "function"
    },
    {
      "inputs": [
        {
          "internalType": "uint256",
          "name": "",
          "type": "uint256"
        }
      ],
      "name": "earnedToToken1Path1",
      "outputs": [
        {
          "internalType": "address",
          "name": "",
          "type": "address"
        }
      ],
      "stateMutability": "view",
      "type": "function"
    },
    {
      "inputs": [],
      "name": "earnedToToken1Router0Address",
      "outputs": [
        {
          "internalType": "address",
          "name": "",
          "type": "address"
        }
      ],
      "stateMutability": "view",
      "type": "function"
    },
    {
      "inputs": [],
      "name": "earnedToToken1Router1Address",
      "outputs": [
        {
          "internalType": "address",
          "name": "",
          "type": "address"
        }
      ],
      "stateMutability": "view",
      "type": "function"
    },
    {
      "inputs": [
        {
          "internalType": "uint256",
          "name": "",
          "type": "uint256"
        }
      ],
      "name": "earnedToUpPath0",
      "outputs": [
        {
          "internalType": "address",
          "name": "",
          "type": "address"
        }
      ],
      "stateMutability": "view",
      "type": "function"
    },
    {
      "inputs": [
        {
          "internalType": "uint256",
          "name": "",
          "type": "uint256"
        }
      ],
      "name": "earnedToUpPath1",
      "outputs": [
        {
          "internalType": "address",
          "name": "",
          "type": "address"
        }
      ],
      "stateMutability": "view",
      "type": "function"
    },
    {
      "inputs": [],
      "name": "entranceFeeFactor",
      "outputs": [
        {
          "internalType": "uint256",
          "name": "",
          "type": "uint256"
        }
      ],
      "stateMutability": "view",
      "type": "function"
    },
    {
      "inputs": [],
      "name": "entranceFeeFactorLL",
      "outputs": [
        {
          "internalType": "uint256",
          "name": "",
          "type": "uint256"
        }
      ],
      "stateMutability": "view",
      "type": "function"
    },
    {
      "inputs": [],
      "name": "entranceFeeFactorMax",
      "outputs": [
        {
          "internalType": "uint256",
          "name": "",
          "type": "uint256"
        }
      ],
      "stateMutability": "view",
      "type": "function"
    },
    {
      "inputs": [],
      "name": "farm",
      "outputs": [],
      "stateMutability": "nonpayable",
      "type": "function"
    },
    {
      "inputs": [],
      "name": "farmContractAddress",
      "outputs": [
        {
          "internalType": "address",
          "name": "",
          "type": "address"
        }
      ],
      "stateMutability": "view",
      "type": "function"
    },
    {
      "inputs": [
        {
          "internalType": "address",
          "name": "_token",
          "type": "address"
        },
        {
          "internalType": "uint256",
          "name": "_amount",
          "type": "uint256"
        },
        {
          "internalType": "address",
          "name": "_to",
          "type": "address"
        }
      ],
      "name": "inCaseTokensGetStuck",
      "outputs": [],
      "stateMutability": "nonpayable",
      "type": "function"
    },
    {
      "inputs": [],
      "name": "isAutoComp",
      "outputs": [
        {
          "internalType": "bool",
          "name": "",
          "type": "bool"
        }
      ],
      "stateMutability": "view",
      "type": "function"
    },
    {
      "inputs": [],
      "name": "isCAKEStaking",
      "outputs": [
        {
          "internalType": "bool",
          "name": "",
          "type": "bool"
        }
      ],
      "stateMutability": "view",
      "type": "function"
    },
    {
      "inputs": [],
      "name": "isCollect",
      "outputs": [
        {
          "internalType": "bool",
          "name": "",
          "type": "bool"
        }
      ],
      "stateMutability": "view",
      "type": "function"
    },
    {
      "inputs": [],
      "name": "isSameAssetDeposit",
      "outputs": [
        {
          "internalType": "bool",
          "name": "",
          "type": "bool"
        }
      ],
      "stateMutability": "view",
      "type": "function"
    },
    {
      "inputs": [],
      "name": "lastEarnBlock",
      "outputs": [
        {
          "internalType": "uint256",
          "name": "",
          "type": "uint256"
        }
      ],
      "stateMutability": "view",
      "type": "function"
    },
    {
      "inputs": [],
      "name": "onlyGov",
      "outputs": [
        {
          "internalType": "bool",
          "name": "",
          "type": "bool"
        }
      ],
      "stateMutability": "view",
      "type": "function"
    },
    {
      "inputs": [],
      "name": "owner",
      "outputs": [
        {
          "internalType": "address",
          "name": "",
          "type": "address"
        }
      ],
      "stateMutability": "view",
      "type": "function"
    },
    {
      "inputs": [],
      "name": "pause",
      "outputs": [],
      "stateMutability": "nonpayable",
      "type": "function"
    },
    {
      "inputs": [],
      "name": "paused",
      "outputs": [
        {
          "internalType": "bool",
          "name": "",
          "type": "bool"
        }
      ],
      "stateMutability": "view",
      "type": "function"
    },
    {
      "inputs": [],
      "name": "pid",
      "outputs": [
        {
          "internalType": "uint256",
          "name": "",
          "type": "uint256"
        }
      ],
      "stateMutability": "view",
      "type": "function"
    },
    {
      "inputs": [],
      "name": "renounceOwnership",
      "outputs": [],
      "stateMutability": "nonpayable",
      "type": "function"
    },
    {
      "inputs": [],
      "name": "rewardsAddress",
      "outputs": [
        {
          "internalType": "address",
          "name": "",
          "type": "address"
        }
      ],
      "stateMutability": "view",
      "type": "function"
    },
    {
      "inputs": [
        {
          "internalType": "address",
          "name": "_buyBackRouter0Address",
          "type": "address"
        },
        {
          "internalType": "address",
          "name": "_buyBackRouter1Address",
          "type": "address"
        }
      ],
      "name": "setBuyBackRouterAddress",
      "outputs": [],
      "stateMutability": "nonpayable",
      "type": "function"
    },
    {
      "inputs": [
        {
          "internalType": "bool",
          "name": "_isCollect",
          "type": "bool"
        }
      ],
      "name": "setCollect",
      "outputs": [],
      "stateMutability": "nonpayable",
      "type": "function"
    },
    {
      "inputs": [
        {
          "internalType": "address",
          "name": "core_",
          "type": "address"
        }
      ],
      "name": "setCore",
      "outputs": [],
      "stateMutability": "nonpayable",
      "type": "function"
    },
    {
      "inputs": [
        {
          "internalType": "address[]",
          "name": "_earnedToToken0Path0",
          "type": "address[]"
        },
        {
          "internalType": "address[]",
          "name": "_earnedToToken0Path1",
          "type": "address[]"
        }
      ],
      "name": "setEarnedToToken0Path",
      "outputs": [],
      "stateMutability": "nonpayable",
      "type": "function"
    },
    {
      "inputs": [
        {
          "internalType": "address",
          "name": "_earnedToToken0Router0Address",
          "type": "address"
        },
        {
          "internalType": "address",
          "name": "_earnedToToken0Router1Address",
          "type": "address"
        }
      ],
      "name": "setEarnedToToken0RouterAddress",
      "outputs": [],
      "stateMutability": "nonpayable",
      "type": "function"
    },
    {
      "inputs": [
        {
          "internalType": "address[]",
          "name": "_earnedToToken1Path0",
          "type": "address[]"
        },
        {
          "internalType": "address[]",
          "name": "_earnedToToken1Path1",
          "type": "address[]"
        }
      ],
      "name": "setEarnedToToken1Path",
      "outputs": [],
      "stateMutability": "nonpayable",
      "type": "function"
    },
    {
      "inputs": [
        {
          "internalType": "address",
          "name": "_earnedToToken1Router0Address",
          "type": "address"
        },
        {
          "internalType": "address",
          "name": "_earnedToToken1Router1Address",
          "type": "address"
        }
      ],
      "name": "setEarnedToToken1RouterAddress",
      "outputs": [],
      "stateMutability": "nonpayable",
      "type": "function"
    },
    {
      "inputs": [
        {
          "internalType": "address[]",
          "name": "_earnedToUpPath0",
          "type": "address[]"
        },
        {
          "internalType": "address[]",
          "name": "_earnedToUpPath1",
          "type": "address[]"
        }
      ],
      "name": "setEarnedToUpPath",
      "outputs": [],
      "stateMutability": "nonpayable",
      "type": "function"
    },
    {
      "inputs": [
        {
          "internalType": "bool",
          "name": "_onlyGov",
          "type": "bool"
        }
      ],
      "name": "setOnlyGov",
      "outputs": [],
      "stateMutability": "nonpayable",
      "type": "function"
    },
    {
      "inputs": [
        {
          "internalType": "address",
          "name": "_rewardsAddress",
          "type": "address"
        }
      ],
      "name": "setRewardsAddress",
      "outputs": [],
      "stateMutability": "nonpayable",
      "type": "function"
    },
    {
      "inputs": [
        {
          "internalType": "uint256",
          "name": "_entranceFeeFactor",
          "type": "uint256"
        },
        {
          "internalType": "uint256",
          "name": "_withdrawFeeFactor",
          "type": "uint256"
        },
        {
          "internalType": "uint256",
          "name": "_controllerFee",
          "type": "uint256"
        },
        {
          "internalType": "uint256",
          "name": "_buyBackRate",
          "type": "uint256"
        },
        {
          "internalType": "uint256",
          "name": "_slippageFactor",
          "type": "uint256"
        }
      ],
      "name": "setSettings",
      "outputs": [],
      "stateMutability": "nonpayable",
      "type": "function"
    },
    {
      "inputs": [
        {
          "internalType": "address",
          "name": "_wantRouterAddress",
          "type": "address"
        }
      ],
      "name": "setWantRouterAddress",
      "outputs": [],
      "stateMutability": "nonpayable",
      "type": "function"
    },
    {
      "inputs": [],
      "name": "sharesTotal",
      "outputs": [
        {
          "internalType": "uint256",
          "name": "",
          "type": "uint256"
        }
      ],
      "stateMutability": "view",
      "type": "function"
    },
    {
      "inputs": [],
      "name": "slippageFactor",
      "outputs": [
        {
          "internalType": "uint256",
          "name": "",
          "type": "uint256"
        }
      ],
      "stateMutability": "view",
      "type": "function"
    },
    {
      "inputs": [],
      "name": "slippageFactorUL",
      "outputs": [
        {
          "internalType": "uint256",
          "name": "",
          "type": "uint256"
        }
      ],
      "stateMutability": "view",
      "type": "function"
    },
    {
      "inputs": [],
      "name": "token0Address",
      "outputs": [
        {
          "internalType": "address",
          "name": "",
          "type": "address"
        }
      ],
      "stateMutability": "view",
      "type": "function"
    },
    {
      "inputs": [],
      "name": "token1Address",
      "outputs": [
        {
          "internalType": "address",
          "name": "",
          "type": "address"
        }
      ],
      "stateMutability": "view",
      "type": "function"
    },
    {
      "inputs": [
        {
          "internalType": "address",
          "name": "newOwner",
          "type": "address"
        }
      ],
      "name": "transferOwnership",
      "outputs": [],
      "stateMutability": "nonpayable",
      "type": "function"
    },
    {
      "inputs": [],
      "name": "unpause",
      "outputs": [],
      "stateMutability": "nonpayable",
      "type": "function"
    },
    {
      "inputs": [],
      "name": "wantAddress",
      "outputs": [
        {
          "internalType": "address",
          "name": "",
          "type": "address"
        }
      ],
      "stateMutability": "view",
      "type": "function"
    },
    {
      "inputs": [],
      "name": "wantLockedTotal",
      "outputs": [
        {
          "internalType": "uint256",
          "name": "",
          "type": "uint256"
        }
      ],
      "stateMutability": "view",
      "type": "function"
    },
    {
      "inputs": [],
      "name": "wantRouterAddress",
      "outputs": [
        {
          "internalType": "address",
          "name": "",
          "type": "address"
        }
      ],
      "stateMutability": "view",
      "type": "function"
    },
    {
      "inputs": [],
      "name": "wbnbAddress",
      "outputs": [
        {
          "internalType": "address",
          "name": "",
          "type": "address"
        }
      ],
      "stateMutability": "view",
      "type": "function"
    },
    {
      "inputs": [
        {
          "internalType": "uint256",
          "name": "_wantAmt",
          "type": "uint256"
        }
      ],
      "name": "withdraw",
      "outputs": [
        {
          "internalType": "uint256",
          "name": "",
          "type": "uint256"
        }
      ],
      "stateMutability": "nonpayable",
      "type": "function"
    },
    {
      "inputs": [],
      "name": "withdrawFeeFactor",
      "outputs": [
        {
          "internalType": "uint256",
          "name": "",
          "type": "uint256"
        }
      ],
      "stateMutability": "view",
      "type": "function"
    },
    {
      "inputs": [],
      "name": "withdrawFeeFactorLL",
      "outputs": [
        {
          "internalType": "uint256",
          "name": "",
          "type": "uint256"
        }
      ],
      "stateMutability": "view",
      "type": "function"
    },
    {
      "inputs": [],
      "name": "withdrawFeeFactorMax",
      "outputs": [
        {
          "internalType": "uint256",
          "name": "",
          "type": "uint256"
        }
      ],
      "stateMutability": "view",
      "type": "function"
    },
    {
      "inputs": [],
      "name": "wrapBNB",
      "outputs": [],
      "stateMutability": "nonpayable",
      "type": "function"
    },
    {
      "stateMutability": "payable",
      "type": "receive"
    }
  ],
  "transactionHash": "0xbda99b4a98df12d655c8b382d16f14cacafda50268796f96240f7ab8ef621e9b",
  "args": [
    [
      "0x40fc3759Ccc4E466650891a91F34Bdd6129094D6",
      "0x0000000000000000000000000000000000000000",
      "0x99B223Cd1f1E14B7EabD46Bc7a4a21536beDC958",
      "0x83ac0bD6315Eea678CDe633957820058AD17139A",
      "0xD778cB7E14eF6bec0d3c7a160Da6DfF19366d02f",
      "0x83ac0bD6315Eea678CDe633957820058AD17139A",
      "0x9Ff7010Fe2DbdD638257b8eaA1a65e73129361A3",
      "0x9Ff7010Fe2DbdD638257b8eaA1a65e73129361A3",
      "0xB36Ba4fdc7beBbd0B6D9c630a2E3F8Bbfe11c808",
      "0xa84400261e8563BE19633B7477fDEb0634bAC5DA",
      "0xC9261c7Ca765A1e1cf563ecab36C41a7B1a6B460",
      "0x9ac64cc6e4415144c455bd8e4837fea55603e5c3",
      "0x0000000000000000000000000000000000000000",
      "0x0000000000000000000000000000000000000000",
      "0x0000000000000000000000000000000000000000",
      "0x9ac64cc6e4415144c455bd8e4837fea55603e5c3",
      "0x0000000000000000000000000000000000000000"
    ],
    1,
    [
      "0x9Ff7010Fe2DbdD638257b8eaA1a65e73129361A3",
      "0x83ac0bD6315Eea678CDe633957820058AD17139A"
    ],
    [],
    [
      "0x9Ff7010Fe2DbdD638257b8eaA1a65e73129361A3",
      "0x83ac0bD6315Eea678CDe633957820058AD17139A"
    ],
    [],
    [],
    [],
    300,
    200,
    9990,
    9990,
    false
  ],
  "solcInputHash": "2dcb6d018d9e772ddedd4e5d7872fca7",
  "bytecode": "0x60806040526003805460ff60201b19166401000000001790556000600c819055600d819055600e819055600f8190556010556127066012556127106013556103b66014553480156200005057600080fd5b50604051620064dc380380620064dc83398181016040526101a08110156200007757600080fd5b81019080805160405193929190846401000000008211156200009857600080fd5b908301906020820185811115620000ae57600080fd5b8251866020820283011164010000000082111715620000cc57600080fd5b82525081516020918201928201910280838360005b83811015620000fb578181015183820152602001620000e1565b5050505090500160405260200180519060200190929190805160405193929190846401000000008211156200012f57600080fd5b9083019060208201858111156200014557600080fd5b82518660208202830111640100000000821117156200016357600080fd5b82525081516020918201928201910280838360005b838110156200019257818101518382015260200162000178565b5050505090500160405260200180516040519392919084640100000000821115620001bc57600080fd5b908301906020820185811115620001d257600080fd5b8251866020820283011164010000000082111715620001f057600080fd5b82525081516020918201928201910280838360005b838110156200021f57818101518382015260200162000205565b50505050905001604052602001805160405193929190846401000000008211156200024957600080fd5b9083019060208201858111156200025f57600080fd5b82518660208202830111640100000000821117156200027d57600080fd5b82525081516020918201928201910280838360005b83811015620002ac57818101518382015260200162000292565b5050505090500160405260200180516040519392919084640100000000821115620002d657600080fd5b908301906020820185811115620002ec57600080fd5b82518660208202830111640100000000821117156200030a57600080fd5b82525081516020918201928201910280838360005b83811015620003395781810151838201526020016200031f565b50505050905001604052602001805160405193929190846401000000008211156200036357600080fd5b9083019060208201858111156200037957600080fd5b82518660208202830111640100000000821117156200039757600080fd5b82525081516020918201928201910280838360005b83811015620003c6578181015183820152602001620003ac565b5050505090500160405260200180516040519392919084640100000000821115620003f057600080fd5b9083019060208201858111156200040657600080fd5b82518660208202830111640100000000821117156200042457600080fd5b82525081516020918201928201910280838360005b838110156200045357818101518382015260200162000439565b505050509190910160409081526020830151908301516060840151608085015160a0909501518f51939750919550939250908d906000906200049157fe5b60200260200101516000620004ab62000cb860201b60201c565b600080546001600160a01b0319166001600160a01b0383169081178255604051929350917f8be0079c531659141344cd1fd0a4f28419497f9722a3daafe3b4186f6b6457e0908290a3506000805460ff60a01b19169055600180546001600160a01b0319166001600160a01b039290921691909117815560028190558d518e919081106200053557fe5b6020026020010151600960006101000a8154816001600160a01b0302191690836001600160a01b031602179055508c6002815181106200057157fe5b6020026020010151600a60006101000a8154816001600160a01b0302191690836001600160a01b031602179055508c600381518110620005ad57fe5b6020026020010151600b60006101000a8154816001600160a01b0302191690836001600160a01b031602179055508c600481518110620005e957fe5b6020026020010151600560006101000a8154816001600160a01b0302191690836001600160a01b031602179055508c6005815181106200062557fe5b6020026020010151600660006101000a8154816001600160a01b0302191690836001600160a01b031602179055508c6006815181106200066157fe5b6020026020010151600760006101000a8154816001600160a01b0302191690836001600160a01b031602179055508c6007815181106200069d57fe5b6020026020010151600860006101000a8154816001600160a01b0302191690836001600160a01b031602179055508c600881518110620006d957fe5b6020026020010151600360056101000a8154816001600160a01b0302191690836001600160a01b031602179055508c6009815181106200071557fe5b6020026020010151601160006101000a8154816001600160a01b0302191690836001600160a01b031602179055508c600a815181106200075157fe5b6020026020010151601960006101000a8154816001600160a01b0302191690836001600160a01b031602179055508c600b815181106200078d57fe5b6020026020010151601560006101000a8154816001600160a01b0302191690836001600160a01b031602179055508c600c81518110620007c957fe5b6020026020010151601660006101000a8154816001600160a01b0302191690836001600160a01b031602179055508c600d815181106200080557fe5b6020026020010151601760006101000a8154816001600160a01b0302191690836001600160a01b031602179055508c600e815181106200084157fe5b6020026020010151601860006101000a8154816001600160a01b0302191690836001600160a01b031602179055508c600f815181106200087d57fe5b6020026020010151601a60006101000a8154816001600160a01b0302191690836001600160a01b031602179055508c601081518110620008b957fe5b6020908102919091010151601b80546001600160a01b0319166001600160a01b0392831617905560048d9055600380546008546005546201000062ff0000199093169290921763ff00000019166301000000861515021761ff00191661010091851692851683149190910217909155600b546200093d928e928e9290911662000cbc565b6200098f576040805162461bcd60e51b815260206004820152601760248201527f696e76616c6964205f6561726e6564546f557050617468000000000000000000604482015290519081900360640190fd5b8a51620009a490601c9060208e019062000e1b565b508951620009ba90601d9060208d019062000e1b565b50600854600654620009dd918b918b916001600160a01b03908116911662000cbc565b62000a2f576040805162461bcd60e51b815260206004820152601b60248201527f696e76616c6964205f6561726e6564546f546f6b656e30506174680000000000604482015290519081900360640190fd5b885162000a4490601e9060208c019062000e1b565b50875162000a5a90601f9060208b019062000e1b565b506007546006546001600160a01b039081169116148062000a98575060085460075462000a9891899189916001600160a01b03908116911662000cbc565b62000aea576040805162461bcd60e51b815260206004820152601b60248201527f696e76616c6964205f6561726e6564546f546f6b656e31506174680000000000604482015290519081900360640190fd5b865162000afe90602090818a019062000e1b565b50855162000b1490602190602089019062000e1b565b506126ac84111562000b6d576040805162461bcd60e51b815260206004820152601360248201527f696e76616c6964206275796261636b5261746500000000000000000000000000604482015290519081900360640190fd5b6126ac85111562000bc5576040805162461bcd60e51b815260206004820152601560248201527f696e76616c696420636f6e74726f6c6c65724665650000000000000000000000604482015290519081900360640190fd5b612328831015801562000bda57506127108311155b62000c2c576040805162461bcd60e51b815260206004820152601360248201527f696e76616c696420656e7472616e636546656500000000000000000000000000604482015290519081900360640190fd5b612328821015801562000c4157506127108211155b62000c93576040805162461bcd60e51b815260206004820152601360248201527f696e76616c696420776974686472617746656500000000000000000000000000604482015290519081900360640190fd5b50601092909255600f929092556012919091556013555062000ea69650505050505050565b3390565b8351835160035460009291906301000000900460ff168062000cef5750836001600160a01b0316856001600160a01b0316145b1562000d0c578115801562000d02575080155b9250505062000e13565b6002821015801562000d445750846001600160a01b03168760008151811062000d3157fe5b60200260200101516001600160a01b0316145b801562000e0e57508015801562000d835750836001600160a01b031687600184038151811062000d7057fe5b60200260200101516001600160a01b0316145b8062000e0e57506002811015801562000dd957508560008151811062000da557fe5b60200260200101516001600160a01b031687600184038151811062000dc657fe5b60200260200101516001600160a01b0316145b801562000e0e5750836001600160a01b031686600183038151811062000dfb57fe5b60200260200101516001600160a01b0316145b925050505b949350505050565b82805482825590600052602060002090810192821562000e73579160200282015b8281111562000e7357825182546001600160a01b0319166001600160a01b0390911617825560209092019160019091019062000e3c565b5062000e8192915062000e85565b5090565b5b8082111562000e815780546001600160a01b031916815560010162000e86565b6156268062000eb66000396000f3fe60806040526004361061049e5760003560e01c806384fa32ac1161025e578063c0973eed11610143578063dc224863116100bb578063ee50dc341161008a578063f2f4eb261161006f578063f2f4eb2614610f73578063f2fde38b14610f88578063ffbd3b1f14610fbb576104a5565b8063ee50dc341461063e578063f106845414610f5e576104a5565b8063dc22486314610f0a578063e5dd455a14610f1f578063e719847414610f34578063e7a0367914610f49576104a5565b8063d1a94edc11610112578063d5b09163116100f7578063d5b0916314610ecb578063d7cb416f14610ee0578063db22e43a14610ef5576104a5565b8063d1a94edc14610d82578063d389800f14610eb6576104a5565b8063c0973eed14610d1d578063c302a4d014610a6a578063c6bb8e3614610d32578063cdf2098914610d6d576104a5565b8063a1a47d71116101d6578063b3545c01116101a5578063b74cd2421161018a578063b74cd24214610cde578063b83b54ca14610cf3578063bece4d7d14610d08576104a5565b8063b3545c0114610518578063b6b55f2514610cb4576104a5565b8063a1a47d711461063e578063a3d2855e14610b41578063aba6876314610c75578063b0fb2ce414610c8a576104a5565b80638a3e97051161022d5780639a246643116102125780639a24664314610b025780639fc33a9f14610b17578063a17f3d8114610b2c576104a5565b80638a3e970514610ab25780638da5cb5b14610aed576104a5565b806384fa32ac14610a1357806385f02dd614610a55578063866b201814610a6a5780638906758d14610a7f576104a5565b8063380eec2f1161038457806367206d40116102fc5780637ff36fbe116102cb5780638219425d116102b05780638219425d146109bf5780638456cb59146109e9578063846d9e17146109fe576104a5565b80637ff36fbe14610977578063800096301461098c576104a5565b806367206d40146108e057806368f54162146109235780636e965b5114610938578063715018a614610962576104a5565b80634d9f7bb2116103535780635d5ae284116103385780635d5ae2841461089857806363fe3e3a146108cb57806367057b6c1461063e576104a5565b80634d9f7bb21461063e5780635c975abb14610883576104a5565b8063380eec2f1461082f5780633f4ba83a1461084457806342da4eb31461085957806344a3955e1461086e576104a5565b806324893bd7116104175780632fce1cab116103e657806330e0045e116103cb57806330e0045e146107db57806335c7f1211461080557806336e9332d1461081a576104a5565b80632fce1cab1461067d57806330d15c65146106a7576104a5565b806324893bd7146105ff57806326a1ccad146106145780632717eff31461063e5780632e1a7d4d14610653576104a5565b80630daef3211161046e5780630fa4e01e116104535780630fa4e01e146105c05780631334903f146105d5578063178a8d07146105ea576104a5565b80630daef3211461056b5780630dbccf0f14610594576104a5565b80625e8e6b146104aa578063061bf643146104db578063061c7d48146105185780630b6bb30b1461053f576104a5565b366104a557005b600080fd5b3480156104b657600080fd5b506104bf610fd0565b604080516001600160a01b039092168252519081900360200190f35b3480156104e757600080fd5b50610516600480360360408110156104fe57600080fd5b506001600160a01b0381358116916020013516610fdf565b005b34801561052457600080fd5b5061052d611118565b60408051918252519081900360200190f35b34801561054b57600080fd5b506105166004803603602081101561056257600080fd5b5035151561111e565b34801561057757600080fd5b5061058061123f565b604080519115158252519081900360200190f35b3480156105a057600080fd5b50610516600480360360208110156105b757600080fd5b50351515611250565b3480156105cc57600080fd5b5061052d611370565b3480156105e157600080fd5b5061052d611376565b3480156105f657600080fd5b5061052d61137c565b34801561060b57600080fd5b506104bf611382565b34801561062057600080fd5b506104bf6004803603602081101561063757600080fd5b5035611391565b34801561064a57600080fd5b5061052d6113b8565b34801561065f57600080fd5b5061052d6004803603602081101561067657600080fd5b50356113be565b34801561068957600080fd5b506104bf600480360360208110156106a057600080fd5b503561170e565b3480156106b357600080fd5b50610516600480360360408110156106ca57600080fd5b8101906020810181356401000000008111156106e557600080fd5b8201836020820111156106f757600080fd5b8035906020019184602083028401116401000000008311171561071957600080fd5b919080806020026020016040519081016040528093929190818152602001838360200280828437600092019190915250929594936020810193503591505064010000000081111561076957600080fd5b82018360208201111561077b57600080fd5b8035906020019184602083028401116401000000008311171561079d57600080fd5b91908080602002602001604051908101604052809392919081815260200183836020028082843760009201919091525092955061171b945050505050565b3480156107e757600080fd5b506104bf600480360360208110156107fe57600080fd5b5035611925565b34801561081157600080fd5b506104bf611932565b34801561082657600080fd5b50610516611941565b34801561083b57600080fd5b506104bf611b82565b34801561085057600080fd5b50610516611b91565b34801561086557600080fd5b5061052d611c4d565b34801561087a57600080fd5b5061052d611c53565b34801561088f57600080fd5b50610580611c59565b3480156108a457600080fd5b50610516600480360360208110156108bb57600080fd5b50356001600160a01b0316611c7a565b3480156108d757600080fd5b506104bf611d98565b3480156108ec57600080fd5b506105166004803603606081101561090357600080fd5b506001600160a01b03813581169160208101359160409091013516611da7565b34801561092f57600080fd5b5061052d611f38565b34801561094457600080fd5b506104bf6004803603602081101561095b57600080fd5b5035611f3e565b34801561096e57600080fd5b50610516611f4b565b34801561098357600080fd5b506104bf612021565b34801561099857600080fd5b50610516600480360360208110156109af57600080fd5b50356001600160a01b0316612030565b3480156109cb57600080fd5b506104bf600480360360208110156109e257600080fd5b5035612144565b3480156109f557600080fd5b50610516612151565b348015610a0a57600080fd5b506105806122a2565b348015610a1f57600080fd5b50610516600480360360a0811015610a3657600080fd5b50803590602081013590604081013590606081013590608001356122ab565b348015610a6157600080fd5b5061052d61262c565b348015610a7657600080fd5b5061052d612632565b348015610a8b57600080fd5b5061051660048036036020811015610aa257600080fd5b50356001600160a01b0316612638565b348015610abe57600080fd5b5061051660048036036040811015610ad557600080fd5b506001600160a01b0381358116916020013516612756565b348015610af957600080fd5b506104bf61288f565b348015610b0e57600080fd5b5061058061289e565b348015610b2357600080fd5b506104bf6128ac565b348015610b3857600080fd5b506104bf6128c4565b348015610b4d57600080fd5b5061051660048036036040811015610b6457600080fd5b810190602081018135640100000000811115610b7f57600080fd5b820183602082011115610b9157600080fd5b80359060200191846020830284011164010000000083111715610bb357600080fd5b9190808060200260200160405190810160405280939291908181526020018383602002808284376000920191909152509295949360208101935035915050640100000000811115610c0357600080fd5b820183602082011115610c1557600080fd5b80359060200191846020830284011164010000000083111715610c3757600080fd5b9190808060200260200160405190810160405280939291908181526020018383602002808284376000920191909152509295506128d3945050505050565b348015610c8157600080fd5b506104bf612a9d565b348015610c9657600080fd5b506104bf60048036036020811015610cad57600080fd5b5035612aac565b348015610cc057600080fd5b5061052d60048036036020811015610cd757600080fd5b5035612ab9565b348015610cea57600080fd5b5061052d612e94565b348015610cff57600080fd5b506104bf612e9a565b348015610d1457600080fd5b506104bf612ea9565b348015610d2957600080fd5b506104bf612eb8565b348015610d3e57600080fd5b5061051660048036036040811015610d5557600080fd5b506001600160a01b0381358116916020013516612ec7565b348015610d7957600080fd5b506104bf613000565b348015610d8e57600080fd5b5061051660048036036040811015610da557600080fd5b810190602081018135640100000000811115610dc057600080fd5b820183602082011115610dd257600080fd5b80359060200191846020830284011164010000000083111715610df457600080fd5b9190808060200260200160405190810160405280939291908181526020018383602002808284376000920191909152509295949360208101935035915050640100000000811115610e4457600080fd5b820183602082011115610e5657600080fd5b80359060200191846020830284011164010000000083111715610e7857600080fd5b91908080602002602001604051908101604052809392919081815260200183836020028082843760009201919091525092955061300f945050505050565b348015610ec257600080fd5b506105166131c0565b348015610ed757600080fd5b50610516613c61565b348015610eec57600080fd5b506104bf613d1b565b348015610f0157600080fd5b50610580613d2a565b348015610f1657600080fd5b5061052d613d3a565b348015610f2b57600080fd5b50610580613d5e565b348015610f4057600080fd5b506104bf613d6d565b348015610f5557600080fd5b506104bf613d7c565b348015610f6a57600080fd5b5061052d613d8b565b348015610f7f57600080fd5b506104bf613d91565b348015610f9457600080fd5b5061051660048036036020811015610fab57600080fd5b50356001600160a01b0316613da0565b348015610fc757600080fd5b5061052d613ecc565b601b546001600160a01b031681565b60015460408051631c86b03760e31b815233600482015290516001600160a01b039092169163e43581b891602480820192602092909190829003018186803b15801561102a57600080fd5b505afa15801561103e573d6000803e3d6000fd5b505050506040513d602081101561105457600080fd5b50516110915760405162461bcd60e51b815260040180806020018281038252602f8152602001806154b0602f913960400191505060405180910390fd5b601a80546001600160a01b038085167fffffffffffffffffffffffff00000000000000000000000000000000000000009283168117909355601b805491851691909216811790915560408051928352602083019190915280517f071b73faa021635fad0a92808ae9c59c365befd74127681dfdf2123f3e71553e9281900390910190a15050565b6126ac81565b60015460408051631c86b03760e31b815233600482015290516001600160a01b039092169163e43581b891602480820192602092909190829003018186803b15801561116957600080fd5b505afa15801561117d573d6000803e3d6000fd5b505050506040513d602081101561119357600080fd5b50516111d05760405162461bcd60e51b815260040180806020018281038252602f8152602001806154b0602f913960400191505060405180910390fd5b6003805482151564010000000081027fffffffffffffffffffffffffffffffffffffffffffffffffffffff00ffffffff9092169190911790915560408051918252517f125177ac7b8930dac1e59c2b30b1b6b9191b30af40cf6bbb5d20fec4d44be60f9181900360200190a150565b600354640100000000900460ff1681565b60015460408051631c86b03760e31b815233600482015290516001600160a01b039092169163e43581b891602480820192602092909190829003018186803b15801561129b57600080fd5b505afa1580156112af573d6000803e3d6000fd5b505050506040513d60208110156112c557600080fd5b50516113025760405162461bcd60e51b815260040180806020018281038252602f8152602001806154b0602f913960400191505060405180910390fd5b60038054821515630100000081027fffffffffffffffffffffffffffffffffffffffffffffffffffffffff00ffffff9092169190911790915560408051918252517f11eebf9ecfc205a1581472f52a6942317b4b052652b7d159c5a991b1caf9553f9181900360200190a150565b600c5481565b60125481565b60105481565b601a546001600160a01b031681565b601c818154811061139e57fe5b6000918252602090912001546001600160a01b0316905081565b61271081565b60006113c8613ed2565b6001600160a01b03166113d961288f565b6001600160a01b031614611434576040805162461bcd60e51b815260206004820181905260248201527f4f776e61626c653a2063616c6c6572206973206e6f7420746865206f776e6572604482015290519081900360640190fd5b60028054141561148b576040805162461bcd60e51b815260206004820152601f60248201527f5265656e7472616e637947756172643a207265656e7472616e742063616c6c00604482015290519081900360640190fd5b60028055816114e1576040805162461bcd60e51b815260206004820152600d60248201527f5f77616e74416d74203c3d203000000000000000000000000000000000000000604482015290519081900360640190fd5b6000611504600d546114fe600e5486613ed690919063ffffffff16565b90613f38565b90506000811161155b576040805162461bcd60e51b815260206004820152601260248201527f73686172657352656d6f766564203c3d20300000000000000000000000000000604482015290519081900360640190fd5b600e5481111561156a5750600e545b600e546115779082613f9f565b600e5560135461271011156115a4576115a16127106114fe60135486613ed690919063ffffffff16565b92505b60035462010000900460ff16156115be576115be83613ffc565b600554604080517f70a0823100000000000000000000000000000000000000000000000000000000815230600482015290516000926001600160a01b0316916370a08231916024808301926020929190829003018186803b15801561162257600080fd5b505afa158015611636573d6000803e3d6000fd5b505050506040513d602081101561164c57600080fd5b505190508084111561165c578093505b83600d54101561166c57600d5493505b600d546116799085613f9f565b600d55600a54600554611699916001600160a01b0391821691168661407c565b60035462010000900460ff1680156116ba57506003546301000000900460ff165b156116c7576116c76140fc565b604080513381526020810186905281517f884edad9ce6fa2440d8a54cc123490eb96d2768479d49ff9c7366125a9424364929181900390910190a150600160025592915050565b6020818154811061139e57fe5b60015460408051631c86b03760e31b815233600482015290516001600160a01b039092169163e43581b891602480820192602092909190829003018186803b15801561176657600080fd5b505afa15801561177a573d6000803e3d6000fd5b505050506040513d602081101561179057600080fd5b50516117cd5760405162461bcd60e51b815260040180806020018281038252602f8152602001806154b0602f913960400191505060405180910390fd5b600854600b546117ed91849184916001600160a01b0390811691166141ed565b61183e576040805162461bcd60e51b815260206004820152601760248201527f696e76616c6964205f6561726e6564546f557050617468000000000000000000604482015290519081900360640190fd5b815161185190601c9060208501906153d5565b50805161186590601d9060208401906153d5565b507fe96d7b34c373d3a3ec2babcc077062bf437a26d39643ab5fd97764cc54a4212f8282604051808060200180602001838103835285818151815260200191508051906020019060200280838360005b838110156118cd5781810151838201526020016118b5565b50505050905001838103825284818151815260200191508051906020019060200280838360005b8381101561190c5781810151838201526020016118f4565b5050505090500194505050505060405180910390a15050565b601d818154811061139e57fe5b600a546001600160a01b031681565b60015460408051631c86b03760e31b815233600482015290516001600160a01b039092169163e43581b891602480820192602092909190829003018186803b15801561198c57600080fd5b505afa1580156119a0573d6000803e3d6000fd5b505050506040513d60208110156119b657600080fd5b505180611a4f5750600154604080517f0c68ba2100000000000000000000000000000000000000000000000000000000815233600482015290516001600160a01b0390921691630c68ba2191602480820192602092909190829003018186803b158015611a2257600080fd5b505afa158015611a36573d6000803e3d6000fd5b505050506040513d6020811015611a4c57600080fd5b50515b611a8a5760405162461bcd60e51b815260040180806020018281038252604581526020018061554c6045913960600191505060405180910390fd5b600280541415611ae1576040805162461bcd60e51b815260206004820152601f60248201527f5265656e7472616e637947756172643a207265656e7472616e742063616c6c00604482015290519081900360640190fd5b60028055600554604080517f70a082310000000000000000000000000000000000000000000000000000000081523060048201529051611b7b926001600160a01b0316916370a08231916024808301926020929190829003018186803b158015611b4a57600080fd5b505afa158015611b5e573d6000803e3d6000fd5b505050506040513d6020811015611b7457600080fd5b505161433d565b6001600255565b600b546001600160a01b031681565b60015460408051631c86b03760e31b815233600482015290516001600160a01b039092169163e43581b891602480820192602092909190829003018186803b158015611bdc57600080fd5b505afa158015611bf0573d6000803e3d6000fd5b505050506040513d6020811015611c0657600080fd5b5051611c435760405162461bcd60e51b815260040180806020018281038252602f8152602001806154b0602f913960400191505060405180910390fd5b611c4b6143d9565b565b600d5481565b600e5481565b60005474010000000000000000000000000000000000000000900460ff1690565b60015460408051631c86b03760e31b815233600482015290516001600160a01b039092169163e43581b891602480820192602092909190829003018186803b158015611cc557600080fd5b505afa158015611cd9573d6000803e3d6000fd5b505050506040513d6020811015611cef57600080fd5b5051611d2c5760405162461bcd60e51b815260040180806020018281038252602f8152602001806154b0602f913960400191505060405180910390fd5b601980546001600160a01b0383167fffffffffffffffffffffffff0000000000000000000000000000000000000000909116811790915560408051918252517f42d7ec3cae52221425bb6589ab144941ed3874dda5bcb98099ddc59ff3e50c9d9181900360200190a150565b6009546001600160a01b031681565b60015460408051631c86b03760e31b815233600482015290516001600160a01b039092169163e43581b891602480820192602092909190829003018186803b158015611df257600080fd5b505afa158015611e06573d6000803e3d6000fd5b505050506040513d6020811015611e1c57600080fd5b5051611e595760405162461bcd60e51b815260040180806020018281038252602f8152602001806154b0602f913960400191505060405180910390fd5b6008546001600160a01b0384811691161415611ebc576040805162461bcd60e51b815260206004820152600560248201527f2173616665000000000000000000000000000000000000000000000000000000604482015290519081900360640190fd5b6005546001600160a01b0384811691161415611f1f576040805162461bcd60e51b815260206004820152600560248201527f2173616665000000000000000000000000000000000000000000000000000000604482015290519081900360640190fd5b611f336001600160a01b038416828461407c565b505050565b60135481565b601f818154811061139e57fe5b611f53613ed2565b6001600160a01b0316611f6461288f565b6001600160a01b031614611fbf576040805162461bcd60e51b815260206004820181905260248201527f4f776e61626c653a2063616c6c6572206973206e6f7420746865206f776e6572604482015290519081900360640190fd5b600080546040516001600160a01b03909116907f8be0079c531659141344cd1fd0a4f28419497f9722a3daafe3b4186f6b6457e0908390a3600080547fffffffffffffffffffffffff0000000000000000000000000000000000000000169055565b6006546001600160a01b031681565b60015460408051631c86b03760e31b815233600482015290516001600160a01b039092169163e43581b891602480820192602092909190829003018186803b15801561207b57600080fd5b505afa15801561208f573d6000803e3d6000fd5b505050506040513d60208110156120a557600080fd5b50516120e25760405162461bcd60e51b815260040180806020018281038252602f8152602001806154b0602f913960400191505060405180910390fd5b600180547fffffffffffffffffffffffff0000000000000000000000000000000000000000166001600160a01b0383169081179091556040517fad9400e618eb1344fde53db22397a1b82c765527ecbba3a5c86bcac15090828b90600090a250565b6021818154811061139e57fe5b60015460408051631c86b03760e31b815233600482015290516001600160a01b039092169163e43581b891602480820192602092909190829003018186803b15801561219c57600080fd5b505afa1580156121b0573d6000803e3d6000fd5b505050506040513d60208110156121c657600080fd5b50518061225f5750600154604080517f0c68ba2100000000000000000000000000000000000000000000000000000000815233600482015290516001600160a01b0390921691630c68ba2191602480820192602092909190829003018186803b15801561223257600080fd5b505afa158015612246573d6000803e3d6000fd5b505050506040513d602081101561225c57600080fd5b50515b61229a5760405162461bcd60e51b815260040180806020018281038252604581526020018061554c6045913960600191505060405180910390fd5b611c4b6144a0565b60035460ff1681565b60015460408051631c86b03760e31b815233600482015290516001600160a01b039092169163e43581b891602480820192602092909190829003018186803b1580156122f657600080fd5b505afa15801561230a573d6000803e3d6000fd5b505050506040513d602081101561232057600080fd5b505161235d5760405162461bcd60e51b815260040180806020018281038252602f8152602001806154b0602f913960400191505060405180910390fd5b6123288510156123b4576040805162461bcd60e51b815260206004820152601a60248201527f5f656e7472616e6365466565466163746f7220746f6f206c6f77000000000000604482015290519081900360640190fd5b61271085111561240b576040805162461bcd60e51b815260206004820152601b60248201527f5f656e7472616e6365466565466163746f7220746f6f20686967680000000000604482015290519081900360640190fd5b6012859055612328841015612467576040805162461bcd60e51b815260206004820152601a60248201527f5f7769746864726177466565466163746f7220746f6f206c6f77000000000000604482015290519081900360640190fd5b6127108411156124be576040805162461bcd60e51b815260206004820152601b60248201527f5f7769746864726177466565466163746f7220746f6f20686967680000000000604482015290519081900360640190fd5b60138490556126ac83111561251a576040805162461bcd60e51b815260206004820152601760248201527f5f636f6e74726f6c6c657246656520746f6f2068696768000000000000000000604482015290519081900360640190fd5b600f8390556126ac821115612576576040805162461bcd60e51b815260206004820152601560248201527f5f6275794261636b5261746520746f6f20686967680000000000000000000000604482015290519081900360640190fd5b60108290556103e78111156125d2576040805162461bcd60e51b815260206004820152601860248201527f5f736c697070616765466163746f7220746f6f20686967680000000000000000604482015290519081900360640190fd5b60148190556040805186815260208101869052808201859052606081018490526080810183905290517fc67e0b149a57a70fa44a531a46c2c6d8e0b242fa12f459f250012c3a5987d29a9181900360a00190a15050505050565b600f5481565b61232881565b60015460408051631c86b03760e31b815233600482015290516001600160a01b039092169163e43581b891602480820192602092909190829003018186803b15801561268357600080fd5b505afa158015612697573d6000803e3d6000fd5b505050506040513d60208110156126ad57600080fd5b50516126ea5760405162461bcd60e51b815260040180806020018281038252602f8152602001806154b0602f913960400191505060405180910390fd5b601180546001600160a01b0383167fffffffffffffffffffffffff0000000000000000000000000000000000000000909116811790915560408051918252517fa69f1931be99336e049905baa11d21ed44204d7686e46b4344404d80d47c29889181900360200190a150565b60015460408051631c86b03760e31b815233600482015290516001600160a01b039092169163e43581b891602480820192602092909190829003018186803b1580156127a157600080fd5b505afa1580156127b5573d6000803e3d6000fd5b505050506040513d60208110156127cb57600080fd5b50516128085760405162461bcd60e51b815260040180806020018281038252602f8152602001806154b0602f913960400191505060405180910390fd5b601780546001600160a01b038085167fffffffffffffffffffffffff000000000000000000000000000000000000000092831681179093556018805491851691909216811790915560408051928352602083019190915280517f0b862f0e5cb2c8acd447c3c04b7637f5ac576983fd7ecf72fe3529636483cf309281900390910190a15050565b6000546001600160a01b031690565b600354610100900460ff1681565b6003546501000000000090046001600160a01b031681565b6017546001600160a01b031681565b60015460408051631c86b03760e31b815233600482015290516001600160a01b039092169163e43581b891602480820192602092909190829003018186803b15801561291e57600080fd5b505afa158015612932573d6000803e3d6000fd5b505050506040513d602081101561294857600080fd5b50516129855760405162461bcd60e51b815260040180806020018281038252602f8152602001806154b0602f913960400191505060405180910390fd5b6007546006546001600160a01b03908116911614806129bf57506008546007546129bf91849184916001600160a01b0390811691166141ed565b612a10576040805162461bcd60e51b815260206004820152601b60248201527f696e76616c6964205f6561726e6564546f546f6b656e31506174680000000000604482015290519081900360640190fd5b8151612a2290602090818501906153d5565b508051612a369060219060208401906153d5565b507f903fe96a5723b5e127a99e44f9675f8c21700bc9230aefd5e2936506417029c9828260405180806020018060200183810383528581815181526020019150805190602001906020028083836000838110156118cd5781810151838201526020016118b5565b6018546001600160a01b031681565b601e818154811061139e57fe5b6000612ac3613ed2565b6001600160a01b0316612ad461288f565b6001600160a01b031614612b2f576040805162461bcd60e51b815260206004820181905260248201527f4f776e61626c653a2063616c6c6572206973206e6f7420746865206f776e6572604482015290519081900360640190fd5b600280541415612b86576040805162461bcd60e51b815260206004820152601f60248201527f5265656e7472616e637947756172643a207265656e7472616e742063616c6c00604482015290519081900360640190fd5b60028055612b92611c59565b15612be4576040805162461bcd60e51b815260206004820152601060248201527f5061757361626c653a2070617573656400000000000000000000000000000000604482015290519081900360640190fd5b600e5415801580612bf6575061271083115b612c315760405162461bcd60e51b81526004018080602001828103825260268152602001806154df6026913960400191505060405180910390fd5b600554604080517f70a0823100000000000000000000000000000000000000000000000000000000815230600482015290516000926001600160a01b0316916370a08231916024808301926020929190829003018186803b158015612c9557600080fd5b505afa158015612ca9573d6000803e3d6000fd5b505050506040513d6020811015612cbf57600080fd5b5051600554909150612cdc906001600160a01b0316333087614562565b600554604080517f70a0823100000000000000000000000000000000000000000000000000000000815230600482015290516000926001600160a01b0316916370a08231916024808301926020929190829003018186803b158015612d4057600080fd5b505afa158015612d54573d6000803e3d6000fd5b505050506040513d6020811015612d6a57600080fd5b505190506000612d7a8284613f9f565b600d54909150819015801590612d9257506000600e54115b15612dc757612dc46127106114fe600d546114fe601254612dbe600e5489613ed690919063ffffffff16565b90613ed6565b90505b600e54612dd490826145f0565b600e5560035462010000900460ff1615612df657612df18261433d565b612e07565b600d54612e0390836145f0565b600d555b8415612e1c57612e1981612710613f9f565b90505b60035462010000900460ff168015612e3d57506003546301000000900460ff165b15612e4a57612e4a6140fc565b604080513381526020810184905281517fe1fffcc4923d04b559f4d29a8bfc6cda04eb5b0d3c460751c2402c5c5cc9109c929181900390910190a160016002559695505050505050565b6103e781565b6016546001600160a01b031681565b6015546001600160a01b031681565b6011546001600160a01b031681565b60015460408051631c86b03760e31b815233600482015290516001600160a01b039092169163e43581b891602480820192602092909190829003018186803b158015612f1257600080fd5b505afa158015612f26573d6000803e3d6000fd5b505050506040513d6020811015612f3c57600080fd5b5051612f795760405162461bcd60e51b815260040180806020018281038252602f8152602001806154b0602f913960400191505060405180910390fd5b601580546001600160a01b038085167fffffffffffffffffffffffff000000000000000000000000000000000000000092831681179093556016805491851691909216811790915560408051928352602083019190915280517f5bc08486dd6c0ecfe4a1bed664ce71864f8a67d5eb593593c5baf1049c7a7aa29281900390910190a15050565b6019546001600160a01b031681565b60015460408051631c86b03760e31b815233600482015290516001600160a01b039092169163e43581b891602480820192602092909190829003018186803b15801561305a57600080fd5b505afa15801561306e573d6000803e3d6000fd5b505050506040513d602081101561308457600080fd5b50516130c15760405162461bcd60e51b815260040180806020018281038252602f8152602001806154b0602f913960400191505060405180910390fd5b6008546006546130e191849184916001600160a01b0390811691166141ed565b613132576040805162461bcd60e51b815260206004820152601b60248201527f696e76616c6964205f6561726e6564546f546f6b656e30506174680000000000604482015290519081900360640190fd5b815161314590601e9060208501906153d5565b50805161315990601f9060208401906153d5565b507f5e791c36fb57fdae3adf1327b54fb3cf83c09aaafa093790a99dbb1be6ac1672828260405180806020018060200183810383528581815181526020019150805190602001906020028083836000838110156118cd5781810151838201526020016118b5565b600280541415613217576040805162461bcd60e51b815260206004820152601f60248201527f5265656e7472616e637947756172643a207265656e7472616e742063616c6c00604482015290519081900360640190fd5b60028055613223611c59565b15613275576040805162461bcd60e51b815260206004820152601060248201527f5061757361626c653a2070617573656400000000000000000000000000000000604482015290519081900360640190fd5b60035462010000900460ff166132d2576040805162461bcd60e51b815260206004820152600b60248201527f2169734175746f436f6d70000000000000000000000000000000000000000000604482015290519081900360640190fd5b600354640100000000900460ff16158061336857506132ef613d91565b6001600160a01b031663e43581b8336040518263ffffffff1660e01b815260040180826001600160a01b0316815260200191505060206040518083038186803b15801561333b57600080fd5b505afa15801561334f573d6000803e3d6000fd5b505050506040513d602081101561336557600080fd5b50515b806133ef5750613376613d91565b6001600160a01b0316630c68ba21336040518263ffffffff1660e01b815260040180826001600160a01b0316815260200191505060206040518083038186803b1580156133c257600080fd5b505afa1580156133d6573d6000803e3d6000fd5b505050506040513d60208110156133ec57600080fd5b50515b613442576040805162461bcd60e51b8152602060048083019190915260248201527f21676f7600000000000000000000000000000000000000000000000000000000604482015290519081900360640190fd5b61344a61464a565b6003546301000000900460ff161561346d576134646140fc565b43600c55611b7b565b6009546008546001600160a01b039081169116141561348e5761348e614654565b600854604080517f70a0823100000000000000000000000000000000000000000000000000000000815230600482015290516000926001600160a01b0316916370a08231916024808301926020929190829003018186803b1580156134f257600080fd5b505afa158015613506573d6000803e3d6000fd5b505050506040513d602081101561351c57600080fd5b50519050613529816146c7565b90506135348161472a565b60035490915060ff168061354f5750600354610100900460ff165b156135c35743600c55600554604080517f70a0823100000000000000000000000000000000000000000000000000000000815230600482015290516135bd926001600160a01b0316916370a08231916024808301926020929190829003018186803b158015611b4a57600080fd5b50611b7b565b6007546006546001600160a01b039081169116141561370b576015546008546135fa916001600160a01b0391821691166000614a5d565b601554600854613617916001600160a01b03918216911683614bb7565b601554601654601454601e805460408051602080840282018101909252828152613706966001600160a01b0390811696169488949093919290919083018282801561368b57602002820191906000526020600020905b81546001600160a01b0316815260019091019060200180831161366d575b5050505050601f8054806020026020016040519081016040528092919081815260200182805480156136e657602002820191906000526020600020905b81546001600160a01b031681526001909101906020018083116136c8575b505050505030613701610258426145f090919063ffffffff16565b614cd0565b613bf0565b6006546008546001600160a01b0390811691161461385c57601554600854613741916001600160a01b0391821691166000614a5d565b60155461376f906001600160a01b031661375c836002613f38565b6008546001600160a01b03169190614bb7565b60155460165461385c916001600160a01b039081169116613791846002613f38565b601454601e80548060200260200160405190810160405280929190818152602001828054801561368b576020028201919060005260206000209081546001600160a01b0316815260019091019060200180831161366d575050505050601f8054806020026020016040519081016040528092919081815260200182805480156136e6576020028201919060005260206000209081546001600160a01b031681526001909101906020018083116136c857505050505030613701610258426145f090919063ffffffff16565b6007546008546001600160a01b0390811691161461399757601754600854613892916001600160a01b0391821691166000614a5d565b6017546138ad906001600160a01b031661375c836002613f38565b601754601854613997916001600160a01b0390811691166138cf846002613f38565b60145460208054604080518284028101840190915281815291908282018282801561392357602002820191906000526020600020905b81546001600160a01b03168152600190910190602001808311613905575b505050505060218054806020026020016040519081016040528092919081815260200182805480156136e6576020028201919060005260206000209081546001600160a01b031681526001909101906020018083116136c857505050505030613701610258426145f090919063ffffffff16565b600654604080517f70a0823100000000000000000000000000000000000000000000000000000000815230600482015290516000926001600160a01b0316916370a08231916024808301926020929190829003018186803b1580156139fb57600080fd5b505afa158015613a0f573d6000803e3d6000fd5b505050506040513d6020811015613a2557600080fd5b5051600754604080517f70a0823100000000000000000000000000000000000000000000000000000000815230600482015290519293506000926001600160a01b03909216916370a0823191602480820192602092909190829003018186803b158015613a9157600080fd5b505afa158015613aa5573d6000803e3d6000fd5b505050506040513d6020811015613abb57600080fd5b505190508115801590613ace5750600081115b15613bed57601954600654613af0916001600160a01b03918216911684614bb7565b601954600754613b0d916001600160a01b03918216911683614bb7565b6019546006546007546001600160a01b039283169263e8e337009281169116858560008030613b3e426102586145f0565b6040518963ffffffff1660e01b815260040180896001600160a01b03168152602001886001600160a01b03168152602001878152602001868152602001858152602001848152602001836001600160a01b0316815260200182815260200198505050505050505050606060405180830381600087803b158015613bc057600080fd5b505af1158015613bd4573d6000803e3d6000fd5b505050506040513d6060811015613bea57600080fd5b50505b50505b43600c55600554604080517f70a082310000000000000000000000000000000000000000000000000000000081523060048201529051613c59926001600160a01b0316916370a08231916024808301926020929190829003018186803b158015611b4a57600080fd5b506001600255565b60015460408051631c86b03760e31b815233600482015290516001600160a01b039092169163e43581b891602480820192602092909190829003018186803b158015613cac57600080fd5b505afa158015613cc0573d6000803e3d6000fd5b505050506040513d6020811015613cd657600080fd5b5051613d135760405162461bcd60e51b815260040180806020018281038252602f8152602001806154b0602f913960400191505060405180910390fd5b611c4b614654565b6007546001600160a01b031681565b6003546301000000900460ff1681565b7f8b8c0776df2c2176edf6f82391c35ea4891146d7a976ee36fd07f1a6fb4ead4c81565b60035462010000900460ff1681565b6008546001600160a01b031681565b6005546001600160a01b031681565b60045481565b6001546001600160a01b031690565b613da8613ed2565b6001600160a01b0316613db961288f565b6001600160a01b031614613e14576040805162461bcd60e51b815260206004820181905260248201527f4f776e61626c653a2063616c6c6572206973206e6f7420746865206f776e6572604482015290519081900360640190fd5b6001600160a01b038116613e595760405162461bcd60e51b815260040180806020018281038252602681526020018061548a6026913960400191505060405180910390fd5b600080546040516001600160a01b03808516939216917f8be0079c531659141344cd1fd0a4f28419497f9722a3daafe3b4186f6b6457e091a3600080547fffffffffffffffffffffffff0000000000000000000000000000000000000000166001600160a01b0392909216919091179055565b60145481565b3390565b600082613ee557506000613f32565b82820282848281613ef257fe5b0414613f2f5760405162461bcd60e51b815260040180806020018281038252602181526020018061552b6021913960400191505060405180910390fd5b90505b92915050565b6000808211613f8e576040805162461bcd60e51b815260206004820152601a60248201527f536166654d6174683a206469766973696f6e206279207a65726f000000000000604482015290519081900360640190fd5b818381613f9757fe5b049392505050565b600082821115613ff6576040805162461bcd60e51b815260206004820152601e60248201527f536166654d6174683a207375627472616374696f6e206f766572666c6f770000604482015290519081900360640190fd5b50900390565b600360059054906101000a90046001600160a01b03166001600160a01b031663441a3e70600454836040518363ffffffff1660e01b81526004018083815260200182815260200192505050600060405180830381600087803b15801561406157600080fd5b505af1158015614075573d6000803e3d6000fd5b5050505050565b604080516001600160a01b038416602482015260448082018490528251808303909101815260649091019091526020810180517bffffffffffffffffffffffffffffffffffffffffffffffffffffffff167fa9059cbb00000000000000000000000000000000000000000000000000000000179052611f33908490614d0b565b6009546008546001600160a01b039081169116141561411d5761411d614654565b600854604080517f70a0823100000000000000000000000000000000000000000000000000000000815230600482015290516000926001600160a01b0316916370a08231916024808301926020929190829003018186803b15801561418157600080fd5b505afa158015614195573d6000803e3d6000fd5b505050506040513d60208110156141ab57600080fd5b5051905080158015906141c857506011546001600160a01b031615155b156141ea576011546008546141ea916001600160a01b0391821691168361407c565b50565b8351835160035460009291906301000000900460ff168061421f5750836001600160a01b0316856001600160a01b0316145b156142395781158015614230575080155b92505050614335565b6002821015801561426f5750846001600160a01b03168760008151811061425c57fe5b60200260200101516001600160a01b0316145b80156143305750801580156142ab5750836001600160a01b031687600184038151811061429857fe5b60200260200101516001600160a01b0316145b806143305750600281101580156142fd5750856000815181106142ca57fe5b60200260200101516001600160a01b03168760018403815181106142ea57fe5b60200260200101516001600160a01b0316145b80156143305750836001600160a01b031686600183038151811061431d57fe5b60200260200101516001600160a01b0316145b925050505b949350505050565b600d5461434a90826145f0565b600d55600354600554614374916001600160a01b0391821691650100000000009091041683614bb7565b600360059054906101000a90046001600160a01b03166001600160a01b031663e2bbb158600454836040518363ffffffff1660e01b81526004018083815260200182815260200192505050600060405180830381600087803b15801561406157600080fd5b6143e1611c59565b614432576040805162461bcd60e51b815260206004820152601460248201527f5061757361626c653a206e6f7420706175736564000000000000000000000000604482015290519081900360640190fd5b600080547fffffffffffffffffffffff00ffffffffffffffffffffffffffffffffffffffff1690557f5db9ee0a495bf2e6ff9c91a7834c1ba4fdd244a5e8aa4e537bd38aeae4b073aa614483613ed2565b604080516001600160a01b039092168252519081900360200190a1565b6144a8611c59565b156144fa576040805162461bcd60e51b815260206004820152601060248201527f5061757361626c653a2070617573656400000000000000000000000000000000604482015290519081900360640190fd5b600080547fffffffffffffffffffffff00ffffffffffffffffffffffffffffffffffffffff16740100000000000000000000000000000000000000001790557f62e78cea01bee320cd4e420270b5ea74000d11b0c9f74754ebdbfc544b05a258614483613ed2565b604080516001600160a01b0380861660248301528416604482015260648082018490528251808303909101815260849091019091526020810180517bffffffffffffffffffffffffffffffffffffffffffffffffffffffff167f23b872dd000000000000000000000000000000000000000000000000000000001790526145ea908590614d0b565b50505050565b600082820183811015613f2f576040805162461bcd60e51b815260206004820152601b60248201527f536166654d6174683a206164646974696f6e206f766572666c6f770000000000604482015290519081900360640190fd5b611c4b6000613ffc565b4780156141ea57600960009054906101000a90046001600160a01b03166001600160a01b031663d0e30db0826040518263ffffffff1660e01b81526004016000604051808303818588803b1580156146ab57600080fd5b505af11580156146bf573d6000803e3d6000fd5b505050505050565b6000811561472257600f54156147225760006146f46127106114fe600f5486613ed690919063ffffffff16565b601154600854919250614714916001600160a01b0390811691168361407c565b61471e8382613f9f565b9250505b50805b919050565b6000806010541161473c575080614725565b60006147596127106114fe60105486613ed690919063ffffffff16565b600b5460085491925082916001600160a01b039081169116146149cc57601a54600854614794916001600160a01b0391821691166000614a5d565b601a546008546147b1916001600160a01b03918216911684614bb7565b600b54604080517f70a0823100000000000000000000000000000000000000000000000000000000815230600482015290516000926001600160a01b0316916370a08231916024808301926020929190829003018186803b15801561481557600080fd5b505afa158015614829573d6000803e3d6000fd5b505050506040513d602081101561483f57600080fd5b5051601a54601b54601454601c80546040805160208084028201810190925282815296975061492c966001600160a01b0396871696909516948a9493909290918301828280156148b857602002820191906000526020600020905b81546001600160a01b0316815260019091019060200180831161489a575b5050505050601d8054806020026020016040519081016040528092919081815260200182805480156136e6576020028201919060005260206000209081546001600160a01b031681526001909101906020018083116136c857505050505030613701610258426145f090919063ffffffff16565b600b54604080517f70a0823100000000000000000000000000000000000000000000000000000000815230600482015290516149c89284926001600160a01b03909116916370a0823191602480820192602092909190829003018186803b15801561499657600080fd5b505afa1580156149aa573d6000803e3d6000fd5b505050506040513d60208110156149c057600080fd5b505190613f9f565b9150505b600b54604080517f42966c680000000000000000000000000000000000000000000000000000000081526004810184905290516001600160a01b03909216916342966c689160248082019260009290919082900301818387803b158015614a3257600080fd5b505af1158015614a46573d6000803e3d6000fd5b505050506143358285613f9f90919063ffffffff16565b801580614afc5750604080517fdd62ed3e0000000000000000000000000000000000000000000000000000000081523060048201526001600160a01b03848116602483015291519185169163dd62ed3e91604480820192602092909190829003018186803b158015614ace57600080fd5b505afa158015614ae2573d6000803e3d6000fd5b505050506040513d6020811015614af857600080fd5b5051155b614b375760405162461bcd60e51b81526004018080602001828103825260368152602001806155bb6036913960400191505060405180910390fd5b604080516001600160a01b038416602482015260448082018490528251808303909101815260649091019091526020810180517bffffffffffffffffffffffffffffffffffffffffffffffffffffffff167f095ea7b300000000000000000000000000000000000000000000000000000000179052611f33908490614d0b565b6000614c4d82856001600160a01b031663dd62ed3e30876040518363ffffffff1660e01b815260040180836001600160a01b03168152602001826001600160a01b031681526020019250505060206040518083038186803b158015614c1b57600080fd5b505afa158015614c2f573d6000803e3d6000fd5b505050506040513d6020811015614c4557600080fd5b5051906145f0565b604080516001600160a01b038616602482015260448082018490528251808303909101815260649091019091526020810180517bffffffffffffffffffffffffffffffffffffffffffffffffffffffff167f095ea7b3000000000000000000000000000000000000000000000000000000001790529091506145ea908590614d0b565b6001600160a01b038716614cf157614cec888787878686614dbc565b614d01565b614d01888888888888888861505d565b5050505050505050565b6060614d60826040518060400160405280602081526020017f5361666545524332303a206c6f772d6c6576656c2063616c6c206661696c6564815250856001600160a01b03166151a39092919063ffffffff16565b805190915015611f3357808060200190516020811015614d7f57600080fd5b5051611f335760405162461bcd60e51b815260040180806020018281038252602a815260200180615591602a913960400191505060405180910390fd5b604080517fd06ca61f00000000000000000000000000000000000000000000000000000000815260048101878152602482019283528551604483015285516060936001600160a01b038b169363d06ca61f938b938a939192606401906020808601910280838360005b83811015614e3d578181015183820152602001614e25565b50505050905001935050505060006040518083038186803b158015614e6157600080fd5b505afa158015614e75573d6000803e3d6000fd5b505050506040513d6000823e601f3d9081017fffffffffffffffffffffffffffffffffffffffffffffffffffffffffffffffe01682016040526020811015614ebc57600080fd5b8101908080516040519392919084640100000000821115614edc57600080fd5b908301906020820185811115614ef157600080fd5b8251866020820283011164010000000082111715614f0e57600080fd5b82525081516020918201928201910280838360005b83811015614f3b578181015183820152602001614f23565b505050509050016040525050509050600081614f6260018451613f9f90919063ffffffff16565b81518110614f6c57fe5b60200260200101519050876001600160a01b0316635c11d79588614f9f6103e86114fe8b87613ed690919063ffffffff16565b8888886040518663ffffffff1660e01b81526004018086815260200185815260200180602001846001600160a01b03168152602001838152602001828103825285818151815260200191508051906020019060200280838360005b83811015615012578181015183820152602001614ffa565b505050509050019650505050505050600060405180830381600087803b15801561503b57600080fd5b505af115801561504f573d6000803e3d6000fd5b505050505050505050505050565b60008460018651038151811061506f57fe5b602002602001015190506000816001600160a01b03166370a08231306040518263ffffffff1660e01b815260040180826001600160a01b0316815260200191505060206040518083038186803b1580156150c857600080fd5b505afa1580156150dc573d6000803e3d6000fd5b505050506040513d60208110156150f257600080fd5b505190506151048a8989893088614dbc565b600061515782846001600160a01b03166370a08231306040518263ffffffff1660e01b815260040180826001600160a01b0316815260200191505060206040518083038186803b15801561499657600080fd5b90508015615196576151746001600160a01b0384168b6000614a5d565b6151886001600160a01b0384168b83614bb7565b6151968a828a898989614dbc565b5050505050505050505050565b60606151b284846000856151bc565b90505b9392505050565b6060824710156151fd5760405162461bcd60e51b81526004018080602001828103825260268152602001806155056026913960400191505060405180910390fd5b6152068561532b565b615257576040805162461bcd60e51b815260206004820152601d60248201527f416464726573733a2063616c6c20746f206e6f6e2d636f6e7472616374000000604482015290519081900360640190fd5b60006060866001600160a01b031685876040518082805190602001908083835b602083106152b457805182527fffffffffffffffffffffffffffffffffffffffffffffffffffffffffffffffe09092019160209182019101615277565b6001836020036101000a03801982511681845116808217855250505050505090500191505060006040518083038185875af1925050503d8060008114615316576040519150601f19603f3d011682016040523d82523d6000602084013e61531b565b606091505b5091509150614330828286615331565b3b151590565b606083156153405750816151b5565b8251156153505782518084602001fd5b8160405162461bcd60e51b81526004018080602001828103825283818151815260200191508051906020019080838360005b8381101561539a578181015183820152602001615382565b50505050905090810190601f1680156153c75780820380516001836020036101000a031916815260200191505b509250505060405180910390fd5b828054828255906000526020600020908101928215615442579160200282015b8281111561544257825182547fffffffffffffffffffffffff0000000000000000000000000000000000000000166001600160a01b039091161782556020909201916001909101906153f5565b5061544e929150615452565b5090565b5b8082111561544e5780547fffffffffffffffffffffffff000000000000000000000000000000000000000016815560010161545356fe4f776e61626c653a206e6577206f776e657220697320746865207a65726f2061646472657373436f72655265663a3a6f6e6c79476f7665726e6f723a2043616c6c6572206973206e6f74206120676f7665726e6f726669727374206465706f73697420616d6f756e74203c3d204d494e494d554d5f534841524553416464726573733a20696e73756666696369656e742062616c616e636520666f722063616c6c536166654d6174683a206d756c7469706c69636174696f6e206f766572666c6f77436f72655265663a3a6f6e6c79477561726469616e4f72476f7665726e6f723a2043616c6c6572206973206e6f74206120677561726469616e206f7220676f7665726e6f725361666545524332303a204552433230206f7065726174696f6e20646964206e6f7420737563636565645361666545524332303a20617070726f76652066726f6d206e6f6e2d7a65726f20746f206e6f6e2d7a65726f20616c6c6f77616e6365a2646970667358221220ba6215ee6cb7db900556925b56ff251fe372bd4077b4e067adcad7b4c2389de864736f6c634300060c0033",
  "devdoc": {
    "kind": "dev",
    "methods": {
      "owner()": {
        "details": "Returns the address of the current owner."
      },
      "paused()": {
        "details": "Returns true if the contract is paused, and false otherwise."
      },
      "renounceOwnership()": {
        "details": "Leaves the contract without owner. It will not be possible to call `onlyOwner` functions anymore. Can only be called by the current owner. NOTE: Renouncing ownership will leave the contract without an owner, thereby removing any functionality that is only available to the owner."
      },
      "transferOwnership(address)": {
        "details": "Transfers ownership of the contract to a new account (`newOwner`). Can only be called by the current owner."
      }
    },
    "version": 1
  },
  "userdoc": {
    "kind": "user",
    "methods": {},
    "version": 1
  },
  "storageLayout": {
    "storage": [
      {
        "astId": 290,
        "contract": "contracts/StrategyMars.sol:StrategyMars",
        "label": "_owner",
        "offset": 0,
        "slot": "0",
        "type": "t_address"
      },
      {
        "astId": 2370,
        "contract": "contracts/StrategyMars.sol:StrategyMars",
        "label": "_paused",
        "offset": 20,
        "slot": "0",
        "type": "t_bool"
      },
      {
        "astId": 11828,
        "contract": "contracts/StrategyMars.sol:StrategyMars",
        "label": "_core",
        "offset": 0,
        "slot": "1",
        "type": "t_contract(ICore)11820"
      },
      {
        "astId": 2455,
        "contract": "contracts/StrategyMars.sol:StrategyMars",
        "label": "_status",
        "offset": 0,
        "slot": "2",
        "type": "t_uint256"
      },
      {
        "astId": 4257,
        "contract": "contracts/StrategyMars.sol:StrategyMars",
        "label": "isCAKEStaking",
        "offset": 0,
        "slot": "3",
        "type": "t_bool"
      },
      {
        "astId": 4259,
        "contract": "contracts/StrategyMars.sol:StrategyMars",
        "label": "isSameAssetDeposit",
        "offset": 1,
        "slot": "3",
        "type": "t_bool"
      },
      {
        "astId": 4261,
        "contract": "contracts/StrategyMars.sol:StrategyMars",
        "label": "isAutoComp",
        "offset": 2,
        "slot": "3",
        "type": "t_bool"
      },
      {
        "astId": 4263,
        "contract": "contracts/StrategyMars.sol:StrategyMars",
        "label": "isCollect",
        "offset": 3,
        "slot": "3",
        "type": "t_bool"
      },
      {
        "astId": 4266,
        "contract": "contracts/StrategyMars.sol:StrategyMars",
        "label": "onlyGov",
        "offset": 4,
        "slot": "3",
        "type": "t_bool"
      },
      {
        "astId": 4268,
        "contract": "contracts/StrategyMars.sol:StrategyMars",
        "label": "farmContractAddress",
        "offset": 5,
        "slot": "3",
        "type": "t_address"
      },
      {
        "astId": 4270,
        "contract": "contracts/StrategyMars.sol:StrategyMars",
        "label": "pid",
        "offset": 0,
        "slot": "4",
        "type": "t_uint256"
      },
      {
        "astId": 4272,
        "contract": "contracts/StrategyMars.sol:StrategyMars",
        "label": "wantAddress",
        "offset": 0,
        "slot": "5",
        "type": "t_address"
      },
      {
        "astId": 4274,
        "contract": "contracts/StrategyMars.sol:StrategyMars",
        "label": "token0Address",
        "offset": 0,
        "slot": "6",
        "type": "t_address"
      },
      {
        "astId": 4276,
        "contract": "contracts/StrategyMars.sol:StrategyMars",
        "label": "token1Address",
        "offset": 0,
        "slot": "7",
        "type": "t_address"
      },
      {
        "astId": 4278,
        "contract": "contracts/StrategyMars.sol:StrategyMars",
        "label": "earnedAddress",
        "offset": 0,
        "slot": "8",
        "type": "t_address"
      },
      {
        "astId": 4280,
        "contract": "contracts/StrategyMars.sol:StrategyMars",
        "label": "wbnbAddress",
        "offset": 0,
        "slot": "9",
        "type": "t_address"
      },
      {
        "astId": 4282,
        "contract": "contracts/StrategyMars.sol:StrategyMars",
        "label": "UPFarmAddress",
        "offset": 0,
        "slot": "10",
        "type": "t_address"
      },
      {
        "astId": 4284,
        "contract": "contracts/StrategyMars.sol:StrategyMars",
        "label": "UPAddress",
        "offset": 0,
        "slot": "11",
        "type": "t_address"
      },
      {
        "astId": 4287,
        "contract": "contracts/StrategyMars.sol:StrategyMars",
        "label": "lastEarnBlock",
        "offset": 0,
        "slot": "12",
        "type": "t_uint256"
      },
      {
        "astId": 4290,
        "contract": "contracts/StrategyMars.sol:StrategyMars",
        "label": "wantLockedTotal",
        "offset": 0,
        "slot": "13",
        "type": "t_uint256"
      },
      {
        "astId": 4293,
        "contract": "contracts/StrategyMars.sol:StrategyMars",
        "label": "sharesTotal",
        "offset": 0,
        "slot": "14",
        "type": "t_uint256"
      },
      {
        "astId": 4296,
        "contract": "contracts/StrategyMars.sol:StrategyMars",
        "label": "controllerFee",
        "offset": 0,
        "slot": "15",
        "type": "t_uint256"
      },
      {
        "astId": 4305,
        "contract": "contracts/StrategyMars.sol:StrategyMars",
        "label": "buyBackRate",
        "offset": 0,
        "slot": "16",
        "type": "t_uint256"
      },
      {
        "astId": 4313,
        "contract": "contracts/StrategyMars.sol:StrategyMars",
        "label": "rewardsAddress",
        "offset": 0,
        "slot": "17",
        "type": "t_address"
      },
      {
        "astId": 4316,
        "contract": "contracts/StrategyMars.sol:StrategyMars",
        "label": "entranceFeeFactor",
        "offset": 0,
        "slot": "18",
        "type": "t_uint256"
      },
      {
        "astId": 4325,
        "contract": "contracts/StrategyMars.sol:StrategyMars",
        "label": "withdrawFeeFactor",
        "offset": 0,
        "slot": "19",
        "type": "t_uint256"
      },
      {
        "astId": 4334,
        "contract": "contracts/StrategyMars.sol:StrategyMars",
        "label": "slippageFactor",
        "offset": 0,
        "slot": "20",
        "type": "t_uint256"
      },
      {
        "astId": 4339,
        "contract": "contracts/StrategyMars.sol:StrategyMars",
        "label": "earnedToToken0Router0Address",
        "offset": 0,
        "slot": "21",
        "type": "t_address"
      },
      {
        "astId": 4341,
        "contract": "contracts/StrategyMars.sol:StrategyMars",
        "label": "earnedToToken0Router1Address",
        "offset": 0,
        "slot": "22",
        "type": "t_address"
      },
      {
        "astId": 4343,
        "contract": "contracts/StrategyMars.sol:StrategyMars",
        "label": "earnedToToken1Router0Address",
        "offset": 0,
        "slot": "23",
        "type": "t_address"
      },
      {
        "astId": 4345,
        "contract": "contracts/StrategyMars.sol:StrategyMars",
        "label": "earnedToToken1Router1Address",
        "offset": 0,
        "slot": "24",
        "type": "t_address"
      },
      {
        "astId": 4347,
        "contract": "contracts/StrategyMars.sol:StrategyMars",
        "label": "wantRouterAddress",
        "offset": 0,
        "slot": "25",
        "type": "t_address"
      },
      {
        "astId": 4349,
        "contract": "contracts/StrategyMars.sol:StrategyMars",
        "label": "buyBackRouter0Address",
        "offset": 0,
        "slot": "26",
        "type": "t_address"
      },
      {
        "astId": 4351,
        "contract": "contracts/StrategyMars.sol:StrategyMars",
        "label": "buyBackRouter1Address",
        "offset": 0,
        "slot": "27",
        "type": "t_address"
      },
      {
        "astId": 4354,
        "contract": "contracts/StrategyMars.sol:StrategyMars",
        "label": "earnedToUpPath0",
        "offset": 0,
        "slot": "28",
        "type": "t_array(t_address)dyn_storage"
      },
      {
        "astId": 4357,
        "contract": "contracts/StrategyMars.sol:StrategyMars",
        "label": "earnedToUpPath1",
        "offset": 0,
        "slot": "29",
        "type": "t_array(t_address)dyn_storage"
      },
      {
        "astId": 4360,
        "contract": "contracts/StrategyMars.sol:StrategyMars",
        "label": "earnedToToken0Path0",
        "offset": 0,
        "slot": "30",
        "type": "t_array(t_address)dyn_storage"
      },
      {
        "astId": 4363,
        "contract": "contracts/StrategyMars.sol:StrategyMars",
        "label": "earnedToToken0Path1",
        "offset": 0,
        "slot": "31",
        "type": "t_array(t_address)dyn_storage"
      },
      {
        "astId": 4366,
        "contract": "contracts/StrategyMars.sol:StrategyMars",
        "label": "earnedToToken1Path0",
        "offset": 0,
        "slot": "32",
        "type": "t_array(t_address)dyn_storage"
      },
      {
        "astId": 4369,
        "contract": "contracts/StrategyMars.sol:StrategyMars",
        "label": "earnedToToken1Path1",
        "offset": 0,
        "slot": "33",
        "type": "t_array(t_address)dyn_storage"
      }
    ],
    "types": {
      "t_address": {
        "encoding": "inplace",
        "label": "address",
        "numberOfBytes": "20"
      },
      "t_array(t_address)dyn_storage": {
        "base": "t_address",
        "encoding": "dynamic_array",
        "label": "address[]",
        "numberOfBytes": "32"
      },
      "t_bool": {
        "encoding": "inplace",
        "label": "bool",
        "numberOfBytes": "1"
      },
      "t_contract(ICore)11820": {
        "encoding": "inplace",
        "label": "contract ICore",
        "numberOfBytes": "20"
      },
      "t_uint256": {
        "encoding": "inplace",
        "label": "uint256",
        "numberOfBytes": "32"
      }
    }
  }
}