{
  "address": "0xbdAD2803CF564ac71980c6992129F6Bb7692C4cF",
  "abi": [
    {
      "inputs": [
        {
          "internalType": "address[]",
          "name": "_addresses",
          "type": "address[]"
        },
        {
          "internalType": "uint256",
          "name": "_pid",
          "type": "uint256"
        },
        {
          "internalType": "address",
          "name": "_cakeAddress",
          "type": "address"
        },
        {
          "internalType": "bool",
          "name": "_isAutoComp",
          "type": "bool"
        },
        {
          "internalType": "bool",
          "name": "_isCollect",
          "type": "bool"
        },
        {
          "internalType": "address[]",
          "name": "_earnedToUpPath0",
          "type": "address[]"
        },
        {
          "internalType": "address[]",
          "name": "_earnedToUpPath1",
          "type": "address[]"
        },
        {
          "internalType": "address[]",
          "name": "_earnedToToken0Path0",
          "type": "address[]"
        },
        {
          "internalType": "address[]",
          "name": "_earnedToToken0Path1",
          "type": "address[]"
        },
        {
          "internalType": "address[]",
          "name": "_earnedToToken1Path0",
          "type": "address[]"
        },
        {
          "internalType": "address[]",
          "name": "_earnedToToken1Path1",
          "type": "address[]"
        },
        {
          "internalType": "uint256",
          "name": "_controllerFee",
          "type": "uint256"
        },
        {
          "internalType": "uint256",
          "name": "_buyBackRate",
          "type": "uint256"
        },
        {
          "internalType": "uint256",
          "name": "_entranceFeeFactor",
          "type": "uint256"
        },
        {
          "internalType": "uint256",
          "name": "_withdrawFeeFactor",
          "type": "uint256"
        }
      ],
      "stateMutability": "nonpayable",
      "type": "constructor"
    },
    {
      "anonymous": false,
      "inputs": [
        {
          "indexed": true,
          "internalType": "address",
          "name": "_core",
          "type": "address"
        }
      ],
      "name": "CoreUpdate",
      "type": "event"
    },
    {
      "anonymous": false,
      "inputs": [
        {
          "indexed": false,
          "internalType": "address",
          "name": "user",
          "type": "address"
        },
        {
          "indexed": false,
          "internalType": "uint256",
          "name": "amount",
          "type": "uint256"
        }
      ],
      "name": "Deposit",
      "type": "event"
    },
    {
      "anonymous": false,
      "inputs": [
        {
          "indexed": true,
          "internalType": "address",
          "name": "previousOwner",
          "type": "address"
        },
        {
          "indexed": true,
          "internalType": "address",
          "name": "newOwner",
          "type": "address"
        }
      ],
      "name": "OwnershipTransferred",
      "type": "event"
    },
    {
      "anonymous": false,
      "inputs": [
        {
          "indexed": false,
          "internalType": "address",
          "name": "account",
          "type": "address"
        }
      ],
      "name": "Paused",
      "type": "event"
    },
    {
      "anonymous": false,
      "inputs": [
        {
          "indexed": false,
          "internalType": "address",
          "name": "_buyBackRouter0Address",
          "type": "address"
        },
        {
          "indexed": false,
          "internalType": "address",
          "name": "_buyBackRouter1Address",
          "type": "address"
        }
      ],
      "name": "SetBuyBackRouterAddress",
      "type": "event"
    },
    {
      "anonymous": false,
      "inputs": [
        {
          "indexed": false,
          "internalType": "bool",
          "name": "_isCollect",
          "type": "bool"
        }
      ],
      "name": "SetCollect",
      "type": "event"
    },
    {
      "anonymous": false,
      "inputs": [
        {
          "indexed": false,
          "internalType": "address[]",
          "name": "_earnedToToken0Path0",
          "type": "address[]"
        },
        {
          "indexed": false,
          "internalType": "address[]",
          "name": "_earnedToToken0Path1",
          "type": "address[]"
        }
      ],
      "name": "SetEarnedToToken0Path",
      "type": "event"
    },
    {
      "anonymous": false,
      "inputs": [
        {
          "indexed": false,
          "internalType": "address",
          "name": "_earnedToToken0Router0Address",
          "type": "address"
        },
        {
          "indexed": false,
          "internalType": "address",
          "name": "_earnedToToken0Router1Address",
          "type": "address"
        }
      ],
      "name": "SetEarnedToToken0RouterAddress",
      "type": "event"
    },
    {
      "anonymous": false,
      "inputs": [
        {
          "indexed": false,
          "internalType": "address[]",
          "name": "_earnedToToken1Path0",
          "type": "address[]"
        },
        {
          "indexed": false,
          "internalType": "address[]",
          "name": "_earnedToToken1Path1",
          "type": "address[]"
        }
      ],
      "name": "SetEarnedToToken1Path",
      "type": "event"
    },
    {
      "anonymous": false,
      "inputs": [
        {
          "indexed": false,
          "internalType": "address",
          "name": "_earnedToToken1Router0Address",
          "type": "address"
        },
        {
          "indexed": false,
          "internalType": "address",
          "name": "_earnedToToken1Router1Address",
          "type": "address"
        }
      ],
      "name": "SetEarnedToToken1RouterAddress",
      "type": "event"
    },
    {
      "anonymous": false,
      "inputs": [
        {
          "indexed": false,
          "internalType": "address[]",
          "name": "_earnedToUpPath0",
          "type": "address[]"
        },
        {
          "indexed": false,
          "internalType": "address[]",
          "name": "_earnedToUpPath1",
          "type": "address[]"
        }
      ],
      "name": "SetEarnedToUpPath",
      "type": "event"
    },
    {
      "anonymous": false,
      "inputs": [
        {
          "indexed": false,
          "internalType": "bool",
          "name": "_onlyGov",
          "type": "bool"
        }
      ],
      "name": "SetOnlyGov",
      "type": "event"
    },
    {
      "anonymous": false,
      "inputs": [
        {
          "indexed": false,
          "internalType": "address",
          "name": "_rewardsAddress",
          "type": "address"
        }
      ],
      "name": "SetRewardsAddress",
      "type": "event"
    },
    {
      "anonymous": false,
      "inputs": [
        {
          "indexed": false,
          "internalType": "uint256",
          "name": "_entranceFeeFactor",
          "type": "uint256"
        },
        {
          "indexed": false,
          "internalType": "uint256",
          "name": "_withdrawFeeFactor",
          "type": "uint256"
        },
        {
          "indexed": false,
          "internalType": "uint256",
          "name": "_controllerFee",
          "type": "uint256"
        },
        {
          "indexed": false,
          "internalType": "uint256",
          "name": "_buyBackRate",
          "type": "uint256"
        },
        {
          "indexed": false,
          "internalType": "uint256",
          "name": "_slippageFactor",
          "type": "uint256"
        }
      ],
      "name": "SetSettings",
      "type": "event"
    },
    {
      "anonymous": false,
      "inputs": [
        {
          "indexed": false,
          "internalType": "address",
          "name": "_wantRouterAddress",
          "type": "address"
        }
      ],
      "name": "SetWantRouterAddress",
      "type": "event"
    },
    {
      "anonymous": false,
      "inputs": [
        {
          "indexed": false,
          "internalType": "address",
          "name": "account",
          "type": "address"
        }
      ],
      "name": "Unpaused",
      "type": "event"
    },
    {
      "anonymous": false,
      "inputs": [
        {
          "indexed": false,
          "internalType": "address",
          "name": "user",
          "type": "address"
        },
        {
          "indexed": false,
          "internalType": "uint256",
          "name": "amount",
          "type": "uint256"
        }
      ],
      "name": "Withdraw",
      "type": "event"
    },
    {
      "inputs": [],
      "name": "MASTER_ROLE",
      "outputs": [
        {
          "internalType": "bytes32",
          "name": "",
          "type": "bytes32"
        }
      ],
      "stateMutability": "view",
      "type": "function"
    },
    {
      "inputs": [],
      "name": "MINIMUM_SHARES",
      "outputs": [
        {
          "internalType": "uint256",
          "name": "",
          "type": "uint256"
        }
      ],
      "stateMutability": "view",
      "type": "function"
    },
    {
      "inputs": [],
      "name": "UPAddress",
      "outputs": [
        {
          "internalType": "address",
          "name": "",
          "type": "address"
        }
      ],
      "stateMutability": "view",
      "type": "function"
    },
    {
      "inputs": [],
      "name": "UPFarmAddress",
      "outputs": [
        {
          "internalType": "address",
          "name": "",
          "type": "address"
        }
      ],
      "stateMutability": "view",
      "type": "function"
    },
    {
      "inputs": [],
      "name": "buyBackRate",
      "outputs": [
        {
          "internalType": "uint256",
          "name": "",
          "type": "uint256"
        }
      ],
      "stateMutability": "view",
      "type": "function"
    },
    {
      "inputs": [],
      "name": "buyBackRateMax",
      "outputs": [
        {
          "internalType": "uint256",
          "name": "",
          "type": "uint256"
        }
      ],
      "stateMutability": "view",
      "type": "function"
    },
    {
      "inputs": [],
      "name": "buyBackRateUL",
      "outputs": [
        {
          "internalType": "uint256",
          "name": "",
          "type": "uint256"
        }
      ],
      "stateMutability": "view",
      "type": "function"
    },
    {
      "inputs": [],
      "name": "buyBackRouter0Address",
      "outputs": [
        {
          "internalType": "address",
          "name": "",
          "type": "address"
        }
      ],
      "stateMutability": "view",
      "type": "function"
    },
    {
      "inputs": [],
      "name": "buyBackRouter1Address",
      "outputs": [
        {
          "internalType": "address",
          "name": "",
          "type": "address"
        }
      ],
      "stateMutability": "view",
      "type": "function"
    },
    {
      "inputs": [],
      "name": "controllerFee",
      "outputs": [
        {
          "internalType": "uint256",
          "name": "",
          "type": "uint256"
        }
      ],
      "stateMutability": "view",
      "type": "function"
    },
    {
      "inputs": [],
      "name": "controllerFeeMax",
      "outputs": [
        {
          "internalType": "uint256",
          "name": "",
          "type": "uint256"
        }
      ],
      "stateMutability": "view",
      "type": "function"
    },
    {
      "inputs": [],
      "name": "controllerFeeUL",
      "outputs": [
        {
          "internalType": "uint256",
          "name": "",
          "type": "uint256"
        }
      ],
      "stateMutability": "view",
      "type": "function"
    },
    {
      "inputs": [],
      "name": "core",
      "outputs": [
        {
          "internalType": "contract ICore",
          "name": "",
          "type": "address"
        }
      ],
      "stateMutability": "view",
      "type": "function"
    },
    {
      "inputs": [
        {
          "internalType": "uint256",
          "name": "_wantAmt",
          "type": "uint256"
        }
      ],
      "name": "deposit",
      "outputs": [
        {
          "internalType": "uint256",
          "name": "",
          "type": "uint256"
        }
      ],
      "stateMutability": "nonpayable",
      "type": "function"
    },
    {
      "inputs": [],
      "name": "earn",
      "outputs": [],
      "stateMutability": "nonpayable",
      "type": "function"
    },
    {
      "inputs": [],
      "name": "earnedAddress",
      "outputs": [
        {
          "internalType": "address",
          "name": "",
          "type": "address"
        }
      ],
      "stateMutability": "view",
      "type": "function"
    },
    {
      "inputs": [
        {
          "internalType": "uint256",
          "name": "",
          "type": "uint256"
        }
      ],
      "name": "earnedToToken0Path0",
      "outputs": [
        {
          "internalType": "address",
          "name": "",
          "type": "address"
        }
      ],
      "stateMutability": "view",
      "type": "function"
    },
    {
      "inputs": [
        {
          "internalType": "uint256",
          "name": "",
          "type": "uint256"
        }
      ],
      "name": "earnedToToken0Path1",
      "outputs": [
        {
          "internalType": "address",
          "name": "",
          "type": "address"
        }
      ],
      "stateMutability": "view",
      "type": "function"
    },
    {
      "inputs": [],
      "name": "earnedToToken0Router0Address",
      "outputs": [
        {
          "internalType": "address",
          "name": "",
          "type": "address"
        }
      ],
      "stateMutability": "view",
      "type": "function"
    },
    {
      "inputs": [],
      "name": "earnedToToken0Router1Address",
      "outputs": [
        {
          "internalType": "address",
          "name": "",
          "type": "address"
        }
      ],
      "stateMutability": "view",
      "type": "function"
    },
    {
      "inputs": [
        {
          "internalType": "uint256",
          "name": "",
          "type": "uint256"
        }
      ],
      "name": "earnedToToken1Path0",
      "outputs": [
        {
          "internalType": "address",
          "name": "",
          "type": "address"
        }
      ],
      "stateMutability": "view",
      "type": "function"
    },
    {
      "inputs": [
        {
          "internalType": "uint256",
          "name": "",
          "type": "uint256"
        }
      ],
      "name": "earnedToToken1Path1",
      "outputs": [
        {
          "internalType": "address",
          "name": "",
          "type": "address"
        }
      ],
      "stateMutability": "view",
      "type": "function"
    },
    {
      "inputs": [],
      "name": "earnedToToken1Router0Address",
      "outputs": [
        {
          "internalType": "address",
          "name": "",
          "type": "address"
        }
      ],
      "stateMutability": "view",
      "type": "function"
    },
    {
      "inputs": [],
      "name": "earnedToToken1Router1Address",
      "outputs": [
        {
          "internalType": "address",
          "name": "",
          "type": "address"
        }
      ],
      "stateMutability": "view",
      "type": "function"
    },
    {
      "inputs": [
        {
          "internalType": "uint256",
          "name": "",
          "type": "uint256"
        }
      ],
      "name": "earnedToUpPath0",
      "outputs": [
        {
          "internalType": "address",
          "name": "",
          "type": "address"
        }
      ],
      "stateMutability": "view",
      "type": "function"
    },
    {
      "inputs": [
        {
          "internalType": "uint256",
          "name": "",
          "type": "uint256"
        }
      ],
      "name": "earnedToUpPath1",
      "outputs": [
        {
          "internalType": "address",
          "name": "",
          "type": "address"
        }
      ],
      "stateMutability": "view",
      "type": "function"
    },
    {
      "inputs": [],
      "name": "entranceFeeFactor",
      "outputs": [
        {
          "internalType": "uint256",
          "name": "",
          "type": "uint256"
        }
      ],
      "stateMutability": "view",
      "type": "function"
    },
    {
      "inputs": [],
      "name": "entranceFeeFactorLL",
      "outputs": [
        {
          "internalType": "uint256",
          "name": "",
          "type": "uint256"
        }
      ],
      "stateMutability": "view",
      "type": "function"
    },
    {
      "inputs": [],
      "name": "entranceFeeFactorMax",
      "outputs": [
        {
          "internalType": "uint256",
          "name": "",
          "type": "uint256"
        }
      ],
      "stateMutability": "view",
      "type": "function"
    },
    {
      "inputs": [],
      "name": "farm",
      "outputs": [],
      "stateMutability": "nonpayable",
      "type": "function"
    },
    {
      "inputs": [],
      "name": "farmContractAddress",
      "outputs": [
        {
          "internalType": "address",
          "name": "",
          "type": "address"
        }
      ],
      "stateMutability": "view",
      "type": "function"
    },
    {
      "inputs": [
        {
          "internalType": "address",
          "name": "_token",
          "type": "address"
        },
        {
          "internalType": "uint256",
          "name": "_amount",
          "type": "uint256"
        },
        {
          "internalType": "address",
          "name": "_to",
          "type": "address"
        }
      ],
      "name": "inCaseTokensGetStuck",
      "outputs": [],
      "stateMutability": "nonpayable",
      "type": "function"
    },
    {
      "inputs": [],
      "name": "isAutoComp",
      "outputs": [
        {
          "internalType": "bool",
          "name": "",
          "type": "bool"
        }
      ],
      "stateMutability": "view",
      "type": "function"
    },
    {
      "inputs": [],
      "name": "isCAKEStaking",
      "outputs": [
        {
          "internalType": "bool",
          "name": "",
          "type": "bool"
        }
      ],
      "stateMutability": "view",
      "type": "function"
    },
    {
      "inputs": [],
      "name": "isCollect",
      "outputs": [
        {
          "internalType": "bool",
          "name": "",
          "type": "bool"
        }
      ],
      "stateMutability": "view",
      "type": "function"
    },
    {
      "inputs": [],
      "name": "isSameAssetDeposit",
      "outputs": [
        {
          "internalType": "bool",
          "name": "",
          "type": "bool"
        }
      ],
      "stateMutability": "view",
      "type": "function"
    },
    {
      "inputs": [],
      "name": "lastEarnBlock",
      "outputs": [
        {
          "internalType": "uint256",
          "name": "",
          "type": "uint256"
        }
      ],
      "stateMutability": "view",
      "type": "function"
    },
    {
      "inputs": [],
      "name": "onlyGov",
      "outputs": [
        {
          "internalType": "bool",
          "name": "",
          "type": "bool"
        }
      ],
      "stateMutability": "view",
      "type": "function"
    },
    {
      "inputs": [],
      "name": "owner",
      "outputs": [
        {
          "internalType": "address",
          "name": "",
          "type": "address"
        }
      ],
      "stateMutability": "view",
      "type": "function"
    },
    {
      "inputs": [],
      "name": "pause",
      "outputs": [],
      "stateMutability": "nonpayable",
      "type": "function"
    },
    {
      "inputs": [],
      "name": "paused",
      "outputs": [
        {
          "internalType": "bool",
          "name": "",
          "type": "bool"
        }
      ],
      "stateMutability": "view",
      "type": "function"
    },
    {
      "inputs": [],
      "name": "pid",
      "outputs": [
        {
          "internalType": "uint256",
          "name": "",
          "type": "uint256"
        }
      ],
      "stateMutability": "view",
      "type": "function"
    },
    {
      "inputs": [],
      "name": "renounceOwnership",
      "outputs": [],
      "stateMutability": "nonpayable",
      "type": "function"
    },
    {
      "inputs": [],
      "name": "rewardsAddress",
      "outputs": [
        {
          "internalType": "address",
          "name": "",
          "type": "address"
        }
      ],
      "stateMutability": "view",
      "type": "function"
    },
    {
      "inputs": [
        {
          "internalType": "address",
          "name": "_buyBackRouter0Address",
          "type": "address"
        },
        {
          "internalType": "address",
          "name": "_buyBackRouter1Address",
          "type": "address"
        }
      ],
      "name": "setBuyBackRouterAddress",
      "outputs": [],
      "stateMutability": "nonpayable",
      "type": "function"
    },
    {
      "inputs": [
        {
          "internalType": "bool",
          "name": "_isCollect",
          "type": "bool"
        }
      ],
      "name": "setCollect",
      "outputs": [],
      "stateMutability": "nonpayable",
      "type": "function"
    },
    {
      "inputs": [
        {
          "internalType": "address",
          "name": "core_",
          "type": "address"
        }
      ],
      "name": "setCore",
      "outputs": [],
      "stateMutability": "nonpayable",
      "type": "function"
    },
    {
      "inputs": [
        {
          "internalType": "address[]",
          "name": "_earnedToToken0Path0",
          "type": "address[]"
        },
        {
          "internalType": "address[]",
          "name": "_earnedToToken0Path1",
          "type": "address[]"
        }
      ],
      "name": "setEarnedToToken0Path",
      "outputs": [],
      "stateMutability": "nonpayable",
      "type": "function"
    },
    {
      "inputs": [
        {
          "internalType": "address",
          "name": "_earnedToToken0Router0Address",
          "type": "address"
        },
        {
          "internalType": "address",
          "name": "_earnedToToken0Router1Address",
          "type": "address"
        }
      ],
      "name": "setEarnedToToken0RouterAddress",
      "outputs": [],
      "stateMutability": "nonpayable",
      "type": "function"
    },
    {
      "inputs": [
        {
          "internalType": "address[]",
          "name": "_earnedToToken1Path0",
          "type": "address[]"
        },
        {
          "internalType": "address[]",
          "name": "_earnedToToken1Path1",
          "type": "address[]"
        }
      ],
      "name": "setEarnedToToken1Path",
      "outputs": [],
      "stateMutability": "nonpayable",
      "type": "function"
    },
    {
      "inputs": [
        {
          "internalType": "address",
          "name": "_earnedToToken1Router0Address",
          "type": "address"
        },
        {
          "internalType": "address",
          "name": "_earnedToToken1Router1Address",
          "type": "address"
        }
      ],
      "name": "setEarnedToToken1RouterAddress",
      "outputs": [],
      "stateMutability": "nonpayable",
      "type": "function"
    },
    {
      "inputs": [
        {
          "internalType": "address[]",
          "name": "_earnedToUpPath0",
          "type": "address[]"
        },
        {
          "internalType": "address[]",
          "name": "_earnedToUpPath1",
          "type": "address[]"
        }
      ],
      "name": "setEarnedToUpPath",
      "outputs": [],
      "stateMutability": "nonpayable",
      "type": "function"
    },
    {
      "inputs": [
        {
          "internalType": "bool",
          "name": "_onlyGov",
          "type": "bool"
        }
      ],
      "name": "setOnlyGov",
      "outputs": [],
      "stateMutability": "nonpayable",
      "type": "function"
    },
    {
      "inputs": [
        {
          "internalType": "address",
          "name": "_rewardsAddress",
          "type": "address"
        }
      ],
      "name": "setRewardsAddress",
      "outputs": [],
      "stateMutability": "nonpayable",
      "type": "function"
    },
    {
      "inputs": [
        {
          "internalType": "uint256",
          "name": "_entranceFeeFactor",
          "type": "uint256"
        },
        {
          "internalType": "uint256",
          "name": "_withdrawFeeFactor",
          "type": "uint256"
        },
        {
          "internalType": "uint256",
          "name": "_controllerFee",
          "type": "uint256"
        },
        {
          "internalType": "uint256",
          "name": "_buyBackRate",
          "type": "uint256"
        },
        {
          "internalType": "uint256",
          "name": "_slippageFactor",
          "type": "uint256"
        }
      ],
      "name": "setSettings",
      "outputs": [],
      "stateMutability": "nonpayable",
      "type": "function"
    },
    {
      "inputs": [
        {
          "internalType": "address",
          "name": "_wantRouterAddress",
          "type": "address"
        }
      ],
      "name": "setWantRouterAddress",
      "outputs": [],
      "stateMutability": "nonpayable",
      "type": "function"
    },
    {
      "inputs": [],
      "name": "sharesTotal",
      "outputs": [
        {
          "internalType": "uint256",
          "name": "",
          "type": "uint256"
        }
      ],
      "stateMutability": "view",
      "type": "function"
    },
    {
      "inputs": [],
      "name": "slippageFactor",
      "outputs": [
        {
          "internalType": "uint256",
          "name": "",
          "type": "uint256"
        }
      ],
      "stateMutability": "view",
      "type": "function"
    },
    {
      "inputs": [],
      "name": "slippageFactorUL",
      "outputs": [
        {
          "internalType": "uint256",
          "name": "",
          "type": "uint256"
        }
      ],
      "stateMutability": "view",
      "type": "function"
    },
    {
      "inputs": [],
      "name": "token0Address",
      "outputs": [
        {
          "internalType": "address",
          "name": "",
          "type": "address"
        }
      ],
      "stateMutability": "view",
      "type": "function"
    },
    {
      "inputs": [],
      "name": "token1Address",
      "outputs": [
        {
          "internalType": "address",
          "name": "",
          "type": "address"
        }
      ],
      "stateMutability": "view",
      "type": "function"
    },
    {
      "inputs": [
        {
          "internalType": "address",
          "name": "newOwner",
          "type": "address"
        }
      ],
      "name": "transferOwnership",
      "outputs": [],
      "stateMutability": "nonpayable",
      "type": "function"
    },
    {
      "inputs": [],
      "name": "unpause",
      "outputs": [],
      "stateMutability": "nonpayable",
      "type": "function"
    },
    {
      "inputs": [],
      "name": "wantAddress",
      "outputs": [
        {
          "internalType": "address",
          "name": "",
          "type": "address"
        }
      ],
      "stateMutability": "view",
      "type": "function"
    },
    {
      "inputs": [],
      "name": "wantLockedTotal",
      "outputs": [
        {
          "internalType": "uint256",
          "name": "",
          "type": "uint256"
        }
      ],
      "stateMutability": "view",
      "type": "function"
    },
    {
      "inputs": [],
      "name": "wantRouterAddress",
      "outputs": [
        {
          "internalType": "address",
          "name": "",
          "type": "address"
        }
      ],
      "stateMutability": "view",
      "type": "function"
    },
    {
      "inputs": [],
      "name": "wbnbAddress",
      "outputs": [
        {
          "internalType": "address",
          "name": "",
          "type": "address"
        }
      ],
      "stateMutability": "view",
      "type": "function"
    },
    {
      "inputs": [
        {
          "internalType": "uint256",
          "name": "_wantAmt",
          "type": "uint256"
        }
      ],
      "name": "withdraw",
      "outputs": [
        {
          "internalType": "uint256",
          "name": "",
          "type": "uint256"
        }
      ],
      "stateMutability": "nonpayable",
      "type": "function"
    },
    {
      "inputs": [],
      "name": "withdrawFeeFactor",
      "outputs": [
        {
          "internalType": "uint256",
          "name": "",
          "type": "uint256"
        }
      ],
      "stateMutability": "view",
      "type": "function"
    },
    {
      "inputs": [],
      "name": "withdrawFeeFactorLL",
      "outputs": [
        {
          "internalType": "uint256",
          "name": "",
          "type": "uint256"
        }
      ],
      "stateMutability": "view",
      "type": "function"
    },
    {
      "inputs": [],
      "name": "withdrawFeeFactorMax",
      "outputs": [
        {
          "internalType": "uint256",
          "name": "",
          "type": "uint256"
        }
      ],
      "stateMutability": "view",
      "type": "function"
    },
    {
      "inputs": [],
      "name": "wrapBNB",
      "outputs": [],
      "stateMutability": "nonpayable",
      "type": "function"
    }
  ],
  "transactionHash": "0x1138d7b82a1e555d8cba19f85afe7491bc678c7ef8ec4a03989f3ca834d0d83d",
  "args": [
    [
      "0x40fc3759Ccc4E466650891a91F34Bdd6129094D6",
      "0x0000000000000000000000000000000000000000",
      "0x99B223Cd1f1E14B7EabD46Bc7a4a21536beDC958",
      "0x83ac0bD6315Eea678CDe633957820058AD17139A",
      "0xF606e1b3C156064bE059bb4287D08FD070795558",
      "0xae13d989daC2f0dEbFf460aC112a837C89BAa7cd",
      "0xDCCC0f640Aa5A3D7943ea24aaCb79E7D622dE578",
      "0xDCCC0f640Aa5A3D7943ea24aaCb79E7D622dE578",
      "0xD21cBd58d1D8FeaBBC8c05F5bF2241321Ef9DE1c",
      "0xa84400261e8563BE19633B7477fDEb0634bAC5DA",
      "0x55e71Da3767102C6Ebb1F5851031b373dc904A3f",
      "0x55e71Da3767102C6Ebb1F5851031b373dc904A3f",
      "0x0000000000000000000000000000000000000000",
      "0x0000000000000000000000000000000000000000",
      "0x0000000000000000000000000000000000000000",
      "0x55e71Da3767102C6Ebb1F5851031b373dc904A3f",
      "0x9ac64cc6e4415144c455bd8e4837fea55603e5c3"
    ],
    1,
    "0xDCCC0f640Aa5A3D7943ea24aaCb79E7D622dE578",
    true,
    false,
    [
      "0xDCCC0f640Aa5A3D7943ea24aaCb79E7D622dE578",
      "0xae13d989daC2f0dEbFf460aC112a837C89BAa7cd"
    ],
    [
      "0xae13d989daC2f0dEbFf460aC112a837C89BAa7cd",
      "0x9Ff7010Fe2DbdD638257b8eaA1a65e73129361A3",
      "0x83ac0bD6315Eea678CDe633957820058AD17139A"
    ],
    [
      "0xDCCC0f640Aa5A3D7943ea24aaCb79E7D622dE578",
      "0xae13d989daC2f0dEbFf460aC112a837C89BAa7cd"
    ],
    [],
    [],
    [],
    300,
    200,
    9990,
    9990
  ],
  "solcInputHash": "2dcb6d018d9e772ddedd4e5d7872fca7",
  "bytecode": "0x60806040526003805460ff60201b19166401000000001790556000600c819055600d819055600e819055600f8190556010556127066012556127106013556103b66014553480156200005057600080fd5b50604051620063bb380380620063bb83398181016040526101e08110156200007757600080fd5b81019080805160405193929190846401000000008211156200009857600080fd5b908301906020820185811115620000ae57600080fd5b8251866020820283011164010000000082111715620000cc57600080fd5b82525081516020918201928201910280838360005b83811015620000fb578181015183820152602001620000e1565b505050509190910160408181526020840151908401516060850151608086015160a0909601805193989297919695509192909190846401000000008211156200014357600080fd5b9083019060208201858111156200015957600080fd5b82518660208202830111640100000000821117156200017757600080fd5b82525081516020918201928201910280838360005b83811015620001a65781810151838201526020016200018c565b5050505090500160405260200180516040519392919084640100000000821115620001d057600080fd5b908301906020820185811115620001e657600080fd5b82518660208202830111640100000000821117156200020457600080fd5b82525081516020918201928201910280838360005b838110156200023357818101518382015260200162000219565b50505050905001604052602001805160405193929190846401000000008211156200025d57600080fd5b9083019060208201858111156200027357600080fd5b82518660208202830111640100000000821117156200029157600080fd5b82525081516020918201928201910280838360005b83811015620002c0578181015183820152602001620002a6565b5050505090500160405260200180516040519392919084640100000000821115620002ea57600080fd5b9083019060208201858111156200030057600080fd5b82518660208202830111640100000000821117156200031e57600080fd5b82525081516020918201928201910280838360005b838110156200034d57818101518382015260200162000333565b50505050905001604052602001805160405193929190846401000000008211156200037757600080fd5b9083019060208201858111156200038d57600080fd5b8251866020820283011164010000000082111715620003ab57600080fd5b82525081516020918201928201910280838360005b83811015620003da578181015183820152602001620003c0565b50505050905001604052602001805160405193929190846401000000008211156200040457600080fd5b9083019060208201858111156200041a57600080fd5b82518660208202830111640100000000821117156200043857600080fd5b82525081516020918201928201910280838360005b83811015620004675781810151838201526020016200044d565b50505050905001604052602001805190602001909291908051906020019092919080519060200190929190805190602001909291905050508e600081518110620004ad57fe5b60200260200101516000620004c762000dab60201b60201c565b600080546001600160a01b0319166001600160a01b0383169081178255604051929350917f8be0079c531659141344cd1fd0a4f28419497f9722a3daafe3b4186f6b6457e0908290a35060008060146101000a81548160ff02191690831515021790555080600160006101000a8154816001600160a01b0302191690836001600160a01b031602179055505060016002819055508e6001815181106200056957fe5b6020026020010151600960006101000a8154816001600160a01b0302191690836001600160a01b031602179055508e600281518110620005a557fe5b6020026020010151600a60006101000a8154816001600160a01b0302191690836001600160a01b031602179055508e600381518110620005e157fe5b6020026020010151600b60006101000a8154816001600160a01b0302191690836001600160a01b031602179055508e6004815181106200061d57fe5b6020026020010151600560006101000a8154816001600160a01b0302191690836001600160a01b031602179055508e6005815181106200065957fe5b6020026020010151600660006101000a8154816001600160a01b0302191690836001600160a01b031602179055508e6006815181106200069557fe5b6020026020010151600760006101000a8154816001600160a01b0302191690836001600160a01b031602179055508e600781518110620006d157fe5b6020026020010151600860006101000a8154816001600160a01b0302191690836001600160a01b031602179055508e6008815181106200070d57fe5b6020026020010151600360056101000a8154816001600160a01b0302191690836001600160a01b031602179055508e6009815181106200074957fe5b6020026020010151601160006101000a8154816001600160a01b0302191690836001600160a01b031602179055508e600a815181106200078557fe5b6020026020010151601960006101000a8154816001600160a01b0302191690836001600160a01b031602179055508e600b81518110620007c157fe5b6020026020010151601560006101000a8154816001600160a01b0302191690836001600160a01b031602179055508e600c81518110620007fd57fe5b6020026020010151601660006101000a8154816001600160a01b0302191690836001600160a01b031602179055508e600d815181106200083957fe5b6020026020010151601760006101000a8154816001600160a01b0302191690836001600160a01b031602179055508e600e815181106200087557fe5b6020026020010151601860006101000a8154816001600160a01b0302191690836001600160a01b031602179055508e600f81518110620008b157fe5b6020026020010151601a60006101000a8154816001600160a01b0302191690836001600160a01b031602179055508e601081518110620008ed57fe5b6020026020010151601b60006101000a8154816001600160a01b0302191690836001600160a01b031602179055508d6004819055508c6001600160a01b0316600560009054906101000a90046001600160a01b03166001600160a01b031614600360006101000a81548160ff021916908315150217905550600860009054906101000a90046001600160a01b03166001600160a01b0316600560009054906101000a90046001600160a01b03166001600160a01b031614600360016101000a81548160ff0219169083151502179055508b600360026101000a81548160ff0219169083151502179055508a6003806101000a81548160ff02191690831515021790555062000a2e8a8a600860009054906101000a90046001600160a01b0316600b60009054906101000a90046001600160a01b031662000daf60201b60201c565b62000a80576040805162461bcd60e51b815260206004820152601760248201527f696e76616c6964205f6561726e6564546f557050617468000000000000000000604482015290519081900360640190fd5b895162000a9590601c9060208d019062000f0e565b50885162000aab90601d9060208c019062000f0e565b5060085460065462000ace918a918a916001600160a01b03908116911662000daf565b62000b20576040805162461bcd60e51b815260206004820152601b60248201527f696e76616c6964205f6561726e6564546f546f6b656e30506174680000000000604482015290519081900360640190fd5b875162000b3590601e9060208b019062000f0e565b50865162000b4b90601f9060208a019062000f0e565b506007546006546001600160a01b039081169116148062000b89575060085460075462000b8991889188916001600160a01b03908116911662000daf565b62000bdb576040805162461bcd60e51b815260206004820152601b60248201527f696e76616c6964205f6561726e6564546f546f6b656e31506174680000000000604482015290519081900360640190fd5b855162000bef906020908189019062000f0e565b50845162000c0590602190602088019062000f0e565b506126ac83111562000c5e576040805162461bcd60e51b815260206004820152601360248201527f696e76616c6964206275796261636b5261746500000000000000000000000000604482015290519081900360640190fd5b6126ac84111562000cb6576040805162461bcd60e51b815260206004820152601560248201527f696e76616c696420636f6e74726f6c6c65724665650000000000000000000000604482015290519081900360640190fd5b612328821015801562000ccb57506127108211155b62000d1d576040805162461bcd60e51b815260206004820152601360248201527f696e76616c696420656e7472616e636546656500000000000000000000000000604482015290519081900360640190fd5b612328811015801562000d3257506127108111155b62000d84576040805162461bcd60e51b815260206004820152601360248201527f696e76616c696420776974686472617746656500000000000000000000000000604482015290519081900360640190fd5b601092909255600f929092556012919091556013555062000f999950505050505050505050565b3390565b8351835160035460009291906301000000900460ff168062000de25750836001600160a01b0316856001600160a01b0316145b1562000dff578115801562000df5575080155b9250505062000f06565b6002821015801562000e375750846001600160a01b03168760008151811062000e2457fe5b60200260200101516001600160a01b0316145b801562000f0157508015801562000e765750836001600160a01b031687600184038151811062000e6357fe5b60200260200101516001600160a01b0316145b8062000f0157506002811015801562000ecc57508560008151811062000e9857fe5b60200260200101516001600160a01b031687600184038151811062000eb957fe5b60200260200101516001600160a01b0316145b801562000f015750836001600160a01b031686600183038151811062000eee57fe5b60200260200101516001600160a01b0316145b925050505b949350505050565b82805482825590600052602060002090810192821562000f66579160200282015b8281111562000f6657825182546001600160a01b0319166001600160a01b0390911617825560209092019160019091019062000f2f565b5062000f7492915062000f78565b5090565b5b8082111562000f745780546001600160a01b031916815560010162000f79565b6154128062000fa96000396000f3fe608060405234801561001057600080fd5b50600436106104a75760003560e01c806384fa32ac1161026b578063c0973eed11610150578063dc224863116100c8578063ee50dc3411610097578063f2f4eb261161007c578063f2f4eb2614610c42578063f2fde38b14610c4a578063ffbd3b1f14610c70576104a7565b8063ee50dc34146105b1578063f106845414610c3a576104a7565b8063dc22486314610c1a578063e5dd455a14610c22578063e719847414610c2a578063e7a0367914610c32576104a7565b8063d1a94edc1161011f578063d5b0916311610104578063d5b0916314610c02578063d7cb416f14610c0a578063db22e43a14610c12576104a7565b8063d1a94edc14610ad3578063d389800f14610bfa576104a7565b8063c0973eed14610a95578063c302a4d014610898578063c6bb8e3614610a9d578063cdf2098914610acb576104a7565b8063a1a47d71116101e3578063b3545c01116101b2578063b74cd24211610197578063b74cd24214610a7d578063b83b54ca14610a85578063bece4d7d14610a8d576104a7565b8063b3545c0114610500578063b6b55f2514610a60576104a7565b8063a1a47d71146105b1578063a3d2855e14610914578063aba6876314610a3b578063b0fb2ce414610a43576104a7565b80638a3e97051161023a5780639a2466431161021f5780639a246643146108fc5780639fc33a9f14610904578063a17f3d811461090c576104a7565b80638a3e9705146108c65780638da5cb5b146108f4576104a7565b806384fa32ac1461085b57806385f02dd614610890578063866b2018146108985780638906758d146108a0576104a7565b8063380eec2f1161039157806367206d40116103095780637ff36fbe116102d85780638219425d116102bd5780638219425d1461082e5780638456cb591461084b578063846d9e1714610853576104a7565b80637ff36fbe146108005780638000963014610808576104a7565b806367206d401461079d57806368f54162146107d35780636e965b51146107db578063715018a6146107f8576104a7565b80634d9f7bb2116103605780635d5ae284116103455780635d5ae2841461076f57806363fe3e3a1461079557806367057b6c146105b1576104a7565b80634d9f7bb2146105b15780635c975abb14610767576104a7565b8063380eec2f146107475780633f4ba83a1461074f57806342da4eb31461075757806344a3955e1461075f576104a7565b806324893bd7116104245780632fce1cab116103f357806330e0045e116103d857806330e0045e1461071a57806335c7f1211461073757806336e9332d1461073f576104a7565b80632fce1cab146105d657806330d15c65146105f3576104a7565b806324893bd71461058c57806326a1ccad146105945780632717eff3146105b15780632e1a7d4d146105b9576104a7565b80630daef3211161047b5780630fa4e01e116104605780630fa4e01e146105745780631334903f1461057c578063178a8d0714610584576104a7565b80630daef321146105395780630dbccf0f14610555576104a7565b80625e8e6b146104ac578063061bf643146104d0578063061c7d48146105005780630b6bb30b1461051a575b600080fd5b6104b4610c78565b604080516001600160a01b039092168252519081900360200190f35b6104fe600480360360408110156104e657600080fd5b506001600160a01b0381358116916020013516610c87565b005b610508610dc0565b60408051918252519081900360200190f35b6104fe6004803603602081101561053057600080fd5b50351515610dc6565b610541610ee7565b604080519115158252519081900360200190f35b6104fe6004803603602081101561056b57600080fd5b50351515610ef8565b610508611018565b61050861101e565b610508611024565b6104b461102a565b6104b4600480360360208110156105aa57600080fd5b5035611039565b610508611060565b610508600480360360208110156105cf57600080fd5b5035611066565b6104b4600480360360208110156105ec57600080fd5b50356113b6565b6104fe6004803603604081101561060957600080fd5b81019060208101813564010000000081111561062457600080fd5b82018360208201111561063657600080fd5b8035906020019184602083028401116401000000008311171561065857600080fd5b91908080602002602001604051908101604052809392919081815260200183836020028082843760009201919091525092959493602081019350359150506401000000008111156106a857600080fd5b8201836020820111156106ba57600080fd5b803590602001918460208302840111640100000000831117156106dc57600080fd5b9190808060200260200160405190810160405280939291908181526020018383602002808284376000920191909152509295506113c3945050505050565b6104b46004803603602081101561073057600080fd5b50356115cd565b6104b46115da565b6104fe6115e9565b6104b461182a565b6104fe611839565b6105086118f5565b6105086118fb565b610541611901565b6104fe6004803603602081101561078557600080fd5b50356001600160a01b0316611922565b6104b4611a40565b6104fe600480360360608110156107b357600080fd5b506001600160a01b03813581169160208101359160409091013516611a4f565b610508611be0565b6104b4600480360360208110156107f157600080fd5b5035611be6565b6104fe611bf3565b6104b4611cc9565b6104fe6004803603602081101561081e57600080fd5b50356001600160a01b0316611cd8565b6104b46004803603602081101561084457600080fd5b5035611dec565b6104fe611df9565b610541611f4a565b6104fe600480360360a081101561087157600080fd5b5080359060208101359060408101359060608101359060800135611f53565b6105086122d4565b6105086122da565b6104fe600480360360208110156108b657600080fd5b50356001600160a01b03166122e0565b6104fe600480360360408110156108dc57600080fd5b506001600160a01b03813581169160200135166123fe565b6104b4612537565b610541612546565b6104b4612554565b6104b461256c565b6104fe6004803603604081101561092a57600080fd5b81019060208101813564010000000081111561094557600080fd5b82018360208201111561095757600080fd5b8035906020019184602083028401116401000000008311171561097957600080fd5b91908080602002602001604051908101604052809392919081815260200183836020028082843760009201919091525092959493602081019350359150506401000000008111156109c957600080fd5b8201836020820111156109db57600080fd5b803590602001918460208302840111640100000000831117156109fd57600080fd5b91908080602002602001604051908101604052809392919081815260200183836020028082843760009201919091525092955061257b945050505050565b6104b4612745565b6104b460048036036020811015610a5957600080fd5b5035612754565b61050860048036036020811015610a7657600080fd5b5035612761565b610508612b3c565b6104b4612b42565b6104b4612b51565b6104b4612b60565b6104fe60048036036040811015610ab357600080fd5b506001600160a01b0381358116916020013516612b6f565b6104b4612ca8565b6104fe60048036036040811015610ae957600080fd5b810190602081018135640100000000811115610b0457600080fd5b820183602082011115610b1657600080fd5b80359060200191846020830284011164010000000083111715610b3857600080fd5b9190808060200260200160405190810160405280939291908181526020018383602002808284376000920191909152509295949360208101935035915050640100000000811115610b8857600080fd5b820183602082011115610b9a57600080fd5b80359060200191846020830284011164010000000083111715610bbc57600080fd5b919080806020026020016040519081016040528093929190818152602001838360200280828437600092019190915250929550612cb7945050505050565b6104fe612e68565b6104fe613909565b6104b46139c3565b6105416139d2565b6105086139e2565b610541613a06565b6104b4613a15565b6104b4613a24565b610508613a33565b6104b4613a39565b6104fe60048036036020811015610c6057600080fd5b50356001600160a01b0316613a48565b610508613b74565b601b546001600160a01b031681565b60015460408051631c86b03760e31b815233600482015290516001600160a01b039092169163e43581b891602480820192602092909190829003018186803b158015610cd257600080fd5b505afa158015610ce6573d6000803e3d6000fd5b505050506040513d6020811015610cfc57600080fd5b5051610d395760405162461bcd60e51b815260040180806020018281038252602f81526020018061529c602f913960400191505060405180910390fd5b601a80546001600160a01b038085167fffffffffffffffffffffffff00000000000000000000000000000000000000009283168117909355601b805491851691909216811790915560408051928352602083019190915280517f071b73faa021635fad0a92808ae9c59c365befd74127681dfdf2123f3e71553e9281900390910190a15050565b6126ac81565b60015460408051631c86b03760e31b815233600482015290516001600160a01b039092169163e43581b891602480820192602092909190829003018186803b158015610e1157600080fd5b505afa158015610e25573d6000803e3d6000fd5b505050506040513d6020811015610e3b57600080fd5b5051610e785760405162461bcd60e51b815260040180806020018281038252602f81526020018061529c602f913960400191505060405180910390fd5b6003805482151564010000000081027fffffffffffffffffffffffffffffffffffffffffffffffffffffff00ffffffff9092169190911790915560408051918252517f125177ac7b8930dac1e59c2b30b1b6b9191b30af40cf6bbb5d20fec4d44be60f9181900360200190a150565b600354640100000000900460ff1681565b60015460408051631c86b03760e31b815233600482015290516001600160a01b039092169163e43581b891602480820192602092909190829003018186803b158015610f4357600080fd5b505afa158015610f57573d6000803e3d6000fd5b505050506040513d6020811015610f6d57600080fd5b5051610faa5760405162461bcd60e51b815260040180806020018281038252602f81526020018061529c602f913960400191505060405180910390fd5b60038054821515630100000081027fffffffffffffffffffffffffffffffffffffffffffffffffffffffff00ffffff9092169190911790915560408051918252517f11eebf9ecfc205a1581472f52a6942317b4b052652b7d159c5a991b1caf9553f9181900360200190a150565b600c5481565b60125481565b60105481565b601a546001600160a01b031681565b601c818154811061104657fe5b6000918252602090912001546001600160a01b0316905081565b61271081565b6000611070613b7a565b6001600160a01b0316611081612537565b6001600160a01b0316146110dc576040805162461bcd60e51b815260206004820181905260248201527f4f776e61626c653a2063616c6c6572206973206e6f7420746865206f776e6572604482015290519081900360640190fd5b600280541415611133576040805162461bcd60e51b815260206004820152601f60248201527f5265656e7472616e637947756172643a207265656e7472616e742063616c6c00604482015290519081900360640190fd5b6002805581611189576040805162461bcd60e51b815260206004820152600d60248201527f5f77616e74416d74203c3d203000000000000000000000000000000000000000604482015290519081900360640190fd5b60006111ac600d546111a6600e5486613b7e90919063ffffffff16565b90613be0565b905060008111611203576040805162461bcd60e51b815260206004820152601260248201527f73686172657352656d6f766564203c3d20300000000000000000000000000000604482015290519081900360640190fd5b600e548111156112125750600e545b600e5461121f9082613c47565b600e55601354612710111561124c576112496127106111a660135486613b7e90919063ffffffff16565b92505b60035462010000900460ff16156112665761126683613ca4565b600554604080517f70a0823100000000000000000000000000000000000000000000000000000000815230600482015290516000926001600160a01b0316916370a08231916024808301926020929190829003018186803b1580156112ca57600080fd5b505afa1580156112de573d6000803e3d6000fd5b505050506040513d60208110156112f457600080fd5b5051905080841115611304578093505b83600d54101561131457600d5493505b600d546113219085613c47565b600d55600a54600554611341916001600160a01b03918216911686613da8565b60035462010000900460ff16801561136257506003546301000000900460ff165b1561136f5761136f613e28565b604080513381526020810186905281517f884edad9ce6fa2440d8a54cc123490eb96d2768479d49ff9c7366125a9424364929181900390910190a150600160025592915050565b6020818154811061104657fe5b60015460408051631c86b03760e31b815233600482015290516001600160a01b039092169163e43581b891602480820192602092909190829003018186803b15801561140e57600080fd5b505afa158015611422573d6000803e3d6000fd5b505050506040513d602081101561143857600080fd5b50516114755760405162461bcd60e51b815260040180806020018281038252602f81526020018061529c602f913960400191505060405180910390fd5b600854600b5461149591849184916001600160a01b039081169116613f16565b6114e6576040805162461bcd60e51b815260206004820152601760248201527f696e76616c6964205f6561726e6564546f557050617468000000000000000000604482015290519081900360640190fd5b81516114f990601c9060208501906151c1565b50805161150d90601d9060208401906151c1565b507fe96d7b34c373d3a3ec2babcc077062bf437a26d39643ab5fd97764cc54a4212f8282604051808060200180602001838103835285818151815260200191508051906020019060200280838360005b8381101561157557818101518382015260200161155d565b50505050905001838103825284818151815260200191508051906020019060200280838360005b838110156115b457818101518382015260200161159c565b5050505090500194505050505060405180910390a15050565b601d818154811061104657fe5b600a546001600160a01b031681565b60015460408051631c86b03760e31b815233600482015290516001600160a01b039092169163e43581b891602480820192602092909190829003018186803b15801561163457600080fd5b505afa158015611648573d6000803e3d6000fd5b505050506040513d602081101561165e57600080fd5b5051806116f75750600154604080517f0c68ba2100000000000000000000000000000000000000000000000000000000815233600482015290516001600160a01b0390921691630c68ba2191602480820192602092909190829003018186803b1580156116ca57600080fd5b505afa1580156116de573d6000803e3d6000fd5b505050506040513d60208110156116f457600080fd5b50515b6117325760405162461bcd60e51b81526004018080602001828103825260458152602001806153386045913960600191505060405180910390fd5b600280541415611789576040805162461bcd60e51b815260206004820152601f60248201527f5265656e7472616e637947756172643a207265656e7472616e742063616c6c00604482015290519081900360640190fd5b60028055600554604080517f70a082310000000000000000000000000000000000000000000000000000000081523060048201529051611823926001600160a01b0316916370a08231916024808301926020929190829003018186803b1580156117f257600080fd5b505afa158015611806573d6000803e3d6000fd5b505050506040513d602081101561181c57600080fd5b5051614066565b6001600255565b600b546001600160a01b031681565b60015460408051631c86b03760e31b815233600482015290516001600160a01b039092169163e43581b891602480820192602092909190829003018186803b15801561188457600080fd5b505afa158015611898573d6000803e3d6000fd5b505050506040513d60208110156118ae57600080fd5b50516118eb5760405162461bcd60e51b815260040180806020018281038252602f81526020018061529c602f913960400191505060405180910390fd5b6118f36141c5565b565b600d5481565b600e5481565b60005474010000000000000000000000000000000000000000900460ff1690565b60015460408051631c86b03760e31b815233600482015290516001600160a01b039092169163e43581b891602480820192602092909190829003018186803b15801561196d57600080fd5b505afa158015611981573d6000803e3d6000fd5b505050506040513d602081101561199757600080fd5b50516119d45760405162461bcd60e51b815260040180806020018281038252602f81526020018061529c602f913960400191505060405180910390fd5b601980546001600160a01b0383167fffffffffffffffffffffffff0000000000000000000000000000000000000000909116811790915560408051918252517f42d7ec3cae52221425bb6589ab144941ed3874dda5bcb98099ddc59ff3e50c9d9181900360200190a150565b6009546001600160a01b031681565b60015460408051631c86b03760e31b815233600482015290516001600160a01b039092169163e43581b891602480820192602092909190829003018186803b158015611a9a57600080fd5b505afa158015611aae573d6000803e3d6000fd5b505050506040513d6020811015611ac457600080fd5b5051611b015760405162461bcd60e51b815260040180806020018281038252602f81526020018061529c602f913960400191505060405180910390fd5b6008546001600160a01b0384811691161415611b64576040805162461bcd60e51b815260206004820152600560248201527f2173616665000000000000000000000000000000000000000000000000000000604482015290519081900360640190fd5b6005546001600160a01b0384811691161415611bc7576040805162461bcd60e51b815260206004820152600560248201527f2173616665000000000000000000000000000000000000000000000000000000604482015290519081900360640190fd5b611bdb6001600160a01b0384168284613da8565b505050565b60135481565b601f818154811061104657fe5b611bfb613b7a565b6001600160a01b0316611c0c612537565b6001600160a01b031614611c67576040805162461bcd60e51b815260206004820181905260248201527f4f776e61626c653a2063616c6c6572206973206e6f7420746865206f776e6572604482015290519081900360640190fd5b600080546040516001600160a01b03909116907f8be0079c531659141344cd1fd0a4f28419497f9722a3daafe3b4186f6b6457e0908390a3600080547fffffffffffffffffffffffff0000000000000000000000000000000000000000169055565b6006546001600160a01b031681565b60015460408051631c86b03760e31b815233600482015290516001600160a01b039092169163e43581b891602480820192602092909190829003018186803b158015611d2357600080fd5b505afa158015611d37573d6000803e3d6000fd5b505050506040513d6020811015611d4d57600080fd5b5051611d8a5760405162461bcd60e51b815260040180806020018281038252602f81526020018061529c602f913960400191505060405180910390fd5b600180547fffffffffffffffffffffffff0000000000000000000000000000000000000000166001600160a01b0383169081179091556040517fad9400e618eb1344fde53db22397a1b82c765527ecbba3a5c86bcac15090828b90600090a250565b6021818154811061104657fe5b60015460408051631c86b03760e31b815233600482015290516001600160a01b039092169163e43581b891602480820192602092909190829003018186803b158015611e4457600080fd5b505afa158015611e58573d6000803e3d6000fd5b505050506040513d6020811015611e6e57600080fd5b505180611f075750600154604080517f0c68ba2100000000000000000000000000000000000000000000000000000000815233600482015290516001600160a01b0390921691630c68ba2191602480820192602092909190829003018186803b158015611eda57600080fd5b505afa158015611eee573d6000803e3d6000fd5b505050506040513d6020811015611f0457600080fd5b50515b611f425760405162461bcd60e51b81526004018080602001828103825260458152602001806153386045913960600191505060405180910390fd5b6118f361428c565b60035460ff1681565b60015460408051631c86b03760e31b815233600482015290516001600160a01b039092169163e43581b891602480820192602092909190829003018186803b158015611f9e57600080fd5b505afa158015611fb2573d6000803e3d6000fd5b505050506040513d6020811015611fc857600080fd5b50516120055760405162461bcd60e51b815260040180806020018281038252602f81526020018061529c602f913960400191505060405180910390fd5b61232885101561205c576040805162461bcd60e51b815260206004820152601a60248201527f5f656e7472616e6365466565466163746f7220746f6f206c6f77000000000000604482015290519081900360640190fd5b6127108511156120b3576040805162461bcd60e51b815260206004820152601b60248201527f5f656e7472616e6365466565466163746f7220746f6f20686967680000000000604482015290519081900360640190fd5b601285905561232884101561210f576040805162461bcd60e51b815260206004820152601a60248201527f5f7769746864726177466565466163746f7220746f6f206c6f77000000000000604482015290519081900360640190fd5b612710841115612166576040805162461bcd60e51b815260206004820152601b60248201527f5f7769746864726177466565466163746f7220746f6f20686967680000000000604482015290519081900360640190fd5b60138490556126ac8311156121c2576040805162461bcd60e51b815260206004820152601760248201527f5f636f6e74726f6c6c657246656520746f6f2068696768000000000000000000604482015290519081900360640190fd5b600f8390556126ac82111561221e576040805162461bcd60e51b815260206004820152601560248201527f5f6275794261636b5261746520746f6f20686967680000000000000000000000604482015290519081900360640190fd5b60108290556103e781111561227a576040805162461bcd60e51b815260206004820152601860248201527f5f736c697070616765466163746f7220746f6f20686967680000000000000000604482015290519081900360640190fd5b60148190556040805186815260208101869052808201859052606081018490526080810183905290517fc67e0b149a57a70fa44a531a46c2c6d8e0b242fa12f459f250012c3a5987d29a9181900360a00190a15050505050565b600f5481565b61232881565b60015460408051631c86b03760e31b815233600482015290516001600160a01b039092169163e43581b891602480820192602092909190829003018186803b15801561232b57600080fd5b505afa15801561233f573d6000803e3d6000fd5b505050506040513d602081101561235557600080fd5b50516123925760405162461bcd60e51b815260040180806020018281038252602f81526020018061529c602f913960400191505060405180910390fd5b601180546001600160a01b0383167fffffffffffffffffffffffff0000000000000000000000000000000000000000909116811790915560408051918252517fa69f1931be99336e049905baa11d21ed44204d7686e46b4344404d80d47c29889181900360200190a150565b60015460408051631c86b03760e31b815233600482015290516001600160a01b039092169163e43581b891602480820192602092909190829003018186803b15801561244957600080fd5b505afa15801561245d573d6000803e3d6000fd5b505050506040513d602081101561247357600080fd5b50516124b05760405162461bcd60e51b815260040180806020018281038252602f81526020018061529c602f913960400191505060405180910390fd5b601780546001600160a01b038085167fffffffffffffffffffffffff000000000000000000000000000000000000000092831681179093556018805491851691909216811790915560408051928352602083019190915280517f0b862f0e5cb2c8acd447c3c04b7637f5ac576983fd7ecf72fe3529636483cf309281900390910190a15050565b6000546001600160a01b031690565b600354610100900460ff1681565b6003546501000000000090046001600160a01b031681565b6017546001600160a01b031681565b60015460408051631c86b03760e31b815233600482015290516001600160a01b039092169163e43581b891602480820192602092909190829003018186803b1580156125c657600080fd5b505afa1580156125da573d6000803e3d6000fd5b505050506040513d60208110156125f057600080fd5b505161262d5760405162461bcd60e51b815260040180806020018281038252602f81526020018061529c602f913960400191505060405180910390fd5b6007546006546001600160a01b0390811691161480612667575060085460075461266791849184916001600160a01b039081169116613f16565b6126b8576040805162461bcd60e51b815260206004820152601b60248201527f696e76616c6964205f6561726e6564546f546f6b656e31506174680000000000604482015290519081900360640190fd5b81516126ca90602090818501906151c1565b5080516126de9060219060208401906151c1565b507f903fe96a5723b5e127a99e44f9675f8c21700bc9230aefd5e2936506417029c98282604051808060200180602001838103835285818151815260200191508051906020019060200280838360008381101561157557818101518382015260200161155d565b6018546001600160a01b031681565b601e818154811061104657fe5b600061276b613b7a565b6001600160a01b031661277c612537565b6001600160a01b0316146127d7576040805162461bcd60e51b815260206004820181905260248201527f4f776e61626c653a2063616c6c6572206973206e6f7420746865206f776e6572604482015290519081900360640190fd5b60028054141561282e576040805162461bcd60e51b815260206004820152601f60248201527f5265656e7472616e637947756172643a207265656e7472616e742063616c6c00604482015290519081900360640190fd5b6002805561283a611901565b1561288c576040805162461bcd60e51b815260206004820152601060248201527f5061757361626c653a2070617573656400000000000000000000000000000000604482015290519081900360640190fd5b600e541580158061289e575061271083115b6128d95760405162461bcd60e51b81526004018080602001828103825260268152602001806152cb6026913960400191505060405180910390fd5b600554604080517f70a0823100000000000000000000000000000000000000000000000000000000815230600482015290516000926001600160a01b0316916370a08231916024808301926020929190829003018186803b15801561293d57600080fd5b505afa158015612951573d6000803e3d6000fd5b505050506040513d602081101561296757600080fd5b5051600554909150612984906001600160a01b031633308761434e565b600554604080517f70a0823100000000000000000000000000000000000000000000000000000000815230600482015290516000926001600160a01b0316916370a08231916024808301926020929190829003018186803b1580156129e857600080fd5b505afa1580156129fc573d6000803e3d6000fd5b505050506040513d6020811015612a1257600080fd5b505190506000612a228284613c47565b600d54909150819015801590612a3a57506000600e54115b15612a6f57612a6c6127106111a6600d546111a6601254612a66600e5489613b7e90919063ffffffff16565b90613b7e565b90505b600e54612a7c90826143dc565b600e5560035462010000900460ff1615612a9e57612a9982614066565b612aaf565b600d54612aab90836143dc565b600d555b8415612ac457612ac181612710613c47565b90505b60035462010000900460ff168015612ae557506003546301000000900460ff165b15612af257612af2613e28565b604080513381526020810184905281517fe1fffcc4923d04b559f4d29a8bfc6cda04eb5b0d3c460751c2402c5c5cc9109c929181900390910190a160016002559695505050505050565b6103e781565b6016546001600160a01b031681565b6015546001600160a01b031681565b6011546001600160a01b031681565b60015460408051631c86b03760e31b815233600482015290516001600160a01b039092169163e43581b891602480820192602092909190829003018186803b158015612bba57600080fd5b505afa158015612bce573d6000803e3d6000fd5b505050506040513d6020811015612be457600080fd5b5051612c215760405162461bcd60e51b815260040180806020018281038252602f81526020018061529c602f913960400191505060405180910390fd5b601580546001600160a01b038085167fffffffffffffffffffffffff000000000000000000000000000000000000000092831681179093556016805491851691909216811790915560408051928352602083019190915280517f5bc08486dd6c0ecfe4a1bed664ce71864f8a67d5eb593593c5baf1049c7a7aa29281900390910190a15050565b6019546001600160a01b031681565b60015460408051631c86b03760e31b815233600482015290516001600160a01b039092169163e43581b891602480820192602092909190829003018186803b158015612d0257600080fd5b505afa158015612d16573d6000803e3d6000fd5b505050506040513d6020811015612d2c57600080fd5b5051612d695760405162461bcd60e51b815260040180806020018281038252602f81526020018061529c602f913960400191505060405180910390fd5b600854600654612d8991849184916001600160a01b039081169116613f16565b612dda576040805162461bcd60e51b815260206004820152601b60248201527f696e76616c6964205f6561726e6564546f546f6b656e30506174680000000000604482015290519081900360640190fd5b8151612ded90601e9060208501906151c1565b508051612e0190601f9060208401906151c1565b507f5e791c36fb57fdae3adf1327b54fb3cf83c09aaafa093790a99dbb1be6ac16728282604051808060200180602001838103835285818151815260200191508051906020019060200280838360008381101561157557818101518382015260200161155d565b600280541415612ebf576040805162461bcd60e51b815260206004820152601f60248201527f5265656e7472616e637947756172643a207265656e7472616e742063616c6c00604482015290519081900360640190fd5b60028055612ecb611901565b15612f1d576040805162461bcd60e51b815260206004820152601060248201527f5061757361626c653a2070617573656400000000000000000000000000000000604482015290519081900360640190fd5b60035462010000900460ff16612f7a576040805162461bcd60e51b815260206004820152600b60248201527f2169734175746f436f6d70000000000000000000000000000000000000000000604482015290519081900360640190fd5b600354640100000000900460ff1615806130105750612f97613a39565b6001600160a01b031663e43581b8336040518263ffffffff1660e01b815260040180826001600160a01b0316815260200191505060206040518083038186803b158015612fe357600080fd5b505afa158015612ff7573d6000803e3d6000fd5b505050506040513d602081101561300d57600080fd5b50515b80613097575061301e613a39565b6001600160a01b0316630c68ba21336040518263ffffffff1660e01b815260040180826001600160a01b0316815260200191505060206040518083038186803b15801561306a57600080fd5b505afa15801561307e573d6000803e3d6000fd5b505050506040513d602081101561309457600080fd5b50515b6130ea576040805162461bcd60e51b8152602060048083019190915260248201527f21676f7600000000000000000000000000000000000000000000000000000000604482015290519081900360640190fd5b6130f2614436565b6003546301000000900460ff16156131155761310c613e28565b43600c55611823565b6009546008546001600160a01b039081169116141561313657613136614440565b600854604080517f70a0823100000000000000000000000000000000000000000000000000000000815230600482015290516000926001600160a01b0316916370a08231916024808301926020929190829003018186803b15801561319a57600080fd5b505afa1580156131ae573d6000803e3d6000fd5b505050506040513d60208110156131c457600080fd5b505190506131d1816144b3565b90506131dc81614516565b60035490915060ff16806131f75750600354610100900460ff165b1561326b5743600c55600554604080517f70a082310000000000000000000000000000000000000000000000000000000081523060048201529051613265926001600160a01b0316916370a08231916024808301926020929190829003018186803b1580156117f257600080fd5b50611823565b6007546006546001600160a01b03908116911614156133b3576015546008546132a2916001600160a01b0391821691166000614849565b6015546008546132bf916001600160a01b039182169116836149a3565b601554601654601454601e8054604080516020808402820181019092528281526133ae966001600160a01b0390811696169488949093919290919083018282801561333357602002820191906000526020600020905b81546001600160a01b03168152600190910190602001808311613315575b5050505050601f80548060200260200160405190810160405280929190818152602001828054801561338e57602002820191906000526020600020905b81546001600160a01b03168152600190910190602001808311613370575b5050505050306133a9610258426143dc90919063ffffffff16565b614abc565b613898565b6006546008546001600160a01b03908116911614613504576015546008546133e9916001600160a01b0391821691166000614849565b601554613417906001600160a01b0316613404836002613be0565b6008546001600160a01b031691906149a3565b601554601654613504916001600160a01b039081169116613439846002613be0565b601454601e805480602002602001604051908101604052809291908181526020018280548015613333576020028201919060005260206000209081546001600160a01b03168152600190910190602001808311613315575050505050601f80548060200260200160405190810160405280929190818152602001828054801561338e576020028201919060005260206000209081546001600160a01b03168152600190910190602001808311613370575050505050306133a9610258426143dc90919063ffffffff16565b6007546008546001600160a01b0390811691161461363f5760175460085461353a916001600160a01b0391821691166000614849565b601754613555906001600160a01b0316613404836002613be0565b60175460185461363f916001600160a01b039081169116613577846002613be0565b6014546020805460408051828402810184019091528181529190828201828280156135cb57602002820191906000526020600020905b81546001600160a01b031681526001909101906020018083116135ad575b5050505050602180548060200260200160405190810160405280929190818152602001828054801561338e576020028201919060005260206000209081546001600160a01b03168152600190910190602001808311613370575050505050306133a9610258426143dc90919063ffffffff16565b600654604080517f70a0823100000000000000000000000000000000000000000000000000000000815230600482015290516000926001600160a01b0316916370a08231916024808301926020929190829003018186803b1580156136a357600080fd5b505afa1580156136b7573d6000803e3d6000fd5b505050506040513d60208110156136cd57600080fd5b5051600754604080517f70a0823100000000000000000000000000000000000000000000000000000000815230600482015290519293506000926001600160a01b03909216916370a0823191602480820192602092909190829003018186803b15801561373957600080fd5b505afa15801561374d573d6000803e3d6000fd5b505050506040513d602081101561376357600080fd5b5051905081158015906137765750600081115b1561389557601954600654613798916001600160a01b039182169116846149a3565b6019546007546137b5916001600160a01b039182169116836149a3565b6019546006546007546001600160a01b039283169263e8e3370092811691168585600080306137e6426102586143dc565b6040518963ffffffff1660e01b815260040180896001600160a01b03168152602001886001600160a01b03168152602001878152602001868152602001858152602001848152602001836001600160a01b0316815260200182815260200198505050505050505050606060405180830381600087803b15801561386857600080fd5b505af115801561387c573d6000803e3d6000fd5b505050506040513d606081101561389257600080fd5b50505b50505b43600c55600554604080517f70a082310000000000000000000000000000000000000000000000000000000081523060048201529051613901926001600160a01b0316916370a08231916024808301926020929190829003018186803b1580156117f257600080fd5b506001600255565b60015460408051631c86b03760e31b815233600482015290516001600160a01b039092169163e43581b891602480820192602092909190829003018186803b15801561395457600080fd5b505afa158015613968573d6000803e3d6000fd5b505050506040513d602081101561397e57600080fd5b50516139bb5760405162461bcd60e51b815260040180806020018281038252602f81526020018061529c602f913960400191505060405180910390fd5b6118f3614440565b6007546001600160a01b031681565b6003546301000000900460ff1681565b7f8b8c0776df2c2176edf6f82391c35ea4891146d7a976ee36fd07f1a6fb4ead4c81565b60035462010000900460ff1681565b6008546001600160a01b031681565b6005546001600160a01b031681565b60045481565b6001546001600160a01b031690565b613a50613b7a565b6001600160a01b0316613a61612537565b6001600160a01b031614613abc576040805162461bcd60e51b815260206004820181905260248201527f4f776e61626c653a2063616c6c6572206973206e6f7420746865206f776e6572604482015290519081900360640190fd5b6001600160a01b038116613b015760405162461bcd60e51b81526004018080602001828103825260268152602001806152766026913960400191505060405180910390fd5b600080546040516001600160a01b03808516939216917f8be0079c531659141344cd1fd0a4f28419497f9722a3daafe3b4186f6b6457e091a3600080547fffffffffffffffffffffffff0000000000000000000000000000000000000000166001600160a01b0392909216919091179055565b60145481565b3390565b600082613b8d57506000613bda565b82820282848281613b9a57fe5b0414613bd75760405162461bcd60e51b81526004018080602001828103825260218152602001806153176021913960400191505060405180910390fd5b90505b92915050565b6000808211613c36576040805162461bcd60e51b815260206004820152601a60248201527f536166654d6174683a206469766973696f6e206279207a65726f000000000000604482015290519081900360640190fd5b818381613c3f57fe5b049392505050565b600082821115613c9e576040805162461bcd60e51b815260206004820152601e60248201527f536166654d6174683a207375627472616374696f6e206f766572666c6f770000604482015290519081900360640190fd5b50900390565b60035460ff1615613d2757600360059054906101000a90046001600160a01b03166001600160a01b0316631058d281826040518263ffffffff1660e01b815260040180828152602001915050600060405180830381600087803b158015613d0a57600080fd5b505af1158015613d1e573d6000803e3d6000fd5b50505050613da5565b600360059054906101000a90046001600160a01b03166001600160a01b031663441a3e70600454836040518363ffffffff1660e01b81526004018083815260200182815260200192505050600060405180830381600087803b158015613d8c57600080fd5b505af1158015613da0573d6000803e3d6000fd5b505050505b50565b604080516001600160a01b038416602482015260448082018490528251808303909101815260649091019091526020810180517bffffffffffffffffffffffffffffffffffffffffffffffffffffffff167fa9059cbb00000000000000000000000000000000000000000000000000000000179052611bdb908490614af7565b6009546008546001600160a01b0390811691161415613e4957613e49614440565b600854604080517f70a0823100000000000000000000000000000000000000000000000000000000815230600482015290516000926001600160a01b0316916370a08231916024808301926020929190829003018186803b158015613ead57600080fd5b505afa158015613ec1573d6000803e3d6000fd5b505050506040513d6020811015613ed757600080fd5b505190508015801590613ef457506011546001600160a01b031615155b15613da557601154600854613da5916001600160a01b03918216911683613da8565b8351835160035460009291906301000000900460ff1680613f485750836001600160a01b0316856001600160a01b0316145b15613f625781158015613f59575080155b9250505061405e565b60028210158015613f985750846001600160a01b031687600081518110613f8557fe5b60200260200101516001600160a01b0316145b8015614059575080158015613fd45750836001600160a01b0316876001840381518110613fc157fe5b60200260200101516001600160a01b0316145b80614059575060028110158015614026575085600081518110613ff357fe5b60200260200101516001600160a01b031687600184038151811061401357fe5b60200260200101516001600160a01b0316145b80156140595750836001600160a01b031686600183038151811061404657fe5b60200260200101516001600160a01b0316145b925050505b949350505050565b60035462010000900460ff166140c3576040805162461bcd60e51b815260206004820152600b60248201527f2169734175746f436f6d70000000000000000000000000000000000000000000604482015290519081900360640190fd5b600d546140d090826143dc565b600d556003546005546140fa916001600160a01b03918216916501000000000090910416836149a3565b60035460ff161561416057600360059054906101000a90046001600160a01b03166001600160a01b03166341441d3b826040518263ffffffff1660e01b815260040180828152602001915050600060405180830381600087803b158015613d0a57600080fd5b600360059054906101000a90046001600160a01b03166001600160a01b031663e2bbb158600454836040518363ffffffff1660e01b81526004018083815260200182815260200192505050600060405180830381600087803b158015613d8c57600080fd5b6141cd611901565b61421e576040805162461bcd60e51b815260206004820152601460248201527f5061757361626c653a206e6f7420706175736564000000000000000000000000604482015290519081900360640190fd5b600080547fffffffffffffffffffffff00ffffffffffffffffffffffffffffffffffffffff1690557f5db9ee0a495bf2e6ff9c91a7834c1ba4fdd244a5e8aa4e537bd38aeae4b073aa61426f613b7a565b604080516001600160a01b039092168252519081900360200190a1565b614294611901565b156142e6576040805162461bcd60e51b815260206004820152601060248201527f5061757361626c653a2070617573656400000000000000000000000000000000604482015290519081900360640190fd5b600080547fffffffffffffffffffffff00ffffffffffffffffffffffffffffffffffffffff16740100000000000000000000000000000000000000001790557f62e78cea01bee320cd4e420270b5ea74000d11b0c9f74754ebdbfc544b05a25861426f613b7a565b604080516001600160a01b0380861660248301528416604482015260648082018490528251808303909101815260849091019091526020810180517bffffffffffffffffffffffffffffffffffffffffffffffffffffffff167f23b872dd000000000000000000000000000000000000000000000000000000001790526143d6908590614af7565b50505050565b600082820183811015613bd7576040805162461bcd60e51b815260206004820152601b60248201527f536166654d6174683a206164646974696f6e206f766572666c6f770000000000604482015290519081900360640190fd5b6118f36000613ca4565b478015613da557600960009054906101000a90046001600160a01b03166001600160a01b031663d0e30db0826040518263ffffffff1660e01b81526004016000604051808303818588803b15801561449757600080fd5b505af11580156144ab573d6000803e3d6000fd5b505050505050565b6000811561450e57600f541561450e5760006144e06127106111a6600f5486613b7e90919063ffffffff16565b601154600854919250614500916001600160a01b03908116911683613da8565b61450a8382613c47565b9250505b50805b919050565b60008060105411614528575080614511565b60006145456127106111a660105486613b7e90919063ffffffff16565b600b5460085491925082916001600160a01b039081169116146147b857601a54600854614580916001600160a01b0391821691166000614849565b601a5460085461459d916001600160a01b039182169116846149a3565b600b54604080517f70a0823100000000000000000000000000000000000000000000000000000000815230600482015290516000926001600160a01b0316916370a08231916024808301926020929190829003018186803b15801561460157600080fd5b505afa158015614615573d6000803e3d6000fd5b505050506040513d602081101561462b57600080fd5b5051601a54601b54601454601c805460408051602080840282018101909252828152969750614718966001600160a01b0396871696909516948a9493909290918301828280156146a457602002820191906000526020600020905b81546001600160a01b03168152600190910190602001808311614686575b5050505050601d80548060200260200160405190810160405280929190818152602001828054801561338e576020028201919060005260206000209081546001600160a01b03168152600190910190602001808311613370575050505050306133a9610258426143dc90919063ffffffff16565b600b54604080517f70a0823100000000000000000000000000000000000000000000000000000000815230600482015290516147b49284926001600160a01b03909116916370a0823191602480820192602092909190829003018186803b15801561478257600080fd5b505afa158015614796573d6000803e3d6000fd5b505050506040513d60208110156147ac57600080fd5b505190613c47565b9150505b600b54604080517f42966c680000000000000000000000000000000000000000000000000000000081526004810184905290516001600160a01b03909216916342966c689160248082019260009290919082900301818387803b15801561481e57600080fd5b505af1158015614832573d6000803e3d6000fd5b5050505061405e8285613c4790919063ffffffff16565b8015806148e85750604080517fdd62ed3e0000000000000000000000000000000000000000000000000000000081523060048201526001600160a01b03848116602483015291519185169163dd62ed3e91604480820192602092909190829003018186803b1580156148ba57600080fd5b505afa1580156148ce573d6000803e3d6000fd5b505050506040513d60208110156148e457600080fd5b5051155b6149235760405162461bcd60e51b81526004018080602001828103825260368152602001806153a76036913960400191505060405180910390fd5b604080516001600160a01b038416602482015260448082018490528251808303909101815260649091019091526020810180517bffffffffffffffffffffffffffffffffffffffffffffffffffffffff167f095ea7b300000000000000000000000000000000000000000000000000000000179052611bdb908490614af7565b6000614a3982856001600160a01b031663dd62ed3e30876040518363ffffffff1660e01b815260040180836001600160a01b03168152602001826001600160a01b031681526020019250505060206040518083038186803b158015614a0757600080fd5b505afa158015614a1b573d6000803e3d6000fd5b505050506040513d6020811015614a3157600080fd5b5051906143dc565b604080516001600160a01b038616602482015260448082018490528251808303909101815260649091019091526020810180517bffffffffffffffffffffffffffffffffffffffffffffffffffffffff167f095ea7b3000000000000000000000000000000000000000000000000000000001790529091506143d6908590614af7565b6001600160a01b038716614add57614ad8888787878686614ba8565b614aed565b614aed8888888888888888614e49565b5050505050505050565b6060614b4c826040518060400160405280602081526020017f5361666545524332303a206c6f772d6c6576656c2063616c6c206661696c6564815250856001600160a01b0316614f8f9092919063ffffffff16565b805190915015611bdb57808060200190516020811015614b6b57600080fd5b5051611bdb5760405162461bcd60e51b815260040180806020018281038252602a81526020018061537d602a913960400191505060405180910390fd5b604080517fd06ca61f00000000000000000000000000000000000000000000000000000000815260048101878152602482019283528551604483015285516060936001600160a01b038b169363d06ca61f938b938a939192606401906020808601910280838360005b83811015614c29578181015183820152602001614c11565b50505050905001935050505060006040518083038186803b158015614c4d57600080fd5b505afa158015614c61573d6000803e3d6000fd5b505050506040513d6000823e601f3d9081017fffffffffffffffffffffffffffffffffffffffffffffffffffffffffffffffe01682016040526020811015614ca857600080fd5b8101908080516040519392919084640100000000821115614cc857600080fd5b908301906020820185811115614cdd57600080fd5b8251866020820283011164010000000082111715614cfa57600080fd5b82525081516020918201928201910280838360005b83811015614d27578181015183820152602001614d0f565b505050509050016040525050509050600081614d4e60018451613c4790919063ffffffff16565b81518110614d5857fe5b60200260200101519050876001600160a01b0316635c11d79588614d8b6103e86111a68b87613b7e90919063ffffffff16565b8888886040518663ffffffff1660e01b81526004018086815260200185815260200180602001846001600160a01b03168152602001838152602001828103825285818151815260200191508051906020019060200280838360005b83811015614dfe578181015183820152602001614de6565b505050509050019650505050505050600060405180830381600087803b158015614e2757600080fd5b505af1158015614e3b573d6000803e3d6000fd5b505050505050505050505050565b600084600186510381518110614e5b57fe5b602002602001015190506000816001600160a01b03166370a08231306040518263ffffffff1660e01b815260040180826001600160a01b0316815260200191505060206040518083038186803b158015614eb457600080fd5b505afa158015614ec8573d6000803e3d6000fd5b505050506040513d6020811015614ede57600080fd5b50519050614ef08a8989893088614ba8565b6000614f4382846001600160a01b03166370a08231306040518263ffffffff1660e01b815260040180826001600160a01b0316815260200191505060206040518083038186803b15801561478257600080fd5b90508015614f8257614f606001600160a01b0384168b6000614849565b614f746001600160a01b0384168b836149a3565b614f828a828a898989614ba8565b5050505050505050505050565b6060614f9e8484600085614fa8565b90505b9392505050565b606082471015614fe95760405162461bcd60e51b81526004018080602001828103825260268152602001806152f16026913960400191505060405180910390fd5b614ff285615117565b615043576040805162461bcd60e51b815260206004820152601d60248201527f416464726573733a2063616c6c20746f206e6f6e2d636f6e7472616374000000604482015290519081900360640190fd5b60006060866001600160a01b031685876040518082805190602001908083835b602083106150a057805182527fffffffffffffffffffffffffffffffffffffffffffffffffffffffffffffffe09092019160209182019101615063565b6001836020036101000a03801982511681845116808217855250505050505090500191505060006040518083038185875af1925050503d8060008114615102576040519150601f19603f3d011682016040523d82523d6000602084013e615107565b606091505b509150915061405982828661511d565b3b151590565b6060831561512c575081614fa1565b82511561513c5782518084602001fd5b8160405162461bcd60e51b81526004018080602001828103825283818151815260200191508051906020019080838360005b8381101561518657818101518382015260200161516e565b50505050905090810190601f1680156151b35780820380516001836020036101000a031916815260200191505b509250505060405180910390fd5b82805482825590600052602060002090810192821561522e579160200282015b8281111561522e57825182547fffffffffffffffffffffffff0000000000000000000000000000000000000000166001600160a01b039091161782556020909201916001909101906151e1565b5061523a92915061523e565b5090565b5b8082111561523a5780547fffffffffffffffffffffffff000000000000000000000000000000000000000016815560010161523f56fe4f776e61626c653a206e6577206f776e657220697320746865207a65726f2061646472657373436f72655265663a3a6f6e6c79476f7665726e6f723a2043616c6c6572206973206e6f74206120676f7665726e6f726669727374206465706f73697420616d6f756e74203c3d204d494e494d554d5f534841524553416464726573733a20696e73756666696369656e742062616c616e636520666f722063616c6c536166654d6174683a206d756c7469706c69636174696f6e206f766572666c6f77436f72655265663a3a6f6e6c79477561726469616e4f72476f7665726e6f723a2043616c6c6572206973206e6f74206120677561726469616e206f7220676f7665726e6f725361666545524332303a204552433230206f7065726174696f6e20646964206e6f7420737563636565645361666545524332303a20617070726f76652066726f6d206e6f6e2d7a65726f20746f206e6f6e2d7a65726f20616c6c6f77616e6365a2646970667358221220804a930268a6a83fb5a9d7f6eb76c53713f0403db40e0300c37b15f825e1b99164736f6c634300060c0033",
  "devdoc": {
    "kind": "dev",
    "methods": {
      "owner()": {
        "details": "Returns the address of the current owner."
      },
      "paused()": {
        "details": "Returns true if the contract is paused, and false otherwise."
      },
      "renounceOwnership()": {
        "details": "Leaves the contract without owner. It will not be possible to call `onlyOwner` functions anymore. Can only be called by the current owner. NOTE: Renouncing ownership will leave the contract without an owner, thereby removing any functionality that is only available to the owner."
      },
      "transferOwnership(address)": {
        "details": "Transfers ownership of the contract to a new account (`newOwner`). Can only be called by the current owner."
      }
    },
    "version": 1
  },
  "userdoc": {
    "kind": "user",
    "methods": {},
    "version": 1
  },
  "storageLayout": {
    "storage": [
      {
        "astId": 290,
        "contract": "contracts/StrategyPCS.sol:StrategyPCS",
        "label": "_owner",
        "offset": 0,
        "slot": "0",
        "type": "t_address"
      },
      {
        "astId": 2370,
        "contract": "contracts/StrategyPCS.sol:StrategyPCS",
        "label": "_paused",
        "offset": 20,
        "slot": "0",
        "type": "t_bool"
      },
      {
        "astId": 11828,
        "contract": "contracts/StrategyPCS.sol:StrategyPCS",
        "label": "_core",
        "offset": 0,
        "slot": "1",
        "type": "t_contract(ICore)11820"
      },
      {
        "astId": 2455,
        "contract": "contracts/StrategyPCS.sol:StrategyPCS",
        "label": "_status",
        "offset": 0,
        "slot": "2",
        "type": "t_uint256"
      },
      {
        "astId": 4257,
        "contract": "contracts/StrategyPCS.sol:StrategyPCS",
        "label": "isCAKEStaking",
        "offset": 0,
        "slot": "3",
        "type": "t_bool"
      },
      {
        "astId": 4259,
        "contract": "contracts/StrategyPCS.sol:StrategyPCS",
        "label": "isSameAssetDeposit",
        "offset": 1,
        "slot": "3",
        "type": "t_bool"
      },
      {
        "astId": 4261,
        "contract": "contracts/StrategyPCS.sol:StrategyPCS",
        "label": "isAutoComp",
        "offset": 2,
        "slot": "3",
        "type": "t_bool"
      },
      {
        "astId": 4263,
        "contract": "contracts/StrategyPCS.sol:StrategyPCS",
        "label": "isCollect",
        "offset": 3,
        "slot": "3",
        "type": "t_bool"
      },
      {
        "astId": 4266,
        "contract": "contracts/StrategyPCS.sol:StrategyPCS",
        "label": "onlyGov",
        "offset": 4,
        "slot": "3",
        "type": "t_bool"
      },
      {
        "astId": 4268,
        "contract": "contracts/StrategyPCS.sol:StrategyPCS",
        "label": "farmContractAddress",
        "offset": 5,
        "slot": "3",
        "type": "t_address"
      },
      {
        "astId": 4270,
        "contract": "contracts/StrategyPCS.sol:StrategyPCS",
        "label": "pid",
        "offset": 0,
        "slot": "4",
        "type": "t_uint256"
      },
      {
        "astId": 4272,
        "contract": "contracts/StrategyPCS.sol:StrategyPCS",
        "label": "wantAddress",
        "offset": 0,
        "slot": "5",
        "type": "t_address"
      },
      {
        "astId": 4274,
        "contract": "contracts/StrategyPCS.sol:StrategyPCS",
        "label": "token0Address",
        "offset": 0,
        "slot": "6",
        "type": "t_address"
      },
      {
        "astId": 4276,
        "contract": "contracts/StrategyPCS.sol:StrategyPCS",
        "label": "token1Address",
        "offset": 0,
        "slot": "7",
        "type": "t_address"
      },
      {
        "astId": 4278,
        "contract": "contracts/StrategyPCS.sol:StrategyPCS",
        "label": "earnedAddress",
        "offset": 0,
        "slot": "8",
        "type": "t_address"
      },
      {
        "astId": 4280,
        "contract": "contracts/StrategyPCS.sol:StrategyPCS",
        "label": "wbnbAddress",
        "offset": 0,
        "slot": "9",
        "type": "t_address"
      },
      {
        "astId": 4282,
        "contract": "contracts/StrategyPCS.sol:StrategyPCS",
        "label": "UPFarmAddress",
        "offset": 0,
        "slot": "10",
        "type": "t_address"
      },
      {
        "astId": 4284,
        "contract": "contracts/StrategyPCS.sol:StrategyPCS",
        "label": "UPAddress",
        "offset": 0,
        "slot": "11",
        "type": "t_address"
      },
      {
        "astId": 4287,
        "contract": "contracts/StrategyPCS.sol:StrategyPCS",
        "label": "lastEarnBlock",
        "offset": 0,
        "slot": "12",
        "type": "t_uint256"
      },
      {
        "astId": 4290,
        "contract": "contracts/StrategyPCS.sol:StrategyPCS",
        "label": "wantLockedTotal",
        "offset": 0,
        "slot": "13",
        "type": "t_uint256"
      },
      {
        "astId": 4293,
        "contract": "contracts/StrategyPCS.sol:StrategyPCS",
        "label": "sharesTotal",
        "offset": 0,
        "slot": "14",
        "type": "t_uint256"
      },
      {
        "astId": 4296,
        "contract": "contracts/StrategyPCS.sol:StrategyPCS",
        "label": "controllerFee",
        "offset": 0,
        "slot": "15",
        "type": "t_uint256"
      },
      {
        "astId": 4305,
        "contract": "contracts/StrategyPCS.sol:StrategyPCS",
        "label": "buyBackRate",
        "offset": 0,
        "slot": "16",
        "type": "t_uint256"
      },
      {
        "astId": 4313,
        "contract": "contracts/StrategyPCS.sol:StrategyPCS",
        "label": "rewardsAddress",
        "offset": 0,
        "slot": "17",
        "type": "t_address"
      },
      {
        "astId": 4316,
        "contract": "contracts/StrategyPCS.sol:StrategyPCS",
        "label": "entranceFeeFactor",
        "offset": 0,
        "slot": "18",
        "type": "t_uint256"
      },
      {
        "astId": 4325,
        "contract": "contracts/StrategyPCS.sol:StrategyPCS",
        "label": "withdrawFeeFactor",
        "offset": 0,
        "slot": "19",
        "type": "t_uint256"
      },
      {
        "astId": 4334,
        "contract": "contracts/StrategyPCS.sol:StrategyPCS",
        "label": "slippageFactor",
        "offset": 0,
        "slot": "20",
        "type": "t_uint256"
      },
      {
        "astId": 4339,
        "contract": "contracts/StrategyPCS.sol:StrategyPCS",
        "label": "earnedToToken0Router0Address",
        "offset": 0,
        "slot": "21",
        "type": "t_address"
      },
      {
        "astId": 4341,
        "contract": "contracts/StrategyPCS.sol:StrategyPCS",
        "label": "earnedToToken0Router1Address",
        "offset": 0,
        "slot": "22",
        "type": "t_address"
      },
      {
        "astId": 4343,
        "contract": "contracts/StrategyPCS.sol:StrategyPCS",
        "label": "earnedToToken1Router0Address",
        "offset": 0,
        "slot": "23",
        "type": "t_address"
      },
      {
        "astId": 4345,
        "contract": "contracts/StrategyPCS.sol:StrategyPCS",
        "label": "earnedToToken1Router1Address",
        "offset": 0,
        "slot": "24",
        "type": "t_address"
      },
      {
        "astId": 4347,
        "contract": "contracts/StrategyPCS.sol:StrategyPCS",
        "label": "wantRouterAddress",
        "offset": 0,
        "slot": "25",
        "type": "t_address"
      },
      {
        "astId": 4349,
        "contract": "contracts/StrategyPCS.sol:StrategyPCS",
        "label": "buyBackRouter0Address",
        "offset": 0,
        "slot": "26",
        "type": "t_address"
      },
      {
        "astId": 4351,
        "contract": "contracts/StrategyPCS.sol:StrategyPCS",
        "label": "buyBackRouter1Address",
        "offset": 0,
        "slot": "27",
        "type": "t_address"
      },
      {
        "astId": 4354,
        "contract": "contracts/StrategyPCS.sol:StrategyPCS",
        "label": "earnedToUpPath0",
        "offset": 0,
        "slot": "28",
        "type": "t_array(t_address)dyn_storage"
      },
      {
        "astId": 4357,
        "contract": "contracts/StrategyPCS.sol:StrategyPCS",
        "label": "earnedToUpPath1",
        "offset": 0,
        "slot": "29",
        "type": "t_array(t_address)dyn_storage"
      },
      {
        "astId": 4360,
        "contract": "contracts/StrategyPCS.sol:StrategyPCS",
        "label": "earnedToToken0Path0",
        "offset": 0,
        "slot": "30",
        "type": "t_array(t_address)dyn_storage"
      },
      {
        "astId": 4363,
        "contract": "contracts/StrategyPCS.sol:StrategyPCS",
        "label": "earnedToToken0Path1",
        "offset": 0,
        "slot": "31",
        "type": "t_array(t_address)dyn_storage"
      },
      {
        "astId": 4366,
        "contract": "contracts/StrategyPCS.sol:StrategyPCS",
        "label": "earnedToToken1Path0",
        "offset": 0,
        "slot": "32",
        "type": "t_array(t_address)dyn_storage"
      },
      {
        "astId": 4369,
        "contract": "contracts/StrategyPCS.sol:StrategyPCS",
        "label": "earnedToToken1Path1",
        "offset": 0,
        "slot": "33",
        "type": "t_array(t_address)dyn_storage"
      }
    ],
    "types": {
      "t_address": {
        "encoding": "inplace",
        "label": "address",
        "numberOfBytes": "20"
      },
      "t_array(t_address)dyn_storage": {
        "base": "t_address",
        "encoding": "dynamic_array",
        "label": "address[]",
        "numberOfBytes": "32"
      },
      "t_bool": {
        "encoding": "inplace",
        "label": "bool",
        "numberOfBytes": "1"
      },
      "t_contract(ICore)11820": {
        "encoding": "inplace",
        "label": "contract ICore",
        "numberOfBytes": "20"
      },
      "t_uint256": {
        "encoding": "inplace",
        "label": "uint256",
        "numberOfBytes": "32"
      }
    }
  }
}