{
  "address": "0x317Ac0d270773003741AE22331A8cF5244f2f716",
  "abi": [
    {
      "inputs": [
        {
          "internalType": "address[]",
          "name": "_addresses",
          "type": "address[]"
        },
        {
          "internalType": "uint256",
          "name": "_pid",
          "type": "uint256"
        },
        {
          "internalType": "address",
          "name": "_cakeAddress",
          "type": "address"
        },
        {
          "internalType": "bool",
          "name": "_isAutoComp",
          "type": "bool"
        },
        {
          "internalType": "bool",
          "name": "_isCollect",
          "type": "bool"
        },
        {
          "internalType": "address[]",
          "name": "_earnedToUpPath0",
          "type": "address[]"
        },
        {
          "internalType": "address[]",
          "name": "_earnedToUpPath1",
          "type": "address[]"
        },
        {
          "internalType": "address[]",
          "name": "_earnedToToken0Path",
          "type": "address[]"
        },
        {
          "internalType": "address[]",
          "name": "_earnedToToken1Path",
          "type": "address[]"
        },
        {
          "internalType": "uint256",
          "name": "_controllerFee",
          "type": "uint256"
        },
        {
          "internalType": "uint256",
          "name": "_buyBackRate",
          "type": "uint256"
        },
        {
          "internalType": "uint256",
          "name": "_entranceFeeFactor",
          "type": "uint256"
        },
        {
          "internalType": "uint256",
          "name": "_withdrawFeeFactor",
          "type": "uint256"
        }
      ],
      "stateMutability": "nonpayable",
      "type": "constructor"
    },
    {
      "anonymous": false,
      "inputs": [
        {
          "indexed": true,
          "internalType": "address",
          "name": "_core",
          "type": "address"
        }
      ],
      "name": "CoreUpdate",
      "type": "event"
    },
    {
      "anonymous": false,
      "inputs": [
        {
          "indexed": false,
          "internalType": "address",
          "name": "user",
          "type": "address"
        },
        {
          "indexed": false,
          "internalType": "uint256",
          "name": "amount",
          "type": "uint256"
        }
      ],
      "name": "Deposit",
      "type": "event"
    },
    {
      "anonymous": false,
      "inputs": [
        {
          "indexed": false,
          "internalType": "address",
          "name": "account",
          "type": "address"
        }
      ],
      "name": "Paused",
      "type": "event"
    },
    {
      "anonymous": false,
      "inputs": [
        {
          "indexed": false,
          "internalType": "address",
          "name": "_buyBackRouter0Address",
          "type": "address"
        },
        {
          "indexed": false,
          "internalType": "address",
          "name": "_buyBackRouter1Address",
          "type": "address"
        }
      ],
      "name": "SetBuyBackRouterAddress",
      "type": "event"
    },
    {
      "anonymous": false,
      "inputs": [
        {
          "indexed": false,
          "internalType": "bool",
          "name": "_isCollect",
          "type": "bool"
        }
      ],
      "name": "SetCollect",
      "type": "event"
    },
    {
      "anonymous": false,
      "inputs": [
        {
          "indexed": false,
          "internalType": "address[]",
          "name": "_earnedToToken0Path0",
          "type": "address[]"
        },
        {
          "indexed": false,
          "internalType": "address[]",
          "name": "_earnedToToken0Path1",
          "type": "address[]"
        }
      ],
      "name": "SetEarnedToToken0Path",
      "type": "event"
    },
    {
      "anonymous": false,
      "inputs": [
        {
          "indexed": false,
          "internalType": "address",
          "name": "_earnedToToken0Router0Address",
          "type": "address"
        },
        {
          "indexed": false,
          "internalType": "address",
          "name": "_earnedToToken0Router1Address",
          "type": "address"
        }
      ],
      "name": "SetEarnedToToken0RouterAddress",
      "type": "event"
    },
    {
      "anonymous": false,
      "inputs": [
        {
          "indexed": false,
          "internalType": "address[]",
          "name": "_earnedToToken1Path0",
          "type": "address[]"
        },
        {
          "indexed": false,
          "internalType": "address[]",
          "name": "_earnedToToken1Path1",
          "type": "address[]"
        }
      ],
      "name": "SetEarnedToToken1Path",
      "type": "event"
    },
    {
      "anonymous": false,
      "inputs": [
        {
          "indexed": false,
          "internalType": "address",
          "name": "_earnedToToken1Router0Address",
          "type": "address"
        },
        {
          "indexed": false,
          "internalType": "address",
          "name": "_earnedToToken1Router1Address",
          "type": "address"
        }
      ],
      "name": "SetEarnedToToken1RouterAddress",
      "type": "event"
    },
    {
      "anonymous": false,
      "inputs": [
        {
          "indexed": false,
          "internalType": "address[]",
          "name": "_earnedToUpPath0",
          "type": "address[]"
        },
        {
          "indexed": false,
          "internalType": "address[]",
          "name": "_earnedToUpPath1",
          "type": "address[]"
        }
      ],
      "name": "SetEarnedToUpPath",
      "type": "event"
    },
    {
      "anonymous": false,
      "inputs": [
        {
          "indexed": false,
          "internalType": "bool",
          "name": "_onlyGov",
          "type": "bool"
        }
      ],
      "name": "SetOnlyGov",
      "type": "event"
    },
    {
      "anonymous": false,
      "inputs": [
        {
          "indexed": false,
          "internalType": "address",
          "name": "_rewardsAddress",
          "type": "address"
        }
      ],
      "name": "SetRewardsAddress",
      "type": "event"
    },
    {
      "anonymous": false,
      "inputs": [
        {
          "indexed": false,
          "internalType": "uint256",
          "name": "_entranceFeeFactor",
          "type": "uint256"
        },
        {
          "indexed": false,
          "internalType": "uint256",
          "name": "_withdrawFeeFactor",
          "type": "uint256"
        },
        {
          "indexed": false,
          "internalType": "uint256",
          "name": "_controllerFee",
          "type": "uint256"
        },
        {
          "indexed": false,
          "internalType": "uint256",
          "name": "_buyBackRate",
          "type": "uint256"
        },
        {
          "indexed": false,
          "internalType": "uint256",
          "name": "_slippageFactor",
          "type": "uint256"
        }
      ],
      "name": "SetSettings",
      "type": "event"
    },
    {
      "anonymous": false,
      "inputs": [
        {
          "indexed": false,
          "internalType": "address",
          "name": "_wantRouterAddress",
          "type": "address"
        }
      ],
      "name": "SetWantRouterAddress",
      "type": "event"
    },
    {
      "anonymous": false,
      "inputs": [
        {
          "indexed": false,
          "internalType": "address",
          "name": "account",
          "type": "address"
        }
      ],
      "name": "Unpaused",
      "type": "event"
    },
    {
      "anonymous": false,
      "inputs": [
        {
          "indexed": false,
          "internalType": "address",
          "name": "user",
          "type": "address"
        },
        {
          "indexed": false,
          "internalType": "uint256",
          "name": "amount",
          "type": "uint256"
        }
      ],
      "name": "Withdraw",
      "type": "event"
    },
    {
      "inputs": [],
      "name": "MASTER_ROLE",
      "outputs": [
        {
          "internalType": "bytes32",
          "name": "",
          "type": "bytes32"
        }
      ],
      "stateMutability": "view",
      "type": "function"
    },
    {
      "inputs": [],
      "name": "MINIMUM_SHARES",
      "outputs": [
        {
          "internalType": "uint256",
          "name": "",
          "type": "uint256"
        }
      ],
      "stateMutability": "view",
      "type": "function"
    },
    {
      "inputs": [],
      "name": "UPAddress",
      "outputs": [
        {
          "internalType": "address",
          "name": "",
          "type": "address"
        }
      ],
      "stateMutability": "view",
      "type": "function"
    },
    {
      "inputs": [],
      "name": "UPFarmAddress",
      "outputs": [
        {
          "internalType": "address",
          "name": "",
          "type": "address"
        }
      ],
      "stateMutability": "view",
      "type": "function"
    },
    {
      "inputs": [],
      "name": "buyBackRate",
      "outputs": [
        {
          "internalType": "uint256",
          "name": "",
          "type": "uint256"
        }
      ],
      "stateMutability": "view",
      "type": "function"
    },
    {
      "inputs": [],
      "name": "buyBackRateMax",
      "outputs": [
        {
          "internalType": "uint256",
          "name": "",
          "type": "uint256"
        }
      ],
      "stateMutability": "view",
      "type": "function"
    },
    {
      "inputs": [],
      "name": "buyBackRateUL",
      "outputs": [
        {
          "internalType": "uint256",
          "name": "",
          "type": "uint256"
        }
      ],
      "stateMutability": "view",
      "type": "function"
    },
    {
      "inputs": [],
      "name": "buyBackRouter0Address",
      "outputs": [
        {
          "internalType": "address",
          "name": "",
          "type": "address"
        }
      ],
      "stateMutability": "view",
      "type": "function"
    },
    {
      "inputs": [],
      "name": "buyBackRouter1Address",
      "outputs": [
        {
          "internalType": "address",
          "name": "",
          "type": "address"
        }
      ],
      "stateMutability": "view",
      "type": "function"
    },
    {
      "inputs": [],
      "name": "controllerFee",
      "outputs": [
        {
          "internalType": "uint256",
          "name": "",
          "type": "uint256"
        }
      ],
      "stateMutability": "view",
      "type": "function"
    },
    {
      "inputs": [],
      "name": "controllerFeeMax",
      "outputs": [
        {
          "internalType": "uint256",
          "name": "",
          "type": "uint256"
        }
      ],
      "stateMutability": "view",
      "type": "function"
    },
    {
      "inputs": [],
      "name": "controllerFeeUL",
      "outputs": [
        {
          "internalType": "uint256",
          "name": "",
          "type": "uint256"
        }
      ],
      "stateMutability": "view",
      "type": "function"
    },
    {
      "inputs": [],
      "name": "core",
      "outputs": [
        {
          "internalType": "contract ICore",
          "name": "",
          "type": "address"
        }
      ],
      "stateMutability": "view",
      "type": "function"
    },
    {
      "inputs": [
        {
          "internalType": "uint256",
          "name": "_wantAmt",
          "type": "uint256"
        }
      ],
      "name": "deposit",
      "outputs": [
        {
          "internalType": "uint256",
          "name": "",
          "type": "uint256"
        }
      ],
      "stateMutability": "nonpayable",
      "type": "function"
    },
    {
      "inputs": [],
      "name": "earn",
      "outputs": [],
      "stateMutability": "nonpayable",
      "type": "function"
    },
    {
      "inputs": [],
      "name": "earnedAddress",
      "outputs": [
        {
          "internalType": "address",
          "name": "",
          "type": "address"
        }
      ],
      "stateMutability": "view",
      "type": "function"
    },
    {
      "inputs": [
        {
          "internalType": "uint256",
          "name": "",
          "type": "uint256"
        }
      ],
      "name": "earnedToToken0Path0",
      "outputs": [
        {
          "internalType": "address",
          "name": "",
          "type": "address"
        }
      ],
      "stateMutability": "view",
      "type": "function"
    },
    {
      "inputs": [
        {
          "internalType": "uint256",
          "name": "",
          "type": "uint256"
        }
      ],
      "name": "earnedToToken0Path1",
      "outputs": [
        {
          "internalType": "address",
          "name": "",
          "type": "address"
        }
      ],
      "stateMutability": "view",
      "type": "function"
    },
    {
      "inputs": [],
      "name": "earnedToToken0Router0Address",
      "outputs": [
        {
          "internalType": "address",
          "name": "",
          "type": "address"
        }
      ],
      "stateMutability": "view",
      "type": "function"
    },
    {
      "inputs": [],
      "name": "earnedToToken0Router1Address",
      "outputs": [
        {
          "internalType": "address",
          "name": "",
          "type": "address"
        }
      ],
      "stateMutability": "view",
      "type": "function"
    },
    {
      "inputs": [
        {
          "internalType": "uint256",
          "name": "",
          "type": "uint256"
        }
      ],
      "name": "earnedToToken1Path0",
      "outputs": [
        {
          "internalType": "address",
          "name": "",
          "type": "address"
        }
      ],
      "stateMutability": "view",
      "type": "function"
    },
    {
      "inputs": [
        {
          "internalType": "uint256",
          "name": "",
          "type": "uint256"
        }
      ],
      "name": "earnedToToken1Path1",
      "outputs": [
        {
          "internalType": "address",
          "name": "",
          "type": "address"
        }
      ],
      "stateMutability": "view",
      "type": "function"
    },
    {
      "inputs": [],
      "name": "earnedToToken1Router0Address",
      "outputs": [
        {
          "internalType": "address",
          "name": "",
          "type": "address"
        }
      ],
      "stateMutability": "view",
      "type": "function"
    },
    {
      "inputs": [],
      "name": "earnedToToken1Router1Address",
      "outputs": [
        {
          "internalType": "address",
          "name": "",
          "type": "address"
        }
      ],
      "stateMutability": "view",
      "type": "function"
    },
    {
      "inputs": [
        {
          "internalType": "uint256",
          "name": "",
          "type": "uint256"
        }
      ],
      "name": "earnedToUpPath0",
      "outputs": [
        {
          "internalType": "address",
          "name": "",
          "type": "address"
        }
      ],
      "stateMutability": "view",
      "type": "function"
    },
    {
      "inputs": [
        {
          "internalType": "uint256",
          "name": "",
          "type": "uint256"
        }
      ],
      "name": "earnedToUpPath1",
      "outputs": [
        {
          "internalType": "address",
          "name": "",
          "type": "address"
        }
      ],
      "stateMutability": "view",
      "type": "function"
    },
    {
      "inputs": [],
      "name": "entranceFeeFactor",
      "outputs": [
        {
          "internalType": "uint256",
          "name": "",
          "type": "uint256"
        }
      ],
      "stateMutability": "view",
      "type": "function"
    },
    {
      "inputs": [],
      "name": "entranceFeeFactorLL",
      "outputs": [
        {
          "internalType": "uint256",
          "name": "",
          "type": "uint256"
        }
      ],
      "stateMutability": "view",
      "type": "function"
    },
    {
      "inputs": [],
      "name": "entranceFeeFactorMax",
      "outputs": [
        {
          "internalType": "uint256",
          "name": "",
          "type": "uint256"
        }
      ],
      "stateMutability": "view",
      "type": "function"
    },
    {
      "inputs": [],
      "name": "farm",
      "outputs": [],
      "stateMutability": "nonpayable",
      "type": "function"
    },
    {
      "inputs": [],
      "name": "farmContractAddress",
      "outputs": [
        {
          "internalType": "address",
          "name": "",
          "type": "address"
        }
      ],
      "stateMutability": "view",
      "type": "function"
    },
    {
      "inputs": [
        {
          "internalType": "address",
          "name": "_token",
          "type": "address"
        },
        {
          "internalType": "uint256",
          "name": "_amount",
          "type": "uint256"
        },
        {
          "internalType": "address",
          "name": "_to",
          "type": "address"
        }
      ],
      "name": "inCaseTokensGetStuck",
      "outputs": [],
      "stateMutability": "nonpayable",
      "type": "function"
    },
    {
      "inputs": [],
      "name": "isAutoComp",
      "outputs": [
        {
          "internalType": "bool",
          "name": "",
          "type": "bool"
        }
      ],
      "stateMutability": "view",
      "type": "function"
    },
    {
      "inputs": [],
      "name": "isCAKEStaking",
      "outputs": [
        {
          "internalType": "bool",
          "name": "",
          "type": "bool"
        }
      ],
      "stateMutability": "view",
      "type": "function"
    },
    {
      "inputs": [],
      "name": "isCollect",
      "outputs": [
        {
          "internalType": "bool",
          "name": "",
          "type": "bool"
        }
      ],
      "stateMutability": "view",
      "type": "function"
    },
    {
      "inputs": [],
      "name": "isSameAssetDeposit",
      "outputs": [
        {
          "internalType": "bool",
          "name": "",
          "type": "bool"
        }
      ],
      "stateMutability": "view",
      "type": "function"
    },
    {
      "inputs": [],
      "name": "lastEarnBlock",
      "outputs": [
        {
          "internalType": "uint256",
          "name": "",
          "type": "uint256"
        }
      ],
      "stateMutability": "view",
      "type": "function"
    },
    {
      "inputs": [],
      "name": "onlyGov",
      "outputs": [
        {
          "internalType": "bool",
          "name": "",
          "type": "bool"
        }
      ],
      "stateMutability": "view",
      "type": "function"
    },
    {
      "inputs": [],
      "name": "pause",
      "outputs": [],
      "stateMutability": "nonpayable",
      "type": "function"
    },
    {
      "inputs": [],
      "name": "paused",
      "outputs": [
        {
          "internalType": "bool",
          "name": "",
          "type": "bool"
        }
      ],
      "stateMutability": "view",
      "type": "function"
    },
    {
      "inputs": [],
      "name": "pid",
      "outputs": [
        {
          "internalType": "uint256",
          "name": "",
          "type": "uint256"
        }
      ],
      "stateMutability": "view",
      "type": "function"
    },
    {
      "inputs": [],
      "name": "rewardsAddress",
      "outputs": [
        {
          "internalType": "address",
          "name": "",
          "type": "address"
        }
      ],
      "stateMutability": "view",
      "type": "function"
    },
    {
      "inputs": [
        {
          "internalType": "address",
          "name": "_buyBackRouter0Address",
          "type": "address"
        },
        {
          "internalType": "address",
          "name": "_buyBackRouter1Address",
          "type": "address"
        }
      ],
      "name": "setBuyBackRouterAddress",
      "outputs": [],
      "stateMutability": "nonpayable",
      "type": "function"
    },
    {
      "inputs": [
        {
          "internalType": "bool",
          "name": "_isCollect",
          "type": "bool"
        }
      ],
      "name": "setCollect",
      "outputs": [],
      "stateMutability": "nonpayable",
      "type": "function"
    },
    {
      "inputs": [
        {
          "internalType": "address",
          "name": "core_",
          "type": "address"
        }
      ],
      "name": "setCore",
      "outputs": [],
      "stateMutability": "nonpayable",
      "type": "function"
    },
    {
      "inputs": [
        {
          "internalType": "address[]",
          "name": "_earnedToToken0Path0",
          "type": "address[]"
        },
        {
          "internalType": "address[]",
          "name": "_earnedToToken0Path1",
          "type": "address[]"
        }
      ],
      "name": "setEarnedToToken0Path",
      "outputs": [],
      "stateMutability": "nonpayable",
      "type": "function"
    },
    {
      "inputs": [
        {
          "internalType": "address",
          "name": "_earnedToToken0Router0Address",
          "type": "address"
        },
        {
          "internalType": "address",
          "name": "_earnedToToken0Router1Address",
          "type": "address"
        }
      ],
      "name": "setEarnedToToken0RouterAddress",
      "outputs": [],
      "stateMutability": "nonpayable",
      "type": "function"
    },
    {
      "inputs": [
        {
          "internalType": "address[]",
          "name": "_earnedToToken1Path0",
          "type": "address[]"
        },
        {
          "internalType": "address[]",
          "name": "_earnedToToken1Path1",
          "type": "address[]"
        }
      ],
      "name": "setEarnedToToken1Path",
      "outputs": [],
      "stateMutability": "nonpayable",
      "type": "function"
    },
    {
      "inputs": [
        {
          "internalType": "address",
          "name": "_earnedToToken1Router0Address",
          "type": "address"
        },
        {
          "internalType": "address",
          "name": "_earnedToToken1Router1Address",
          "type": "address"
        }
      ],
      "name": "setEarnedToToken1RouterAddress",
      "outputs": [],
      "stateMutability": "nonpayable",
      "type": "function"
    },
    {
      "inputs": [
        {
          "internalType": "address[]",
          "name": "_earnedToUpPath0",
          "type": "address[]"
        },
        {
          "internalType": "address[]",
          "name": "_earnedToUpPath1",
          "type": "address[]"
        }
      ],
      "name": "setEarnedToUpPath",
      "outputs": [],
      "stateMutability": "nonpayable",
      "type": "function"
    },
    {
      "inputs": [
        {
          "internalType": "bool",
          "name": "_onlyGov",
          "type": "bool"
        }
      ],
      "name": "setOnlyGov",
      "outputs": [],
      "stateMutability": "nonpayable",
      "type": "function"
    },
    {
      "inputs": [
        {
          "internalType": "address",
          "name": "_rewardsAddress",
          "type": "address"
        }
      ],
      "name": "setRewardsAddress",
      "outputs": [],
      "stateMutability": "nonpayable",
      "type": "function"
    },
    {
      "inputs": [
        {
          "internalType": "uint256",
          "name": "_entranceFeeFactor",
          "type": "uint256"
        },
        {
          "internalType": "uint256",
          "name": "_withdrawFeeFactor",
          "type": "uint256"
        },
        {
          "internalType": "uint256",
          "name": "_controllerFee",
          "type": "uint256"
        },
        {
          "internalType": "uint256",
          "name": "_buyBackRate",
          "type": "uint256"
        },
        {
          "internalType": "uint256",
          "name": "_slippageFactor",
          "type": "uint256"
        }
      ],
      "name": "setSettings",
      "outputs": [],
      "stateMutability": "nonpayable",
      "type": "function"
    },
    {
      "inputs": [
        {
          "internalType": "address",
          "name": "_wantRouterAddress",
          "type": "address"
        }
      ],
      "name": "setWantRouterAddress",
      "outputs": [],
      "stateMutability": "nonpayable",
      "type": "function"
    },
    {
      "inputs": [],
      "name": "sharesTotal",
      "outputs": [
        {
          "internalType": "uint256",
          "name": "",
          "type": "uint256"
        }
      ],
      "stateMutability": "view",
      "type": "function"
    },
    {
      "inputs": [],
      "name": "slippageFactor",
      "outputs": [
        {
          "internalType": "uint256",
          "name": "",
          "type": "uint256"
        }
      ],
      "stateMutability": "view",
      "type": "function"
    },
    {
      "inputs": [],
      "name": "slippageFactorUL",
      "outputs": [
        {
          "internalType": "uint256",
          "name": "",
          "type": "uint256"
        }
      ],
      "stateMutability": "view",
      "type": "function"
    },
    {
      "inputs": [],
      "name": "token0Address",
      "outputs": [
        {
          "internalType": "address",
          "name": "",
          "type": "address"
        }
      ],
      "stateMutability": "view",
      "type": "function"
    },
    {
      "inputs": [],
      "name": "token1Address",
      "outputs": [
        {
          "internalType": "address",
          "name": "",
          "type": "address"
        }
      ],
      "stateMutability": "view",
      "type": "function"
    },
    {
      "inputs": [],
      "name": "unpause",
      "outputs": [],
      "stateMutability": "nonpayable",
      "type": "function"
    },
    {
      "inputs": [],
      "name": "wantAddress",
      "outputs": [
        {
          "internalType": "address",
          "name": "",
          "type": "address"
        }
      ],
      "stateMutability": "view",
      "type": "function"
    },
    {
      "inputs": [],
      "name": "wantLockedTotal",
      "outputs": [
        {
          "internalType": "uint256",
          "name": "",
          "type": "uint256"
        }
      ],
      "stateMutability": "view",
      "type": "function"
    },
    {
      "inputs": [],
      "name": "wantRouterAddress",
      "outputs": [
        {
          "internalType": "address",
          "name": "",
          "type": "address"
        }
      ],
      "stateMutability": "view",
      "type": "function"
    },
    {
      "inputs": [],
      "name": "wbnbAddress",
      "outputs": [
        {
          "internalType": "address",
          "name": "",
          "type": "address"
        }
      ],
      "stateMutability": "view",
      "type": "function"
    },
    {
      "inputs": [
        {
          "internalType": "uint256",
          "name": "_wantAmt",
          "type": "uint256"
        }
      ],
      "name": "withdraw",
      "outputs": [
        {
          "internalType": "uint256",
          "name": "",
          "type": "uint256"
        }
      ],
      "stateMutability": "nonpayable",
      "type": "function"
    },
    {
      "inputs": [],
      "name": "withdrawFeeFactor",
      "outputs": [
        {
          "internalType": "uint256",
          "name": "",
          "type": "uint256"
        }
      ],
      "stateMutability": "view",
      "type": "function"
    },
    {
      "inputs": [],
      "name": "withdrawFeeFactorLL",
      "outputs": [
        {
          "internalType": "uint256",
          "name": "",
          "type": "uint256"
        }
      ],
      "stateMutability": "view",
      "type": "function"
    },
    {
      "inputs": [],
      "name": "withdrawFeeFactorMax",
      "outputs": [
        {
          "internalType": "uint256",
          "name": "",
          "type": "uint256"
        }
      ],
      "stateMutability": "view",
      "type": "function"
    },
    {
      "inputs": [],
      "name": "wrapBNB",
      "outputs": [],
      "stateMutability": "nonpayable",
      "type": "function"
    }
  ],
  "transactionHash": "0x451dbfde892bb7a8056e8062cb90f691b5f19954f810d73048b8e7be57a48763",
  "args": [
    [
      "0x40fc3759Ccc4E466650891a91F34Bdd6129094D6",
      "0xae13d989daC2f0dEbFf460aC112a837C89BAa7cd",
      "0x1Bc3AFDAFa404164962d345F26c8d84A1c9B72b2",
      "0x4C2e91C8eD9eed3aFa2cC5ecBb26ae752c83dA59",
      "0x3a5fBC484dbbAC7F5c7fb17f9e6244B5D508AC4f",
      "0x9Ff7010Fe2DbdD638257b8eaA1a65e73129361A3",
      "0xd508f5B8c72b64B73bfD9Da823229F89590a8fA5",
      "0x9Ff7010Fe2DbdD638257b8eaA1a65e73129361A3",
      "0x03188E7f9ba26baa61DA2C496f02fF548dF87AEe",
      "0xa84400261e8563BE19633B7477fDEb0634bAC5DA",
      "0x0000000000000000000000000000000000000000",
      "0x9ac64cc6e4415144c455bd8e4837fea55603e5c3",
      "0x9ac64cc6e4415144c455bd8e4837fea55603e5c3",
      "0x9ac64cc6e4415144c455bd8e4837fea55603e5c3",
      "0xC9261c7Ca765A1e1cf563ecab36C41a7B1a6B460"
    ],
    4,
    "0x9Ff7010Fe2DbdD638257b8eaA1a65e73129361A3",
    true,
    false,
    [
      "0x9Ff7010Fe2DbdD638257b8eaA1a65e73129361A3",
      "0xae13d989daC2f0dEbFf460aC112a837C89BAa7cd"
    ],
    [
      "0xae13d989daC2f0dEbFf460aC112a837C89BAa7cd",
      "0x4C2e91C8eD9eed3aFa2cC5ecBb26ae752c83dA59"
    ],
    [],
    [
      "0x9Ff7010Fe2DbdD638257b8eaA1a65e73129361A3",
      "0xd508f5B8c72b64B73bfD9Da823229F89590a8fA5"
    ],
    300,
    200,
    9990,
    9990
  ],
  "solcInputHash": "2f541bcd60d5e1a907d6462ac5275e07",
  "bytecode": "0x60806040526002805460ff60201b19166401000000001790556000600b819055600c819055600d819055600e819055600f556127066011556127106012556103b66013553480156200005057600080fd5b5060405162005df138038062005df183398181016040526101a08110156200007757600080fd5b81019080805160405193929190846401000000008211156200009857600080fd5b908301906020820185811115620000ae57600080fd5b8251866020820283011164010000000082111715620000cc57600080fd5b82525081516020918201928201910280838360005b83811015620000fb578181015183820152602001620000e1565b505050509190910160408181526020840151908401516060850151608086015160a0909601805193989297919695509192909190846401000000008211156200014357600080fd5b9083019060208201858111156200015957600080fd5b82518660208202830111640100000000821117156200017757600080fd5b82525081516020918201928201910280838360005b83811015620001a65781810151838201526020016200018c565b5050505090500160405260200180516040519392919084640100000000821115620001d057600080fd5b908301906020820185811115620001e657600080fd5b82518660208202830111640100000000821117156200020457600080fd5b82525081516020918201928201910280838360005b838110156200023357818101518382015260200162000219565b50505050905001604052602001805160405193929190846401000000008211156200025d57600080fd5b9083019060208201858111156200027357600080fd5b82518660208202830111640100000000821117156200029157600080fd5b82525081516020918201928201910280838360005b83811015620002c0578181015183820152602001620002a6565b5050505090500160405260200180516040519392919084640100000000821115620002ea57600080fd5b9083019060208201858111156200030057600080fd5b82518660208202830111640100000000821117156200031e57600080fd5b82525081516020918201928201910280838360005b838110156200034d57818101518382015260200162000333565b5050505091909101604090815260208301519083015160608401516080909401518f5192965090945091508d906000906200038457fe5b6020908102919091010151600080546001600160a01b03909216610100026001600160a81b031990921691909117905560018080558d518e91908110620003c757fe5b6020026020010151600860006101000a8154816001600160a01b0302191690836001600160a01b031602179055508c6002815181106200040357fe5b6020026020010151600960006101000a8154816001600160a01b0302191690836001600160a01b031602179055508c6003815181106200043f57fe5b6020026020010151600a60006101000a8154816001600160a01b0302191690836001600160a01b031602179055508c6004815181106200047b57fe5b6020026020010151600460006101000a8154816001600160a01b0302191690836001600160a01b031602179055508c600581518110620004b757fe5b6020026020010151600560006101000a8154816001600160a01b0302191690836001600160a01b031602179055508c600681518110620004f357fe5b6020026020010151600660006101000a8154816001600160a01b0302191690836001600160a01b031602179055508c6007815181106200052f57fe5b6020026020010151600760006101000a8154816001600160a01b0302191690836001600160a01b031602179055508c6008815181106200056b57fe5b6020026020010151600260056101000a8154816001600160a01b0302191690836001600160a01b031602179055508c600981518110620005a757fe5b6020026020010151601060006101000a8154816001600160a01b0302191690836001600160a01b031602179055508c600a81518110620005e357fe5b6020026020010151601460006101000a8154816001600160a01b0302191690836001600160a01b031602179055508c600b815181106200061f57fe5b6020026020010151601660006101000a8154816001600160a01b0302191690836001600160a01b031602179055508c600c815181106200065b57fe5b6020026020010151601860006101000a8154816001600160a01b0302191690836001600160a01b031602179055508c600d815181106200069757fe5b6020026020010151601960006101000a8154816001600160a01b0302191690836001600160a01b031602179055508c600e81518110620006d357fe5b6020026020010151601a60006101000a8154816001600160a01b0302191690836001600160a01b031602179055508b6003819055508a6001600160a01b0316600460009054906101000a90046001600160a01b03166001600160a01b031614600260006101000a81548160ff021916908315150217905550600760009054906101000a90046001600160a01b03166001600160a01b0316600460009054906101000a90046001600160a01b03166001600160a01b031614600260016101000a81548160ff021916908315150217905550896002806101000a81548160ff02191690831515021790555088600260036101000a81548160ff021916908315150217905550620008148888600760009054906101000a90046001600160a01b0316600a60009054906101000a90046001600160a01b031662000b5660201b60201c565b62000866576040805162461bcd60e51b815260206004820152601760248201527f696e76616c6964205f6561726e6564546f557050617468000000000000000000604482015290519081900360640190fd5b87516200087b90601b9060208b019062000cb5565b5086516200089190601c9060208a019062000cb5565b50604080516000815260208101909152600754600554620008c391899184916001600160a01b03908116911662000b56565b62000915576040805162461bcd60e51b815260206004820152601b60248201527f696e76616c6964205f6561726e6564546f546f6b656e30506174680000000000604482015290519081900360640190fd5b86516200092a90601d9060208a019062000cb5565b506007546006546200094d91889184916001600160a01b03908116911662000b56565b6200099f576040805162461bcd60e51b815260206004820152601b60248201527f696e76616c6964205f6561726e6564546f546f6b656e31506174680000000000604482015290519081900360640190fd5b8551620009b490601f90602089019062000cb5565b506126ac84111562000a0d576040805162461bcd60e51b815260206004820152601360248201527f696e76616c6964206275796261636b5261746500000000000000000000000000604482015290519081900360640190fd5b6126ac85111562000a65576040805162461bcd60e51b815260206004820152601560248201527f696e76616c696420636f6e74726f6c6c65724665650000000000000000000000604482015290519081900360640190fd5b612328831015801562000a7a57506127108311155b62000acc576040805162461bcd60e51b815260206004820152601360248201527f696e76616c696420656e7472616e636546656500000000000000000000000000604482015290519081900360640190fd5b612328821015801562000ae157506127108211155b62000b33576040805162461bcd60e51b815260206004820152601360248201527f696e76616c696420776974686472617746656500000000000000000000000000604482015290519081900360640190fd5b50600e93909355600f919091556011556012555062000d40975050505050505050565b8351835160025460009291906301000000900460ff168062000b895750836001600160a01b0316856001600160a01b0316145b1562000ba6578115801562000b9c575080155b9250505062000cad565b6002821015801562000bde5750846001600160a01b03168760008151811062000bcb57fe5b60200260200101516001600160a01b0316145b801562000ca857508015801562000c1d5750836001600160a01b031687600184038151811062000c0a57fe5b60200260200101516001600160a01b0316145b8062000ca857506002811015801562000c7357508560008151811062000c3f57fe5b60200260200101516001600160a01b031687600184038151811062000c6057fe5b60200260200101516001600160a01b0316145b801562000ca85750836001600160a01b031686600183038151811062000c9557fe5b60200260200101516001600160a01b0316145b925050505b949350505050565b82805482825590600052602060002090810192821562000d0d579160200282015b8281111562000d0d57825182546001600160a01b0319166001600160a01b0390911617825560209092019160019091019062000cd6565b5062000d1b92915062000d1f565b5090565b5b8082111562000d1b5780546001600160a01b031916815560010162000d20565b6150a18062000d506000396000f3fe608060405234801561001057600080fd5b50600436106104565760003560e01c8063846d9e1711610250578063bece4d7d11610150578063db22e43a116100c8578063e7a0367911610097578063f10684541161007c578063f106845414610bd9578063f2f4eb2614610be1578063ffbd3b1f14610be957610456565b8063e7a0367914610bd1578063ee50dc341461056057610456565b8063db22e43a14610bb1578063dc22486314610bb9578063e5dd455a14610bc1578063e719847414610bc957610456565b8063cdf209891161011f578063d389800f11610104578063d389800f14610b99578063d5b0916314610ba1578063d7cb416f14610ba957610456565b8063cdf2098914610a6a578063d1a94edc14610a7257610456565b8063bece4d7d14610a2c578063c0973eed14610a34578063c302a4d01461083f578063c6bb8e3614610a3c57610456565b8063a17f3d81116101e3578063b0fb2ce4116101b2578063b6b55f2511610197578063b6b55f25146109ff578063b74cd24214610a1c578063b83b54ca14610a2457610456565b8063b0fb2ce4146109e2578063b3545c01146104af57610456565b8063a17f3d81146108ab578063a1a47d7114610560578063a3d2855e146108b3578063aba68763146109da57610456565b80638906758d1161021f5780638906758d146108475780638a3e97051461086d5780639a2466431461089b5780639fc33a9f146108a357610456565b8063846d9e17146107fa57806384fa32ac1461080257806385f02dd614610837578063866b20181461083f57610456565b806336e9332d1161035b57806363fe3e3a116102ee5780636e965b51116102bd57806380009630116102a257806380009630146107af5780638219425d146107d55780638456cb59146107f257610456565b80636e965b511461078a5780637ff36fbe146107a757610456565b806363fe3e3a1461074457806367057b6c1461056057806367206d401461074c57806368f541621461078257610456565b806344a3955e1161032a57806344a3955e1461070e5780634d9f7bb2146105605780635c975abb146107165780635d5ae2841461071e57610456565b806336e9332d146106ee578063380eec2f146106f65780633f4ba83a146106fe57806342da4eb31461070657610456565b8063178a8d07116103ee5780632e1a7d4d116103bd57806330d15c65116103a257806330d15c65146105a257806330e0045e146106c957806335c7f121146106e657610456565b80632e1a7d4d146105685780632fce1cab1461058557610456565b8063178a8d071461053357806324893bd71461053b57806326a1ccad146105435780632717eff31461056057610456565b80630daef3211161042a5780630daef321146104e85780630dbccf0f146105045780630fa4e01e146105235780631334903f1461052b57610456565b80625e8e6b1461045b578063061bf6431461047f578063061c7d48146104af5780630b6bb30b146104c9575b600080fd5b610463610bf1565b604080516001600160a01b039092168252519081900360200190f35b6104ad6004803603604081101561049557600080fd5b506001600160a01b0381358116916020013516610c00565b005b6104b7610d3d565b60408051918252519081900360200190f35b6104ad600480360360208110156104df57600080fd5b50351515610d43565b6104f0610e68565b604080519115158252519081900360200190f35b6104ad6004803603602081101561051a57600080fd5b50351515610e79565b6104b7610f9d565b6104b7610fa3565b6104b7610fa9565b610463610faf565b6104636004803603602081101561055957600080fd5b5035610fbe565b6104b7610fe5565b6104b76004803603602081101561057e57600080fd5b5035610feb565b6104636004803603602081101561059b57600080fd5b50356113c0565b6104ad600480360360408110156105b857600080fd5b8101906020810181356401000000008111156105d357600080fd5b8201836020820111156105e557600080fd5b8035906020019184602083028401116401000000008311171561060757600080fd5b919080806020026020016040519081016040528093929190818152602001838360200280828437600092019190915250929594936020810193503591505064010000000081111561065757600080fd5b82018360208201111561066957600080fd5b8035906020019184602083028401116401000000008311171561068b57600080fd5b9190808060200260200160405190810160405280939291908181526020018383602002808284376000920191909152509295506113cd945050505050565b610463600480360360208110156106df57600080fd5b50356115db565b6104636115e8565b6104ad6115f7565b610463611662565b6104ad611671565b6104b7611731565b6104b7611737565b6104f061173d565b6104ad6004803603602081101561073457600080fd5b50356001600160a01b0316611746565b610463611868565b6104ad6004803603606081101561076257600080fd5b506001600160a01b03813581169160208101359160409091013516611877565b6104b7611a0c565b610463600480360360208110156107a057600080fd5b5035611a12565b610463611a1f565b6104ad600480360360208110156107c557600080fd5b50356001600160a01b0316611a2e565b610463600480360360208110156107eb57600080fd5b5035611b4b565b6104ad611b58565b6104f0611cb1565b6104ad600480360360a081101561081857600080fd5b5080359060208101359060408101359060608101359060800135611cba565b6104b761203f565b6104b7612045565b6104ad6004803603602081101561085d57600080fd5b50356001600160a01b031661204b565b6104ad6004803603604081101561088357600080fd5b506001600160a01b038135811691602001351661216d565b6104f06122aa565b6104636122b8565b6104636122d0565b6104ad600480360360408110156108c957600080fd5b8101906020810181356401000000008111156108e457600080fd5b8201836020820111156108f657600080fd5b8035906020019184602083028401116401000000008311171561091857600080fd5b919080806020026020016040519081016040528093929190818152602001838360200280828437600092019190915250929594936020810193503591505064010000000081111561096857600080fd5b82018360208201111561097a57600080fd5b8035906020019184602083028401116401000000008311171561099c57600080fd5b9190808060200260200160405190810160405280939291908181526020018383602002808284376000920191909152509295506122df945050505050565b610463612493565b610463600480360360208110156109f857600080fd5b50356124a2565b6104b760048036036020811015610a1557600080fd5b50356124af565b6104b7612912565b610463612918565b610463612927565b610463612936565b6104ad60048036036040811015610a5257600080fd5b506001600160a01b0381358116916020013516612945565b610463612a82565b6104ad60048036036040811015610a8857600080fd5b810190602081018135640100000000811115610aa357600080fd5b820183602082011115610ab557600080fd5b80359060200191846020830284011164010000000083111715610ad757600080fd5b9190808060200260200160405190810160405280939291908181526020018383602002808284376000920191909152509295949360208101935035915050640100000000811115610b2757600080fd5b820183602082011115610b3957600080fd5b80359060200191846020830284011164010000000083111715610b5b57600080fd5b919080806020026020016040519081016040528093929190818152602001838360200280828437600092019190915250929550612a91945050505050565b6104ad612c46565b6104ad613633565b6104636136f1565b6104f0613700565b6104b7613710565b6104f0613734565b610463613743565b610463613752565b6104b7613761565b610463613767565b6104b761377b565b601a546001600160a01b031681565b60005460408051631c86b03760e31b815233600482015290516101009092046001600160a01b03169163e43581b891602480820192602092909190829003018186803b158015610c4f57600080fd5b505afa158015610c63573d6000803e3d6000fd5b505050506040513d6020811015610c7957600080fd5b5051610cb65760405162461bcd60e51b815260040180806020018281038252602f815260200180614f2b602f913960400191505060405180910390fd5b601980546001600160a01b038085167fffffffffffffffffffffffff00000000000000000000000000000000000000009283168117909355601a805491851691909216811790915560408051928352602083019190915280517f071b73faa021635fad0a92808ae9c59c365befd74127681dfdf2123f3e71553e9281900390910190a15050565b6126ac81565b60005460408051631c86b03760e31b815233600482015290516101009092046001600160a01b03169163e43581b891602480820192602092909190829003018186803b158015610d9257600080fd5b505afa158015610da6573d6000803e3d6000fd5b505050506040513d6020811015610dbc57600080fd5b5051610df95760405162461bcd60e51b815260040180806020018281038252602f815260200180614f2b602f913960400191505060405180910390fd5b6002805482151564010000000081027fffffffffffffffffffffffffffffffffffffffffffffffffffffff00ffffffff9092169190911790915560408051918252517f125177ac7b8930dac1e59c2b30b1b6b9191b30af40cf6bbb5d20fec4d44be60f9181900360200190a150565b600254640100000000900460ff1681565b60005460408051631c86b03760e31b815233600482015290516101009092046001600160a01b03169163e43581b891602480820192602092909190829003018186803b158015610ec857600080fd5b505afa158015610edc573d6000803e3d6000fd5b505050506040513d6020811015610ef257600080fd5b5051610f2f5760405162461bcd60e51b815260040180806020018281038252602f815260200180614f2b602f913960400191505060405180910390fd5b60028054821515630100000081027fffffffffffffffffffffffffffffffffffffffffffffffffffffffff00ffffff9092169190911790915560408051918252517f11eebf9ecfc205a1581472f52a6942317b4b052652b7d159c5a991b1caf9553f9181900360200190a150565b600b5481565b60115481565b600f5481565b6019546001600160a01b031681565b601b8181548110610fcb57fe5b6000918252602090912001546001600160a01b0316905081565b61271081565b60008054604080517f91d148540000000000000000000000000000000000000000000000000000000081527f8b8c0776df2c2176edf6f82391c35ea4891146d7a976ee36fd07f1a6fb4ead4c600482015233602482015290516101009092046001600160a01b0316916391d1485491604480820192602092909190829003018186803b15801561107a57600080fd5b505afa15801561108e573d6000803e3d6000fd5b505050506040513d60208110156110a457600080fd5b50516110e15760405162461bcd60e51b815260040180806020018281038252602b815260200180614f00602b913960400191505060405180910390fd5b60026001541415611139576040805162461bcd60e51b815260206004820152601f60248201527f5265656e7472616e637947756172643a207265656e7472616e742063616c6c00604482015290519081900360640190fd5b600260015581611190576040805162461bcd60e51b815260206004820152600d60248201527f5f77616e74416d74203c3d203000000000000000000000000000000000000000604482015290519081900360640190fd5b60006111b3600c546111ad600d548661378190919063ffffffff16565b906137e3565b90506000811161120a576040805162461bcd60e51b815260206004820152601260248201527f73686172657352656d6f766564203c3d20300000000000000000000000000000604482015290519081900360640190fd5b600d548111156112195750600d545b600d54611226908261384a565b600d556012546127101115611253576112506127106111ad6012548661378190919063ffffffff16565b92505b60025462010000900460ff161561126d5761126d836138a7565b60048054604080517f70a082310000000000000000000000000000000000000000000000000000000081523093810193909352516000926001600160a01b03909216916370a08231916024808301926020929190829003018186803b1580156112d557600080fd5b505afa1580156112e9573d6000803e3d6000fd5b505050506040513d60208110156112ff57600080fd5b505190508084111561130f578093505b83600c54101561131f57600c5493505b600c5461132c908561384a565b600c5560095460045461134c916001600160a01b039182169116866139ab565b60025462010000900460ff16801561136d57506002546301000000900460ff165b1561137a5761137a613a2b565b604080513381526020810186905281517f884edad9ce6fa2440d8a54cc123490eb96d2768479d49ff9c7366125a9424364929181900390910190a1506001805592915050565b601f8181548110610fcb57fe5b60005460408051631c86b03760e31b815233600482015290516101009092046001600160a01b03169163e43581b891602480820192602092909190829003018186803b15801561141c57600080fd5b505afa158015611430573d6000803e3d6000fd5b505050506040513d602081101561144657600080fd5b50516114835760405162461bcd60e51b815260040180806020018281038252602f815260200180614f2b602f913960400191505060405180910390fd5b600754600a546114a391849184916001600160a01b039081169116613b19565b6114f4576040805162461bcd60e51b815260206004820152601760248201527f696e76616c6964205f6561726e6564546f557050617468000000000000000000604482015290519081900360640190fd5b815161150790601b906020850190614e4b565b50805161151b90601c906020840190614e4b565b507fe96d7b34c373d3a3ec2babcc077062bf437a26d39643ab5fd97764cc54a4212f8282604051808060200180602001838103835285818151815260200191508051906020019060200280838360005b8381101561158357818101518382015260200161156b565b50505050905001838103825284818151815260200191508051906020019060200280838360005b838110156115c25781810151838201526020016115aa565b5050505090500194505050505060405180910390a15050565b601c8181548110610fcb57fe5b6009546001600160a01b031681565b6002600154141561164f576040805162461bcd60e51b815260206004820152601f60248201527f5265656e7472616e637947756172643a207265656e7472616e742063616c6c00604482015290519081900360640190fd5b600260015561165c613c69565b60018055565b600a546001600160a01b031681565b60005460408051631c86b03760e31b815233600482015290516101009092046001600160a01b03169163e43581b891602480820192602092909190829003018186803b1580156116c057600080fd5b505afa1580156116d4573d6000803e3d6000fd5b505050506040513d60208110156116ea57600080fd5b50516117275760405162461bcd60e51b815260040180806020018281038252602f815260200180614f2b602f913960400191505060405180910390fd5b61172f613e5f565b565b600c5481565b600d5481565b60005460ff1690565b60005460408051631c86b03760e31b815233600482015290516101009092046001600160a01b03169163e43581b891602480820192602092909190829003018186803b15801561179557600080fd5b505afa1580156117a9573d6000803e3d6000fd5b505050506040513d60208110156117bf57600080fd5b50516117fc5760405162461bcd60e51b815260040180806020018281038252602f815260200180614f2b602f913960400191505060405180910390fd5b601880546001600160a01b0383167fffffffffffffffffffffffff0000000000000000000000000000000000000000909116811790915560408051918252517f42d7ec3cae52221425bb6589ab144941ed3874dda5bcb98099ddc59ff3e50c9d9181900360200190a150565b6008546001600160a01b031681565b60005460408051631c86b03760e31b815233600482015290516101009092046001600160a01b03169163e43581b891602480820192602092909190829003018186803b1580156118c657600080fd5b505afa1580156118da573d6000803e3d6000fd5b505050506040513d60208110156118f057600080fd5b505161192d5760405162461bcd60e51b815260040180806020018281038252602f815260200180614f2b602f913960400191505060405180910390fd5b6007546001600160a01b0384811691161415611990576040805162461bcd60e51b815260206004820152600560248201527f2173616665000000000000000000000000000000000000000000000000000000604482015290519081900360640190fd5b6004546001600160a01b03848116911614156119f3576040805162461bcd60e51b815260206004820152600560248201527f2173616665000000000000000000000000000000000000000000000000000000604482015290519081900360640190fd5b611a076001600160a01b03841682846139ab565b505050565b60125481565b601e8181548110610fcb57fe5b6005546001600160a01b031681565b60005460408051631c86b03760e31b815233600482015290516101009092046001600160a01b03169163e43581b891602480820192602092909190829003018186803b158015611a7d57600080fd5b505afa158015611a91573d6000803e3d6000fd5b505050506040513d6020811015611aa757600080fd5b5051611ae45760405162461bcd60e51b815260040180806020018281038252602f815260200180614f2b602f913960400191505060405180910390fd5b600080547fffffffffffffffffffffff0000000000000000000000000000000000000000ff166101006001600160a01b03841690810291909117825560405190917fad9400e618eb1344fde53db22397a1b82c765527ecbba3a5c86bcac15090828b91a250565b60208181548110610fcb57fe5b60005460408051631c86b03760e31b815233600482015290516101009092046001600160a01b03169163e43581b891602480820192602092909190829003018186803b158015611ba757600080fd5b505afa158015611bbb573d6000803e3d6000fd5b505050506040513d6020811015611bd157600080fd5b505180611c6e5750600054604080517f0c68ba2100000000000000000000000000000000000000000000000000000000815233600482015290516101009092046001600160a01b031691630c68ba2191602480820192602092909190829003018186803b158015611c4157600080fd5b505afa158015611c55573d6000803e3d6000fd5b505050506040513d6020811015611c6b57600080fd5b50515b611ca95760405162461bcd60e51b8152600401808060200182810382526045815260200180614fc76045913960600191505060405180910390fd5b61172f613f26565b60025460ff1681565b60005460408051631c86b03760e31b815233600482015290516101009092046001600160a01b03169163e43581b891602480820192602092909190829003018186803b158015611d0957600080fd5b505afa158015611d1d573d6000803e3d6000fd5b505050506040513d6020811015611d3357600080fd5b5051611d705760405162461bcd60e51b815260040180806020018281038252602f815260200180614f2b602f913960400191505060405180910390fd5b612328851015611dc7576040805162461bcd60e51b815260206004820152601a60248201527f5f656e7472616e6365466565466163746f7220746f6f206c6f77000000000000604482015290519081900360640190fd5b612710851115611e1e576040805162461bcd60e51b815260206004820152601b60248201527f5f656e7472616e6365466565466163746f7220746f6f20686967680000000000604482015290519081900360640190fd5b6011859055612328841015611e7a576040805162461bcd60e51b815260206004820152601a60248201527f5f7769746864726177466565466163746f7220746f6f206c6f77000000000000604482015290519081900360640190fd5b612710841115611ed1576040805162461bcd60e51b815260206004820152601b60248201527f5f7769746864726177466565466163746f7220746f6f20686967680000000000604482015290519081900360640190fd5b60128490556126ac831115611f2d576040805162461bcd60e51b815260206004820152601760248201527f5f636f6e74726f6c6c657246656520746f6f2068696768000000000000000000604482015290519081900360640190fd5b600e8390556126ac821115611f89576040805162461bcd60e51b815260206004820152601560248201527f5f6275794261636b5261746520746f6f20686967680000000000000000000000604482015290519081900360640190fd5b600f8290556103e7811115611fe5576040805162461bcd60e51b815260206004820152601860248201527f5f736c697070616765466163746f7220746f6f20686967680000000000000000604482015290519081900360640190fd5b60138190556040805186815260208101869052808201859052606081018490526080810183905290517fc67e0b149a57a70fa44a531a46c2c6d8e0b242fa12f459f250012c3a5987d29a9181900360a00190a15050505050565b600e5481565b61232881565b60005460408051631c86b03760e31b815233600482015290516101009092046001600160a01b03169163e43581b891602480820192602092909190829003018186803b15801561209a57600080fd5b505afa1580156120ae573d6000803e3d6000fd5b505050506040513d60208110156120c457600080fd5b50516121015760405162461bcd60e51b815260040180806020018281038252602f815260200180614f2b602f913960400191505060405180910390fd5b601080546001600160a01b0383167fffffffffffffffffffffffff0000000000000000000000000000000000000000909116811790915560408051918252517fa69f1931be99336e049905baa11d21ed44204d7686e46b4344404d80d47c29889181900360200190a150565b60005460408051631c86b03760e31b815233600482015290516101009092046001600160a01b03169163e43581b891602480820192602092909190829003018186803b1580156121bc57600080fd5b505afa1580156121d0573d6000803e3d6000fd5b505050506040513d60208110156121e657600080fd5b50516122235760405162461bcd60e51b815260040180806020018281038252602f815260200180614f2b602f913960400191505060405180910390fd5b601680546001600160a01b038085167fffffffffffffffffffffffff000000000000000000000000000000000000000092831681179093556017805491851691909216811790915560408051928352602083019190915280517f0b862f0e5cb2c8acd447c3c04b7637f5ac576983fd7ecf72fe3529636483cf309281900390910190a15050565b600254610100900460ff1681565b6002546501000000000090046001600160a01b031681565b6016546001600160a01b031681565b60005460408051631c86b03760e31b815233600482015290516101009092046001600160a01b03169163e43581b891602480820192602092909190829003018186803b15801561232e57600080fd5b505afa158015612342573d6000803e3d6000fd5b505050506040513d602081101561235857600080fd5b50516123955760405162461bcd60e51b815260040180806020018281038252602f815260200180614f2b602f913960400191505060405180910390fd5b6007546006546123b591849184916001600160a01b039081169116613b19565b612406576040805162461bcd60e51b815260206004820152601b60248201527f696e76616c6964205f6561726e6564546f546f6b656e31506174680000000000604482015290519081900360640190fd5b815161241990601f906020850190614e4b565b50805161242c9060209081840190614e4b565b507f903fe96a5723b5e127a99e44f9675f8c21700bc9230aefd5e2936506417029c98282604051808060200180602001838103835285818151815260200191508051906020019060200280838360008381101561158357818101518382015260200161156b565b6017546001600160a01b031681565b601d8181548110610fcb57fe5b60008054604080517f91d148540000000000000000000000000000000000000000000000000000000081527f8b8c0776df2c2176edf6f82391c35ea4891146d7a976ee36fd07f1a6fb4ead4c600482015233602482015290516101009092046001600160a01b0316916391d1485491604480820192602092909190829003018186803b15801561253e57600080fd5b505afa158015612552573d6000803e3d6000fd5b505050506040513d602081101561256857600080fd5b50516125a55760405162461bcd60e51b815260040180806020018281038252602b815260200180614f00602b913960400191505060405180910390fd5b600260015414156125fd576040805162461bcd60e51b815260206004820152601f60248201527f5265656e7472616e637947756172643a207265656e7472616e742063616c6c00604482015290519081900360640190fd5b600260015561260a61173d565b1561265c576040805162461bcd60e51b815260206004820152601060248201527f5061757361626c653a2070617573656400000000000000000000000000000000604482015290519081900360640190fd5b600d541580158061266e575061271083115b6126a95760405162461bcd60e51b8152600401808060200182810382526026815260200180614f5a6026913960400191505060405180910390fd5b60048054604080517f70a082310000000000000000000000000000000000000000000000000000000081523093810193909352516000926001600160a01b03909216916370a08231916024808301926020929190829003018186803b15801561271157600080fd5b505afa158015612725573d6000803e3d6000fd5b505050506040513d602081101561273b57600080fd5b5051600454909150612758906001600160a01b0316333087613fd4565b60048054604080517f70a082310000000000000000000000000000000000000000000000000000000081523093810193909352516000926001600160a01b03909216916370a08231916024808301926020929190829003018186803b1580156127c057600080fd5b505afa1580156127d4573d6000803e3d6000fd5b505050506040513d60208110156127ea57600080fd5b5051905060006127fa828461384a565b600c5490915081901580159061281257506000600d54115b15612847576128446127106111ad600c546111ad60115461283e600d548961378190919063ffffffff16565b90613781565b90505b600d546128549082614062565b600d5560025462010000900460ff161561287557612870613c69565b612886565b600c546128829083614062565b600c555b841561289b576128988161271061384a565b90505b60025462010000900460ff1680156128bc57506002546301000000900460ff165b156128c9576128c9613a2b565b604080513381526020810184905281517fe1fffcc4923d04b559f4d29a8bfc6cda04eb5b0d3c460751c2402c5c5cc9109c929181900390910190a1600180559695505050505050565b6103e781565b6015546001600160a01b031681565b6014546001600160a01b031681565b6010546001600160a01b031681565b60005460408051631c86b03760e31b815233600482015290516101009092046001600160a01b03169163e43581b891602480820192602092909190829003018186803b15801561299457600080fd5b505afa1580156129a8573d6000803e3d6000fd5b505050506040513d60208110156129be57600080fd5b50516129fb5760405162461bcd60e51b815260040180806020018281038252602f815260200180614f2b602f913960400191505060405180910390fd5b601480546001600160a01b038085167fffffffffffffffffffffffff000000000000000000000000000000000000000092831681179093556015805491851691909216811790915560408051928352602083019190915280517f5bc08486dd6c0ecfe4a1bed664ce71864f8a67d5eb593593c5baf1049c7a7aa29281900390910190a15050565b6018546001600160a01b031681565b60005460408051631c86b03760e31b815233600482015290516101009092046001600160a01b03169163e43581b891602480820192602092909190829003018186803b158015612ae057600080fd5b505afa158015612af4573d6000803e3d6000fd5b505050506040513d6020811015612b0a57600080fd5b5051612b475760405162461bcd60e51b815260040180806020018281038252602f815260200180614f2b602f913960400191505060405180910390fd5b600754600554612b6791849184916001600160a01b039081169116613b19565b612bb8576040805162461bcd60e51b815260206004820152601b60248201527f696e76616c6964205f6561726e6564546f546f6b656e30506174680000000000604482015290519081900360640190fd5b8151612bcb90601d906020850190614e4b565b508051612bdf90601e906020840190614e4b565b507f5e791c36fb57fdae3adf1327b54fb3cf83c09aaafa093790a99dbb1be6ac16728282604051808060200180602001838103835285818151815260200191508051906020019060200280838360008381101561158357818101518382015260200161156b565b60026001541415612c9e576040805162461bcd60e51b815260206004820152601f60248201527f5265656e7472616e637947756172643a207265656e7472616e742063616c6c00604482015290519081900360640190fd5b6002600155612cab61173d565b15612cfd576040805162461bcd60e51b815260206004820152601060248201527f5061757361626c653a2070617573656400000000000000000000000000000000604482015290519081900360640190fd5b60025462010000900460ff16612d5a576040805162461bcd60e51b815260206004820152600b60248201527f2169734175746f436f6d70000000000000000000000000000000000000000000604482015290519081900360640190fd5b600254640100000000900460ff161580612df05750612d77613767565b6001600160a01b031663e43581b8336040518263ffffffff1660e01b815260040180826001600160a01b0316815260200191505060206040518083038186803b158015612dc357600080fd5b505afa158015612dd7573d6000803e3d6000fd5b505050506040513d6020811015612ded57600080fd5b50515b80612e775750612dfe613767565b6001600160a01b0316630c68ba21336040518263ffffffff1660e01b815260040180826001600160a01b0316815260200191505060206040518083038186803b158015612e4a57600080fd5b505afa158015612e5e573d6000803e3d6000fd5b505050506040513d6020811015612e7457600080fd5b50515b612eca576040805162461bcd60e51b8152602060048083019190915260248201527f21676f7600000000000000000000000000000000000000000000000000000000604482015290519081900360640190fd5b612ed26140bc565b6002546301000000900460ff1615612ef557612eec613a2b565b43600b5561165c565b6008546007546001600160a01b0390811691161415612f1657612f166140c6565b600754604080517f70a0823100000000000000000000000000000000000000000000000000000000815230600482015290516000926001600160a01b0316916370a08231916024808301926020929190829003018186803b158015612f7a57600080fd5b505afa158015612f8e573d6000803e3d6000fd5b505050506040513d6020811015612fa457600080fd5b50519050612fb181614139565b9050612fbc8161419c565b60025490915060ff1680612fd75750600254610100900460ff165b15612fee5743600b55612fe8613c69565b5061165c565b6006546005546001600160a01b039081169116141561313657601454600754613025916001600160a01b03918216911660006144cf565b601454600754613042916001600160a01b03918216911683614629565b601454601554601354601d805460408051602080840282018101909252828152613131966001600160a01b039081169616948894909391929091908301828280156130b657602002820191906000526020600020905b81546001600160a01b03168152600190910190602001808311613098575b5050505050601e80548060200260200160405190810160405280929190818152602001828054801561311157602002820191906000526020600020905b81546001600160a01b031681526001909101906020018083116130f3575b50505050503061312c6102584261406290919063ffffffff16565b614742565b613620565b6005546007546001600160a01b039081169116146132875760145460075461316c916001600160a01b03918216911660006144cf565b60145461319a906001600160a01b03166131878360026137e3565b6007546001600160a01b03169190614629565b601454601554613287916001600160a01b0390811691166131bc8460026137e3565b601354601d8054806020026020016040519081016040528092919081815260200182805480156130b6576020028201919060005260206000209081546001600160a01b03168152600190910190602001808311613098575050505050601e805480602002602001604051908101604052809291908181526020018280548015613111576020028201919060005260206000209081546001600160a01b031681526001909101906020018083116130f35750505050503061312c6102584261406290919063ffffffff16565b6006546007546001600160a01b039081169116146133c7576016546007546132bd916001600160a01b03918216911660006144cf565b6016546132d8906001600160a01b03166131878360026137e3565b6016546017546133c7916001600160a01b0390811691166132fa8460026137e3565b601354601f80548060200260200160405190810160405280929190818152602001828054801561335357602002820191906000526020600020905b81546001600160a01b03168152600190910190602001808311613335575b50505050506020805480602002602001604051908101604052809291908181526020018280548015613111576020028201919060005260206000209081546001600160a01b031681526001909101906020018083116130f35750505050503061312c6102584261406290919063ffffffff16565b600554604080517f70a0823100000000000000000000000000000000000000000000000000000000815230600482015290516000926001600160a01b0316916370a08231916024808301926020929190829003018186803b15801561342b57600080fd5b505afa15801561343f573d6000803e3d6000fd5b505050506040513d602081101561345557600080fd5b5051600654604080517f70a0823100000000000000000000000000000000000000000000000000000000815230600482015290519293506000926001600160a01b03909216916370a0823191602480820192602092909190829003018186803b1580156134c157600080fd5b505afa1580156134d5573d6000803e3d6000fd5b505050506040513d60208110156134eb57600080fd5b5051905081158015906134fe5750600081115b1561361d57601854600554613520916001600160a01b03918216911684614629565b60185460065461353d916001600160a01b03918216911683614629565b6018546005546006546001600160a01b039283169263e8e33700928116911685856000803061356e42610258614062565b6040518963ffffffff1660e01b815260040180896001600160a01b03168152602001886001600160a01b03168152602001878152602001868152602001858152602001848152602001836001600160a01b0316815260200182815260200198505050505050505050606060405180830381600087803b1580156135f057600080fd5b505af1158015613604573d6000803e3d6000fd5b505050506040513d606081101561361a57600080fd5b50505b50505b43600b5561362c613c69565b5060018055565b60005460408051631c86b03760e31b815233600482015290516101009092046001600160a01b03169163e43581b891602480820192602092909190829003018186803b15801561368257600080fd5b505afa158015613696573d6000803e3d6000fd5b505050506040513d60208110156136ac57600080fd5b50516136e95760405162461bcd60e51b815260040180806020018281038252602f815260200180614f2b602f913960400191505060405180910390fd5b61172f6140c6565b6006546001600160a01b031681565b6002546301000000900460ff1681565b7f8b8c0776df2c2176edf6f82391c35ea4891146d7a976ee36fd07f1a6fb4ead4c81565b60025462010000900460ff1681565b6007546001600160a01b031681565b6004546001600160a01b031681565b60035481565b60005461010090046001600160a01b031690565b60135481565b600082613790575060006137dd565b8282028284828161379d57fe5b04146137da5760405162461bcd60e51b8152600401808060200182810382526021815260200180614fa66021913960400191505060405180910390fd5b90505b92915050565b6000808211613839576040805162461bcd60e51b815260206004820152601a60248201527f536166654d6174683a206469766973696f6e206279207a65726f000000000000604482015290519081900360640190fd5b81838161384257fe5b049392505050565b6000828211156138a1576040805162461bcd60e51b815260206004820152601e60248201527f536166654d6174683a207375627472616374696f6e206f766572666c6f770000604482015290519081900360640190fd5b50900390565b60025460ff161561392a57600260059054906101000a90046001600160a01b03166001600160a01b0316631058d281826040518263ffffffff1660e01b815260040180828152602001915050600060405180830381600087803b15801561390d57600080fd5b505af1158015613921573d6000803e3d6000fd5b505050506139a8565b600260059054906101000a90046001600160a01b03166001600160a01b031663441a3e70600354836040518363ffffffff1660e01b81526004018083815260200182815260200192505050600060405180830381600087803b15801561398f57600080fd5b505af11580156139a3573d6000803e3d6000fd5b505050505b50565b604080516001600160a01b038416602482015260448082018490528251808303909101815260649091019091526020810180517bffffffffffffffffffffffffffffffffffffffffffffffffffffffff167fa9059cbb00000000000000000000000000000000000000000000000000000000179052611a0790849061477d565b6008546007546001600160a01b0390811691161415613a4c57613a4c6140c6565b600754604080517f70a0823100000000000000000000000000000000000000000000000000000000815230600482015290516000926001600160a01b0316916370a08231916024808301926020929190829003018186803b158015613ab057600080fd5b505afa158015613ac4573d6000803e3d6000fd5b505050506040513d6020811015613ada57600080fd5b505190508015801590613af757506010546001600160a01b031615155b156139a8576010546007546139a8916001600160a01b039182169116836139ab565b8351835160025460009291906301000000900460ff1680613b4b5750836001600160a01b0316856001600160a01b0316145b15613b655781158015613b5c575080155b92505050613c61565b60028210158015613b9b5750846001600160a01b031687600081518110613b8857fe5b60200260200101516001600160a01b0316145b8015613c5c575080158015613bd75750836001600160a01b0316876001840381518110613bc457fe5b60200260200101516001600160a01b0316145b80613c5c575060028110158015613c29575085600081518110613bf657fe5b60200260200101516001600160a01b0316876001840381518110613c1657fe5b60200260200101516001600160a01b0316145b8015613c5c5750836001600160a01b0316866001830381518110613c4957fe5b60200260200101516001600160a01b0316145b925050505b949350505050565b60025462010000900460ff16613cc6576040805162461bcd60e51b815260206004820152600b60248201527f2169734175746f436f6d70000000000000000000000000000000000000000000604482015290519081900360640190fd5b60048054604080517f70a082310000000000000000000000000000000000000000000000000000000081523093810193909352516000926001600160a01b03909216916370a08231916024808301926020929190829003018186803b158015613d2e57600080fd5b505afa158015613d42573d6000803e3d6000fd5b505050506040513d6020811015613d5857600080fd5b5051600c54909150613d6a9082614062565b600c55600254600454613d94916001600160a01b0391821691650100000000009091041683614629565b60025460ff1615613dfa57600260059054906101000a90046001600160a01b03166001600160a01b03166341441d3b826040518263ffffffff1660e01b815260040180828152602001915050600060405180830381600087803b15801561390d57600080fd5b600260059054906101000a90046001600160a01b03166001600160a01b031663e2bbb158600354836040518363ffffffff1660e01b81526004018083815260200182815260200192505050600060405180830381600087803b15801561398f57600080fd5b613e6761173d565b613eb8576040805162461bcd60e51b815260206004820152601460248201527f5061757361626c653a206e6f7420706175736564000000000000000000000000604482015290519081900360640190fd5b600080547fffffffffffffffffffffffffffffffffffffffffffffffffffffffffffffff001690557f5db9ee0a495bf2e6ff9c91a7834c1ba4fdd244a5e8aa4e537bd38aeae4b073aa613f0961482e565b604080516001600160a01b039092168252519081900360200190a1565b613f2e61173d565b15613f80576040805162461bcd60e51b815260206004820152601060248201527f5061757361626c653a2070617573656400000000000000000000000000000000604482015290519081900360640190fd5b600080547fffffffffffffffffffffffffffffffffffffffffffffffffffffffffffffff001660011790557f62e78cea01bee320cd4e420270b5ea74000d11b0c9f74754ebdbfc544b05a258613f0961482e565b604080516001600160a01b0380861660248301528416604482015260648082018490528251808303909101815260849091019091526020810180517bffffffffffffffffffffffffffffffffffffffffffffffffffffffff167f23b872dd0000000000000000000000000000000000000000000000000000000017905261405c90859061477d565b50505050565b6000828201838110156137da576040805162461bcd60e51b815260206004820152601b60248201527f536166654d6174683a206164646974696f6e206f766572666c6f770000000000604482015290519081900360640190fd5b61172f60006138a7565b4780156139a857600860009054906101000a90046001600160a01b03166001600160a01b031663d0e30db0826040518263ffffffff1660e01b81526004016000604051808303818588803b15801561411d57600080fd5b505af1158015614131573d6000803e3d6000fd5b505050505050565b6000811561419457600e54156141945760006141666127106111ad600e548661378190919063ffffffff16565b601054600754919250614186916001600160a01b039081169116836139ab565b614190838261384a565b9250505b50805b919050565b600080600f54116141ae575080614197565b60006141cb6127106111ad600f548661378190919063ffffffff16565b600a5460075491925082916001600160a01b0390811691161461443e57601954600754614206916001600160a01b03918216911660006144cf565b601954600754614223916001600160a01b03918216911684614629565b600a54604080517f70a0823100000000000000000000000000000000000000000000000000000000815230600482015290516000926001600160a01b0316916370a08231916024808301926020929190829003018186803b15801561428757600080fd5b505afa15801561429b573d6000803e3d6000fd5b505050506040513d60208110156142b157600080fd5b5051601954601a54601354601b80546040805160208084028201810190925282815296975061439e966001600160a01b0396871696909516948a94939092909183018282801561432a57602002820191906000526020600020905b81546001600160a01b0316815260019091019060200180831161430c575b5050505050601c805480602002602001604051908101604052809291908181526020018280548015613111576020028201919060005260206000209081546001600160a01b031681526001909101906020018083116130f35750505050503061312c6102584261406290919063ffffffff16565b600a54604080517f70a08231000000000000000000000000000000000000000000000000000000008152306004820152905161443a9284926001600160a01b03909116916370a0823191602480820192602092909190829003018186803b15801561440857600080fd5b505afa15801561441c573d6000803e3d6000fd5b505050506040513d602081101561443257600080fd5b50519061384a565b9150505b600a54604080517f42966c680000000000000000000000000000000000000000000000000000000081526004810184905290516001600160a01b03909216916342966c689160248082019260009290919082900301818387803b1580156144a457600080fd5b505af11580156144b8573d6000803e3d6000fd5b50505050613c61828561384a90919063ffffffff16565b80158061456e5750604080517fdd62ed3e0000000000000000000000000000000000000000000000000000000081523060048201526001600160a01b03848116602483015291519185169163dd62ed3e91604480820192602092909190829003018186803b15801561454057600080fd5b505afa158015614554573d6000803e3d6000fd5b505050506040513d602081101561456a57600080fd5b5051155b6145a95760405162461bcd60e51b81526004018080602001828103825260368152602001806150366036913960400191505060405180910390fd5b604080516001600160a01b038416602482015260448082018490528251808303909101815260649091019091526020810180517bffffffffffffffffffffffffffffffffffffffffffffffffffffffff167f095ea7b300000000000000000000000000000000000000000000000000000000179052611a0790849061477d565b60006146bf82856001600160a01b031663dd62ed3e30876040518363ffffffff1660e01b815260040180836001600160a01b03168152602001826001600160a01b031681526020019250505060206040518083038186803b15801561468d57600080fd5b505afa1580156146a1573d6000803e3d6000fd5b505050506040513d60208110156146b757600080fd5b505190614062565b604080516001600160a01b038616602482015260448082018490528251808303909101815260649091019091526020810180517bffffffffffffffffffffffffffffffffffffffffffffffffffffffff167f095ea7b30000000000000000000000000000000000000000000000000000000017905290915061405c90859061477d565b6001600160a01b0387166147635761475e888787878686614832565b614773565b6147738888888888888888614ad3565b5050505050505050565b60606147d2826040518060400160405280602081526020017f5361666545524332303a206c6f772d6c6576656c2063616c6c206661696c6564815250856001600160a01b0316614c199092919063ffffffff16565b805190915015611a07578080602001905160208110156147f157600080fd5b5051611a075760405162461bcd60e51b815260040180806020018281038252602a81526020018061500c602a913960400191505060405180910390fd5b3390565b604080517fd06ca61f00000000000000000000000000000000000000000000000000000000815260048101878152602482019283528551604483015285516060936001600160a01b038b169363d06ca61f938b938a939192606401906020808601910280838360005b838110156148b357818101518382015260200161489b565b50505050905001935050505060006040518083038186803b1580156148d757600080fd5b505afa1580156148eb573d6000803e3d6000fd5b505050506040513d6000823e601f3d9081017fffffffffffffffffffffffffffffffffffffffffffffffffffffffffffffffe0168201604052602081101561493257600080fd5b810190808051604051939291908464010000000082111561495257600080fd5b90830190602082018581111561496757600080fd5b825186602082028301116401000000008211171561498457600080fd5b82525081516020918201928201910280838360005b838110156149b1578181015183820152602001614999565b5050505090500160405250505090506000816149d86001845161384a90919063ffffffff16565b815181106149e257fe5b60200260200101519050876001600160a01b0316635c11d79588614a156103e86111ad8b8761378190919063ffffffff16565b8888886040518663ffffffff1660e01b81526004018086815260200185815260200180602001846001600160a01b03168152602001838152602001828103825285818151815260200191508051906020019060200280838360005b83811015614a88578181015183820152602001614a70565b505050509050019650505050505050600060405180830381600087803b158015614ab157600080fd5b505af1158015614ac5573d6000803e3d6000fd5b505050505050505050505050565b600084600186510381518110614ae557fe5b602002602001015190506000816001600160a01b03166370a08231306040518263ffffffff1660e01b815260040180826001600160a01b0316815260200191505060206040518083038186803b158015614b3e57600080fd5b505afa158015614b52573d6000803e3d6000fd5b505050506040513d6020811015614b6857600080fd5b50519050614b7a8a8989893088614832565b6000614bcd82846001600160a01b03166370a08231306040518263ffffffff1660e01b815260040180826001600160a01b0316815260200191505060206040518083038186803b15801561440857600080fd5b90508015614c0c57614bea6001600160a01b0384168b60006144cf565b614bfe6001600160a01b0384168b83614629565b614c0c8a828a898989614832565b5050505050505050505050565b6060614c288484600085614c32565b90505b9392505050565b606082471015614c735760405162461bcd60e51b8152600401808060200182810382526026815260200180614f806026913960400191505060405180910390fd5b614c7c85614da1565b614ccd576040805162461bcd60e51b815260206004820152601d60248201527f416464726573733a2063616c6c20746f206e6f6e2d636f6e7472616374000000604482015290519081900360640190fd5b60006060866001600160a01b031685876040518082805190602001908083835b60208310614d2a57805182527fffffffffffffffffffffffffffffffffffffffffffffffffffffffffffffffe09092019160209182019101614ced565b6001836020036101000a03801982511681845116808217855250505050505090500191505060006040518083038185875af1925050503d8060008114614d8c576040519150601f19603f3d011682016040523d82523d6000602084013e614d91565b606091505b5091509150613c5c828286614da7565b3b151590565b60608315614db6575081614c2b565b825115614dc65782518084602001fd5b8160405162461bcd60e51b81526004018080602001828103825283818151815260200191508051906020019080838360005b83811015614e10578181015183820152602001614df8565b50505050905090810190601f168015614e3d5780820380516001836020036101000a031916815260200191505b509250505060405180910390fd5b828054828255906000526020600020908101928215614eb8579160200282015b82811115614eb857825182547fffffffffffffffffffffffff0000000000000000000000000000000000000000166001600160a01b03909116178255602090920191600190910190614e6b565b50614ec4929150614ec8565b5090565b5b80821115614ec45780547fffffffffffffffffffffffff0000000000000000000000000000000000000000168155600101614ec956fe436f72655265663a3a6f6e6c794d61737465723a2043616c6c6572206973206e6f742061206d6173746572436f72655265663a3a6f6e6c79476f7665726e6f723a2043616c6c6572206973206e6f74206120676f7665726e6f726669727374206465706f73697420616d6f756e74203c3d204d494e494d554d5f534841524553416464726573733a20696e73756666696369656e742062616c616e636520666f722063616c6c536166654d6174683a206d756c7469706c69636174696f6e206f766572666c6f77436f72655265663a3a6f6e6c79477561726469616e4f72476f7665726e6f723a2043616c6c6572206973206e6f74206120677561726469616e206f7220676f7665726e6f725361666545524332303a204552433230206f7065726174696f6e20646964206e6f7420737563636565645361666545524332303a20617070726f76652066726f6d206e6f6e2d7a65726f20746f206e6f6e2d7a65726f20616c6c6f77616e6365a2646970667358221220f136b3e4a45098d887a81ce9f21a3d94ba9a70c5d263d2a8afac79c56b7266ca64736f6c634300060c0033",
  "devdoc": {
    "kind": "dev",
    "methods": {
      "paused()": {
        "details": "Returns true if the contract is paused, and false otherwise."
      }
    },
    "version": 1
  },
  "userdoc": {
    "kind": "user",
    "methods": {},
    "version": 1
  },
  "storageLayout": {
    "storage": [
      {
        "astId": 2370,
        "contract": "contracts/StrategyPCS.sol:StrategyPCS",
        "label": "_paused",
        "offset": 0,
        "slot": "0",
        "type": "t_bool"
      },
      {
        "astId": 11642,
        "contract": "contracts/StrategyPCS.sol:StrategyPCS",
        "label": "_core",
        "offset": 1,
        "slot": "0",
        "type": "t_contract(ICore)11634"
      },
      {
        "astId": 2455,
        "contract": "contracts/StrategyPCS.sol:StrategyPCS",
        "label": "_status",
        "offset": 0,
        "slot": "1",
        "type": "t_uint256"
      },
      {
        "astId": 4249,
        "contract": "contracts/StrategyPCS.sol:StrategyPCS",
        "label": "isCAKEStaking",
        "offset": 0,
        "slot": "2",
        "type": "t_bool"
      },
      {
        "astId": 4251,
        "contract": "contracts/StrategyPCS.sol:StrategyPCS",
        "label": "isSameAssetDeposit",
        "offset": 1,
        "slot": "2",
        "type": "t_bool"
      },
      {
        "astId": 4253,
        "contract": "contracts/StrategyPCS.sol:StrategyPCS",
        "label": "isAutoComp",
        "offset": 2,
        "slot": "2",
        "type": "t_bool"
      },
      {
        "astId": 4255,
        "contract": "contracts/StrategyPCS.sol:StrategyPCS",
        "label": "isCollect",
        "offset": 3,
        "slot": "2",
        "type": "t_bool"
      },
      {
        "astId": 4258,
        "contract": "contracts/StrategyPCS.sol:StrategyPCS",
        "label": "onlyGov",
        "offset": 4,
        "slot": "2",
        "type": "t_bool"
      },
      {
        "astId": 4260,
        "contract": "contracts/StrategyPCS.sol:StrategyPCS",
        "label": "farmContractAddress",
        "offset": 5,
        "slot": "2",
        "type": "t_address"
      },
      {
        "astId": 4262,
        "contract": "contracts/StrategyPCS.sol:StrategyPCS",
        "label": "pid",
        "offset": 0,
        "slot": "3",
        "type": "t_uint256"
      },
      {
        "astId": 4264,
        "contract": "contracts/StrategyPCS.sol:StrategyPCS",
        "label": "wantAddress",
        "offset": 0,
        "slot": "4",
        "type": "t_address"
      },
      {
        "astId": 4266,
        "contract": "contracts/StrategyPCS.sol:StrategyPCS",
        "label": "token0Address",
        "offset": 0,
        "slot": "5",
        "type": "t_address"
      },
      {
        "astId": 4268,
        "contract": "contracts/StrategyPCS.sol:StrategyPCS",
        "label": "token1Address",
        "offset": 0,
        "slot": "6",
        "type": "t_address"
      },
      {
        "astId": 4270,
        "contract": "contracts/StrategyPCS.sol:StrategyPCS",
        "label": "earnedAddress",
        "offset": 0,
        "slot": "7",
        "type": "t_address"
      },
      {
        "astId": 4272,
        "contract": "contracts/StrategyPCS.sol:StrategyPCS",
        "label": "wbnbAddress",
        "offset": 0,
        "slot": "8",
        "type": "t_address"
      },
      {
        "astId": 4274,
        "contract": "contracts/StrategyPCS.sol:StrategyPCS",
        "label": "UPFarmAddress",
        "offset": 0,
        "slot": "9",
        "type": "t_address"
      },
      {
        "astId": 4276,
        "contract": "contracts/StrategyPCS.sol:StrategyPCS",
        "label": "UPAddress",
        "offset": 0,
        "slot": "10",
        "type": "t_address"
      },
      {
        "astId": 4279,
        "contract": "contracts/StrategyPCS.sol:StrategyPCS",
        "label": "lastEarnBlock",
        "offset": 0,
        "slot": "11",
        "type": "t_uint256"
      },
      {
        "astId": 4282,
        "contract": "contracts/StrategyPCS.sol:StrategyPCS",
        "label": "wantLockedTotal",
        "offset": 0,
        "slot": "12",
        "type": "t_uint256"
      },
      {
        "astId": 4285,
        "contract": "contracts/StrategyPCS.sol:StrategyPCS",
        "label": "sharesTotal",
        "offset": 0,
        "slot": "13",
        "type": "t_uint256"
      },
      {
        "astId": 4288,
        "contract": "contracts/StrategyPCS.sol:StrategyPCS",
        "label": "controllerFee",
        "offset": 0,
        "slot": "14",
        "type": "t_uint256"
      },
      {
        "astId": 4297,
        "contract": "contracts/StrategyPCS.sol:StrategyPCS",
        "label": "buyBackRate",
        "offset": 0,
        "slot": "15",
        "type": "t_uint256"
      },
      {
        "astId": 4305,
        "contract": "contracts/StrategyPCS.sol:StrategyPCS",
        "label": "rewardsAddress",
        "offset": 0,
        "slot": "16",
        "type": "t_address"
      },
      {
        "astId": 4308,
        "contract": "contracts/StrategyPCS.sol:StrategyPCS",
        "label": "entranceFeeFactor",
        "offset": 0,
        "slot": "17",
        "type": "t_uint256"
      },
      {
        "astId": 4317,
        "contract": "contracts/StrategyPCS.sol:StrategyPCS",
        "label": "withdrawFeeFactor",
        "offset": 0,
        "slot": "18",
        "type": "t_uint256"
      },
      {
        "astId": 4326,
        "contract": "contracts/StrategyPCS.sol:StrategyPCS",
        "label": "slippageFactor",
        "offset": 0,
        "slot": "19",
        "type": "t_uint256"
      },
      {
        "astId": 4331,
        "contract": "contracts/StrategyPCS.sol:StrategyPCS",
        "label": "earnedToToken0Router0Address",
        "offset": 0,
        "slot": "20",
        "type": "t_address"
      },
      {
        "astId": 4333,
        "contract": "contracts/StrategyPCS.sol:StrategyPCS",
        "label": "earnedToToken0Router1Address",
        "offset": 0,
        "slot": "21",
        "type": "t_address"
      },
      {
        "astId": 4335,
        "contract": "contracts/StrategyPCS.sol:StrategyPCS",
        "label": "earnedToToken1Router0Address",
        "offset": 0,
        "slot": "22",
        "type": "t_address"
      },
      {
        "astId": 4337,
        "contract": "contracts/StrategyPCS.sol:StrategyPCS",
        "label": "earnedToToken1Router1Address",
        "offset": 0,
        "slot": "23",
        "type": "t_address"
      },
      {
        "astId": 4339,
        "contract": "contracts/StrategyPCS.sol:StrategyPCS",
        "label": "wantRouterAddress",
        "offset": 0,
        "slot": "24",
        "type": "t_address"
      },
      {
        "astId": 4341,
        "contract": "contracts/StrategyPCS.sol:StrategyPCS",
        "label": "buyBackRouter0Address",
        "offset": 0,
        "slot": "25",
        "type": "t_address"
      },
      {
        "astId": 4343,
        "contract": "contracts/StrategyPCS.sol:StrategyPCS",
        "label": "buyBackRouter1Address",
        "offset": 0,
        "slot": "26",
        "type": "t_address"
      },
      {
        "astId": 4346,
        "contract": "contracts/StrategyPCS.sol:StrategyPCS",
        "label": "earnedToUpPath0",
        "offset": 0,
        "slot": "27",
        "type": "t_array(t_address)dyn_storage"
      },
      {
        "astId": 4349,
        "contract": "contracts/StrategyPCS.sol:StrategyPCS",
        "label": "earnedToUpPath1",
        "offset": 0,
        "slot": "28",
        "type": "t_array(t_address)dyn_storage"
      },
      {
        "astId": 4352,
        "contract": "contracts/StrategyPCS.sol:StrategyPCS",
        "label": "earnedToToken0Path0",
        "offset": 0,
        "slot": "29",
        "type": "t_array(t_address)dyn_storage"
      },
      {
        "astId": 4355,
        "contract": "contracts/StrategyPCS.sol:StrategyPCS",
        "label": "earnedToToken0Path1",
        "offset": 0,
        "slot": "30",
        "type": "t_array(t_address)dyn_storage"
      },
      {
        "astId": 4358,
        "contract": "contracts/StrategyPCS.sol:StrategyPCS",
        "label": "earnedToToken1Path0",
        "offset": 0,
        "slot": "31",
        "type": "t_array(t_address)dyn_storage"
      },
      {
        "astId": 4361,
        "contract": "contracts/StrategyPCS.sol:StrategyPCS",
        "label": "earnedToToken1Path1",
        "offset": 0,
        "slot": "32",
        "type": "t_array(t_address)dyn_storage"
      }
    ],
    "types": {
      "t_address": {
        "encoding": "inplace",
        "label": "address",
        "numberOfBytes": "20"
      },
      "t_array(t_address)dyn_storage": {
        "base": "t_address",
        "encoding": "dynamic_array",
        "label": "address[]",
        "numberOfBytes": "32"
      },
      "t_bool": {
        "encoding": "inplace",
        "label": "bool",
        "numberOfBytes": "1"
      },
      "t_contract(ICore)11634": {
        "encoding": "inplace",
        "label": "contract ICore",
        "numberOfBytes": "20"
      },
      "t_uint256": {
        "encoding": "inplace",
        "label": "uint256",
        "numberOfBytes": "32"
      }
    }
  }
}