{
  "address": "0x83ac0bD6315Eea678CDe633957820058AD17139A",
  "abi": [
    {
      "inputs": [
        {
          "internalType": "address",
          "name": "core_",
          "type": "address"
        }
      ],
      "stateMutability": "nonpayable",
      "type": "constructor"
    },
    {
      "anonymous": false,
      "inputs": [
        {
          "indexed": true,
          "internalType": "address",
          "name": "owner",
          "type": "address"
        },
        {
          "indexed": true,
          "internalType": "address",
          "name": "spender",
          "type": "address"
        },
        {
          "indexed": false,
          "internalType": "uint256",
          "name": "value",
          "type": "uint256"
        }
      ],
      "name": "Approval",
      "type": "event"
    },
    {
      "anonymous": false,
      "inputs": [
        {
          "indexed": true,
          "internalType": "address",
          "name": "_core",
          "type": "address"
        }
      ],
      "name": "CoreUpdate",
      "type": "event"
    },
    {
      "anonymous": false,
      "inputs": [
        {
          "indexed": true,
          "internalType": "address",
          "name": "delegator",
          "type": "address"
        },
        {
          "indexed": true,
          "internalType": "address",
          "name": "fromDelegate",
          "type": "address"
        },
        {
          "indexed": true,
          "internalType": "address",
          "name": "toDelegate",
          "type": "address"
        }
      ],
      "name": "DelegateChanged",
      "type": "event"
    },
    {
      "anonymous": false,
      "inputs": [
        {
          "indexed": true,
          "internalType": "address",
          "name": "delegate",
          "type": "address"
        },
        {
          "indexed": false,
          "internalType": "uint256",
          "name": "previousBalance",
          "type": "uint256"
        },
        {
          "indexed": false,
          "internalType": "uint256",
          "name": "newBalance",
          "type": "uint256"
        }
      ],
      "name": "DelegateVotesChanged",
      "type": "event"
    },
    {
      "anonymous": false,
      "inputs": [
        {
          "indexed": false,
          "internalType": "address",
          "name": "operator",
          "type": "address"
        },
        {
          "indexed": false,
          "internalType": "uint256",
          "name": "_increaseNum",
          "type": "uint256"
        }
      ],
      "name": "IncreaseCap",
      "type": "event"
    },
    {
      "anonymous": false,
      "inputs": [
        {
          "indexed": false,
          "internalType": "address",
          "name": "account",
          "type": "address"
        }
      ],
      "name": "Paused",
      "type": "event"
    },
    {
      "anonymous": false,
      "inputs": [
        {
          "indexed": true,
          "internalType": "address",
          "name": "from",
          "type": "address"
        },
        {
          "indexed": true,
          "internalType": "address",
          "name": "to",
          "type": "address"
        },
        {
          "indexed": false,
          "internalType": "uint256",
          "name": "value",
          "type": "uint256"
        }
      ],
      "name": "Transfer",
      "type": "event"
    },
    {
      "anonymous": false,
      "inputs": [
        {
          "indexed": false,
          "internalType": "address",
          "name": "account",
          "type": "address"
        }
      ],
      "name": "Unpaused",
      "type": "event"
    },
    {
      "inputs": [],
      "name": "DELEGATION_TYPEHASH",
      "outputs": [
        {
          "internalType": "bytes32",
          "name": "",
          "type": "bytes32"
        }
      ],
      "stateMutability": "view",
      "type": "function"
    },
    {
      "inputs": [],
      "name": "DOMAIN_TYPEHASH",
      "outputs": [
        {
          "internalType": "bytes32",
          "name": "",
          "type": "bytes32"
        }
      ],
      "stateMutability": "view",
      "type": "function"
    },
    {
      "inputs": [],
      "name": "MASTER_ROLE",
      "outputs": [
        {
          "internalType": "bytes32",
          "name": "",
          "type": "bytes32"
        }
      ],
      "stateMutability": "view",
      "type": "function"
    },
    {
      "inputs": [
        {
          "internalType": "address",
          "name": "owner",
          "type": "address"
        },
        {
          "internalType": "address",
          "name": "spender",
          "type": "address"
        }
      ],
      "name": "allowance",
      "outputs": [
        {
          "internalType": "uint256",
          "name": "",
          "type": "uint256"
        }
      ],
      "stateMutability": "view",
      "type": "function"
    },
    {
      "inputs": [
        {
          "internalType": "address",
          "name": "spender",
          "type": "address"
        },
        {
          "internalType": "uint256",
          "name": "amount",
          "type": "uint256"
        }
      ],
      "name": "approve",
      "outputs": [
        {
          "internalType": "bool",
          "name": "",
          "type": "bool"
        }
      ],
      "stateMutability": "nonpayable",
      "type": "function"
    },
    {
      "inputs": [
        {
          "internalType": "address",
          "name": "account",
          "type": "address"
        }
      ],
      "name": "balanceOf",
      "outputs": [
        {
          "internalType": "uint256",
          "name": "",
          "type": "uint256"
        }
      ],
      "stateMutability": "view",
      "type": "function"
    },
    {
      "inputs": [
        {
          "internalType": "uint256",
          "name": "amount",
          "type": "uint256"
        }
      ],
      "name": "burn",
      "outputs": [],
      "stateMutability": "nonpayable",
      "type": "function"
    },
    {
      "inputs": [],
      "name": "cap",
      "outputs": [
        {
          "internalType": "uint256",
          "name": "",
          "type": "uint256"
        }
      ],
      "stateMutability": "view",
      "type": "function"
    },
    {
      "inputs": [
        {
          "internalType": "address",
          "name": "",
          "type": "address"
        },
        {
          "internalType": "uint32",
          "name": "",
          "type": "uint32"
        }
      ],
      "name": "checkpoints",
      "outputs": [
        {
          "internalType": "uint32",
          "name": "fromBlock",
          "type": "uint32"
        },
        {
          "internalType": "uint256",
          "name": "votes",
          "type": "uint256"
        }
      ],
      "stateMutability": "view",
      "type": "function"
    },
    {
      "inputs": [],
      "name": "core",
      "outputs": [
        {
          "internalType": "contract ICore",
          "name": "",
          "type": "address"
        }
      ],
      "stateMutability": "view",
      "type": "function"
    },
    {
      "inputs": [],
      "name": "decimals",
      "outputs": [
        {
          "internalType": "uint8",
          "name": "",
          "type": "uint8"
        }
      ],
      "stateMutability": "view",
      "type": "function"
    },
    {
      "inputs": [
        {
          "internalType": "address",
          "name": "spender",
          "type": "address"
        },
        {
          "internalType": "uint256",
          "name": "subtractedValue",
          "type": "uint256"
        }
      ],
      "name": "decreaseAllowance",
      "outputs": [
        {
          "internalType": "bool",
          "name": "",
          "type": "bool"
        }
      ],
      "stateMutability": "nonpayable",
      "type": "function"
    },
    {
      "inputs": [
        {
          "internalType": "address",
          "name": "delegatee",
          "type": "address"
        }
      ],
      "name": "delegate",
      "outputs": [],
      "stateMutability": "nonpayable",
      "type": "function"
    },
    {
      "inputs": [
        {
          "internalType": "address",
          "name": "delegatee",
          "type": "address"
        },
        {
          "internalType": "uint256",
          "name": "nonce",
          "type": "uint256"
        },
        {
          "internalType": "uint256",
          "name": "expiry",
          "type": "uint256"
        },
        {
          "internalType": "uint8",
          "name": "v",
          "type": "uint8"
        },
        {
          "internalType": "bytes32",
          "name": "r",
          "type": "bytes32"
        },
        {
          "internalType": "bytes32",
          "name": "s",
          "type": "bytes32"
        }
      ],
      "name": "delegateBySig",
      "outputs": [],
      "stateMutability": "nonpayable",
      "type": "function"
    },
    {
      "inputs": [
        {
          "internalType": "address",
          "name": "delegator",
          "type": "address"
        }
      ],
      "name": "delegates",
      "outputs": [
        {
          "internalType": "address",
          "name": "",
          "type": "address"
        }
      ],
      "stateMutability": "view",
      "type": "function"
    },
    {
      "inputs": [
        {
          "internalType": "address",
          "name": "account",
          "type": "address"
        }
      ],
      "name": "getCurrentVotes",
      "outputs": [
        {
          "internalType": "uint256",
          "name": "",
          "type": "uint256"
        }
      ],
      "stateMutability": "view",
      "type": "function"
    },
    {
      "inputs": [
        {
          "internalType": "address",
          "name": "account",
          "type": "address"
        },
        {
          "internalType": "uint256",
          "name": "blockNumber",
          "type": "uint256"
        }
      ],
      "name": "getPriorVotes",
      "outputs": [
        {
          "internalType": "uint256",
          "name": "",
          "type": "uint256"
        }
      ],
      "stateMutability": "view",
      "type": "function"
    },
    {
      "inputs": [
        {
          "internalType": "address",
          "name": "spender",
          "type": "address"
        },
        {
          "internalType": "uint256",
          "name": "addedValue",
          "type": "uint256"
        }
      ],
      "name": "increaseAllowance",
      "outputs": [
        {
          "internalType": "bool",
          "name": "",
          "type": "bool"
        }
      ],
      "stateMutability": "nonpayable",
      "type": "function"
    },
    {
      "inputs": [
        {
          "internalType": "uint256",
          "name": "_increaseNum",
          "type": "uint256"
        }
      ],
      "name": "increaseCap",
      "outputs": [],
      "stateMutability": "nonpayable",
      "type": "function"
    },
    {
      "inputs": [
        {
          "internalType": "address",
          "name": "_to",
          "type": "address"
        },
        {
          "internalType": "uint256",
          "name": "_amount",
          "type": "uint256"
        }
      ],
      "name": "mint",
      "outputs": [],
      "stateMutability": "nonpayable",
      "type": "function"
    },
    {
      "inputs": [],
      "name": "name",
      "outputs": [
        {
          "internalType": "string",
          "name": "",
          "type": "string"
        }
      ],
      "stateMutability": "view",
      "type": "function"
    },
    {
      "inputs": [
        {
          "internalType": "address",
          "name": "",
          "type": "address"
        }
      ],
      "name": "nonces",
      "outputs": [
        {
          "internalType": "uint256",
          "name": "",
          "type": "uint256"
        }
      ],
      "stateMutability": "view",
      "type": "function"
    },
    {
      "inputs": [
        {
          "internalType": "address",
          "name": "",
          "type": "address"
        }
      ],
      "name": "numCheckpoints",
      "outputs": [
        {
          "internalType": "uint32",
          "name": "",
          "type": "uint32"
        }
      ],
      "stateMutability": "view",
      "type": "function"
    },
    {
      "inputs": [],
      "name": "pause",
      "outputs": [],
      "stateMutability": "nonpayable",
      "type": "function"
    },
    {
      "inputs": [],
      "name": "paused",
      "outputs": [
        {
          "internalType": "bool",
          "name": "",
          "type": "bool"
        }
      ],
      "stateMutability": "view",
      "type": "function"
    },
    {
      "inputs": [
        {
          "internalType": "address",
          "name": "core_",
          "type": "address"
        }
      ],
      "name": "setCore",
      "outputs": [],
      "stateMutability": "nonpayable",
      "type": "function"
    },
    {
      "inputs": [],
      "name": "symbol",
      "outputs": [
        {
          "internalType": "string",
          "name": "",
          "type": "string"
        }
      ],
      "stateMutability": "view",
      "type": "function"
    },
    {
      "inputs": [],
      "name": "totalSupply",
      "outputs": [
        {
          "internalType": "uint256",
          "name": "",
          "type": "uint256"
        }
      ],
      "stateMutability": "view",
      "type": "function"
    },
    {
      "inputs": [
        {
          "internalType": "address",
          "name": "recipient",
          "type": "address"
        },
        {
          "internalType": "uint256",
          "name": "amount",
          "type": "uint256"
        }
      ],
      "name": "transfer",
      "outputs": [
        {
          "internalType": "bool",
          "name": "",
          "type": "bool"
        }
      ],
      "stateMutability": "nonpayable",
      "type": "function"
    },
    {
      "inputs": [
        {
          "internalType": "address",
          "name": "sender",
          "type": "address"
        },
        {
          "internalType": "address",
          "name": "recipient",
          "type": "address"
        },
        {
          "internalType": "uint256",
          "name": "amount",
          "type": "uint256"
        }
      ],
      "name": "transferFrom",
      "outputs": [
        {
          "internalType": "bool",
          "name": "",
          "type": "bool"
        }
      ],
      "stateMutability": "nonpayable",
      "type": "function"
    },
    {
      "inputs": [],
      "name": "unpause",
      "outputs": [],
      "stateMutability": "nonpayable",
      "type": "function"
    }
  ],
  "transactionHash": "0x05000d78f86c2d0ef4b3c4013475a1b93f0588ff89ec5cb07027bf965c4c045c",
  "args": [
    "0x40fc3759Ccc4E466650891a91F34Bdd6129094D6"
  ],
  "solcInputHash": "686b7fecdf0c5a6211f63d204b8a3020",
  "bytecode": "0x60806040526b01f04ef12cb04cf1580000006006553480156200002157600080fd5b50604051620024cb380380620024cb833981810160405260208110156200004757600080fd5b505160408051808201825260078152662ab82a37b5b2b760c91b602082810191825283518085019094526002845261055560f41b908401528151849391620000939160039190620000e6565b508051620000a9906004906020840190620000e6565b5050600580546001600160a01b039093166201000002610100600160b01b031960ff19909416601217939093169290921790915550620001829050565b828054600181600116156101000203166002900490600052602060002090601f016020900481019282601f106200012957805160ff191683800117855562000159565b8280016001018555821562000159579182015b82811115620001595782518255916020019190600101906200013c565b50620001679291506200016b565b5090565b5b808211156200016757600081556001016200016c565b61233980620001926000396000f3fe608060405234801561001057600080fd5b50600436106101e55760003560e01c80636fcfff451161010f578063a9059cbb116100a2578063dd62ed3e11610071578063dd62ed3e146105eb578063e7a324dc14610619578063f1127ed814610621578063f2f4eb2614610673576101e5565b8063a9059cbb1461054a578063b4b5ea5714610576578063c3cda5201461059c578063dc224863146105e3576101e5565b806380009630116100de57806380009630146104e85780638456cb591461050e57806395d89b4114610516578063a457c2d71461051e576101e5565b80636fcfff451461043157806370a0823114610470578063782d6fe1146104965780637ecebe00146104c2576101e5565b80633950935111610187578063523e955111610156578063523e9551146103a4578063587cde1e146103c15780635c19a95c146104035780635c975abb14610429576101e5565b806339509351146103255780633f4ba83a1461035157806340c10f191461035b57806342966c6814610387576101e5565b806320606b70116101c357806320606b70146102c157806323b872dd146102c9578063313ce567146102ff578063355274ea1461031d576101e5565b806306fdde03146101ea578063095ea7b31461026757806318160ddd146102a7575b600080fd5b6101f261067b565b6040805160208082528351818301528351919283929083019185019080838360005b8381101561022c578181015183820152602001610214565b50505050905090810190601f1680156102595780820380516001836020036101000a031916815260200191505b509250505060405180910390f35b6102936004803603604081101561027d57600080fd5b506001600160a01b038135169060200135610711565b604080519115158252519081900360200190f35b6102af61072f565b60408051918252519081900360200190f35b6102af610735565b610293600480360360608110156102df57600080fd5b506001600160a01b03813581169160208101359091169060400135610759565b6103076107e0565b6040805160ff9092168252519081900360200190f35b6102af6107e9565b6102936004803603604081101561033b57600080fd5b506001600160a01b0381351690602001356107ef565b61035961083d565b005b6103596004803603604081101561037157600080fd5b506001600160a01b038135169060200135610917565b6103596004803603602081101561039d57600080fd5b5035610a62565b610359600480360360208110156103ba57600080fd5b5035610a76565b6103e7600480360360208110156103d757600080fd5b50356001600160a01b0316610b94565b604080516001600160a01b039092168252519081900360200190f35b6103596004803603602081101561041957600080fd5b50356001600160a01b0316610bb2565b610293610bbc565b6104576004803603602081101561044757600080fd5b50356001600160a01b0316610bca565b6040805163ffffffff9092168252519081900360200190f35b6102af6004803603602081101561048657600080fd5b50356001600160a01b0316610be2565b6102af600480360360408110156104ac57600080fd5b506001600160a01b038135169060200135610bfd565b6102af600480360360208110156104d857600080fd5b50356001600160a01b0316610e05565b610359600480360360208110156104fe57600080fd5b50356001600160a01b0316610e17565b610359610f51565b6101f26110c5565b6102936004803603604081101561053457600080fd5b506001600160a01b038135169060200135611126565b6102936004803603604081101561056057600080fd5b506001600160a01b03813516906020013561118e565b6102af6004803603602081101561058c57600080fd5b50356001600160a01b03166111a2565b610359600480360360c08110156105b257600080fd5b506001600160a01b038135169060208101359060408101359060ff6060820135169060808101359060a00135611206565b6102af6114e6565b6102af6004803603604081101561060157600080fd5b506001600160a01b038135811691602001351661150a565b6102af611535565b6106536004803603604081101561063757600080fd5b5080356001600160a01b0316906020013563ffffffff16611559565b6040805163ffffffff909316835260208301919091528051918290030190f35b6103e7611586565b60038054604080516020601f60026000196101006001881615020190951694909404938401819004810282018101909252828152606093909290918301828280156107075780601f106106dc57610100808354040283529160200191610707565b820191906000526020600020905b8154815290600101906020018083116106ea57829003601f168201915b5050505050905090565b600061072561071e61159b565b848461159f565b5060015b92915050565b60025490565b7f8cad95687ba82c2ce50e74f7b754645e5117c3a5bec8151c0726d5857980a86681565b600061076684848461168b565b6107d68461077261159b565b6107d1856040518060600160405280602881526020016121e4602891396001600160a01b038a166000908152600160205260408120906107b061159b565b6001600160a01b0316815260208101919091526040016000205491906117e6565b61159f565b5060019392505050565b60055460ff1690565b60065490565b60006107256107fc61159b565b846107d1856001600061080d61159b565b6001600160a01b03908116825260208083019390935260409182016000908120918c16815292529020549061187d565b600554604080517fe43581b80000000000000000000000000000000000000000000000000000000081523360048201529051620100009092046001600160a01b03169163e43581b891602480820192602092909190829003018186803b1580156108a657600080fd5b505afa1580156108ba573d6000803e3d6000fd5b505050506040513d60208110156108d057600080fd5b505161090d5760405162461bcd60e51b815260040180806020018281038252602f81526020018061215f602f913960400191505060405180910390fd5b6109156118d7565b565b600554604080517fe43581b80000000000000000000000000000000000000000000000000000000081523360048201529051620100009092046001600160a01b03169163e43581b891602480820192602092909190829003018186803b15801561098057600080fd5b505afa158015610994573d6000803e3d6000fd5b505050506040513d60208110156109aa57600080fd5b50516109e75760405162461bcd60e51b815260040180806020018281038252602f81526020018061215f602f913960400191505060405180910390fd5b6109ef6107e9565b610a01826109fb61072f565b9061187d565b1115610a54576040805162461bcd60e51b815260206004820152600e60248201527f4f7574204f662074686520436170000000000000000000000000000000000000604482015290519081900360640190fd5b610a5e828261199e565b5050565b610a73610a6d61159b565b82611a8e565b50565b600554604080517fe43581b80000000000000000000000000000000000000000000000000000000081523360048201529051620100009092046001600160a01b03169163e43581b891602480820192602092909190829003018186803b158015610adf57600080fd5b505afa158015610af3573d6000803e3d6000fd5b505050506040513d6020811015610b0957600080fd5b5051610b465760405162461bcd60e51b815260040180806020018281038252602f81526020018061215f602f913960400191505060405180910390fd5b600654610b53908261187d565b600655604080513381526020810183905281517ff9e6feb535c8c638bf01b8e2b3f3266a9b03c3804eb1979c7170b2cffe248167929181900390910190a150565b6001600160a01b039081166000908152600760205260409020541690565b610a733382611b8a565b600554610100900460ff1690565b60096020526000908152604090205463ffffffff1681565b6001600160a01b031660009081526020819052604090205490565b6000438210610c3d5760405162461bcd60e51b81526004018080602001828103825260258152602001806120d06025913960400191505060405180910390fd5b6001600160a01b03831660009081526009602052604090205463ffffffff1680610c6b576000915050610729565b6001600160a01b038416600090815260086020908152604080832063ffffffff600019860181168552925290912054168310610cda576001600160a01b03841660009081526008602090815260408083206000199490940163ffffffff16835292905220600101549050610729565b6001600160a01b038416600090815260086020908152604080832083805290915290205463ffffffff16831015610d15576000915050610729565b600060001982015b8163ffffffff168163ffffffff161115610dce57600282820363ffffffff16048103610d47612095565b506001600160a01b038716600090815260086020908152604080832063ffffffff808616855290835292819020815180830190925280549093168082526001909301549181019190915290871415610da9576020015194506107299350505050565b805163ffffffff16871115610dc057819350610dc7565b6001820392505b5050610d1d565b506001600160a01b038516600090815260086020908152604080832063ffffffff9094168352929052206001015491505092915050565b600a6020526000908152604090205481565b600554604080517fe43581b80000000000000000000000000000000000000000000000000000000081523360048201529051620100009092046001600160a01b03169163e43581b891602480820192602092909190829003018186803b158015610e8057600080fd5b505afa158015610e94573d6000803e3d6000fd5b505050506040513d6020811015610eaa57600080fd5b5051610ee75760405162461bcd60e51b815260040180806020018281038252602f81526020018061215f602f913960400191505060405180910390fd5b600580547fffffffffffffffffffff0000000000000000000000000000000000000000ffff16620100006001600160a01b038416908102919091179091556040517fad9400e618eb1344fde53db22397a1b82c765527ecbba3a5c86bcac15090828b90600090a250565b600554604080517fe43581b80000000000000000000000000000000000000000000000000000000081523360048201529051620100009092046001600160a01b03169163e43581b891602480820192602092909190829003018186803b158015610fba57600080fd5b505afa158015610fce573d6000803e3d6000fd5b505050506040513d6020811015610fe457600080fd5b5051806110825750600554604080517f0c68ba210000000000000000000000000000000000000000000000000000000081523360048201529051620100009092046001600160a01b031691630c68ba2191602480820192602092909190829003018186803b15801561105557600080fd5b505afa158015611069573d6000803e3d6000fd5b505050506040513d602081101561107f57600080fd5b50515b6110bd5760405162461bcd60e51b815260040180806020018281038252604581526020018061220c6045913960600191505060405180910390fd5b610915611c37565b60048054604080516020601f60026000196101006001881615020190951694909404938401819004810282018101909252828152606093909290918301828280156107075780601f106106dc57610100808354040283529160200191610707565b600061072561113361159b565b846107d1856040518060600160405280602581526020016122df602591396001600061115d61159b565b6001600160a01b03908116825260208083019390935260409182016000908120918d168152925290205491906117e6565b600061072561119b61159b565b848461168b565b6001600160a01b03811660009081526009602052604081205463ffffffff16806111cd5760006111ff565b6001600160a01b038316600090815260086020908152604080832063ffffffff60001986011684529091529020600101545b9392505050565b60007f8cad95687ba82c2ce50e74f7b754645e5117c3a5bec8151c0726d5857980a86661123161067b565b80519060200120611240611ce6565b60408051602080820195909552808201939093526060830191909152306080808401919091528151808403909101815260a0830182528051908401207fe48329057bfd03d55e49b547132e39cffd9c1820ad7b9d4c5307691425d15adf60c08401526001600160a01b038b1660e084015261010083018a90526101208084018a905282518085039091018152610140840183528051908501207f19010000000000000000000000000000000000000000000000000000000000006101608501526101628401829052610182808501829052835180860390910181526101a285018085528151918701919091206000918290526101c2860180865281905260ff8b166101e287015261020286018a905261022286018990529351929650909492939092600192610242808401937fffffffffffffffffffffffffffffffffffffffffffffffffffffffffffffffe08301929081900390910190855afa1580156113ac573d6000803e3d6000fd5b50506040517fffffffffffffffffffffffffffffffffffffffffffffffffffffffffffffffe001519150506001600160a01b03811661141c5760405162461bcd60e51b81526004018080602001828103825260248152602001806122bb6024913960400191505060405180910390fd5b6001600160a01b0381166000908152600a602052604090208054600181019091558914611490576040805162461bcd60e51b815260206004820181905260248201527f55503a3a64656c656761746542795369673a20696e76616c6964206e6f6e6365604482015290519081900360640190fd5b874211156114cf5760405162461bcd60e51b815260040180806020018281038252602481526020018061218e6024913960400191505060405180910390fd5b6114d9818b611b8a565b505050505b505050505050565b7f8b8c0776df2c2176edf6f82391c35ea4891146d7a976ee36fd07f1a6fb4ead4c81565b6001600160a01b03918216600090815260016020908152604080832093909416825291909152205490565b7fe48329057bfd03d55e49b547132e39cffd9c1820ad7b9d4c5307691425d15adf81565b60086020908152600092835260408084209091529082529020805460019091015463ffffffff9091169082565b6005546201000090046001600160a01b031690565b3390565b6001600160a01b0383166115e45760405162461bcd60e51b81526004018080602001828103825260248152602001806122976024913960400191505060405180910390fd5b6001600160a01b0382166116295760405162461bcd60e51b81526004018080602001828103825260228152602001806121176022913960400191505060405180910390fd5b6001600160a01b03808416600081815260016020908152604080832094871680845294825291829020859055815185815291517f8c5be1e5ebec7d5bd14f71427d1e84f3dd0314c0f7b2291e5b200ac8c7c3b9259281900390910190a3505050565b6001600160a01b0383166116d05760405162461bcd60e51b81526004018080602001828103825260258152602001806122726025913960400191505060405180910390fd5b6001600160a01b0382166117155760405162461bcd60e51b81526004018080602001828103825260238152602001806120ad6023913960400191505060405180910390fd5b611720838383611cea565b61175d81604051806060016040528060268152602001612139602691396001600160a01b03861660009081526020819052604090205491906117e6565b6001600160a01b03808516600090815260208190526040808220939093559084168152205461178c908261187d565b6001600160a01b038084166000818152602081815260409182902094909455805185815290519193928716927fddf252ad1be2c89b69c2b068fc378daa952ba7f163c4a11628f55a4df523b3ef92918290030190a3505050565b600081848411156118755760405162461bcd60e51b81526004018080602001828103825283818151815260200191508051906020019080838360005b8381101561183a578181015183820152602001611822565b50505050905090810190601f1680156118675780820380516001836020036101000a031916815260200191505b509250505060405180910390fd5b505050900390565b6000828201838110156111ff576040805162461bcd60e51b815260206004820152601b60248201527f536166654d6174683a206164646974696f6e206f766572666c6f770000000000604482015290519081900360640190fd5b6118df610bbc565b611930576040805162461bcd60e51b815260206004820152601460248201527f5061757361626c653a206e6f7420706175736564000000000000000000000000604482015290519081900360640190fd5b600580547fffffffffffffffffffffffffffffffffffffffffffffffffffffffffffff00ff1690557f5db9ee0a495bf2e6ff9c91a7834c1ba4fdd244a5e8aa4e537bd38aeae4b073aa61198161159b565b604080516001600160a01b039092168252519081900360200190a1565b6001600160a01b0382166119f9576040805162461bcd60e51b815260206004820152601f60248201527f45524332303a206d696e7420746f20746865207a65726f206164647265737300604482015290519081900360640190fd5b611a0560008383611cea565b600254611a12908261187d565b6002556001600160a01b038216600090815260208190526040902054611a38908261187d565b6001600160a01b0383166000818152602081815260408083209490945583518581529351929391927fddf252ad1be2c89b69c2b068fc378daa952ba7f163c4a11628f55a4df523b3ef9281900390910190a35050565b6001600160a01b038216611ad35760405162461bcd60e51b81526004018080602001828103825260218152602001806122516021913960400191505060405180910390fd5b611adf82600083611cea565b611b1c816040518060600160405280602281526020016120f5602291396001600160a01b03851660009081526020819052604090205491906117e6565b6001600160a01b038316600090815260208190526040902055600254611b429082611d21565b6002556040805182815290516000916001600160a01b038516917fddf252ad1be2c89b69c2b068fc378daa952ba7f163c4a11628f55a4df523b3ef9181900360200190a35050565b6001600160a01b0380831660009081526007602052604081205490911690611bb184610be2565b6001600160a01b0385811660008181526007602052604080822080547fffffffffffffffffffffffff000000000000000000000000000000000000000016898616908117909155905194955093928616927f3134e8a2e6d97e929a7e54011ea5485d7d196dd5f0ba4d4ef95803e8e3fc257f9190a4611c31828483611d7e565b50505050565b611c3f610bbc565b15611c91576040805162461bcd60e51b815260206004820152601060248201527f5061757361626c653a2070617573656400000000000000000000000000000000604482015290519081900360640190fd5b600580547fffffffffffffffffffffffffffffffffffffffffffffffffffffffffffff00ff166101001790557f62e78cea01bee320cd4e420270b5ea74000d11b0c9f74754ebdbfc544b05a25861198161159b565b4690565b6001600160a01b03808416600090815260076020526040808220548584168352912054611d1c92918216911683611d7e565b505050565b600082821115611d78576040805162461bcd60e51b815260206004820152601e60248201527f536166654d6174683a207375627472616374696f6e206f766572666c6f770000604482015290519081900360640190fd5b50900390565b816001600160a01b0316836001600160a01b031614158015611da05750600081115b15611d1c576001600160a01b03831615611e32576001600160a01b03831660009081526009602052604081205463ffffffff169081611de0576000611e12565b6001600160a01b038516600090815260086020908152604080832063ffffffff60001987011684529091529020600101545b90506000611e208285611d21565b9050611e2e86848484611eb7565b5050505b6001600160a01b03821615611d1c576001600160a01b03821660009081526009602052604081205463ffffffff169081611e6d576000611e9f565b6001600160a01b038416600090815260086020908152604080832063ffffffff60001987011684529091529020600101545b90506000611ead828561187d565b90506114de858484845b6000611edb436040518060600160405280603281526020016121b260329139612037565b905060008463ffffffff16118015611f2457506001600160a01b038516600090815260086020908152604080832063ffffffff6000198901811685529252909120548282169116145b15611f61576001600160a01b038516600090815260086020908152604080832063ffffffff60001989011684529091529020600101829055611fed565b60408051808201825263ffffffff808416825260208083018681526001600160a01b038a166000818152600884528681208b861682528452868120955186549086167fffffffffffffffffffffffffffffffffffffffffffffffffffffffff00000000918216178755925160019687015590815260099092529390208054928801909116919092161790555b604080518481526020810184905281516001600160a01b038816927fdec2bacdd2f05b59de34da9b523dff8be42e5e38e818c82fdb0bae774387a724928290030190a25050505050565b600081640100000000841061208d5760405162461bcd60e51b815260206004820181815283516024840152835190928392604490910191908501908083836000831561183a578181015183820152602001611822565b509192915050565b60408051808201909152600080825260208201529056fe45524332303a207472616e7366657220746f20746865207a65726f206164647265737355503a3a6765745072696f72566f7465733a206e6f74207965742064657465726d696e656445524332303a206275726e20616d6f756e7420657863656564732062616c616e636545524332303a20617070726f766520746f20746865207a65726f206164647265737345524332303a207472616e7366657220616d6f756e7420657863656564732062616c616e6365436f72655265663a3a6f6e6c79476f7665726e6f723a2043616c6c6572206973206e6f74206120676f7665726e6f7255503a3a64656c656761746542795369673a207369676e6174757265206578706972656455503a3a5f7772697465436865636b706f696e743a20626c6f636b206e756d6265722065786365656473203332206269747345524332303a207472616e7366657220616d6f756e74206578636565647320616c6c6f77616e6365436f72655265663a3a6f6e6c79477561726469616e4f72476f7665726e6f723a2043616c6c6572206973206e6f74206120677561726469616e206f7220676f7665726e6f7245524332303a206275726e2066726f6d20746865207a65726f206164647265737345524332303a207472616e736665722066726f6d20746865207a65726f206164647265737345524332303a20617070726f76652066726f6d20746865207a65726f206164647265737355503a3a64656c656761746542795369673a20696e76616c6964207369676e617475726545524332303a2064656372656173656420616c6c6f77616e63652062656c6f77207a65726fa2646970667358221220fca0931f5d47f65e21eab5e2f6dac4d79eec6bce32965c2cedaa946092b6999f64736f6c634300060c0033",
  "devdoc": {
    "kind": "dev",
    "methods": {
      "allowance(address,address)": {
        "details": "See {IERC20-allowance}."
      },
      "approve(address,uint256)": {
        "details": "See {IERC20-approve}. Requirements: - `spender` cannot be the zero address."
      },
      "balanceOf(address)": {
        "details": "See {IERC20-balanceOf}."
      },
      "decimals()": {
        "details": "Returns the number of decimals used to get its user representation. For example, if `decimals` equals `2`, a balance of `505` tokens should be displayed to a user as `5,05` (`505 / 10 ** 2`). Tokens usually opt for a value of 18, imitating the relationship between Ether and Wei. This is the value {ERC20} uses, unless {_setupDecimals} is called. NOTE: This information is only used for _display_ purposes: it in no way affects any of the arithmetic of the contract, including {IERC20-balanceOf} and {IERC20-transfer}."
      },
      "decreaseAllowance(address,uint256)": {
        "details": "Atomically decreases the allowance granted to `spender` by the caller. This is an alternative to {approve} that can be used as a mitigation for problems described in {IERC20-approve}. Emits an {Approval} event indicating the updated allowance. Requirements: - `spender` cannot be the zero address. - `spender` must have allowance for the caller of at least `subtractedValue`."
      },
      "getPriorVotes(address,uint256)": {
        "details": "Block number must be a finalized block or else this function will revert to prevent misinformation.",
        "params": {
          "account": "The address of the account to check",
          "blockNumber": "The block number to get the vote balance at"
        },
        "returns": {
          "_0": "The number of votes the account had as of the given block"
        }
      },
      "increaseAllowance(address,uint256)": {
        "details": "Atomically increases the allowance granted to `spender` by the caller. This is an alternative to {approve} that can be used as a mitigation for problems described in {IERC20-approve}. Emits an {Approval} event indicating the updated allowance. Requirements: - `spender` cannot be the zero address."
      },
      "name()": {
        "details": "Returns the name of the token."
      },
      "paused()": {
        "details": "Returns true if the contract is paused, and false otherwise."
      },
      "symbol()": {
        "details": "Returns the symbol of the token, usually a shorter version of the name."
      },
      "totalSupply()": {
        "details": "See {IERC20-totalSupply}."
      },
      "transfer(address,uint256)": {
        "details": "See {IERC20-transfer}. Requirements: - `recipient` cannot be the zero address. - the caller must have a balance of at least `amount`."
      },
      "transferFrom(address,address,uint256)": {
        "details": "See {IERC20-transferFrom}. Emits an {Approval} event indicating the updated allowance. This is not required by the EIP. See the note at the beginning of {ERC20}. Requirements: - `sender` and `recipient` cannot be the zero address. - `sender` must have a balance of at least `amount`. - the caller must have allowance for ``sender``'s tokens of at least `amount`."
      }
    },
    "version": 1
  },
  "userdoc": {
    "events": {
      "DelegateChanged(address,address,address)": {
        "notice": "An event thats emitted when an account changes its delegate"
      },
      "DelegateVotesChanged(address,uint256,uint256)": {
        "notice": "An event thats emitted when a delegate account's vote balance changes"
      }
    },
    "kind": "user",
    "methods": {
      "DELEGATION_TYPEHASH()": {
        "notice": "The EIP-712 typehash for the delegation struct used by the contract"
      },
      "DOMAIN_TYPEHASH()": {
        "notice": "The EIP-712 typehash for the contract's domain"
      },
      "checkpoints(address,uint32)": {
        "notice": "A record of votes checkpoints for each account, by index"
      },
      "getPriorVotes(address,uint256)": {
        "notice": "Determine the prior number of votes for an account as of a block number"
      },
      "nonces(address)": {
        "notice": "A record of states for signing / validating signatures"
      },
      "numCheckpoints(address)": {
        "notice": "The number of checkpoints for each account"
      }
    },
    "version": 1
  },
  "storageLayout": {
    "storage": [
      {
        "astId": 764,
        "contract": "contracts/UpToken.sol:UpToken",
        "label": "_balances",
        "offset": 0,
        "slot": "0",
        "type": "t_mapping(t_address,t_uint256)"
      },
      {
        "astId": 770,
        "contract": "contracts/UpToken.sol:UpToken",
        "label": "_allowances",
        "offset": 0,
        "slot": "1",
        "type": "t_mapping(t_address,t_mapping(t_address,t_uint256))"
      },
      {
        "astId": 772,
        "contract": "contracts/UpToken.sol:UpToken",
        "label": "_totalSupply",
        "offset": 0,
        "slot": "2",
        "type": "t_uint256"
      },
      {
        "astId": 774,
        "contract": "contracts/UpToken.sol:UpToken",
        "label": "_name",
        "offset": 0,
        "slot": "3",
        "type": "t_string_storage"
      },
      {
        "astId": 776,
        "contract": "contracts/UpToken.sol:UpToken",
        "label": "_symbol",
        "offset": 0,
        "slot": "4",
        "type": "t_string_storage"
      },
      {
        "astId": 778,
        "contract": "contracts/UpToken.sol:UpToken",
        "label": "_decimals",
        "offset": 0,
        "slot": "5",
        "type": "t_uint8"
      },
      {
        "astId": 2370,
        "contract": "contracts/UpToken.sol:UpToken",
        "label": "_paused",
        "offset": 1,
        "slot": "5",
        "type": "t_bool"
      },
      {
        "astId": 15121,
        "contract": "contracts/UpToken.sol:UpToken",
        "label": "_core",
        "offset": 2,
        "slot": "5",
        "type": "t_contract(ICore)10321"
      },
      {
        "astId": 8860,
        "contract": "contracts/UpToken.sol:UpToken",
        "label": "_cap",
        "offset": 0,
        "slot": "6",
        "type": "t_uint256"
      },
      {
        "astId": 8966,
        "contract": "contracts/UpToken.sol:UpToken",
        "label": "_delegates",
        "offset": 0,
        "slot": "7",
        "type": "t_mapping(t_address,t_address)"
      },
      {
        "astId": 8978,
        "contract": "contracts/UpToken.sol:UpToken",
        "label": "checkpoints",
        "offset": 0,
        "slot": "8",
        "type": "t_mapping(t_address,t_mapping(t_uint32,t_struct(Checkpoint)8971_storage))"
      },
      {
        "astId": 8983,
        "contract": "contracts/UpToken.sol:UpToken",
        "label": "numCheckpoints",
        "offset": 0,
        "slot": "9",
        "type": "t_mapping(t_address,t_uint32)"
      },
      {
        "astId": 9000,
        "contract": "contracts/UpToken.sol:UpToken",
        "label": "nonces",
        "offset": 0,
        "slot": "10",
        "type": "t_mapping(t_address,t_uint256)"
      }
    ],
    "types": {
      "t_address": {
        "encoding": "inplace",
        "label": "address",
        "numberOfBytes": "20"
      },
      "t_bool": {
        "encoding": "inplace",
        "label": "bool",
        "numberOfBytes": "1"
      },
      "t_contract(ICore)10321": {
        "encoding": "inplace",
        "label": "contract ICore",
        "numberOfBytes": "20"
      },
      "t_mapping(t_address,t_address)": {
        "encoding": "mapping",
        "key": "t_address",
        "label": "mapping(address => address)",
        "numberOfBytes": "32",
        "value": "t_address"
      },
      "t_mapping(t_address,t_mapping(t_address,t_uint256))": {
        "encoding": "mapping",
        "key": "t_address",
        "label": "mapping(address => mapping(address => uint256))",
        "numberOfBytes": "32",
        "value": "t_mapping(t_address,t_uint256)"
      },
      "t_mapping(t_address,t_mapping(t_uint32,t_struct(Checkpoint)8971_storage))": {
        "encoding": "mapping",
        "key": "t_address",
        "label": "mapping(address => mapping(uint32 => struct UpToken.Checkpoint))",
        "numberOfBytes": "32",
        "value": "t_mapping(t_uint32,t_struct(Checkpoint)8971_storage)"
      },
      "t_mapping(t_address,t_uint256)": {
        "encoding": "mapping",
        "key": "t_address",
        "label": "mapping(address => uint256)",
        "numberOfBytes": "32",
        "value": "t_uint256"
      },
      "t_mapping(t_address,t_uint32)": {
        "encoding": "mapping",
        "key": "t_address",
        "label": "mapping(address => uint32)",
        "numberOfBytes": "32",
        "value": "t_uint32"
      },
      "t_mapping(t_uint32,t_struct(Checkpoint)8971_storage)": {
        "encoding": "mapping",
        "key": "t_uint32",
        "label": "mapping(uint32 => struct UpToken.Checkpoint)",
        "numberOfBytes": "32",
        "value": "t_struct(Checkpoint)8971_storage"
      },
      "t_string_storage": {
        "encoding": "bytes",
        "label": "string",
        "numberOfBytes": "32"
      },
      "t_struct(Checkpoint)8971_storage": {
        "encoding": "inplace",
        "label": "struct UpToken.Checkpoint",
        "members": [
          {
            "astId": 8968,
            "contract": "contracts/UpToken.sol:UpToken",
            "label": "fromBlock",
            "offset": 0,
            "slot": "0",
            "type": "t_uint32"
          },
          {
            "astId": 8970,
            "contract": "contracts/UpToken.sol:UpToken",
            "label": "votes",
            "offset": 0,
            "slot": "1",
            "type": "t_uint256"
          }
        ],
        "numberOfBytes": "64"
      },
      "t_uint256": {
        "encoding": "inplace",
        "label": "uint256",
        "numberOfBytes": "32"
      },
      "t_uint32": {
        "encoding": "inplace",
        "label": "uint32",
        "numberOfBytes": "4"
      },
      "t_uint8": {
        "encoding": "inplace",
        "label": "uint8",
        "numberOfBytes": "1"
      }
    }
  }
}