{
  "address": "0xA2B68e6d4ba6E9E2fC5610E6Ab6A3f849e8FA3F1",
  "abi": [
    {
      "inputs": [
        {
          "internalType": "address",
          "name": "_core",
          "type": "address"
        },
        {
          "internalType": "uint256",
          "name": "_period",
          "type": "uint256"
        },
        {
          "internalType": "uint256",
          "name": "_lockedPeriodAmount",
          "type": "uint256"
        },
        {
          "internalType": "address",
          "name": "_vestingToken",
          "type": "address"
        }
      ],
      "stateMutability": "nonpayable",
      "type": "constructor"
    },
    {
      "anonymous": false,
      "inputs": [
        {
          "indexed": false,
          "internalType": "address",
          "name": "account",
          "type": "address"
        },
        {
          "indexed": false,
          "internalType": "uint256",
          "name": "amount",
          "type": "uint256"
        }
      ],
      "name": "Claim",
      "type": "event"
    },
    {
      "anonymous": false,
      "inputs": [
        {
          "indexed": true,
          "internalType": "address",
          "name": "_core",
          "type": "address"
        }
      ],
      "name": "CoreUpdate",
      "type": "event"
    },
    {
      "anonymous": false,
      "inputs": [
        {
          "indexed": false,
          "internalType": "address",
          "name": "account",
          "type": "address"
        },
        {
          "indexed": false,
          "internalType": "uint256",
          "name": "amount",
          "type": "uint256"
        }
      ],
      "name": "Lock",
      "type": "event"
    },
    {
      "anonymous": false,
      "inputs": [
        {
          "indexed": false,
          "internalType": "address",
          "name": "account",
          "type": "address"
        }
      ],
      "name": "Paused",
      "type": "event"
    },
    {
      "anonymous": false,
      "inputs": [
        {
          "indexed": false,
          "internalType": "address",
          "name": "account",
          "type": "address"
        }
      ],
      "name": "Unpaused",
      "type": "event"
    },
    {
      "inputs": [],
      "name": "LockedPeriodAmountMax",
      "outputs": [
        {
          "internalType": "uint256",
          "name": "",
          "type": "uint256"
        }
      ],
      "stateMutability": "view",
      "type": "function"
    },
    {
      "inputs": [],
      "name": "MASTER_ROLE",
      "outputs": [
        {
          "internalType": "bytes32",
          "name": "",
          "type": "bytes32"
        }
      ],
      "stateMutability": "view",
      "type": "function"
    },
    {
      "inputs": [],
      "name": "claim",
      "outputs": [],
      "stateMutability": "nonpayable",
      "type": "function"
    },
    {
      "inputs": [],
      "name": "core",
      "outputs": [
        {
          "internalType": "contract ICore",
          "name": "",
          "type": "address"
        }
      ],
      "stateMutability": "view",
      "type": "function"
    },
    {
      "inputs": [],
      "name": "getVestingAmount",
      "outputs": [
        {
          "internalType": "uint256",
          "name": "lockedAmount",
          "type": "uint256"
        },
        {
          "internalType": "uint256",
          "name": "claimableAmount",
          "type": "uint256"
        }
      ],
      "stateMutability": "view",
      "type": "function"
    },
    {
      "inputs": [
        {
          "internalType": "address",
          "name": "account",
          "type": "address"
        },
        {
          "internalType": "uint256",
          "name": "amount",
          "type": "uint256"
        }
      ],
      "name": "lock",
      "outputs": [],
      "stateMutability": "nonpayable",
      "type": "function"
    },
    {
      "inputs": [],
      "name": "lockedPeriodAmount",
      "outputs": [
        {
          "internalType": "uint256",
          "name": "",
          "type": "uint256"
        }
      ],
      "stateMutability": "view",
      "type": "function"
    },
    {
      "inputs": [],
      "name": "pause",
      "outputs": [],
      "stateMutability": "nonpayable",
      "type": "function"
    },
    {
      "inputs": [],
      "name": "paused",
      "outputs": [
        {
          "internalType": "bool",
          "name": "",
          "type": "bool"
        }
      ],
      "stateMutability": "view",
      "type": "function"
    },
    {
      "inputs": [],
      "name": "period",
      "outputs": [
        {
          "internalType": "uint256",
          "name": "",
          "type": "uint256"
        }
      ],
      "stateMutability": "view",
      "type": "function"
    },
    {
      "inputs": [
        {
          "internalType": "address",
          "name": "core_",
          "type": "address"
        }
      ],
      "name": "setCore",
      "outputs": [],
      "stateMutability": "nonpayable",
      "type": "function"
    },
    {
      "inputs": [],
      "name": "totalLockedRewards",
      "outputs": [
        {
          "internalType": "uint256",
          "name": "",
          "type": "uint256"
        }
      ],
      "stateMutability": "view",
      "type": "function"
    },
    {
      "inputs": [],
      "name": "unpause",
      "outputs": [],
      "stateMutability": "nonpayable",
      "type": "function"
    },
    {
      "inputs": [
        {
          "internalType": "address",
          "name": "",
          "type": "address"
        },
        {
          "internalType": "uint256",
          "name": "",
          "type": "uint256"
        }
      ],
      "name": "userLockedRewards",
      "outputs": [
        {
          "internalType": "uint256",
          "name": "locked",
          "type": "uint256"
        },
        {
          "internalType": "uint256",
          "name": "timestamp",
          "type": "uint256"
        }
      ],
      "stateMutability": "view",
      "type": "function"
    },
    {
      "inputs": [],
      "name": "vestingToken",
      "outputs": [
        {
          "internalType": "contract IERC20",
          "name": "",
          "type": "address"
        }
      ],
      "stateMutability": "view",
      "type": "function"
    }
  ],
  "transactionHash": "0x194deeff85f962a76e08d7222944e5ac81d66d2e8dd26a95659c14d85046566e",
  "args": [
    "0x40fc3759Ccc4E466650891a91F34Bdd6129094D6",
    300,
    29,
    "0x4C2e91C8eD9eed3aFa2cC5ecBb26ae752c83dA59"
  ],
  "solcInputHash": "2f541bcd60d5e1a907d6462ac5275e07",
  "bytecode": "0x60c06040523480156200001157600080fd5b5060405162001ac938038062001ac983398101604081905262000034916200013d565b600080546001600160a01b03808716610100026001600160a81b031990921691909117909155600180558116620000885760405162461bcd60e51b81526004016200007f90620001fd565b60405180910390fd5b60008311620000ab5760405162461bcd60e51b81526004016200007f9062000245565b60008211620000ce5760405162461bcd60e51b81526004016200007f90620001c0565b600280546001600160a01b0319166001600160a01b0383161790556080839052603b821115620001125760405162461bcd60e51b81526004016200007f9062000189565b5060a052506200027b9050565b80516001600160a01b03811681146200013757600080fd5b92915050565b6000806000806080858703121562000153578384fd5b6200015f86866200011f565b935060208501519250604085015191506200017e86606087016200011f565b905092959194509250565b6020808252601a908201527f696e76616c6964206c6f636b6564506572696f64416d6f756e74000000000000604082015260600190565b6020808252602e9082015260008051602062001aa983398151915260408201526d6f6420616d6f756e74207a65726f60901b606082015260800190565b60208082526028908201527f56657374696e674d61737465723a3a636f6e7374727563746f723a205a65726f604082015267206164647265737360c01b606082015260800190565b602080825260279082015260008051602062001aa98339815191526040820152666f64207a65726f60c81b606082015260800190565b60805160a0516117d8620002d1600039806101d552806104ff528061055e52806105a452806105da528061060c528061063652806106665250806104135280610434528061052f5280610d8852506117d86000f3fe608060405234801561001057600080fd5b50600436106100f55760003560e01c80635c975abb116100975780638456cb59116100665780638456cb59146101b3578063dc224863146101bb578063ef78d4fd146101c3578063f2f4eb26146101cb576100f5565b80635c975abb1461017b578063635938ce1461019057806363a44f121461019857806380009630146101a0576100f5565b806329da27f2116100d357806329da27f2146101425780633f4ba83a146101635780633f57faa91461016b5780634e71d92d14610173576100f5565b806305e97bc6146100fa57806319d152fa14610118578063282d3fdf1461012d575b600080fd5b6101026101d3565b60405161010f919061136e565b60405180910390f35b6101206101f7565b60405161010f919061131c565b61014061013b3660046112b6565b610213565b005b6101556101503660046112b6565b6107a4565b60405161010f929190611764565b6101406107dd565b6101556108ad565b610140610997565b610183610a96565b60405161010f9190611363565b610102610a9f565b610102610aa4565b6101406101ae36600461129b565b610aaa565b610140610be4565b610102610d62565b610102610d86565b610120610daa565b7f000000000000000000000000000000000000000000000000000000000000000081565b60025473ffffffffffffffffffffffffffffffffffffffff1681565b6000546040517f91d1485400000000000000000000000000000000000000000000000000000000815261010090910473ffffffffffffffffffffffffffffffffffffffff16906391d148549061028f907f8b8c0776df2c2176edf6f82391c35ea4891146d7a976ee36fd07f1a6fb4ead4c903390600401611377565b60206040518083038186803b1580156102a757600080fd5b505afa1580156102bb573d6000803e3d6000fd5b505050506040513d601f19601f820116820180604052508101906102df91906112e0565b6103045760405162461bcd60e51b81526004016102fb9061145a565b60405180910390fd5b73ffffffffffffffffffffffffffffffffffffffff82166000908152600360209081526040808320805482518185028101850190935280835260609492939192909184015b8282101561038f57838290600052602060002090600202016040518060400160405290816000820154815260200160018201548152505081526020019060010190610349565b50505050905060004290506103a261121a565b6000805b845181101561040e578481815181106103bb57fe5b60200260200101519250826020015184106104015782516103dd908390610dcb565b91508481815181106103eb57fe5b602002602001016103fa61121a565b9052610406565b61040e565b6001016103a6565b5060007f00000000000000000000000000000000000000000000000000000000000000007f0000000000000000000000000000000000000000000000000000000000000000858161045b57fe5b04029050600061046961121a565b73ffffffffffffffffffffffffffffffffffffffff891660009081526003602052604081206104989082611234565b84156104fa5773ffffffffffffffffffffffffffffffffffffffff8a1660009081526003602090815260408083208151808301909252888252818301888152815460018181018455928652939094209151600290930290910191825591519101555b60005b7f000000000000000000000000000000000000000000000000000000000000000081101561074d5761055485600183017f000000000000000000000000000000000000000000000000000000000000000002610dcb565b935060006105828b7f0000000000000000000000000000000000000000000000000000000000000000610df9565b61059c578115610593576000610595565b8a5b905061068d565b60006105c88c7f0000000000000000000000000000000000000000000000000000000000000000610e2b565b1115610660578115610603576105fe8b7f0000000000000000000000000000000000000000000000000000000000000000610df9565b610595565b6105956106308c7f0000000000000000000000000000000000000000000000000000000000000000610e2b565b61065a8d7f0000000000000000000000000000000000000000000000000000000000000000610df9565b90610dcb565b61068a8b7f0000000000000000000000000000000000000000000000000000000000000000610df9565b90505b60408051808201909152818152602081018690529350825b8a518110156106f2578a81815181106106ba57fe5b6020026020010151985085896020015114156106ea57885185516106dd91610dcb565b85526001810193506106f2565b6001016106a5565b508351156107445773ffffffffffffffffffffffffffffffffffffffff8c1660009081526003602090815260408220805460018181018355918452928290208751600290940201928355908601519101555b506001016104fd565b5060045461075b908a610dcb565b6004556040517f625fed9875dada8643f2418b838ae0bc78d9a148a18eee4ee1979ff0f3f5d42790610790908c908c9061133d565b60405180910390a150505050505050505050565b600360205281600052604060002081815481106107bd57fe5b600091825260209091206002909102018054600190910154909250905082565b6000546040517fe43581b800000000000000000000000000000000000000000000000000000000815261010090910473ffffffffffffffffffffffffffffffffffffffff169063e43581b89061083790339060040161131c565b60206040518083038186803b15801561084f57600080fd5b505afa158015610863573d6000803e3d6000fd5b505050506040513d601f19601f8201168201806040525081019061088791906112e0565b6108a35760405162461bcd60e51b81526004016102fb906114b7565b6108ab610e5d565b565b33600090815260036020908152604080832080548251818502810185019093528083528493606093929190859084015b82821015610923578382906000526020600020906002020160405180604001604052908160008201548152602001600182015481525050815260200190600101906108dd565b505050509050600042905061093661121a565b60005b835181101561098f5783818151811061094e57fe5b6020026020010151915081602001518310610977578151610970908690610dcb565b9450610987565b8151610984908790610dcb565b95505b600101610939565b505050509091565b336000908152600360205260409020426109af61121a565b6000805b8454811015610a3c578481815481106109c857fe5b600091825260209182902060408051808201909152600290920201805482526001015491810182905293508410610a2f578251610a06908390610dcb565b9150848181548110610a1457fe5b60009182526020822060029091020181815560010155610a34565b610a3c565b6001016109b3565b50600454610a4a9082610ee9565b600455610a573382610f11565b7f47cee97cb7acd717b3c0aa1435d004cd5b3c8c57d70dbceb4e4458bbd60e39d43382604051610a8892919061133d565b60405180910390a150505050565b60005460ff1690565b603b81565b60045481565b6000546040517fe43581b800000000000000000000000000000000000000000000000000000000815261010090910473ffffffffffffffffffffffffffffffffffffffff169063e43581b890610b0490339060040161131c565b60206040518083038186803b158015610b1c57600080fd5b505afa158015610b30573d6000803e3d6000fd5b505050506040513d601f19601f82011682018060405250810190610b5491906112e0565b610b705760405162461bcd60e51b81526004016102fb906114b7565b600080547fffffffffffffffffffffff0000000000000000000000000000000000000000ff1661010073ffffffffffffffffffffffffffffffffffffffff841690810291909117825560405190917fad9400e618eb1344fde53db22397a1b82c765527ecbba3a5c86bcac15090828b91a250565b6000546040517fe43581b800000000000000000000000000000000000000000000000000000000815261010090910473ffffffffffffffffffffffffffffffffffffffff169063e43581b890610c3e90339060040161131c565b60206040518083038186803b158015610c5657600080fd5b505afa158015610c6a573d6000803e3d6000fd5b505050506040513d601f19601f82011682018060405250810190610c8e91906112e0565b80610d3e57506000546040517f0c68ba2100000000000000000000000000000000000000000000000000000000815261010090910473ffffffffffffffffffffffffffffffffffffffff1690630c68ba2190610cee90339060040161131c565b60206040518083038186803b158015610d0657600080fd5b505afa158015610d1a573d6000803e3d6000fd5b505050506040513d601f19601f82011682018060405250810190610d3e91906112e0565b610d5a5760405162461bcd60e51b81526004016102fb9061164d565b6108ab610f39565b7f8b8c0776df2c2176edf6f82391c35ea4891146d7a976ee36fd07f1a6fb4ead4c81565b7f000000000000000000000000000000000000000000000000000000000000000081565b600054610100900473ffffffffffffffffffffffffffffffffffffffff1690565b600082820183811015610df05760405162461bcd60e51b81526004016102fb90611423565b90505b92915050565b6000808211610e1a5760405162461bcd60e51b81526004016102fb906115a8565b818381610e2357fe5b049392505050565b6000808211610e4c5760405162461bcd60e51b81526004016102fb90611616565b818381610e5557fe5b069392505050565b610e65610a96565b610e815760405162461bcd60e51b81526004016102fb906113ec565b600080547fffffffffffffffffffffffffffffffffffffffffffffffffffffffffffffff001690557f5db9ee0a495bf2e6ff9c91a7834c1ba4fdd244a5e8aa4e537bd38aeae4b073aa610ed2610fae565b604051610edf919061131c565b60405180910390a1565b600082821115610f0b5760405162461bcd60e51b81526004016102fb90611514565b50900390565b600254610f359073ffffffffffffffffffffffffffffffffffffffff168383610fb2565b5050565b610f41610a96565b15610f5e5760405162461bcd60e51b81526004016102fb906115df565b600080547fffffffffffffffffffffffffffffffffffffffffffffffffffffffffffffff001660011790557f62e78cea01bee320cd4e420270b5ea74000d11b0c9f74754ebdbfc544b05a258610ed25b3390565b6110538363a9059cbb60e01b8484604051602401610fd192919061133d565b604080517fffffffffffffffffffffffffffffffffffffffffffffffffffffffffffffffe08184030181529190526020810180517bffffffffffffffffffffffffffffffffffffffffffffffffffffffff167fffffffff0000000000000000000000000000000000000000000000000000000090931692909217909152611058565b505050565b60606110ba826040518060400160405280602081526020017f5361666545524332303a206c6f772d6c6576656c2063616c6c206661696c65648152508573ffffffffffffffffffffffffffffffffffffffff166110f49092919063ffffffff16565b80519091501561105357808060200190518101906110d891906112e0565b6110535760405162461bcd60e51b81526004016102fb90611707565b6060611103848460008561110d565b90505b9392505050565b60608247101561112f5760405162461bcd60e51b81526004016102fb9061154b565b611138856111db565b6111545760405162461bcd60e51b81526004016102fb906116d0565b600060608673ffffffffffffffffffffffffffffffffffffffff16858760405161117e9190611300565b60006040518083038185875af1925050503d80600081146111bb576040519150601f19603f3d011682016040523d82523d6000602084013e6111c0565b606091505b50915091506111d08282866111e1565b979650505050505050565b3b151590565b606083156111f0575081611106565b8251156112005782518084602001fd5b8160405162461bcd60e51b81526004016102fb919061139b565b604051806040016040528060008152602001600081525090565b50805460008255600202906000526020600020908101906112559190611258565b50565b5b808211156112735760008082556001820155600201611259565b5090565b803573ffffffffffffffffffffffffffffffffffffffff81168114610df357600080fd5b6000602082840312156112ac578081fd5b6111068383611277565b600080604083850312156112c8578081fd5b6112d28484611277565b946020939093013593505050565b6000602082840312156112f1578081fd5b81518015158114610df0578182fd5b60008251611312818460208701611772565b9190910192915050565b73ffffffffffffffffffffffffffffffffffffffff91909116815260200190565b73ffffffffffffffffffffffffffffffffffffffff929092168252602082015260400190565b901515815260200190565b90815260200190565b91825273ffffffffffffffffffffffffffffffffffffffff16602082015260400190565b60006020825282518060208401526113ba816040850160208701611772565b601f017fffffffffffffffffffffffffffffffffffffffffffffffffffffffffffffffe0169190910160400192915050565b60208082526014908201527f5061757361626c653a206e6f7420706175736564000000000000000000000000604082015260600190565b6020808252601b908201527f536166654d6174683a206164646974696f6e206f766572666c6f770000000000604082015260600190565b6020808252602b908201527f436f72655265663a3a6f6e6c794d61737465723a2043616c6c6572206973206e60408201527f6f742061206d6173746572000000000000000000000000000000000000000000606082015260800190565b6020808252602f908201527f436f72655265663a3a6f6e6c79476f7665726e6f723a2043616c6c657220697360408201527f206e6f74206120676f7665726e6f720000000000000000000000000000000000606082015260800190565b6020808252601e908201527f536166654d6174683a207375627472616374696f6e206f766572666c6f770000604082015260600190565b60208082526026908201527f416464726573733a20696e73756666696369656e742062616c616e636520666f60408201527f722063616c6c0000000000000000000000000000000000000000000000000000606082015260800190565b6020808252601a908201527f536166654d6174683a206469766973696f6e206279207a65726f000000000000604082015260600190565b60208082526010908201527f5061757361626c653a2070617573656400000000000000000000000000000000604082015260600190565b60208082526018908201527f536166654d6174683a206d6f64756c6f206279207a65726f0000000000000000604082015260600190565b60208082526045908201527f436f72655265663a3a6f6e6c79477561726469616e4f72476f7665726e6f723a60408201527f2043616c6c6572206973206e6f74206120677561726469616e206f7220676f7660608201527f65726e6f72000000000000000000000000000000000000000000000000000000608082015260a00190565b6020808252601d908201527f416464726573733a2063616c6c20746f206e6f6e2d636f6e7472616374000000604082015260600190565b6020808252602a908201527f5361666545524332303a204552433230206f7065726174696f6e20646964206e60408201527f6f74207375636365656400000000000000000000000000000000000000000000606082015260800190565b918252602082015260400190565b60005b8381101561178d578181015183820152602001611775565b8381111561179c576000848401525b5050505056fea2646970667358221220bac918801711300eb27e0ddd703293e19ede1257b1f7d32f6c558a770550143f64736f6c634300060c003356657374696e674d61737465723a3a636f6e7374727563746f723a2050657269",
  "devdoc": {
    "kind": "dev",
    "methods": {
      "paused()": {
        "details": "Returns true if the contract is paused, and false otherwise."
      }
    },
    "version": 1
  },
  "userdoc": {
    "kind": "user",
    "methods": {},
    "version": 1
  },
  "storageLayout": {
    "storage": [
      {
        "astId": 2370,
        "contract": "contracts/VestingMaster.sol:VestingMaster",
        "label": "_paused",
        "offset": 0,
        "slot": "0",
        "type": "t_bool"
      },
      {
        "astId": 11642,
        "contract": "contracts/VestingMaster.sol:VestingMaster",
        "label": "_core",
        "offset": 1,
        "slot": "0",
        "type": "t_contract(ICore)11634"
      },
      {
        "astId": 2455,
        "contract": "contracts/VestingMaster.sol:VestingMaster",
        "label": "_status",
        "offset": 0,
        "slot": "1",
        "type": "t_uint256"
      },
      {
        "astId": 9992,
        "contract": "contracts/VestingMaster.sol:VestingMaster",
        "label": "vestingToken",
        "offset": 0,
        "slot": "2",
        "type": "t_contract(IERC20)1328"
      },
      {
        "astId": 9997,
        "contract": "contracts/VestingMaster.sol:VestingMaster",
        "label": "userLockedRewards",
        "offset": 0,
        "slot": "3",
        "type": "t_mapping(t_address,t_array(t_struct(LockedReward)9986_storage)dyn_storage)"
      },
      {
        "astId": 10006,
        "contract": "contracts/VestingMaster.sol:VestingMaster",
        "label": "totalLockedRewards",
        "offset": 0,
        "slot": "4",
        "type": "t_uint256"
      }
    ],
    "types": {
      "t_address": {
        "encoding": "inplace",
        "label": "address",
        "numberOfBytes": "20"
      },
      "t_array(t_struct(LockedReward)9986_storage)dyn_storage": {
        "base": "t_struct(LockedReward)9986_storage",
        "encoding": "dynamic_array",
        "label": "struct VestingMaster.LockedReward[]",
        "numberOfBytes": "32"
      },
      "t_bool": {
        "encoding": "inplace",
        "label": "bool",
        "numberOfBytes": "1"
      },
      "t_contract(ICore)11634": {
        "encoding": "inplace",
        "label": "contract ICore",
        "numberOfBytes": "20"
      },
      "t_contract(IERC20)1328": {
        "encoding": "inplace",
        "label": "contract IERC20",
        "numberOfBytes": "20"
      },
      "t_mapping(t_address,t_array(t_struct(LockedReward)9986_storage)dyn_storage)": {
        "encoding": "mapping",
        "key": "t_address",
        "label": "mapping(address => struct VestingMaster.LockedReward[])",
        "numberOfBytes": "32",
        "value": "t_array(t_struct(LockedReward)9986_storage)dyn_storage"
      },
      "t_struct(LockedReward)9986_storage": {
        "encoding": "inplace",
        "label": "struct VestingMaster.LockedReward",
        "members": [
          {
            "astId": 9983,
            "contract": "contracts/VestingMaster.sol:VestingMaster",
            "label": "locked",
            "offset": 0,
            "slot": "0",
            "type": "t_uint256"
          },
          {
            "astId": 9985,
            "contract": "contracts/VestingMaster.sol:VestingMaster",
            "label": "timestamp",
            "offset": 0,
            "slot": "1",
            "type": "t_uint256"
          }
        ],
        "numberOfBytes": "64"
      },
      "t_uint256": {
        "encoding": "inplace",
        "label": "uint256",
        "numberOfBytes": "32"
      }
    }
  }
}